{
  "_format": "hh-sol-artifact-1",
  "contractName": "Ikimina",
  "sourceName": "contracts/Ikimina.sol",
  "abi": [
    {
      "inputs": [],
      "stateMutability": "nonpayable",
      "type": "constructor"
    },
    {
      "anonymous": false,
      "inputs": [
        {
          "indexed": true,
          "internalType": "address",
          "name": "oldAdmin",
          "type": "address"
        },
        {
          "indexed": true,
          "internalType": "address",
          "name": "newAdmin",
          "type": "address"
        }
      ],
      "name": "AdminTransferCompleted",
      "type": "event"
    },
    {
      "anonymous": false,
      "inputs": [
        {
          "indexed": true,
          "internalType": "address",
          "name": "currentAdmin",
          "type": "address"
        },
        {
          "indexed": true,
          "internalType": "address",
          "name": "pendingAdmin",
          "type": "address"
        }
      ],
      "name": "AdminTransferInitiated",
      "type": "event"
    },
    {
      "anonymous": false,
      "inputs": [
        {
          "indexed": true,
          "internalType": "address",
          "name": "member",
          "type": "address"
        },
        {
          "indexed": false,
          "internalType": "uint256",
          "name": "amount",
          "type": "uint256"
        },
        {
          "indexed": false,
          "internalType": "uint256",
          "name": "newSavings",
          "type": "uint256"
        },
        {
          "indexed": false,
          "internalType": "uint256",
          "name": "newTotalPool",
          "type": "uint256"
        },
        {
          "indexed": false,
          "internalType": "uint256",
          "name": "timestamp",
          "type": "uint256"
        }
      ],
      "name": "ContributionMade",
      "type": "event"
    },
    {
      "anonymous": false,
      "inputs": [
        {
          "indexed": true,
          "internalType": "address",
          "name": "member",
          "type": "address"
        },
        {
          "indexed": false,
          "internalType": "uint256",
          "name": "amount",
          "type": "uint256"
        },
        {
          "indexed": false,
          "internalType": "uint256",
          "name": "timestamp",
          "type": "uint256"
        }
      ],
      "name": "DividendClaimed",
      "type": "event"
    },
    {
      "anonymous": false,
      "inputs": [
        {
          "indexed": true,
          "internalType": "uint256",
          "name": "termId",
          "type": "uint256"
        },
        {
          "indexed": false,
          "internalType": "uint256",
          "name": "totalDividend",
          "type": "uint256"
        },
        {
          "indexed": false,
          "internalType": "uint256",
          "name": "memberShare",
          "type": "uint256"
        },
        {
          "indexed": false,
          "internalType": "uint256",
          "name": "timestamp",
          "type": "uint256"
        }
      ],
      "name": "DividendDistributed",
      "type": "event"
    },
    {
      "anonymous": false,
      "inputs": [
        {
          "indexed": true,
          "internalType": "uint256",
          "name": "requestId",
          "type": "uint256"
        },
        {
          "indexed": true,
          "internalType": "address",
          "name": "borrower",
          "type": "address"
        },
        {
          "indexed": false,
          "internalType": "uint256",
          "name": "amount",
          "type": "uint256"
        },
        {
          "indexed": false,
          "internalType": "uint256",
          "name": "timestamp",
          "type": "uint256"
        }
      ],
      "name": "LoanApproved",
      "type": "event"
    },
    {
      "anonymous": false,
      "inputs": [
        {
          "indexed": true,
          "internalType": "address",
          "name": "borrower",
          "type": "address"
        },
        {
          "indexed": false,
          "internalType": "uint256",
          "name": "amountOwed",
          "type": "uint256"
        },
        {
          "indexed": false,
          "internalType": "uint256",
          "name": "deadline",
          "type": "uint256"
        },
        {
          "indexed": false,
          "internalType": "uint256",
          "name": "timestamp",
          "type": "uint256"
        }
      ],
      "name": "LoanDefaulted",
      "type": "event"
    },
    {
      "anonymous": false,
      "inputs": [
        {
          "indexed": true,
          "internalType": "address",
          "name": "borrower",
          "type": "address"
        },
        {
          "indexed": false,
          "internalType": "uint256",
          "name": "principal",
          "type": "uint256"
        },
        {
          "indexed": false,
          "internalType": "uint256",
          "name": "totalOwed",
          "type": "uint256"
        },
        {
          "indexed": false,
          "internalType": "uint256",
          "name": "deadline",
          "type": "uint256"
        },
        {
          "indexed": false,
          "internalType": "uint256",
          "name": "timestamp",
          "type": "uint256"
        }
      ],
      "name": "LoanDisbursed",
      "type": "event"
    },
    {
      "anonymous": false,
      "inputs": [
        {
          "indexed": true,
          "internalType": "uint256",
          "name": "requestId",
          "type": "uint256"
        },
        {
          "indexed": true,
          "internalType": "address",
          "name": "borrower",
          "type": "address"
        },
        {
          "indexed": false,
          "internalType": "uint256",
          "name": "timestamp",
          "type": "uint256"
        }
      ],
      "name": "LoanRejected",
      "type": "event"
    },
    {
      "anonymous": false,
      "inputs": [
        {
          "indexed": true,
          "internalType": "address",
          "name": "borrower",
          "type": "address"
        },
        {
          "indexed": false,
          "internalType": "uint256",
          "name": "amountPaid",
          "type": "uint256"
        },
        {
          "indexed": false,
          "internalType": "uint256",
          "name": "remainingOwed",
          "type": "uint256"
        },
        {
          "indexed": false,
          "internalType": "bool",
          "name": "loanClosed",
          "type": "bool"
        },
        {
          "indexed": false,
          "internalType": "uint256",
          "name": "timestamp",
          "type": "uint256"
        }
      ],
      "name": "LoanRepaid",
      "type": "event"
    },
    {
      "anonymous": false,
      "inputs": [
        {
          "indexed": true,
          "internalType": "uint256",
          "name": "requestId",
          "type": "uint256"
        },
        {
          "indexed": true,
          "internalType": "address",
          "name": "borrower",
          "type": "address"
        },
        {
          "indexed": false,
          "internalType": "uint256",
          "name": "amount",
          "type": "uint256"
        },
        {
          "indexed": false,
          "internalType": "uint256",
          "name": "timestamp",
          "type": "uint256"
        }
      ],
      "name": "LoanRequested",
      "type": "event"
    },
    {
      "anonymous": false,
      "inputs": [
        {
          "indexed": true,
          "internalType": "address",
          "name": "wallet",
          "type": "address"
        },
        {
          "indexed": false,
          "internalType": "string",
          "name": "name",
          "type": "string"
        },
        {
          "indexed": false,
          "internalType": "uint256",
          "name": "timestamp",
          "type": "uint256"
        }
      ],
      "name": "MemberRegistered",
      "type": "event"
    },
    {
      "anonymous": false,
      "inputs": [
        {
          "indexed": true,
          "internalType": "address",
          "name": "wallet",
          "type": "address"
        },
        {
          "indexed": false,
          "internalType": "uint256",
          "name": "timestamp",
          "type": "uint256"
        }
      ],
      "name": "MemberRemoved",
      "type": "event"
    },
    {
      "anonymous": false,
      "inputs": [
        {
          "indexed": false,
          "internalType": "address",
          "name": "account",
          "type": "address"
        }
      ],
      "name": "Paused",
      "type": "event"
    },
    {
      "anonymous": false,
      "inputs": [
        {
          "indexed": true,
          "internalType": "address",
          "name": "borrower",
          "type": "address"
        },
        {
          "indexed": false,
          "internalType": "uint256",
          "name": "penaltyAmount",
          "type": "uint256"
        },
        {
          "indexed": false,
          "internalType": "uint256",
          "name": "timestamp",
          "type": "uint256"
        }
      ],
      "name": "PenaltyApplied",
      "type": "event"
    },
    {
      "anonymous": false,
      "inputs": [
        {
          "indexed": true,
          "internalType": "uint256",
          "name": "termId",
          "type": "uint256"
        },
        {
          "indexed": false,
          "internalType": "uint256",
          "name": "startTime",
          "type": "uint256"
        },
        {
          "indexed": false,
          "internalType": "uint256",
          "name": "endTime",
          "type": "uint256"
        }
      ],
      "name": "TermStarted",
      "type": "event"
    },
    {
      "anonymous": false,
      "inputs": [
        {
          "indexed": false,
          "internalType": "address",
          "name": "account",
          "type": "address"
        }
      ],
      "name": "Unpaused",
      "type": "event"
    },
    {
      "anonymous": false,
      "inputs": [
        {
          "indexed": true,
          "internalType": "address",
          "name": "member",
          "type": "address"
        },
        {
          "indexed": false,
          "internalType": "uint256",
          "name": "amount",
          "type": "uint256"
        },
        {
          "indexed": false,
          "internalType": "uint256",
          "name": "remainingSavings",
          "type": "uint256"
        },
        {
          "indexed": false,
          "internalType": "uint256",
          "name": "timestamp",
          "type": "uint256"
        }
      ],
      "name": "WithdrawalMade",
      "type": "event"
    },
    {
      "stateMutability": "payable",
      "type": "fallback"
    },
    {
      "inputs": [],
      "name": "DEFAULT_MEMBER_ADDER",
      "outputs": [
        {
          "internalType": "address",
          "name": "",
          "type": "address"
        }
      ],
      "stateMutability": "view",
      "type": "function"
    },
    {
      "inputs": [],
      "name": "DIVIDEND_BPS",
      "outputs": [
        {
          "internalType": "uint256",
          "name": "",
          "type": "uint256"
        }
      ],
      "stateMutability": "view",
      "type": "function"
    },
    {
      "inputs": [],
      "name": "INTEREST_BPS",
      "outputs": [
        {
          "internalType": "uint256",
          "name": "",
          "type": "uint256"
        }
      ],
      "stateMutability": "view",
      "type": "function"
    },
    {
      "inputs": [],
      "name": "LATE_PENALTY_BPS",
      "outputs": [
        {
          "internalType": "uint256",
          "name": "",
          "type": "uint256"
        }
      ],
      "stateMutability": "view",
      "type": "function"
    },
    {
      "inputs": [],
      "name": "LOAN_DURATION",
      "outputs": [
        {
          "internalType": "uint256",
          "name": "",
          "type": "uint256"
        }
      ],
      "stateMutability": "view",
      "type": "function"
    },
    {
      "inputs": [],
      "name": "LOAN_MULTIPLIER",
      "outputs": [
        {
          "internalType": "uint256",
          "name": "",
          "type": "uint256"
        }
      ],
      "stateMutability": "view",
      "type": "function"
    },
    {
      "inputs": [],
      "name": "MAX_MEMBERS",
      "outputs": [
        {
          "internalType": "uint256",
          "name": "",
          "type": "uint256"
        }
      ],
      "stateMutability": "view",
      "type": "function"
    },
    {
      "inputs": [],
      "name": "MIN_CONTRIBUTION",
      "outputs": [
        {
          "internalType": "uint256",
          "name": "",
          "type": "uint256"
        }
      ],
      "stateMutability": "view",
      "type": "function"
    },
    {
      "inputs": [],
      "name": "TERM_DURATION",
      "outputs": [
        {
          "internalType": "uint256",
          "name": "",
          "type": "uint256"
        }
      ],
      "stateMutability": "view",
      "type": "function"
    },
    {
      "inputs": [],
      "name": "acceptAdminTransfer",
      "outputs": [],
      "stateMutability": "nonpayable",
      "type": "function"
    },
    {
      "inputs": [],
      "name": "admin",
      "outputs": [
        {
          "internalType": "address",
          "name": "",
          "type": "address"
        }
      ],
      "stateMutability": "view",
      "type": "function"
    },
    {
      "inputs": [
        {
          "internalType": "uint256",
          "name": "_requestId",
          "type": "uint256"
        }
      ],
      "name": "approveLoan",
      "outputs": [],
      "stateMutability": "nonpayable",
      "type": "function"
    },
    {
      "inputs": [
        {
          "internalType": "address",
          "name": "",
          "type": "address"
        }
      ],
      "name": "canAddMembers",
      "outputs": [
        {
          "internalType": "bool",
          "name": "",
          "type": "bool"
        }
      ],
      "stateMutability": "view",
      "type": "function"
    },
    {
      "inputs": [],
      "name": "claimDividends",
      "outputs": [],
      "stateMutability": "nonpayable",
      "type": "function"
    },
    {
      "inputs": [],
      "name": "contractBalance",
      "outputs": [
        {
          "internalType": "uint256",
          "name": "",
          "type": "uint256"
        }
      ],
      "stateMutability": "view",
      "type": "function"
    },
    {
      "inputs": [],
      "name": "contribute",
      "outputs": [],
      "stateMutability": "payable",
      "type": "function"
    },
    {
      "inputs": [],
      "name": "currentTermId",
      "outputs": [
        {
          "internalType": "uint256",
          "name": "",
          "type": "uint256"
        }
      ],
      "stateMutability": "view",
      "type": "function"
    },
    {
      "inputs": [],
      "name": "distributeDividends",
      "outputs": [],
      "stateMutability": "nonpayable",
      "type": "function"
    },
    {
      "inputs": [
        {
          "internalType": "address",
          "name": "_borrower",
          "type": "address"
        }
      ],
      "name": "flagDefault",
      "outputs": [],
      "stateMutability": "nonpayable",
      "type": "function"
    },
    {
      "inputs": [],
      "name": "getCurrentTerm",
      "outputs": [
        {
          "internalType": "uint256",
          "name": "termId",
          "type": "uint256"
        },
        {
          "internalType": "uint256",
          "name": "startTime",
          "type": "uint256"
        },
        {
          "internalType": "uint256",
          "name": "endTime",
          "type": "uint256"
        },
        {
          "internalType": "uint256",
          "name": "interestCollected",
          "type": "uint256"
        },
        {
          "internalType": "bool",
          "name": "distributed",
          "type": "bool"
        }
      ],
      "stateMutability": "view",
      "type": "function"
    },
    {
      "inputs": [
        {
          "internalType": "address",
          "name": "_wallet",
          "type": "address"
        }
      ],
      "name": "getLoan",
      "outputs": [
        {
          "internalType": "uint256",
          "name": "principal",
          "type": "uint256"
        },
        {
          "internalType": "uint256",
          "name": "totalOwed",
          "type": "uint256"
        },
        {
          "internalType": "uint256",
          "name": "amountRepaid",
          "type": "uint256"
        },
        {
          "internalType": "uint256",
          "name": "remainingOwed",
          "type": "uint256"
        },
        {
          "internalType": "uint256",
          "name": "deadline",
          "type": "uint256"
        },
        {
          "internalType": "enum Ikimina.LoanStatus",
          "name": "status",
          "type": "uint8"
        }
      ],
      "stateMutability": "view",
      "type": "function"
    },
    {
      "inputs": [
        {
          "internalType": "uint256",
          "name": "_requestId",
          "type": "uint256"
        }
      ],
      "name": "getLoanRequest",
      "outputs": [
        {
          "internalType": "address",
          "name": "borrower",
          "type": "address"
        },
        {
          "internalType": "uint256",
          "name": "amount",
          "type": "uint256"
        },
        {
          "internalType": "uint256",
          "name": "requestedAt",
          "type": "uint256"
        },
        {
          "internalType": "bool",
          "name": "approved",
          "type": "bool"
        },
        {
          "internalType": "bool",
          "name": "rejected",
          "type": "bool"
        }
      ],
      "stateMutability": "view",
      "type": "function"
    },
    {
      "inputs": [
        {
          "internalType": "address",
          "name": "_wallet",
          "type": "address"
        }
      ],
      "name": "getMember",
      "outputs": [
        {
          "internalType": "string",
          "name": "name",
          "type": "string"
        },
        {
          "internalType": "string",
          "name": "email",
          "type": "string"
        },
        {
          "internalType": "string",
          "name": "phone",
          "type": "string"
        },
        {
          "internalType": "bool",
          "name": "isRegistered",
          "type": "bool"
        },
        {
          "internalType": "bool",
          "name": "isActive",
          "type": "bool"
        },
        {
          "internalType": "uint256",
          "name": "savings",
          "type": "uint256"
        },
        {
          "internalType": "uint256",
          "name": "pendingDividends",
          "type": "uint256"
        },
        {
          "internalType": "uint256",
          "name": "joinedAt",
          "type": "uint256"
        }
      ],
      "stateMutability": "view",
      "type": "function"
    },
    {
      "inputs": [],
      "name": "getMemberList",
      "outputs": [
        {
          "internalType": "address[]",
          "name": "",
          "type": "address[]"
        }
      ],
      "stateMutability": "view",
      "type": "function"
    },
    {
      "inputs": [
        {
          "internalType": "address",
          "name": "_newAdmin",
          "type": "address"
        }
      ],
      "name": "initiateAdminTransfer",
      "outputs": [],
      "stateMutability": "nonpayable",
      "type": "function"
    },
    {
      "inputs": [],
      "name": "loanRequestCount",
      "outputs": [
        {
          "internalType": "uint256",
          "name": "",
          "type": "uint256"
        }
      ],
      "stateMutability": "view",
      "type": "function"
    },
    {
      "inputs": [
        {
          "internalType": "uint256",
          "name": "",
          "type": "uint256"
        }
      ],
      "name": "loanRequests",
      "outputs": [
        {
          "internalType": "address",
          "name": "borrower",
          "type": "address"
        },
        {
          "internalType": "uint256",
          "name": "amount",
          "type": "uint256"
        },
        {
          "internalType": "uint256",
          "name": "requestedAt",
          "type": "uint256"
        },
        {
          "internalType": "bool",
          "name": "approved",
          "type": "bool"
        },
        {
          "internalType": "bool",
          "name": "rejected",
          "type": "bool"
        }
      ],
      "stateMutability": "view",
      "type": "function"
    },
    {
      "inputs": [
        {
          "internalType": "address",
          "name": "_wallet",
          "type": "address"
        }
      ],
      "name": "maxLoanAmount",
      "outputs": [
        {
          "internalType": "uint256",
          "name": "",
          "type": "uint256"
        }
      ],
      "stateMutability": "view",
      "type": "function"
    },
    {
      "inputs": [],
      "name": "memberAdder",
      "outputs": [
        {
          "internalType": "address",
          "name": "",
          "type": "address"
        }
      ],
      "stateMutability": "view",
      "type": "function"
    },
    {
      "inputs": [],
      "name": "memberCount",
      "outputs": [
        {
          "internalType": "uint256",
          "name": "",
          "type": "uint256"
        }
      ],
      "stateMutability": "view",
      "type": "function"
    },
    {
      "inputs": [],
      "name": "pause",
      "outputs": [],
      "stateMutability": "nonpayable",
      "type": "function"
    },
    {
      "inputs": [],
      "name": "paused",
      "outputs": [
        {
          "internalType": "bool",
          "name": "",
          "type": "bool"
        }
      ],
      "stateMutability": "view",
      "type": "function"
    },
    {
      "inputs": [],
      "name": "pendingAdmin",
      "outputs": [
        {
          "internalType": "address",
          "name": "",
          "type": "address"
        }
      ],
      "stateMutability": "view",
      "type": "function"
    },
    {
      "inputs": [
        {
          "internalType": "string",
          "name": "_name",
          "type": "string"
        },
        {
          "internalType": "string",
          "name": "_email",
          "type": "string"
        },
        {
          "internalType": "string",
          "name": "_phone",
          "type": "string"
        },
        {
          "internalType": "address",
          "name": "_wallet",
          "type": "address"
        }
      ],
      "name": "register",
      "outputs": [],
      "stateMutability": "nonpayable",
      "type": "function"
    },
    {
      "inputs": [
        {
          "internalType": "uint256",
          "name": "_requestId",
          "type": "uint256"
        }
      ],
      "name": "rejectLoan",
      "outputs": [],
      "stateMutability": "nonpayable",
      "type": "function"
    },
    {
      "inputs": [
        {
          "internalType": "address",
          "name": "_wallet",
          "type": "address"
        }
      ],
      "name": "removeMember",
      "outputs": [],
      "stateMutability": "nonpayable",
      "type": "function"
    },
    {
      "inputs": [],
      "name": "repayLoan",
      "outputs": [],
      "stateMutability": "payable",
      "type": "function"
    },
    {
      "inputs": [
        {
          "internalType": "uint256",
          "name": "_amount",
          "type": "uint256"
        }
      ],
      "name": "requestLoan",
      "outputs": [
        {
          "internalType": "uint256",
          "name": "requestId",
          "type": "uint256"
        }
      ],
      "stateMutability": "nonpayable",
      "type": "function"
    },
    {
      "inputs": [],
      "name": "reservePool",
      "outputs": [
        {
          "internalType": "uint256",
          "name": "",
          "type": "uint256"
        }
      ],
      "stateMutability": "view",
      "type": "function"
    },
    {
      "inputs": [
        {
          "internalType": "address",
          "name": "_adder",
          "type": "address"
        }
      ],
      "name": "setMemberAdder",
      "outputs": [],
      "stateMutability": "nonpayable",
      "type": "function"
    },
    {
      "inputs": [
        {
          "internalType": "uint256",
          "name": "",
          "type": "uint256"
        }
      ],
      "name": "terms",
      "outputs": [
        {
          "internalType": "uint256",
          "name": "startTime",
          "type": "uint256"
        },
        {
          "internalType": "uint256",
          "name": "endTime",
          "type": "uint256"
        },
        {
          "internalType": "uint256",
          "name": "interestCollected",
          "type": "uint256"
        },
        {
          "internalType": "bool",
          "name": "distributed",
          "type": "bool"
        }
      ],
      "stateMutability": "view",
      "type": "function"
    },
    {
      "inputs": [],
      "name": "totalPool",
      "outputs": [
        {
          "internalType": "uint256",
          "name": "",
          "type": "uint256"
        }
      ],
      "stateMutability": "view",
      "type": "function"
    },
    {
      "inputs": [],
      "name": "unpause",
      "outputs": [],
      "stateMutability": "nonpayable",
      "type": "function"
    },
    {
      "inputs": [
        {
          "internalType": "uint256",
          "name": "_amount",
          "type": "uint256"
        }
      ],
      "name": "withdrawSavings",
      "outputs": [],
      "stateMutability": "nonpayable",
      "type": "function"
    },
    {
      "stateMutability": "payable",
      "type": "receive"
    }
  ],
  "bytecode": "0x60806040523480156200001157600080fd5b50600160008181558154610100600160a81b0319163361010002178255739ba30a835ce6d3714d4026bd62305b18947382459052600d6020527f2273b29293524fcbfe7aa7e9b2f25d2a2a695e3f1af9e46a05440b90cabfe4ef805460ff191690911790556200008062000086565b62000159565b4260006200009862ed4e008362000131565b604080516080810182528481526020808201848152600083850181815260608501828152600680548452600a865292879020955186559251600186015551600285015590516003909301805460ff191693151593909317909255905482518681529182018490529293507f1ddbc5e006a48d33df8ad1d6858a0b775953ba5d26864f81ae30433229c7862b910160405180910390a25050565b808201808211156200015357634e487b7160e01b600052601160045260246000fd5b92915050565b6136ab80620001696000396000f3fe60806040526004361061026b5760003560e01c8063a3dbd32911610144578063d7de0ad9116100b6578063ecfb49a31161007a578063ecfb49a3146108ab578063eec98724146108c1578063eee26862146108d6578063ef3c7924146108ec578063f851a4401461090c578063f966ade714610931576102bd565b8063d7de0ad91461080f578063de48078c1461083f578063de9864501461085f578063e02a4dfd1461087f578063ea0e35b114610896576102bd565b8063bc03bfee11610108578063bc03bfee146106ea578063c0aa0e8a14610700578063c8644e4114610767578063d119c6361461078f578063d1b332f4146107af578063d7bb99ba14610807576102bd565b8063a3dbd3291461065d578063aadc1ac114610674578063ab6c12df14610694578063afd7fe59146106b4578063b786f978146106d4576102bd565b80635c975abb116101dd5780637dbdfe7c116101a15780637dbdfe7c146105895780638456cb591461059e5780638b7afe2e146105b35780638d5d3429146105c65780638d7036de146105e657806392ecf577146105fc576102bd565b80635c975abb146104ee5780635d29cb98146105125780635f5d5f0014610532578063650bee3f14610554578063668038e014610574576102bd565b80631b3b86711161022f5780631b3b86711461039057806326782247146104205780632ada25961461045857806333481fc91461048c5780633f4ba83a146104be57806340650c91146104d3576102bd565b80630266f0441461030557806303c833021461032e5780630b1ca49a1461034557806311aee3801461036557806317aee51f1461037b576102bd565b366102bd5760405162461bcd60e51b815260206004820152601960248201527f496b696d696e613a2075736520636f6e7472696275746528290000000000000060448201526064015b60405180910390fd5b60405162461bcd60e51b815260206004820152601960248201527f496b696d696e613a20756e6b6e6f776e2066756e6374696f6e0000000000000060448201526064016102b4565b34801561031157600080fd5b5061031b60045481565b6040519081526020015b60405180910390f35b34801561033a57600080fd5b50610343610939565b005b34801561035157600080fd5b5061034361036036600461307b565b610c90565b34801561037157600080fd5b5061031b60055481565b34801561038757600080fd5b50610343610e96565b34801561039c57600080fd5b506103ea6103ab36600461309d565b60009081526009602052604090208054600182015460028301546003909301546001600160a01b039092169390929160ff808216926101009092041690565b604080516001600160a01b039096168652602086019490945292840191909152151560608301521515608082015260a001610325565b34801561042c57600080fd5b50600254610440906001600160a01b031681565b6040516001600160a01b039091168152602001610325565b34801561046457600080fd5b5061047861047336600461307b565b610f67565b6040516103259897969594939291906130fc565b34801561049857600080fd5b506104ac6104a736600461307b565b611187565b6040516103259695949392919061317a565b3480156104ca57600080fd5b50610343611217565b3480156104df57600080fd5b5061031b66038d7ea4c6800081565b3480156104fa57600080fd5b5060015460ff165b6040519015158152602001610325565b34801561051e57600080fd5b5061034361052d36600461309d565b611250565b34801561053e57600080fd5b5061054761137a565b60405161032591906131cc565b34801561056057600080fd5b50600e54610440906001600160a01b031681565b34801561058057600080fd5b506103436113dc565b34801561059557600080fd5b5061031b600381565b3480156105aa57600080fd5b5061034361163e565b3480156105bf57600080fd5b504761031b565b3480156105d257600080fd5b5061031b6105e136600461309d565b611675565b3480156105f257600080fd5b5061031b611f4081565b34801561060857600080fd5b506006546000818152600a602052604090208054600182015460028301546003909301549192909160ff166040805195865260208601949094529284019190915260608301521515608082015260a001610325565b34801561066957600080fd5b5061031b62ed4e0081565b34801561068057600080fd5b5061034361068f36600461309d565b61199c565b3480156106a057600080fd5b506103436106af36600461307b565b611dda565b3480156106c057600080fd5b506103436106cf366004613262565b611eaf565b3480156106e057600080fd5b5061031b600c5481565b3480156106f657600080fd5b5061031b6101f481565b34801561070c57600080fd5b5061074561071b36600461309d565b600a6020526000908152604090208054600182015460028301546003909301549192909160ff1684565b6040805194855260208501939093529183015215156060820152608001610325565b34801561077357600080fd5b50610440739ba30a835ce6d3714d4026bd62305b189473824581565b34801561079b57600080fd5b5061031b6107aa36600461307b565b612364565b3480156107bb57600080fd5b506103ea6107ca36600461309d565b60096020526000908152604090208054600182015460028301546003909301546001600160a01b0390921692909160ff8082169161010090041685565b6103436123f4565b34801561081b57600080fd5b5061050261082a36600461307b565b600d6020526000908152604090205460ff1681565b34801561084b57600080fd5b5061034361085a36600461307b565b6125a2565b34801561086b57600080fd5b5061034361087a36600461309d565b6127ed565b34801561088b57600080fd5b5061031b62278d0081565b3480156108a257600080fd5b5061031b606481565b3480156108b757600080fd5b5061031b60035481565b3480156108cd57600080fd5b5061031b60c881565b3480156108e257600080fd5b5061031b60065481565b3480156108f857600080fd5b5061034361090736600461307b565b612a72565b34801561091857600080fd5b506001546104409061010090046001600160a01b031681565b610343612adb565b60026000540361095b5760405162461bcd60e51b81526004016102b49061330d565b600260009081556006548152600a6020526040902060018101544210156109c45760405162461bcd60e51b815260206004820152601b60248201527f496b696d696e613a207465726d206e6f7420656e64656420796574000000000060448201526064016102b4565b600381015460ff1615610a195760405162461bcd60e51b815260206004820152601c60248201527f496b696d696e613a20616c72656164792064697374726962757465640000000060448201526064016102b4565b6000816002015411610a785760405162461bcd60e51b815260206004820152602260248201527f496b696d696e613a206e6f20696e74657265737420746f206469737472696275604482015261746560f01b60648201526084016102b4565b600060055411610ac05760405162461bcd60e51b8152602060048201526013602482015272496b696d696e613a206e6f206d656d6265727360681b60448201526064016102b4565b60038101805460ff19166001179055600281015460009061271090610ae890611f409061335a565b610af29190613371565b9050808260020154610b049190613393565b60046000828254610b1591906133a6565b9091555060009050610b25612e85565b905060005b600b54811015610c16576000600b8281548110610b4957610b496133b9565b60009182526020808320909101546001600160a01b0316808352600790915260409091206003015490915060ff600160a81b90910416610b895750610c0e565b6000808411610ba457600554610b9f9086613371565b610bd6565b6001600160a01b0382166000908152600760205260409020600401548490610bcc908761335a565b610bd69190613371565b6001600160a01b038316600090815260076020526040812060050180549293508392909190610c069084906133a6565b909155505050505b600101610b2a565b506006547fc6570a09263e2dbe9b55b3b62e5c111af20c6cfb770f70c0aab4660ef56cc3378360055485610c4a9190613371565b604080519283526020830191909152429082015260600160405180910390a260068054906000610c79836133cf565b9190505550610c86612f3a565b5050600160005550565b60015461010090046001600160a01b0316331480610cbd5750336000908152600d602052604090205460ff165b610cd95760405162461bcd60e51b81526004016102b4906133e8565b6001600160a01b038116600090815260076020526040902060030154600160a01b900460ff168015610d2d57506001600160a01b038116600090815260076020526040902060030154600160a81b900460ff165b610d495760405162461bcd60e51b81526004016102b49061341f565b60026001600160a01b038216600090815260086020526040902060049081015460ff1690811115610d7c57610d7c613164565b14158015610dbb575060016001600160a01b038216600090815260086020526040902060049081015460ff1690811115610db857610db8613164565b14155b610e175760405162461bcd60e51b815260206004820152602760248201527f496b696d696e613a206d656d62657220686173206163746976652f70656e64696044820152663733903637b0b760c91b60648201526084016102b4565b6001600160a01b0381166000908152600760205260408120600301805460ff60a81b191690556005805491610e4b83613456565b9190505550806001600160a01b03167f3ac963493df564de734d98633f1145d21512e282ba4c02d3c1011119bf7f286242604051610e8b91815260200190565b60405180910390a250565b6002546001600160a01b03163314610ef05760405162461bcd60e51b815260206004820152601a60248201527f496b696d696e613a206e6f742070656e64696e672061646d696e00000000000060448201526064016102b4565b6002546001546040516001600160a01b0392831692610100909204909116907feea727eb6f741f10667c9ff77aa3a88a17a67fc7e7aedc3526b3f89e9d2da97e90600090a36002805460018054610100600160a81b0319166101006001600160a01b038416021790556001600160a01b0319169055565b6001600160a01b038116600090815260076020526040812060038101546004820154600583015460068401548454606096879687969195869586958695869585946001860194600287019460ff600160a01b8504811695600160a81b90950416938890610fd39061346d565b80601f0160208091040260200160405190810160405280929190818152602001828054610fff9061346d565b801561104c5780601f106110215761010080835404028352916020019161104c565b820191906000526020600020905b81548152906001019060200180831161102f57829003601f168201915b5050505050975086805461105f9061346d565b80601f016020809104026020016040519081016040528092919081815260200182805461108b9061346d565b80156110d85780601f106110ad576101008083540402835291602001916110d8565b820191906000526020600020905b8154815290600101906020018083116110bb57829003601f168201915b505050505096508580546110eb9061346d565b80601f01602080910402602001604051908101604052809291908181526020018280546111179061346d565b80156111645780601f1061113957610100808354040283529160200191611164565b820191906000526020600020905b81548152906001019060200180831161114757829003601f168201915b505050505095509850985098509850985098509850985050919395975091939597565b600080600080600080600060086000896001600160a01b03166001600160a01b031681526020019081526020016000209050600081600201548260010154116111d15760006111e5565b816002015482600101546111e59190613393565b8254600184015460028501546003860154600490960154929d919c509a5091985092965060ff90921694509092505050565b60015461010090046001600160a01b031633146112465760405162461bcd60e51b81526004016102b4906133e8565b61124e612fe3565b565b60015461010090046001600160a01b0316331461127f5760405162461bcd60e51b81526004016102b4906133e8565b6000818152600960205260409020600381015460ff161580156112ac57506003810154610100900460ff16155b6112f85760405162461bcd60e51b815260206004820152601a60248201527f496b696d696e613a20616c72656164792070726f63657373656400000000000060448201526064016102b4565b60038101805461ff00191661010017905580546001600160a01b03166000908152600860205260408120600401805460ff1916600183021790555080546040514281526001600160a01b039091169083907fab0e20c72eaa566ce0daef9ab1c37cb8bd61bb60fbbb6cdfe213dc86f37e5d7f9060200160405180910390a35050565b6060600b8054806020026020016040519081016040528092919081815260200182805480156113d257602002820191906000526020600020905b81546001600160a01b031681526001909101906020018083116113b4575b5050505050905090565b33600090815260076020526040902060030154600160a01b900460ff16801561141e575033600090815260076020526040902060030154600160a81b900460ff165b61143a5760405162461bcd60e51b81526004016102b49061341f565b60026000540361145c5760405162461bcd60e51b81526004016102b49061330d565b600260005560015460ff16156114845760405162461bcd60e51b81526004016102b4906134a7565b33600090815260076020526040902060050154806114e45760405162461bcd60e51b815260206004820152601e60248201527f496b696d696e613a206e6f206469766964656e647320746f20636c61696d000060448201526064016102b4565b8060035410156115365760405162461bcd60e51b815260206004820152601a60248201527f496b696d696e613a20706f6f6c20696e73756666696369656e7400000000000060448201526064016102b4565b3360009081526007602052604081206005018190556003805483929061155d908490613393565b90915550506040805182815242602082015233917fa1c93169468f71ef26f4adf10bca8df21460f11843a01ed9c69da306e33c384791015b60405180910390a2604051600090339083908381818185875af1925050503d80600081146115df576040519150601f19603f3d011682016040523d82523d6000602084013e6115e4565b606091505b50509050806116355760405162461bcd60e51b815260206004820152601c60248201527f496b696d696e613a20455448207472616e73666572206661696c65640000000060448201526064016102b4565b50506001600055565b60015461010090046001600160a01b0316331461166d5760405162461bcd60e51b81526004016102b4906133e8565b61124e613023565b33600090815260076020526040812060030154600160a01b900460ff1680156116b7575033600090815260076020526040902060030154600160a81b900460ff165b6116d35760405162461bcd60e51b81526004016102b49061341f565b60015460ff16156116f65760405162461bcd60e51b81526004016102b4906134a7565b600082116117465760405162461bcd60e51b815260206004820152601b60248201527f496b696d696e613a20616d6f756e74206d757374206265203e2030000000000060448201526064016102b4565b600233600090815260086020526040902060049081015460ff169081111561177057611770613164565b141580156117a65750600133600090815260086020526040902060049081015460ff16908111156117a3576117a3613164565b14155b6118005760405162461bcd60e51b815260206004820152602560248201527f496b696d696e613a206578697374696e67206c6f616e2070656e64696e672f61604482015264637469766560d81b60648201526084016102b4565b3360009081526007602052604090206004015461181f9060039061335a565b8211156118785760405162461bcd60e51b815260206004820152602160248201527f496b696d696e613a206578636565647320337820736176696e6773206c696d696044820152601d60fa1b60648201526084016102b4565b60035482111561189a5760405162461bcd60e51b81526004016102b4906134d1565b600c80549060006118aa836133cf565b909155506040805160a08101825233808252602080830187815242848601818152600060608701818152608088018281528a835260098752898320985189546001600160a01b039091166001600160a01b031990911617895594516001808a0191909155925160028901555160039097018054945115156101000261ff00199815159890981661ffff1990951694909417969096179092558385526008835293859020600401805460ff1916909117905583518781529081019290925292935083917f68595dbe887ae7f496f2c88735019a8918919a1decfdee6bdb460480ab87decb910160405180910390a3919050565b60015461010090046001600160a01b031633146119cb5760405162461bcd60e51b81526004016102b4906133e8565b6002600054036119ed5760405162461bcd60e51b81526004016102b49061330d565b600260005560015460ff1615611a155760405162461bcd60e51b81526004016102b4906134a7565b6000818152600960205260409020600381015460ff16158015611a4257506003810154610100900460ff16155b611a8e5760405162461bcd60e51b815260206004820152601a60248201527f496b696d696e613a20616c72656164792070726f63657373656400000000000060448201526064016102b4565b600181546001600160a01b0316600090815260086020526040902060049081015460ff1690811115611ac257611ac2613164565b14611b065760405162461bcd60e51b8152602060048201526014602482015273496b696d696e613a206e6f742070656e64696e6760601b60448201526064016102b4565b60035481600101541115611b5c5760405162461bcd60e51b815260206004820152601a60248201527f496b696d696e613a20696e73756666696369656e7420706f6f6c00000000000060448201526064016102b4565b60038101805460ff1916600190811790915581015460009061271090611b85906101f49061335a565b611b8f9190613371565b90506000818360010154611ba391906133a6565b90506000611bb462278d00426133a6565b90506040518060a00160405280856001015481526020018381526020016000815260200182815260200160026004811115611bf157611bf1613164565b905284546001600160a01b031660009081526008602090815260409182902083518155908301516001828101919091559183015160028201556060830151600382015560808301516004808301805493949293909260ff19909116918490811115611c5e57611c5e613164565b0217905550905050836001015460036000828254611c7c9190613393565b909155505083546001850154604080519182524260208301526001600160a01b039092169187917fb2c6de76341d4f1188da5458fd8729cbc0e9278f99e8992f40f36900bcef78cb910160405180910390a383546001850154604080519182526020820185905281018390524260608201526001600160a01b03909116907fb9cd2512dd634bb7cdbb1dc9fb2d451a57e0dd9724cf51ab8414abfe570199a49060800160405180910390a2835460018501546040516000926001600160a01b031691908381818185875af1925050503d8060008114611d77576040519150601f19603f3d011682016040523d82523d6000602084013e611d7c565b606091505b5050905080611dcd5760405162461bcd60e51b815260206004820152601c60248201527f496b696d696e613a20455448207472616e73666572206661696c65640000000060448201526064016102b4565b5050600160005550505050565b60015461010090046001600160a01b03163314611e095760405162461bcd60e51b81526004016102b4906133e8565b6001600160a01b038116611e575760405162461bcd60e51b8152602060048201526015602482015274496b696d696e613a207a65726f206164647265737360581b60448201526064016102b4565b600280546001600160a01b0319166001600160a01b03838116918217909255600154604051919261010090910416907fb4d7bcb4d9a5d6ef6e827e3b1554e5a2578ad9ca843903d42b05d08bfa34589490600090a350565b60015461010090046001600160a01b0316331480611edc5750336000908152600d602052604090205460ff165b611ef85760405162461bcd60e51b81526004016102b4906133e8565b60015460ff1615611f1b5760405162461bcd60e51b81526004016102b4906134a7565b6001600160a01b038116611f715760405162461bcd60e51b815260206004820152601c60248201527f496b696d696e613a207a65726f2077616c6c657420616464726573730000000060448201526064016102b4565b6001600160a01b038116600090815260076020526040902060030154600160a01b900460ff1615611fe45760405162461bcd60e51b815260206004820152601b60248201527f496b696d696e613a20616c72656164792072656769737465726564000000000060448201526064016102b4565b60646005541061202f5760405162461bcd60e51b8152602060048201526016602482015275125ada5b5a5b984e8819dc9bdd5c081a5cc8199d5b1b60521b60448201526064016102b4565b856120755760405162461bcd60e51b8152602060048201526016602482015275125ada5b5a5b984e881b985b59481c995c5d5a5c995960521b60448201526064016102b4565b836120c25760405162461bcd60e51b815260206004820152601760248201527f496b696d696e613a20656d61696c20726571756972656400000000000000000060448201526064016102b4565b8161210f5760405162461bcd60e51b815260206004820152601760248201527f496b696d696e613a2070686f6e6520726571756972656400000000000000000060448201526064016102b4565b60405180610120016040528088888080601f016020809104026020016040519081016040528093929190818152602001838380828437600092019190915250505090825250604080516020601f890181900481028201810190925287815291810191908890889081908401838280828437600092019190915250505090825250604080516020601f87018190048102820181019092528581529181019190869086908190840183828082843760009201829052509385525050506001600160a01b03841660208084018290526001604080860182905260608601919091526080850184905260a085018490524260c09095019490945290825260079052208151819061221b908261357c565b5060208201516001820190612230908261357c565b5060408201516002820190612245908261357c565b506060820151600382018054608085015160a08601511515600160a81b0260ff60a81b19911515600160a01b026001600160a81b03199093166001600160a01b0395861617929092171617905560c0830151600483015560e083015160058084019190915561010090930151600690920191909155600b805460018101825560009182527f0175b7a638427703f0dbe7bb9bbf987a2551717b34e79f33b5b1008d1fa01db90180549285166001600160a01b0319939093169290921790915581549190612311836133cf565b9190505550806001600160a01b03167fb6f8cd4c909b1e70493f5c9a6c487e4924194c208ddd113dd7d671cb4905809c8888426040516123539392919061363c565b60405180910390a250505050505050565b6001600160a01b038116600090815260076020526040812060030154600160a01b900460ff1615806123b957506001600160a01b038216600090815260076020526040902060030154600160a81b900460ff16155b156123c657506000919050565b6001600160a01b0382166000908152600760205260409020600401546123ee9060039061335a565b92915050565b33600090815260076020526040902060030154600160a01b900460ff168015612436575033600090815260076020526040902060030154600160a81b900460ff165b6124525760405162461bcd60e51b81526004016102b49061341f565b6002600054036124745760405162461bcd60e51b81526004016102b49061330d565b600260005560015460ff161561249c5760405162461bcd60e51b81526004016102b4906134a7565b66038d7ea4c680003410156124ff5760405162461bcd60e51b815260206004820152602360248201527f496b696d696e613a2062656c6f77206d696e696d756d20636f6e74726962757460448201526234b7b760e91b60648201526084016102b4565b33600090815260076020526040812060040180543492906125219084906133a6565b92505081905550346003600082825461253a91906133a6565b909155505033600081815260076020908152604091829020600401546003548351348152928301919091528183015242606082015290517f38eaf060ddec1dde1c99c9cce5c8f34a03c48e9368f6ff7b768898f6278605809181900360800190a26001600055565b60015461010090046001600160a01b031633146125d15760405162461bcd60e51b81526004016102b4906133e8565b6001600160a01b0381166000908152600860205260409020600260048083015460ff169081111561260457612604613164565b1461264b5760405162461bcd60e51b815260206004820152601760248201527624b5b4b6b4b7309d1037379030b1ba34bb32903637b0b760491b60448201526064016102b4565b8060030154421161269e5760405162461bcd60e51b815260206004820152601960248201527f496b696d696e613a206c6f616e206e6f74206f7665726475650000000000000060448201526064016102b4565b6000816002015482600101546126b49190613393565b9050600081116127065760405162461bcd60e51b815260206004820152601860248201527f496b696d696e613a20616c726561647920736574746c6564000000000000000060448201526064016102b4565b600061271061271660c88461335a565b6127209190613371565b90508083600101600082825461273691906133a6565b90915550506004838101805460ff19169091179055604080518281524260208201526001600160a01b038616917fcf40cadcd86c14cb7e696a86578255719f67bc54bf991d45d267ee6e01467c19910160405180910390a26001600160a01b0384167f2846d120b0ac120b4495cd52f69d161236e146706bc5e2b85d01884744797c806127c383856133a6565b6003860154604080519283526020830191909152429082015260600160405180910390a250505050565b33600090815260076020526040902060030154600160a01b900460ff16801561282f575033600090815260076020526040902060030154600160a81b900460ff165b61284b5760405162461bcd60e51b81526004016102b49061341f565b60026000540361286d5760405162461bcd60e51b81526004016102b49061330d565b600260005560015460ff16156128955760405162461bcd60e51b81526004016102b4906134a7565b600081116128e55760405162461bcd60e51b815260206004820152601b60248201527f496b696d696e613a20616d6f756e74206d757374206265203e2030000000000060448201526064016102b4565b600233600090815260086020526040902060049081015460ff169081111561290f5761290f613164565b0361295c5760405162461bcd60e51b815260206004820181905260248201527f496b696d696e613a20726570617920616374697665206c6f616e20666972737460448201526064016102b4565b336000908152600760205260409020600401548111156129be5760405162461bcd60e51b815260206004820152601d60248201527f496b696d696e613a20696e73756666696369656e7420736176696e677300000060448201526064016102b4565b8060035410156129e05760405162461bcd60e51b81526004016102b4906134d1565b3360009081526007602052604081206004018054839290612a02908490613393565b925050819055508060036000828254612a1b9190613393565b9091555050336000818152600760209081526040918290206004015482518581529182015242918101919091527fa7b927747255bae4c9b535ee84804707f42b787d2a0c4a461f0c3a77f91ea82c90606001611595565b60015461010090046001600160a01b03163314612aa15760405162461bcd60e51b81526004016102b4906133e8565b600e80546001600160a01b039092166001600160a01b0319909216821790556000908152600d60205260409020805460ff19166001179055565b33600090815260076020526040902060030154600160a01b900460ff168015612b1d575033600090815260076020526040902060030154600160a81b900460ff165b612b395760405162461bcd60e51b81526004016102b49061341f565b600260005403612b5b5760405162461bcd60e51b81526004016102b49061330d565b600260005560015460ff1615612b835760405162461bcd60e51b81526004016102b4906134a7565b60003411612bd35760405162461bcd60e51b815260206004820152601e60248201527f496b696d696e613a2072657061796d656e74206d757374206265203e2030000060448201526064016102b4565b336000908152600860205260409020600260048083015460ff1690811115612bfd57612bfd613164565b14612c445760405162461bcd60e51b815260206004820152601760248201527624b5b4b6b4b7309d1037379030b1ba34bb32903637b0b760491b60448201526064016102b4565b600081600201548260010154612c5a9190613393565b905060008111612cac5760405162461bcd60e51b815260206004820152601d60248201527f496b696d696e613a206c6f616e20616c726561647920736574746c656400000060448201526064016102b4565b6000813411612cbb5734612cbd565b815b90506000612ccb8234613393565b905081846002016000828254612ce191906133a6565b925050819055508160036000828254612cfa91906133a6565b90915550506001840154845460009190612d149082613393565b612d1e908561335a565b612d289190613371565b905080600a600060065481526020019081526020016000206002016000828254612d5291906133a6565b90915550506001850154600286015410801590612d795760048601805460ff191660031790555b336001600160a01b03167fe627c02a755f08984abd2c21256818bf256e5d05844b76056c4e621785908a098588600201548960010154612db99190613393565b6040805192835260208301919091528415159082015242606082015260800160405180910390a28215611dcd57604051600090339085908381818185875af1925050503d8060008114612e28576040519150601f19603f3d011682016040523d82523d6000602084013e612e2d565b606091505b5050905080612e775760405162461bcd60e51b8152602060048201526016602482015275125ada5b5a5b984e881c99599d5b990819985a5b195960521b60448201526064016102b4565b505050600160005550505050565b6000805b600b54811015612f365760076000600b8381548110612eaa57612eaa6133b9565b60009182526020808320909101546001600160a01b0316835282019290925260400190206003015460ff600160a81b9091041615612f2e5760076000600b8381548110612ef957612ef96133b9565b60009182526020808320909101546001600160a01b03168352820192909252604001902060040154612f2b90836133a6565b91505b600101612e89565b5090565b426000612f4a62ed4e00836133a6565b604080516080810182528481526020808201848152600083850181815260608501828152600680548452600a865292879020955186559251600186015551600285015590516003909301805460ff191693151593909317909255905482518681529182018490529293507f1ddbc5e006a48d33df8ad1d6858a0b775953ba5d26864f81ae30433229c7862b910160405180910390a25050565b6001805460ff191690556040513381527f5db9ee0a495bf2e6ff9c91a7834c1ba4fdd244a5e8aa4e537bd38aeae4b073aa906020015b60405180910390a1565b6001805460ff1916811790556040513381527f62e78cea01bee320cd4e420270b5ea74000d11b0c9f74754ebdbfc544b05a25890602001613019565b80356001600160a01b038116811461307657600080fd5b919050565b60006020828403121561308d57600080fd5b6130968261305f565b9392505050565b6000602082840312156130af57600080fd5b5035919050565b6000815180845260005b818110156130dc576020818501810151868301820152016130c0565b506000602082860101526020601f19601f83011685010191505092915050565b60006101008083526131108184018c6130b6565b90508281036020840152613124818b6130b6565b90508281036040840152613138818a6130b6565b97151560608401525050931515608085015260a084019290925260c083015260e0909101529392505050565b634e487b7160e01b600052602160045260246000fd5b600060c082019050878252866020830152856040830152846060830152836080830152600583106131bb57634e487b7160e01b600052602160045260246000fd5b8260a0830152979650505050505050565b6020808252825182820181905260009190848201906040850190845b8181101561320d5783516001600160a01b0316835292840192918401916001016131e8565b50909695505050505050565b60008083601f84011261322b57600080fd5b50813567ffffffffffffffff81111561324357600080fd5b60208301915083602082850101111561325b57600080fd5b9250929050565b60008060008060008060006080888a03121561327d57600080fd5b873567ffffffffffffffff8082111561329557600080fd5b6132a18b838c01613219565b909950975060208a01359150808211156132ba57600080fd5b6132c68b838c01613219565b909750955060408a01359150808211156132df57600080fd5b506132ec8a828b01613219565b90945092506132ff90506060890161305f565b905092959891949750929550565b6020808252601f908201527f5265656e7472616e637947756172643a207265656e7472616e742063616c6c00604082015260600190565b634e487b7160e01b600052601160045260246000fd5b80820281158282048414176123ee576123ee613344565b60008261338e57634e487b7160e01b600052601260045260246000fd5b500490565b818103818111156123ee576123ee613344565b808201808211156123ee576123ee613344565b634e487b7160e01b600052603260045260246000fd5b6000600182016133e1576133e1613344565b5060010190565b6020808252601c908201527f496b696d696e613a2063616c6c6572206973206e6f742061646d696e00000000604082015260600190565b6020808252601d908201527f496b696d696e613a206e6f7420616e20616374697665206d656d626572000000604082015260600190565b60008161346557613465613344565b506000190190565b600181811c9082168061348157607f821691505b6020821081036134a157634e487b7160e01b600052602260045260246000fd5b50919050565b60208082526010908201526f14185d5cd8589b194e881c185d5cd95960821b604082015260600190565b60208082526024908201527f496b696d696e613a20696e73756666696369656e7420706f6f6c206c697175696040820152636469747960e01b606082015260800190565b634e487b7160e01b600052604160045260246000fd5b601f821115613577576000816000526020600020601f850160051c810160208610156135545750805b601f850160051c820191505b8181101561357357828155600101613560565b5050505b505050565b815167ffffffffffffffff81111561359657613596613515565b6135aa816135a4845461346d565b8461352b565b602080601f8311600181146135df57600084156135c75750858301515b600019600386901b1c1916600185901b178555613573565b600085815260208120601f198616915b8281101561360e578886015182559484019460019091019084016135ef565b508582101561362c5787850151600019600388901b60f8161c191681555b5050505050600190811b01905550565b604081528260408201528284606083013760006060848301015260006060601f19601f860116830101905082602083015294935050505056fea2646970667358221220dbae06884c6c164e13400dc0f55e30949f2ec892db9849c6cde19bfdf43b25cd64736f6c63430008180033",
  "linkReferences": {},
  "deployedLinkReferences": {}
}