{
  "_format": "hh-sol-artifact-1",
  "contractName": "Ikimina",
  "sourceName": "contracts/Ikimina.sol",
  "abi": [
    {
      "inputs": [],
      "stateMutability": "nonpayable",
      "type": "constructor"
    },
    {
      "anonymous": false,
      "inputs": [
        {
          "indexed": true,
          "internalType": "address",
          "name": "oldAdmin",
          "type": "address"
        },
        {
          "indexed": true,
          "internalType": "address",
          "name": "newAdmin",
          "type": "address"
        }
      ],
      "name": "AdminTransferCompleted",
      "type": "event"
    },
    {
      "anonymous": false,
      "inputs": [
        {
          "indexed": true,
          "internalType": "address",
          "name": "currentAdmin",
          "type": "address"
        },
        {
          "indexed": true,
          "internalType": "address",
          "name": "pendingAdmin",
          "type": "address"
        }
      ],
      "name": "AdminTransferInitiated",
      "type": "event"
    },
    {
      "anonymous": false,
      "inputs": [
        {
          "indexed": true,
          "internalType": "address",
          "name": "member",
          "type": "address"
        },
        {
          "indexed": false,
          "internalType": "uint256",
          "name": "amount",
          "type": "uint256"
        },
        {
          "indexed": false,
          "internalType": "uint256",
          "name": "newSavings",
          "type": "uint256"
        },
        {
          "indexed": false,
          "internalType": "uint256",
          "name": "newTotalPool",
          "type": "uint256"
        },
        {
          "indexed": false,
          "internalType": "uint256",
          "name": "timestamp",
          "type": "uint256"
        }
      ],
      "name": "ContributionMade",
      "type": "event"
    },
    {
      "anonymous": false,
      "inputs": [
        {
          "indexed": true,
          "internalType": "address",
          "name": "member",
          "type": "address"
        },
        {
          "indexed": false,
          "internalType": "uint256",
          "name": "amount",
          "type": "uint256"
        },
        {
          "indexed": false,
          "internalType": "uint256",
          "name": "timestamp",
          "type": "uint256"
        }
      ],
      "name": "DividendClaimed",
      "type": "event"
    },
    {
      "anonymous": false,
      "inputs": [
        {
          "indexed": true,
          "internalType": "uint256",
          "name": "termId",
          "type": "uint256"
        },
        {
          "indexed": false,
          "internalType": "uint256",
          "name": "totalDividend",
          "type": "uint256"
        },
        {
          "indexed": false,
          "internalType": "uint256",
          "name": "memberShare",
          "type": "uint256"
        },
        {
          "indexed": false,
          "internalType": "uint256",
          "name": "timestamp",
          "type": "uint256"
        }
      ],
      "name": "DividendDistributed",
      "type": "event"
    },
    {
      "anonymous": false,
      "inputs": [
        {
          "indexed": true,
          "internalType": "uint256",
          "name": "requestId",
          "type": "uint256"
        },
        {
          "indexed": true,
          "internalType": "address",
          "name": "borrower",
          "type": "address"
        },
        {
          "indexed": false,
          "internalType": "uint256",
          "name": "amount",
          "type": "uint256"
        },
        {
          "indexed": false,
          "internalType": "uint256",
          "name": "timestamp",
          "type": "uint256"
        }
      ],
      "name": "LoanApproved",
      "type": "event"
    },
    {
      "anonymous": false,
      "inputs": [
        {
          "indexed": true,
          "internalType": "address",
          "name": "borrower",
          "type": "address"
        },
        {
          "indexed": false,
          "internalType": "uint256",
          "name": "amountOwed",
          "type": "uint256"
        },
        {
          "indexed": false,
          "internalType": "uint256",
          "name": "deadline",
          "type": "uint256"
        },
        {
          "indexed": false,
          "internalType": "uint256",
          "name": "timestamp",
          "type": "uint256"
        }
      ],
      "name": "LoanDefaulted",
      "type": "event"
    },
    {
      "anonymous": false,
      "inputs": [
        {
          "indexed": true,
          "internalType": "address",
          "name": "borrower",
          "type": "address"
        },
        {
          "indexed": false,
          "internalType": "uint256",
          "name": "principal",
          "type": "uint256"
        },
        {
          "indexed": false,
          "internalType": "uint256",
          "name": "totalOwed",
          "type": "uint256"
        },
        {
          "indexed": false,
          "internalType": "uint256",
          "name": "deadline",
          "type": "uint256"
        },
        {
          "indexed": false,
          "internalType": "uint256",
          "name": "timestamp",
          "type": "uint256"
        }
      ],
      "name": "LoanDisbursed",
      "type": "event"
    },
    {
      "anonymous": false,
      "inputs": [
        {
          "indexed": true,
          "internalType": "uint256",
          "name": "requestId",
          "type": "uint256"
        },
        {
          "indexed": true,
          "internalType": "address",
          "name": "borrower",
          "type": "address"
        },
        {
          "indexed": false,
          "internalType": "uint256",
          "name": "timestamp",
          "type": "uint256"
        }
      ],
      "name": "LoanRejected",
      "type": "event"
    },
    {
      "anonymous": false,
      "inputs": [
        {
          "indexed": true,
          "internalType": "address",
          "name": "borrower",
          "type": "address"
        },
        {
          "indexed": false,
          "internalType": "uint256",
          "name": "amountPaid",
          "type": "uint256"
        },
        {
          "indexed": false,
          "internalType": "uint256",
          "name": "remainingOwed",
          "type": "uint256"
        },
        {
          "indexed": false,
          "internalType": "bool",
          "name": "loanClosed",
          "type": "bool"
        },
        {
          "indexed": false,
          "internalType": "uint256",
          "name": "timestamp",
          "type": "uint256"
        }
      ],
      "name": "LoanRepaid",
      "type": "event"
    },
    {
      "anonymous": false,
      "inputs": [
        {
          "indexed": true,
          "internalType": "uint256",
          "name": "requestId",
          "type": "uint256"
        },
        {
          "indexed": true,
          "internalType": "address",
          "name": "borrower",
          "type": "address"
        },
        {
          "indexed": false,
          "internalType": "uint256",
          "name": "amount",
          "type": "uint256"
        },
        {
          "indexed": false,
          "internalType": "uint256",
          "name": "timestamp",
          "type": "uint256"
        }
      ],
      "name": "LoanRequested",
      "type": "event"
    },
    {
      "anonymous": false,
      "inputs": [
        {
          "indexed": true,
          "internalType": "address",
          "name": "wallet",
          "type": "address"
        },
        {
          "indexed": false,
          "internalType": "string",
          "name": "name",
          "type": "string"
        },
        {
          "indexed": false,
          "internalType": "uint256",
          "name": "timestamp",
          "type": "uint256"
        }
      ],
      "name": "MemberRegistered",
      "type": "event"
    },
    {
      "anonymous": false,
      "inputs": [
        {
          "indexed": true,
          "internalType": "address",
          "name": "wallet",
          "type": "address"
        },
        {
          "indexed": false,
          "internalType": "uint256",
          "name": "timestamp",
          "type": "uint256"
        }
      ],
      "name": "MemberRemoved",
      "type": "event"
    },
    {
      "anonymous": false,
      "inputs": [
        {
          "indexed": false,
          "internalType": "address",
          "name": "account",
          "type": "address"
        }
      ],
      "name": "Paused",
      "type": "event"
    },
    {
      "anonymous": false,
      "inputs": [
        {
          "indexed": true,
          "internalType": "address",
          "name": "borrower",
          "type": "address"
        },
        {
          "indexed": false,
          "internalType": "uint256",
          "name": "penaltyAmount",
          "type": "uint256"
        },
        {
          "indexed": false,
          "internalType": "uint256",
          "name": "timestamp",
          "type": "uint256"
        }
      ],
      "name": "PenaltyApplied",
      "type": "event"
    },
    {
      "anonymous": false,
      "inputs": [
        {
          "indexed": true,
          "internalType": "uint256",
          "name": "termId",
          "type": "uint256"
        },
        {
          "indexed": false,
          "internalType": "uint256",
          "name": "startTime",
          "type": "uint256"
        },
        {
          "indexed": false,
          "internalType": "uint256",
          "name": "endTime",
          "type": "uint256"
        }
      ],
      "name": "TermStarted",
      "type": "event"
    },
    {
      "anonymous": false,
      "inputs": [
        {
          "indexed": false,
          "internalType": "address",
          "name": "account",
          "type": "address"
        }
      ],
      "name": "Unpaused",
      "type": "event"
    },
    {
      "anonymous": false,
      "inputs": [
        {
          "indexed": true,
          "internalType": "address",
          "name": "member",
          "type": "address"
        },
        {
          "indexed": false,
          "internalType": "uint256",
          "name": "amount",
          "type": "uint256"
        },
        {
          "indexed": false,
          "internalType": "uint256",
          "name": "remainingSavings",
          "type": "uint256"
        },
        {
          "indexed": false,
          "internalType": "uint256",
          "name": "timestamp",
          "type": "uint256"
        }
      ],
      "name": "WithdrawalMade",
      "type": "event"
    },
    {
      "stateMutability": "payable",
      "type": "fallback"
    },
    {
      "inputs": [],
      "name": "DIVIDEND_BPS",
      "outputs": [
        {
          "internalType": "uint256",
          "name": "",
          "type": "uint256"
        }
      ],
      "stateMutability": "view",
      "type": "function"
    },
    {
      "inputs": [],
      "name": "INTEREST_BPS",
      "outputs": [
        {
          "internalType": "uint256",
          "name": "",
          "type": "uint256"
        }
      ],
      "stateMutability": "view",
      "type": "function"
    },
    {
      "inputs": [],
      "name": "LATE_PENALTY_BPS",
      "outputs": [
        {
          "internalType": "uint256",
          "name": "",
          "type": "uint256"
        }
      ],
      "stateMutability": "view",
      "type": "function"
    },
    {
      "inputs": [],
      "name": "LOAN_DURATION",
      "outputs": [
        {
          "internalType": "uint256",
          "name": "",
          "type": "uint256"
        }
      ],
      "stateMutability": "view",
      "type": "function"
    },
    {
      "inputs": [],
      "name": "LOAN_MULTIPLIER",
      "outputs": [
        {
          "internalType": "uint256",
          "name": "",
          "type": "uint256"
        }
      ],
      "stateMutability": "view",
      "type": "function"
    },
    {
      "inputs": [],
      "name": "MAX_MEMBERS",
      "outputs": [
        {
          "internalType": "uint256",
          "name": "",
          "type": "uint256"
        }
      ],
      "stateMutability": "view",
      "type": "function"
    },
    {
      "inputs": [],
      "name": "MIN_CONTRIBUTION",
      "outputs": [
        {
          "internalType": "uint256",
          "name": "",
          "type": "uint256"
        }
      ],
      "stateMutability": "view",
      "type": "function"
    },
    {
      "inputs": [],
      "name": "TERM_DURATION",
      "outputs": [
        {
          "internalType": "uint256",
          "name": "",
          "type": "uint256"
        }
      ],
      "stateMutability": "view",
      "type": "function"
    },
    {
      "inputs": [],
      "name": "acceptAdminTransfer",
      "outputs": [],
      "stateMutability": "nonpayable",
      "type": "function"
    },
    {
      "inputs": [],
      "name": "admin",
      "outputs": [
        {
          "internalType": "address",
          "name": "",
          "type": "address"
        }
      ],
      "stateMutability": "view",
      "type": "function"
    },
    {
      "inputs": [
        {
          "internalType": "uint256",
          "name": "_requestId",
          "type": "uint256"
        }
      ],
      "name": "approveLoan",
      "outputs": [],
      "stateMutability": "nonpayable",
      "type": "function"
    },
    {
      "inputs": [],
      "name": "claimDividends",
      "outputs": [],
      "stateMutability": "nonpayable",
      "type": "function"
    },
    {
      "inputs": [],
      "name": "contractBalance",
      "outputs": [
        {
          "internalType": "uint256",
          "name": "",
          "type": "uint256"
        }
      ],
      "stateMutability": "view",
      "type": "function"
    },
    {
      "inputs": [],
      "name": "contribute",
      "outputs": [],
      "stateMutability": "payable",
      "type": "function"
    },
    {
      "inputs": [],
      "name": "currentTermId",
      "outputs": [
        {
          "internalType": "uint256",
          "name": "",
          "type": "uint256"
        }
      ],
      "stateMutability": "view",
      "type": "function"
    },
    {
      "inputs": [],
      "name": "distributeDividends",
      "outputs": [],
      "stateMutability": "nonpayable",
      "type": "function"
    },
    {
      "inputs": [
        {
          "internalType": "address",
          "name": "_borrower",
          "type": "address"
        }
      ],
      "name": "flagDefault",
      "outputs": [],
      "stateMutability": "nonpayable",
      "type": "function"
    },
    {
      "inputs": [],
      "name": "getCurrentTerm",
      "outputs": [
        {
          "internalType": "uint256",
          "name": "termId",
          "type": "uint256"
        },
        {
          "internalType": "uint256",
          "name": "startTime",
          "type": "uint256"
        },
        {
          "internalType": "uint256",
          "name": "endTime",
          "type": "uint256"
        },
        {
          "internalType": "uint256",
          "name": "interestCollected",
          "type": "uint256"
        },
        {
          "internalType": "bool",
          "name": "distributed",
          "type": "bool"
        }
      ],
      "stateMutability": "view",
      "type": "function"
    },
    {
      "inputs": [
        {
          "internalType": "address",
          "name": "_wallet",
          "type": "address"
        }
      ],
      "name": "getLoan",
      "outputs": [
        {
          "internalType": "uint256",
          "name": "principal",
          "type": "uint256"
        },
        {
          "internalType": "uint256",
          "name": "totalOwed",
          "type": "uint256"
        },
        {
          "internalType": "uint256",
          "name": "amountRepaid",
          "type": "uint256"
        },
        {
          "internalType": "uint256",
          "name": "remainingOwed",
          "type": "uint256"
        },
        {
          "internalType": "uint256",
          "name": "deadline",
          "type": "uint256"
        },
        {
          "internalType": "enum Ikimina.LoanStatus",
          "name": "status",
          "type": "uint8"
        }
      ],
      "stateMutability": "view",
      "type": "function"
    },
    {
      "inputs": [
        {
          "internalType": "uint256",
          "name": "_requestId",
          "type": "uint256"
        }
      ],
      "name": "getLoanRequest",
      "outputs": [
        {
          "internalType": "address",
          "name": "borrower",
          "type": "address"
        },
        {
          "internalType": "uint256",
          "name": "amount",
          "type": "uint256"
        },
        {
          "internalType": "uint256",
          "name": "requestedAt",
          "type": "uint256"
        },
        {
          "internalType": "bool",
          "name": "approved",
          "type": "bool"
        },
        {
          "internalType": "bool",
          "name": "rejected",
          "type": "bool"
        }
      ],
      "stateMutability": "view",
      "type": "function"
    },
    {
      "inputs": [
        {
          "internalType": "address",
          "name": "_wallet",
          "type": "address"
        }
      ],
      "name": "getMember",
      "outputs": [
        {
          "internalType": "string",
          "name": "name",
          "type": "string"
        },
        {
          "internalType": "string",
          "name": "email",
          "type": "string"
        },
        {
          "internalType": "string",
          "name": "phone",
          "type": "string"
        },
        {
          "internalType": "bool",
          "name": "isRegistered",
          "type": "bool"
        },
        {
          "internalType": "bool",
          "name": "isActive",
          "type": "bool"
        },
        {
          "internalType": "uint256",
          "name": "savings",
          "type": "uint256"
        },
        {
          "internalType": "uint256",
          "name": "pendingDividends",
          "type": "uint256"
        },
        {
          "internalType": "uint256",
          "name": "joinedAt",
          "type": "uint256"
        }
      ],
      "stateMutability": "view",
      "type": "function"
    },
    {
      "inputs": [],
      "name": "getMemberList",
      "outputs": [
        {
          "internalType": "address[]",
          "name": "",
          "type": "address[]"
        }
      ],
      "stateMutability": "view",
      "type": "function"
    },
    {
      "inputs": [
        {
          "internalType": "address",
          "name": "_newAdmin",
          "type": "address"
        }
      ],
      "name": "initiateAdminTransfer",
      "outputs": [],
      "stateMutability": "nonpayable",
      "type": "function"
    },
    {
      "inputs": [],
      "name": "loanRequestCount",
      "outputs": [
        {
          "internalType": "uint256",
          "name": "",
          "type": "uint256"
        }
      ],
      "stateMutability": "view",
      "type": "function"
    },
    {
      "inputs": [
        {
          "internalType": "uint256",
          "name": "",
          "type": "uint256"
        }
      ],
      "name": "loanRequests",
      "outputs": [
        {
          "internalType": "address",
          "name": "borrower",
          "type": "address"
        },
        {
          "internalType": "uint256",
          "name": "amount",
          "type": "uint256"
        },
        {
          "internalType": "uint256",
          "name": "requestedAt",
          "type": "uint256"
        },
        {
          "internalType": "bool",
          "name": "approved",
          "type": "bool"
        },
        {
          "internalType": "bool",
          "name": "rejected",
          "type": "bool"
        }
      ],
      "stateMutability": "view",
      "type": "function"
    },
    {
      "inputs": [
        {
          "internalType": "address",
          "name": "_wallet",
          "type": "address"
        }
      ],
      "name": "maxLoanAmount",
      "outputs": [
        {
          "internalType": "uint256",
          "name": "",
          "type": "uint256"
        }
      ],
      "stateMutability": "view",
      "type": "function"
    },
    {
      "inputs": [],
      "name": "memberCount",
      "outputs": [
        {
          "internalType": "uint256",
          "name": "",
          "type": "uint256"
        }
      ],
      "stateMutability": "view",
      "type": "function"
    },
    {
      "inputs": [],
      "name": "pause",
      "outputs": [],
      "stateMutability": "nonpayable",
      "type": "function"
    },
    {
      "inputs": [],
      "name": "paused",
      "outputs": [
        {
          "internalType": "bool",
          "name": "",
          "type": "bool"
        }
      ],
      "stateMutability": "view",
      "type": "function"
    },
    {
      "inputs": [],
      "name": "pendingAdmin",
      "outputs": [
        {
          "internalType": "address",
          "name": "",
          "type": "address"
        }
      ],
      "stateMutability": "view",
      "type": "function"
    },
    {
      "inputs": [
        {
          "internalType": "string",
          "name": "_name",
          "type": "string"
        },
        {
          "internalType": "string",
          "name": "_email",
          "type": "string"
        },
        {
          "internalType": "string",
          "name": "_phone",
          "type": "string"
        }
      ],
      "name": "register",
      "outputs": [],
      "stateMutability": "nonpayable",
      "type": "function"
    },
    {
      "inputs": [
        {
          "internalType": "uint256",
          "name": "_requestId",
          "type": "uint256"
        }
      ],
      "name": "rejectLoan",
      "outputs": [],
      "stateMutability": "nonpayable",
      "type": "function"
    },
    {
      "inputs": [
        {
          "internalType": "address",
          "name": "_wallet",
          "type": "address"
        }
      ],
      "name": "removeMember",
      "outputs": [],
      "stateMutability": "nonpayable",
      "type": "function"
    },
    {
      "inputs": [],
      "name": "repayLoan",
      "outputs": [],
      "stateMutability": "payable",
      "type": "function"
    },
    {
      "inputs": [
        {
          "internalType": "uint256",
          "name": "_amount",
          "type": "uint256"
        }
      ],
      "name": "requestLoan",
      "outputs": [
        {
          "internalType": "uint256",
          "name": "requestId",
          "type": "uint256"
        }
      ],
      "stateMutability": "nonpayable",
      "type": "function"
    },
    {
      "inputs": [],
      "name": "reservePool",
      "outputs": [
        {
          "internalType": "uint256",
          "name": "",
          "type": "uint256"
        }
      ],
      "stateMutability": "view",
      "type": "function"
    },
    {
      "inputs": [
        {
          "internalType": "uint256",
          "name": "",
          "type": "uint256"
        }
      ],
      "name": "terms",
      "outputs": [
        {
          "internalType": "uint256",
          "name": "startTime",
          "type": "uint256"
        },
        {
          "internalType": "uint256",
          "name": "endTime",
          "type": "uint256"
        },
        {
          "internalType": "uint256",
          "name": "interestCollected",
          "type": "uint256"
        },
        {
          "internalType": "bool",
          "name": "distributed",
          "type": "bool"
        }
      ],
      "stateMutability": "view",
      "type": "function"
    },
    {
      "inputs": [],
      "name": "totalPool",
      "outputs": [
        {
          "internalType": "uint256",
          "name": "",
          "type": "uint256"
        }
      ],
      "stateMutability": "view",
      "type": "function"
    },
    {
      "inputs": [],
      "name": "unpause",
      "outputs": [],
      "stateMutability": "nonpayable",
      "type": "function"
    },
    {
      "inputs": [
        {
          "internalType": "uint256",
          "name": "_amount",
          "type": "uint256"
        }
      ],
      "name": "withdrawSavings",
      "outputs": [],
      "stateMutability": "nonpayable",
      "type": "function"
    },
    {
      "stateMutability": "payable",
      "type": "receive"
    }
  ],
  "bytecode": "0x60806040523480156200001157600080fd5b50600160008190558054610100600160a81b0319163361010002179055620000386200003e565b62000111565b4260006200005062ed4e0083620000e9565b604080516080810182528481526020808201848152600083850181815260608501828152600680548452600a865292879020955186559251600186015551600285015590516003909301805460ff191693151593909317909255905482518681529182018490529293507f1ddbc5e006a48d33df8ad1d6858a0b775953ba5d26864f81ae30433229c7862b910160405180910390a25050565b808201808211156200010b57634e487b7160e01b600052601160045260246000fd5b92915050565b61348c80620001216000396000f3fe60806040526004361061023f5760003560e01c80638d7036de1161012e578063d7bb99ba116100ab578063ecfb49a31161006f578063ecfb49a314610806578063eec987241461081c578063eee2686214610831578063f851a44014610847578063f966ade71461086c57610291565b8063d7bb99ba14610792578063de48078c1461079a578063de986450146107ba578063e02a4dfd146107da578063ea0e35b1146107f157610291565b8063b786f978116100f2578063b786f97814610687578063bc03bfee1461069d578063c0aa0e8a146106b3578063d119c6361461071a578063d1b332f41461073a57610291565b80638d7036de146105b957806392ecf577146105cf578063a3dbd32914610630578063aadc1ac114610647578063ab6c12df1461066757610291565b806340650c91116101bc578063668038e011610180578063668038e0146105475780637dbdfe7c1461055c5780638456cb59146105715780638b7afe2e146105865780638d5d34291461059957610291565b806340650c91146104a75780634cd08d03146104c25780635c975abb146104e25780635d29cb98146105055780635f5d5f001461052557610291565b80631b3b8671116102035780631b3b86711461036457806326782247146103f45780632ada25961461042c57806333481fc9146104605780633f4ba83a1461049257610291565b80630266f044146102d957806303c83302146103025780630b1ca49a1461031957806311aee3801461033957806317aee51f1461034f57610291565b366102915760405162461bcd60e51b815260206004820152601960248201527f496b696d696e613a2075736520636f6e7472696275746528290000000000000060448201526064015b60405180910390fd5b60405162461bcd60e51b815260206004820152601960248201527f496b696d696e613a20756e6b6e6f776e2066756e6374696f6e000000000000006044820152606401610288565b3480156102e557600080fd5b506102ef60045481565b6040519081526020015b60405180910390f35b34801561030e57600080fd5b50610317610874565b005b34801561032557600080fd5b50610317610334366004612e5f565b610bcb565b34801561034557600080fd5b506102ef60055481565b34801561035b57600080fd5b50610317610db7565b34801561037057600080fd5b506103be61037f366004612e8f565b60009081526009602052604090208054600182015460028301546003909301546001600160a01b039092169390929160ff808216926101009092041690565b604080516001600160a01b039096168652602086019490945292840191909152151560608301521515608082015260a0016102f9565b34801561040057600080fd5b50600254610414906001600160a01b031681565b6040516001600160a01b0390911681526020016102f9565b34801561043857600080fd5b5061044c610447366004612e5f565b610e88565b6040516102f9989796959493929190612eee565b34801561046c57600080fd5b5061048061047b366004612e5f565b6110a8565b6040516102f996959493929190612f6c565b34801561049e57600080fd5b50610317611138565b3480156104b357600080fd5b506102ef66038d7ea4c6800081565b3480156104ce57600080fd5b506103176104dd366004613007565b611171565b3480156104ee57600080fd5b5060015460ff1660405190151581526020016102f9565b34801561051157600080fd5b50610317610520366004612e8f565b61156e565b34801561053157600080fd5b5061053a611698565b6040516102f991906130a1565b34801561055357600080fd5b506103176116fa565b34801561056857600080fd5b506102ef600381565b34801561057d57600080fd5b5061031761195c565b34801561059257600080fd5b50476102ef565b3480156105a557600080fd5b506102ef6105b4366004612e8f565b611993565b3480156105c557600080fd5b506102ef611f4081565b3480156105db57600080fd5b506006546000818152600a602052604090208054600182015460028301546003909301549192909160ff166040805195865260208601949094529284019190915260608301521515608082015260a0016102f9565b34801561063c57600080fd5b506102ef62ed4e0081565b34801561065357600080fd5b50610317610662366004612e8f565b611cba565b34801561067357600080fd5b50610317610682366004612e5f565b6120f8565b34801561069357600080fd5b506102ef600c5481565b3480156106a957600080fd5b506102ef6101f481565b3480156106bf57600080fd5b506106f86106ce366004612e8f565b600a6020526000908152604090208054600182015460028301546003909301549192909160ff1684565b60408051948552602085019390935291830152151560608201526080016102f9565b34801561072657600080fd5b506102ef610735366004612e5f565b6121cd565b34801561074657600080fd5b506103be610755366004612e8f565b60096020526000908152604090208054600182015460028301546003909301546001600160a01b0390921692909160ff8082169161010090041685565b61031761225d565b3480156107a657600080fd5b506103176107b5366004612e5f565b61240b565b3480156107c657600080fd5b506103176107d5366004612e8f565b612656565b3480156107e657600080fd5b506102ef62278d0081565b3480156107fd57600080fd5b506102ef606481565b34801561081257600080fd5b506102ef60035481565b34801561082857600080fd5b506102ef60c881565b34801561083d57600080fd5b506102ef60065481565b34801561085357600080fd5b506001546104149061010090046001600160a01b031681565b6103176128db565b6002600054036108965760405162461bcd60e51b8152600401610288906130ee565b600260009081556006548152600a6020526040902060018101544210156108ff5760405162461bcd60e51b815260206004820152601b60248201527f496b696d696e613a207465726d206e6f7420656e6465642079657400000000006044820152606401610288565b600381015460ff16156109545760405162461bcd60e51b815260206004820152601c60248201527f496b696d696e613a20616c7265616479206469737472696275746564000000006044820152606401610288565b60008160020154116109b35760405162461bcd60e51b815260206004820152602260248201527f496b696d696e613a206e6f20696e74657265737420746f206469737472696275604482015261746560f01b6064820152608401610288565b6000600554116109fb5760405162461bcd60e51b8152602060048201526013602482015272496b696d696e613a206e6f206d656d6265727360681b6044820152606401610288565b60038101805460ff19166001179055600281015460009061271090610a2390611f409061313b565b610a2d9190613152565b9050808260020154610a3f9190613174565b60046000828254610a509190613187565b9091555060009050610a60612c85565b905060005b600b54811015610b51576000600b8281548110610a8457610a8461319a565b60009182526020808320909101546001600160a01b0316808352600790915260409091206003015490915060ff600160a81b90910416610ac45750610b49565b6000808411610adf57600554610ada9086613152565b610b11565b6001600160a01b0382166000908152600760205260409020600401548490610b07908761313b565b610b119190613152565b6001600160a01b038316600090815260076020526040812060050180549293508392909190610b41908490613187565b909155505050505b600101610a65565b506006547fc6570a09263e2dbe9b55b3b62e5c111af20c6cfb770f70c0aab4660ef56cc3378360055485610b859190613152565b604080519283526020830191909152429082015260600160405180910390a260068054906000610bb4836131b0565b9190505550610bc1612d3a565b5050600160005550565b60015461010090046001600160a01b03163314610bfa5760405162461bcd60e51b8152600401610288906131c9565b6001600160a01b038116600090815260076020526040902060030154600160a01b900460ff168015610c4e57506001600160a01b038116600090815260076020526040902060030154600160a81b900460ff165b610c6a5760405162461bcd60e51b815260040161028890613200565b60026001600160a01b038216600090815260086020526040902060049081015460ff1690811115610c9d57610c9d612f56565b14158015610cdc575060016001600160a01b038216600090815260086020526040902060049081015460ff1690811115610cd957610cd9612f56565b14155b610d385760405162461bcd60e51b815260206004820152602760248201527f496b696d696e613a206d656d62657220686173206163746976652f70656e64696044820152663733903637b0b760c91b6064820152608401610288565b6001600160a01b0381166000908152600760205260408120600301805460ff60a81b191690556005805491610d6c83613237565b9190505550806001600160a01b03167f3ac963493df564de734d98633f1145d21512e282ba4c02d3c1011119bf7f286242604051610dac91815260200190565b60405180910390a250565b6002546001600160a01b03163314610e115760405162461bcd60e51b815260206004820152601a60248201527f496b696d696e613a206e6f742070656e64696e672061646d696e0000000000006044820152606401610288565b6002546001546040516001600160a01b0392831692610100909204909116907feea727eb6f741f10667c9ff77aa3a88a17a67fc7e7aedc3526b3f89e9d2da97e90600090a36002805460018054610100600160a81b0319166101006001600160a01b038416021790556001600160a01b0319169055565b6001600160a01b038116600090815260076020526040812060038101546004820154600583015460068401548454606096879687969195869586958695869585946001860194600287019460ff600160a01b8504811695600160a81b90950416938890610ef49061324e565b80601f0160208091040260200160405190810160405280929190818152602001828054610f209061324e565b8015610f6d5780601f10610f4257610100808354040283529160200191610f6d565b820191906000526020600020905b815481529060010190602001808311610f5057829003601f168201915b50505050509750868054610f809061324e565b80601f0160208091040260200160405190810160405280929190818152602001828054610fac9061324e565b8015610ff95780601f10610fce57610100808354040283529160200191610ff9565b820191906000526020600020905b815481529060010190602001808311610fdc57829003601f168201915b5050505050965085805461100c9061324e565b80601f01602080910402602001604051908101604052809291908181526020018280546110389061324e565b80156110855780601f1061105a57610100808354040283529160200191611085565b820191906000526020600020905b81548152906001019060200180831161106857829003601f168201915b505050505095509850985098509850985098509850985050919395975091939597565b600080600080600080600060086000896001600160a01b03166001600160a01b031681526020019081526020016000209050600081600201548260010154116110f2576000611106565b816002015482600101546111069190613174565b8254600184015460028501546003860154600490960154929d919c509a5091985092965060ff90921694509092505050565b60015461010090046001600160a01b031633146111675760405162461bcd60e51b8152600401610288906131c9565b61116f612de3565b565b60015460ff16156111945760405162461bcd60e51b815260040161028890613288565b33600090815260076020526040902060030154600160a01b900460ff16156111fe5760405162461bcd60e51b815260206004820152601b60248201527f496b696d696e613a20616c7265616479207265676973746572656400000000006044820152606401610288565b6064600554106112495760405162461bcd60e51b8152602060048201526016602482015275125ada5b5a5b984e8819dc9bdd5c081a5cc8199d5b1b60521b6044820152606401610288565b8461128f5760405162461bcd60e51b8152602060048201526016602482015275125ada5b5a5b984e881b985b59481c995c5d5a5c995960521b6044820152606401610288565b826112dc5760405162461bcd60e51b815260206004820152601760248201527f496b696d696e613a20656d61696c2072657175697265640000000000000000006044820152606401610288565b806113295760405162461bcd60e51b815260206004820152601760248201527f496b696d696e613a2070686f6e652072657175697265640000000000000000006044820152606401610288565b60405180610120016040528087878080601f016020809104026020016040519081016040528093929190818152602001838380828437600092019190915250505090825250604080516020601f880181900481028201810190925286815291810191908790879081908401838280828437600092019190915250505090825250604080516020601f860181900481028201810190925284815291810191908590859081908401838280828437600092018290525093855250503360208085018290526001604080870182905260608701919091526080860185905260a086018590524260c0909601959095529083526007905250208151819061142c9082613319565b50602082015160018201906114419082613319565b50604082015160028201906114569082613319565b506060820151600382018054608085015160a08601511515600160a81b0260ff60a81b19911515600160a01b026001600160a81b03199093166001600160a01b0390951694909417919091171691909117905560c0820151600482015560e082015160058083019190915561010090920151600690910155600b805460018101825560009182527f0175b7a638427703f0dbe7bb9bbf987a2551717b34e79f33b5b1008d1fa01db90180546001600160a01b031916331790558154919061151c836131b0565b9190505550336001600160a01b03167fb6f8cd4c909b1e70493f5c9a6c487e4924194c208ddd113dd7d671cb4905809c87874260405161155e939291906133d9565b60405180910390a2505050505050565b60015461010090046001600160a01b0316331461159d5760405162461bcd60e51b8152600401610288906131c9565b6000818152600960205260409020600381015460ff161580156115ca57506003810154610100900460ff16155b6116165760405162461bcd60e51b815260206004820152601a60248201527f496b696d696e613a20616c72656164792070726f6365737365640000000000006044820152606401610288565b60038101805461ff00191661010017905580546001600160a01b03166000908152600860205260408120600401805460ff1916600183021790555080546040514281526001600160a01b039091169083907fab0e20c72eaa566ce0daef9ab1c37cb8bd61bb60fbbb6cdfe213dc86f37e5d7f9060200160405180910390a35050565b6060600b8054806020026020016040519081016040528092919081815260200182805480156116f057602002820191906000526020600020905b81546001600160a01b031681526001909101906020018083116116d2575b5050505050905090565b33600090815260076020526040902060030154600160a01b900460ff16801561173c575033600090815260076020526040902060030154600160a81b900460ff165b6117585760405162461bcd60e51b815260040161028890613200565b60026000540361177a5760405162461bcd60e51b8152600401610288906130ee565b600260005560015460ff16156117a25760405162461bcd60e51b815260040161028890613288565b33600090815260076020526040902060050154806118025760405162461bcd60e51b815260206004820152601e60248201527f496b696d696e613a206e6f206469766964656e647320746f20636c61696d00006044820152606401610288565b8060035410156118545760405162461bcd60e51b815260206004820152601a60248201527f496b696d696e613a20706f6f6c20696e73756666696369656e740000000000006044820152606401610288565b3360009081526007602052604081206005018190556003805483929061187b908490613174565b90915550506040805182815242602082015233917fa1c93169468f71ef26f4adf10bca8df21460f11843a01ed9c69da306e33c384791015b60405180910390a2604051600090339083908381818185875af1925050503d80600081146118fd576040519150601f19603f3d011682016040523d82523d6000602084013e611902565b606091505b50509050806119535760405162461bcd60e51b815260206004820152601c60248201527f496b696d696e613a20455448207472616e73666572206661696c6564000000006044820152606401610288565b50506001600055565b60015461010090046001600160a01b0316331461198b5760405162461bcd60e51b8152600401610288906131c9565b61116f612e23565b33600090815260076020526040812060030154600160a01b900460ff1680156119d5575033600090815260076020526040902060030154600160a81b900460ff165b6119f15760405162461bcd60e51b815260040161028890613200565b60015460ff1615611a145760405162461bcd60e51b815260040161028890613288565b60008211611a645760405162461bcd60e51b815260206004820152601b60248201527f496b696d696e613a20616d6f756e74206d757374206265203e203000000000006044820152606401610288565b600233600090815260086020526040902060049081015460ff1690811115611a8e57611a8e612f56565b14158015611ac45750600133600090815260086020526040902060049081015460ff1690811115611ac157611ac1612f56565b14155b611b1e5760405162461bcd60e51b815260206004820152602560248201527f496b696d696e613a206578697374696e67206c6f616e2070656e64696e672f61604482015264637469766560d81b6064820152608401610288565b33600090815260076020526040902060040154611b3d9060039061313b565b821115611b965760405162461bcd60e51b815260206004820152602160248201527f496b696d696e613a206578636565647320337820736176696e6773206c696d696044820152601d60fa1b6064820152608401610288565b600354821115611bb85760405162461bcd60e51b815260040161028890613412565b600c8054906000611bc8836131b0565b909155506040805160a08101825233808252602080830187815242848601818152600060608701818152608088018281528a835260098752898320985189546001600160a01b039091166001600160a01b031990911617895594516001808a0191909155925160028901555160039097018054945115156101000261ff00199815159890981661ffff1990951694909417969096179092558385526008835293859020600401805460ff1916909117905583518781529081019290925292935083917f68595dbe887ae7f496f2c88735019a8918919a1decfdee6bdb460480ab87decb910160405180910390a3919050565b60015461010090046001600160a01b03163314611ce95760405162461bcd60e51b8152600401610288906131c9565b600260005403611d0b5760405162461bcd60e51b8152600401610288906130ee565b600260005560015460ff1615611d335760405162461bcd60e51b815260040161028890613288565b6000818152600960205260409020600381015460ff16158015611d6057506003810154610100900460ff16155b611dac5760405162461bcd60e51b815260206004820152601a60248201527f496b696d696e613a20616c72656164792070726f6365737365640000000000006044820152606401610288565b600181546001600160a01b0316600090815260086020526040902060049081015460ff1690811115611de057611de0612f56565b14611e245760405162461bcd60e51b8152602060048201526014602482015273496b696d696e613a206e6f742070656e64696e6760601b6044820152606401610288565b60035481600101541115611e7a5760405162461bcd60e51b815260206004820152601a60248201527f496b696d696e613a20696e73756666696369656e7420706f6f6c0000000000006044820152606401610288565b60038101805460ff1916600190811790915581015460009061271090611ea3906101f49061313b565b611ead9190613152565b90506000818360010154611ec19190613187565b90506000611ed262278d0042613187565b90506040518060a00160405280856001015481526020018381526020016000815260200182815260200160026004811115611f0f57611f0f612f56565b905284546001600160a01b031660009081526008602090815260409182902083518155908301516001828101919091559183015160028201556060830151600382015560808301516004808301805493949293909260ff19909116918490811115611f7c57611f7c612f56565b0217905550905050836001015460036000828254611f9a9190613174565b909155505083546001850154604080519182524260208301526001600160a01b039092169187917fb2c6de76341d4f1188da5458fd8729cbc0e9278f99e8992f40f36900bcef78cb910160405180910390a383546001850154604080519182526020820185905281018390524260608201526001600160a01b03909116907fb9cd2512dd634bb7cdbb1dc9fb2d451a57e0dd9724cf51ab8414abfe570199a49060800160405180910390a2835460018501546040516000926001600160a01b031691908381818185875af1925050503d8060008114612095576040519150601f19603f3d011682016040523d82523d6000602084013e61209a565b606091505b50509050806120eb5760405162461bcd60e51b815260206004820152601c60248201527f496b696d696e613a20455448207472616e73666572206661696c6564000000006044820152606401610288565b5050600160005550505050565b60015461010090046001600160a01b031633146121275760405162461bcd60e51b8152600401610288906131c9565b6001600160a01b0381166121755760405162461bcd60e51b8152602060048201526015602482015274496b696d696e613a207a65726f206164647265737360581b6044820152606401610288565b600280546001600160a01b0319166001600160a01b03838116918217909255600154604051919261010090910416907fb4d7bcb4d9a5d6ef6e827e3b1554e5a2578ad9ca843903d42b05d08bfa34589490600090a350565b6001600160a01b038116600090815260076020526040812060030154600160a01b900460ff16158061222257506001600160a01b038216600090815260076020526040902060030154600160a81b900460ff16155b1561222f57506000919050565b6001600160a01b0382166000908152600760205260409020600401546122579060039061313b565b92915050565b33600090815260076020526040902060030154600160a01b900460ff16801561229f575033600090815260076020526040902060030154600160a81b900460ff165b6122bb5760405162461bcd60e51b815260040161028890613200565b6002600054036122dd5760405162461bcd60e51b8152600401610288906130ee565b600260005560015460ff16156123055760405162461bcd60e51b815260040161028890613288565b66038d7ea4c680003410156123685760405162461bcd60e51b815260206004820152602360248201527f496b696d696e613a2062656c6f77206d696e696d756d20636f6e74726962757460448201526234b7b760e91b6064820152608401610288565b336000908152600760205260408120600401805434929061238a908490613187565b9250508190555034600360008282546123a39190613187565b909155505033600081815260076020908152604091829020600401546003548351348152928301919091528183015242606082015290517f38eaf060ddec1dde1c99c9cce5c8f34a03c48e9368f6ff7b768898f6278605809181900360800190a26001600055565b60015461010090046001600160a01b0316331461243a5760405162461bcd60e51b8152600401610288906131c9565b6001600160a01b0381166000908152600860205260409020600260048083015460ff169081111561246d5761246d612f56565b146124b45760405162461bcd60e51b815260206004820152601760248201527624b5b4b6b4b7309d1037379030b1ba34bb32903637b0b760491b6044820152606401610288565b806003015442116125075760405162461bcd60e51b815260206004820152601960248201527f496b696d696e613a206c6f616e206e6f74206f766572647565000000000000006044820152606401610288565b60008160020154826001015461251d9190613174565b90506000811161256f5760405162461bcd60e51b815260206004820152601860248201527f496b696d696e613a20616c726561647920736574746c656400000000000000006044820152606401610288565b600061271061257f60c88461313b565b6125899190613152565b90508083600101600082825461259f9190613187565b90915550506004838101805460ff19169091179055604080518281524260208201526001600160a01b038616917fcf40cadcd86c14cb7e696a86578255719f67bc54bf991d45d267ee6e01467c19910160405180910390a26001600160a01b0384167f2846d120b0ac120b4495cd52f69d161236e146706bc5e2b85d01884744797c8061262c8385613187565b6003860154604080519283526020830191909152429082015260600160405180910390a250505050565b33600090815260076020526040902060030154600160a01b900460ff168015612698575033600090815260076020526040902060030154600160a81b900460ff165b6126b45760405162461bcd60e51b815260040161028890613200565b6002600054036126d65760405162461bcd60e51b8152600401610288906130ee565b600260005560015460ff16156126fe5760405162461bcd60e51b815260040161028890613288565b6000811161274e5760405162461bcd60e51b815260206004820152601b60248201527f496b696d696e613a20616d6f756e74206d757374206265203e203000000000006044820152606401610288565b600233600090815260086020526040902060049081015460ff169081111561277857612778612f56565b036127c55760405162461bcd60e51b815260206004820181905260248201527f496b696d696e613a20726570617920616374697665206c6f616e2066697273746044820152606401610288565b336000908152600760205260409020600401548111156128275760405162461bcd60e51b815260206004820152601d60248201527f496b696d696e613a20696e73756666696369656e7420736176696e67730000006044820152606401610288565b8060035410156128495760405162461bcd60e51b815260040161028890613412565b336000908152600760205260408120600401805483929061286b908490613174565b9250508190555080600360008282546128849190613174565b9091555050336000818152600760209081526040918290206004015482518581529182015242918101919091527fa7b927747255bae4c9b535ee84804707f42b787d2a0c4a461f0c3a77f91ea82c906060016118b3565b33600090815260076020526040902060030154600160a01b900460ff16801561291d575033600090815260076020526040902060030154600160a81b900460ff165b6129395760405162461bcd60e51b815260040161028890613200565b60026000540361295b5760405162461bcd60e51b8152600401610288906130ee565b600260005560015460ff16156129835760405162461bcd60e51b815260040161028890613288565b600034116129d35760405162461bcd60e51b815260206004820152601e60248201527f496b696d696e613a2072657061796d656e74206d757374206265203e203000006044820152606401610288565b336000908152600860205260409020600260048083015460ff16908111156129fd576129fd612f56565b14612a445760405162461bcd60e51b815260206004820152601760248201527624b5b4b6b4b7309d1037379030b1ba34bb32903637b0b760491b6044820152606401610288565b600081600201548260010154612a5a9190613174565b905060008111612aac5760405162461bcd60e51b815260206004820152601d60248201527f496b696d696e613a206c6f616e20616c726561647920736574746c65640000006044820152606401610288565b6000813411612abb5734612abd565b815b90506000612acb8234613174565b905081846002016000828254612ae19190613187565b925050819055508160036000828254612afa9190613187565b90915550506001840154845460009190612b149082613174565b612b1e908561313b565b612b289190613152565b905080600a600060065481526020019081526020016000206002016000828254612b529190613187565b90915550506001850154600286015410801590612b795760048601805460ff191660031790555b336001600160a01b03167fe627c02a755f08984abd2c21256818bf256e5d05844b76056c4e621785908a098588600201548960010154612bb99190613174565b6040805192835260208301919091528415159082015242606082015260800160405180910390a282156120eb57604051600090339085908381818185875af1925050503d8060008114612c28576040519150601f19603f3d011682016040523d82523d6000602084013e612c2d565b606091505b5050905080612c775760405162461bcd60e51b8152602060048201526016602482015275125ada5b5a5b984e881c99599d5b990819985a5b195960521b6044820152606401610288565b505050600160005550505050565b6000805b600b54811015612d365760076000600b8381548110612caa57612caa61319a565b60009182526020808320909101546001600160a01b0316835282019290925260400190206003015460ff600160a81b9091041615612d2e5760076000600b8381548110612cf957612cf961319a565b60009182526020808320909101546001600160a01b03168352820192909252604001902060040154612d2b9083613187565b91505b600101612c89565b5090565b426000612d4a62ed4e0083613187565b604080516080810182528481526020808201848152600083850181815260608501828152600680548452600a865292879020955186559251600186015551600285015590516003909301805460ff191693151593909317909255905482518681529182018490529293507f1ddbc5e006a48d33df8ad1d6858a0b775953ba5d26864f81ae30433229c7862b910160405180910390a25050565b6001805460ff191690556040513381527f5db9ee0a495bf2e6ff9c91a7834c1ba4fdd244a5e8aa4e537bd38aeae4b073aa906020015b60405180910390a1565b6001805460ff1916811790556040513381527f62e78cea01bee320cd4e420270b5ea74000d11b0c9f74754ebdbfc544b05a25890602001612e19565b600060208284031215612e7157600080fd5b81356001600160a01b0381168114612e8857600080fd5b9392505050565b600060208284031215612ea157600080fd5b5035919050565b6000815180845260005b81811015612ece57602081850181015186830182015201612eb2565b506000602082860101526020601f19601f83011685010191505092915050565b6000610100808352612f028184018c612ea8565b90508281036020840152612f16818b612ea8565b90508281036040840152612f2a818a612ea8565b97151560608401525050931515608085015260a084019290925260c083015260e0909101529392505050565b634e487b7160e01b600052602160045260246000fd5b600060c08201905087825286602083015285604083015284606083015283608083015260058310612fad57634e487b7160e01b600052602160045260246000fd5b8260a0830152979650505050505050565b60008083601f840112612fd057600080fd5b50813567ffffffffffffffff811115612fe857600080fd5b60208301915083602082850101111561300057600080fd5b9250929050565b6000806000806000806060878903121561302057600080fd5b863567ffffffffffffffff8082111561303857600080fd5b6130448a838b01612fbe565b9098509650602089013591508082111561305d57600080fd5b6130698a838b01612fbe565b9096509450604089013591508082111561308257600080fd5b5061308f89828a01612fbe565b979a9699509497509295939492505050565b6020808252825182820181905260009190848201906040850190845b818110156130e25783516001600160a01b0316835292840192918401916001016130bd565b50909695505050505050565b6020808252601f908201527f5265656e7472616e637947756172643a207265656e7472616e742063616c6c00604082015260600190565b634e487b7160e01b600052601160045260246000fd5b808202811582820484141761225757612257613125565b60008261316f57634e487b7160e01b600052601260045260246000fd5b500490565b8181038181111561225757612257613125565b8082018082111561225757612257613125565b634e487b7160e01b600052603260045260246000fd5b6000600182016131c2576131c2613125565b5060010190565b6020808252601c908201527f496b696d696e613a2063616c6c6572206973206e6f742061646d696e00000000604082015260600190565b6020808252601d908201527f496b696d696e613a206e6f7420616e20616374697665206d656d626572000000604082015260600190565b60008161324657613246613125565b506000190190565b600181811c9082168061326257607f821691505b60208210810361328257634e487b7160e01b600052602260045260246000fd5b50919050565b60208082526010908201526f14185d5cd8589b194e881c185d5cd95960821b604082015260600190565b634e487b7160e01b600052604160045260246000fd5b601f821115613314576000816000526020600020601f850160051c810160208610156132f15750805b601f850160051c820191505b81811015613310578281556001016132fd565b5050505b505050565b815167ffffffffffffffff811115613333576133336132b2565b61334781613341845461324e565b846132c8565b602080601f83116001811461337c57600084156133645750858301515b600019600386901b1c1916600185901b178555613310565b600085815260208120601f198616915b828110156133ab5788860151825594840194600190910190840161338c565b50858210156133c95787850151600019600388901b60f8161c191681555b5050505050600190811b01905550565b604081528260408201528284606083013760006060848301015260006060601f19601f8601168301019050826020830152949350505050565b60208082526024908201527f496b696d696e613a20696e73756666696369656e7420706f6f6c206c697175696040820152636469747960e01b60608201526080019056fea264697066735822122005cefb923eb967c937e670b9a88aea436f680fb096a75f61cd71fc9ed5416b0764736f6c63430008180033",
  "linkReferences": {},
  "deployedLinkReferences": {}
}