{"contracts/IkiminaV1.sol":{"IkiminaV1":{"abi":[{"anonymous":false,"inputs":[{"indexed":false,"internalType":"address","name":"previousAdmin","type":"address"},{"indexed":false,"internalType":"address","name":"newAdmin","type":"address"}],"name":"AdminChanged","type":"event"},{"anonymous":false,"inputs":[{"indexed":true,"internalType":"address","name":"beacon","type":"address"}],"name":"BeaconUpgraded","type":"event"},{"anonymous":false,"inputs":[{"indexed":true,"internalType":"address","name":"implementation","type":"address"},{"indexed":false,"internalType":"string","name":"newVersion","type":"string"},{"indexed":false,"internalType":"uint256","name":"timestamp","type":"uint256"}],"name":"ContractUpgraded","type":"event"},{"anonymous":false,"inputs":[{"indexed":true,"internalType":"address","name":"member","type":"address"},{"indexed":false,"internalType":"uint256","name":"amount","type":"uint256"},{"indexed":false,"internalType":"uint256","name":"newSavings","type":"uint256"},{"indexed":false,"internalType":"uint256","name":"newTotalPool","type":"uint256"},{"indexed":false,"internalType":"uint256","name":"timestamp","type":"uint256"}],"name":"ContributionMade","type":"event"},{"anonymous":false,"inputs":[{"indexed":true,"internalType":"address","name":"member","type":"address"},{"indexed":false,"internalType":"uint256","name":"amount","type":"uint256"},{"indexed":false,"internalType":"uint256","name":"timestamp","type":"uint256"}],"name":"DividendClaimed","type":"event"},{"anonymous":false,"inputs":[{"indexed":true,"internalType":"uint256","name":"termId","type":"uint256"},{"indexed":false,"internalType":"uint256","name":"totalDividend","type":"uint256"},{"indexed":false,"internalType":"uint256","name":"memberShare","type":"uint256"},{"indexed":false,"internalType":"uint256","name":"timestamp","type":"uint256"}],"name":"DividendDistributed","type":"event"},{"anonymous":false,"inputs":[{"indexed":false,"internalType":"uint8","name":"version","type":"uint8"}],"name":"Initialized","type":"event"},{"anonymous":false,"inputs":[{"indexed":true,"internalType":"uint256","name":"requestId","type":"uint256"},{"indexed":true,"internalType":"address","name":"borrower","type":"address"},{"indexed":false,"internalType":"uint256","name":"amount","type":"uint256"},{"indexed":false,"internalType":"uint256","name":"timestamp","type":"uint256"}],"name":"LoanApproved","type":"event"},{"anonymous":false,"inputs":[{"indexed":true,"internalType":"address","name":"borrower","type":"address"},{"indexed":false,"internalType":"uint256","name":"amount","type":"uint256"},{"indexed":false,"internalType":"uint256","name":"totalOwed","type":"uint256"},{"indexed":false,"internalType":"uint256","name":"deadline","type":"uint256"},{"indexed":false,"internalType":"uint256","name":"timestamp","type":"uint256"}],"name":"LoanAutoApproved","type":"event"},{"anonymous":false,"inputs":[{"indexed":true,"internalType":"address","name":"borrower","type":"address"},{"indexed":false,"internalType":"uint256","name":"amountOwed","type":"uint256"},{"indexed":false,"internalType":"uint256","name":"deadline","type":"uint256"},{"indexed":false,"internalType":"uint256","name":"timestamp","type":"uint256"}],"name":"LoanDefaulted","type":"event"},{"anonymous":false,"inputs":[{"indexed":true,"internalType":"address","name":"borrower","type":"address"},{"indexed":false,"internalType":"uint256","name":"principal","type":"uint256"},{"indexed":false,"internalType":"uint256","name":"totalOwed","type":"uint256"},{"indexed":false,"internalType":"uint256","name":"deadline","type":"uint256"},{"indexed":false,"internalType":"uint256","name":"timestamp","type":"uint256"}],"name":"LoanDisbursed","type":"event"},{"anonymous":false,"inputs":[{"indexed":true,"internalType":"uint256","name":"requestId","type":"uint256"},{"indexed":true,"internalType":"address","name":"borrower","type":"address"},{"indexed":false,"internalType":"uint256","name":"timestamp","type":"uint256"}],"name":"LoanRejected","type":"event"},{"anonymous":false,"inputs":[{"indexed":true,"internalType":"address","name":"borrower","type":"address"},{"indexed":false,"internalType":"uint256","name":"amountPaid","type":"uint256"},{"indexed":false,"internalType":"uint256","name":"remainingOwed","type":"uint256"},{"indexed":false,"internalType":"bool","name":"loanClosed","type":"bool"},{"indexed":false,"internalType":"uint256","name":"timestamp","type":"uint256"}],"name":"LoanRepaid","type":"event"},{"anonymous":false,"inputs":[{"indexed":true,"internalType":"uint256","name":"requestId","type":"uint256"},{"indexed":true,"internalType":"address","name":"borrower","type":"address"},{"indexed":false,"internalType":"uint256","name":"amount","type":"uint256"},{"indexed":false,"internalType":"bool","name":"autoApproved","type":"bool"},{"indexed":false,"internalType":"uint256","name":"timestamp","type":"uint256"}],"name":"LoanRequested","type":"event"},{"anonymous":false,"inputs":[{"indexed":true,"internalType":"address","name":"wallet","type":"address"},{"indexed":false,"internalType":"string","name":"name","type":"string"},{"indexed":false,"internalType":"enum IkiminaV1.MemberRole","name":"role","type":"uint8"},{"indexed":false,"internalType":"uint256","name":"timestamp","type":"uint256"}],"name":"MemberRegistered","type":"event"},{"anonymous":false,"inputs":[{"indexed":true,"internalType":"address","name":"wallet","type":"address"},{"indexed":false,"internalType":"uint256","name":"timestamp","type":"uint256"}],"name":"MemberRemoved","type":"event"},{"anonymous":false,"inputs":[{"indexed":true,"internalType":"address","name":"previousOwner","type":"address"},{"indexed":true,"internalType":"address","name":"newOwner","type":"address"}],"name":"OwnershipTransferred","type":"event"},{"anonymous":false,"inputs":[{"indexed":false,"internalType":"address","name":"account","type":"address"}],"name":"Paused","type":"event"},{"anonymous":false,"inputs":[{"indexed":true,"internalType":"address","name":"borrower","type":"address"},{"indexed":false,"internalType":"uint256","name":"penaltyAmount","type":"uint256"},{"indexed":false,"internalType":"uint256","name":"timestamp","type":"uint256"}],"name":"PenaltyApplied","type":"event"},{"anonymous":false,"inputs":[{"indexed":true,"internalType":"address","name":"member","type":"address"},{"indexed":false,"internalType":"enum IkiminaV1.MemberRole","name":"oldRole","type":"uint8"},{"indexed":false,"internalType":"enum IkiminaV1.MemberRole","name":"newRole","type":"uint8"},{"indexed":false,"internalType":"uint256","name":"timestamp","type":"uint256"}],"name":"RoleUpdated","type":"event"},{"anonymous":false,"inputs":[{"indexed":true,"internalType":"uint256","name":"termId","type":"uint256"},{"indexed":false,"internalType":"uint256","name":"startTime","type":"uint256"},{"indexed":false,"internalType":"uint256","name":"endTime","type":"uint256"}],"name":"TermStarted","type":"event"},{"anonymous":false,"inputs":[{"indexed":false,"internalType":"address","name":"account","type":"address"}],"name":"Unpaused","type":"event"},{"anonymous":false,"inputs":[{"indexed":true,"internalType":"address","name":"implementation","type":"address"}],"name":"Upgraded","type":"event"},{"anonymous":false,"inputs":[{"indexed":true,"internalType":"address","name":"member","type":"address"},{"indexed":false,"internalType":"uint256","name":"amount","type":"uint256"},{"indexed":false,"internalType":"uint256","name":"remainingSavings","type":"uint256"},{"indexed":false,"internalType":"uint256","name":"timestamp","type":"uint256"}],"name":"WithdrawalMade","type":"event"},{"stateMutability":"payable","type":"fallback"},{"inputs":[],"name":"AUTO_APPROVAL_MAX_PERCENTAGE","outputs":[{"internalType":"uint256","name":"","type":"uint256"}],"stateMutability":"view","type":"function"},{"inputs":[],"name":"DIVIDEND_BPS","outputs":[{"internalType":"uint256","name":"","type":"uint256"}],"stateMutability":"view","type":"function"},{"inputs":[],"name":"INTEREST_BPS","outputs":[{"internalType":"uint256","name":"","type":"uint256"}],"stateMutability":"view","type":"function"},{"inputs":[],"name":"LATE_PENALTY_BPS","outputs":[{"internalType":"uint256","name":"","type":"uint256"}],"stateMutability":"view","type":"function"},{"inputs":[],"name":"LOAN_DURATION","outputs":[{"internalType":"uint256","name":"","type":"uint256"}],"stateMutability":"view","type":"function"},{"inputs":[],"name":"LOAN_MULTIPLIER","outputs":[{"internalType":"uint256","name":"","type":"uint256"}],"stateMutability":"view","type":"function"},{"inputs":[],"name":"MAX_LOAN_PERCENTAGE","outputs":[{"internalType":"uint256","name":"","type":"uint256"}],"stateMutability":"view","type":"function"},{"inputs":[],"name":"MAX_MEMBERS","outputs":[{"internalType":"uint256","name":"","type":"uint256"}],"stateMutability":"view","type":"function"},{"inputs":[],"name":"MIN_CONTRIBUTION","outputs":[{"internalType":"uint256","name":"","type":"uint256"}],"stateMutability":"view","type":"function"},{"inputs":[],"name":"NEW_MEMBER_TENURE_DAYS","outputs":[{"internalType":"uint256","name":"","type":"uint256"}],"stateMutability":"view","type":"function"},{"inputs":[],"name":"REQUIRED_RESERVE_PERCENTAGE","outputs":[{"internalType":"uint256","name":"","type":"uint256"}],"stateMutability":"view","type":"function"},{"inputs":[],"name":"TERM_DURATION","outputs":[{"internalType":"uint256","name":"","type":"uint256"}],"stateMutability":"view","type":"function"},{"inputs":[],"name":"acceptAdminTransfer","outputs":[],"stateMutability":"nonpayable","type":"function"},{"inputs":[],"name":"admin","outputs":[{"internalType":"address","name":"","type":"address"}],"stateMutability":"view","type":"function"},{"inputs":[{"internalType":"uint256","name":"_requestId","type":"uint256"}],"name":"approveLoan","outputs":[],"stateMutability":"nonpayable","type":"function"},{"inputs":[],"name":"autoApprovedCount","outputs":[{"internalType":"uint256","name":"","type":"uint256"}],"stateMutability":"view","type":"function"},{"inputs":[],"name":"claimDividends","outputs":[],"stateMutability":"nonpayable","type":"function"},{"inputs":[],"name":"contractBalance","outputs":[{"internalType":"uint256","name":"","type":"uint256"}],"stateMutability":"view","type":"function"},{"inputs":[],"name":"contribute","outputs":[],"stateMutability":"payable","type":"function"},{"inputs":[],"name":"currentTermId","outputs":[{"internalType":"uint256","name":"","type":"uint256"}],"stateMutability":"view","type":"function"},{"inputs":[],"name":"distributeDividends","outputs":[],"stateMutability":"nonpayable","type":"function"},{"inputs":[{"internalType":"address","name":"_to","type":"address"},{"internalType":"uint256","name":"_amount","type":"uint256"}],"name":"emergencyWithdraw","outputs":[],"stateMutability":"nonpayable","type":"function"},{"inputs":[{"internalType":"address","name":"_borrower","type":"address"}],"name":"flagDefault","outputs":[],"stateMutability":"nonpayable","type":"function"},{"inputs":[],"name":"getAvailableLoanCapacity","outputs":[{"internalType":"uint256","name":"","type":"uint256"}],"stateMutability":"view","type":"function"},{"inputs":[],"name":"getCurrentTerm","outputs":[{"internalType":"uint256","name":"termId","type":"uint256"},{"internalType":"uint256","name":"startTime","type":"uint256"},{"internalType":"uint256","name":"endTime","type":"uint256"},{"internalType":"uint256","name":"interestCollected","type":"uint256"},{"internalType":"bool","name":"distributed","type":"bool"}],"stateMutability":"view","type":"function"},{"inputs":[{"internalType":"address","name":"_wallet","type":"address"}],"name":"getLoan","outputs":[{"internalType":"uint256","name":"principal","type":"uint256"},{"internalType":"uint256","name":"totalOwed","type":"uint256"},{"internalType":"uint256","name":"amountRepaid","type":"uint256"},{"internalType":"uint256","name":"remainingOwed","type":"uint256"},{"internalType":"uint256","name":"deadline","type":"uint256"},{"internalType":"enum IkiminaV1.LoanStatus","name":"status","type":"uint8"}],"stateMutability":"view","type":"function"},{"inputs":[{"internalType":"uint256","name":"_requestId","type":"uint256"}],"name":"getLoanRequest","outputs":[{"internalType":"address","name":"borrower","type":"address"},{"internalType":"uint256","name":"amount","type":"uint256"},{"internalType":"uint256","name":"requestedAt","type":"uint256"},{"internalType":"bool","name":"approved","type":"bool"},{"internalType":"bool","name":"rejected","type":"bool"}],"stateMutability":"view","type":"function"},{"inputs":[{"internalType":"address","name":"_wallet","type":"address"}],"name":"getMember","outputs":[{"internalType":"string","name":"name","type":"string"},{"internalType":"string","name":"email","type":"string"},{"internalType":"string","name":"phone","type":"string"},{"internalType":"bool","name":"isRegistered","type":"bool"},{"internalType":"bool","name":"isActive","type":"bool"},{"internalType":"uint256","name":"savings","type":"uint256"},{"internalType":"uint256","name":"pendingDividends","type":"uint256"},{"internalType":"uint256","name":"joinedAt","type":"uint256"},{"internalType":"enum IkiminaV1.MemberRole","name":"role","type":"uint8"}],"stateMutability":"view","type":"function"},{"inputs":[],"name":"getMemberList","outputs":[{"internalType":"address[]","name":"","type":"address[]"}],"stateMutability":"view","type":"function"},{"inputs":[{"internalType":"address","name":"_wallet","type":"address"}],"name":"getMemberRole","outputs":[{"internalType":"enum IkiminaV1.MemberRole","name":"","type":"uint8"}],"stateMutability":"view","type":"function"},{"inputs":[],"name":"getPoolBasedMaxLoan","outputs":[{"internalType":"uint256","name":"","type":"uint256"}],"stateMutability":"view","type":"function"},{"inputs":[],"name":"initialize","outputs":[],"stateMutability":"nonpayable","type":"function"},{"inputs":[{"internalType":"address","name":"_newAdmin","type":"address"}],"name":"initiateAdminTransfer","outputs":[],"stateMutability":"nonpayable","type":"function"},{"inputs":[{"internalType":"address","name":"_wallet","type":"address"}],"name":"isLeader","outputs":[{"internalType":"bool","name":"","type":"bool"}],"stateMutability":"view","type":"function"},{"inputs":[],"name":"lastUpgradeTimestamp","outputs":[{"internalType":"uint256","name":"","type":"uint256"}],"stateMutability":"view","type":"function"},{"inputs":[],"name":"loanRequestCount","outputs":[{"internalType":"uint256","name":"","type":"uint256"}],"stateMutability":"view","type":"function"},{"inputs":[{"internalType":"uint256","name":"","type":"uint256"}],"name":"loanRequests","outputs":[{"internalType":"address","name":"borrower","type":"address"},{"internalType":"uint256","name":"amount","type":"uint256"},{"internalType":"uint256","name":"requestedAt","type":"uint256"},{"internalType":"bool","name":"approved","type":"bool"},{"internalType":"bool","name":"rejected","type":"bool"}],"stateMutability":"view","type":"function"},{"inputs":[{"internalType":"address","name":"","type":"address"}],"name":"loans","outputs":[{"internalType":"uint256","name":"principal","type":"uint256"},{"internalType":"uint256","name":"totalOwed","type":"uint256"},{"internalType":"uint256","name":"amountRepaid","type":"uint256"},{"internalType":"uint256","name":"deadline","type":"uint256"},{"internalType":"enum IkiminaV1.LoanStatus","name":"status","type":"uint8"}],"stateMutability":"view","type":"function"},{"inputs":[],"name":"manuallyApprovedCount","outputs":[{"internalType":"uint256","name":"","type":"uint256"}],"stateMutability":"view","type":"function"},{"inputs":[{"internalType":"address","name":"_wallet","type":"address"}],"name":"maxLoanAmount","outputs":[{"internalType":"uint256","name":"","type":"uint256"}],"stateMutability":"view","type":"function"},{"inputs":[],"name":"memberCount","outputs":[{"internalType":"uint256","name":"","type":"uint256"}],"stateMutability":"view","type":"function"},{"inputs":[{"internalType":"uint256","name":"","type":"uint256"}],"name":"memberList","outputs":[{"internalType":"address","name":"","type":"address"}],"stateMutability":"view","type":"function"},{"inputs":[{"internalType":"address","name":"","type":"address"}],"name":"members","outputs":[{"internalType":"string","name":"name","type":"string"},{"internalType":"string","name":"email","type":"string"},{"internalType":"string","name":"phone","type":"string"},{"internalType":"address","name":"wallet","type":"address"},{"internalType":"bool","name":"isRegistered","type":"bool"},{"internalType":"bool","name":"isActive","type":"bool"},{"internalType":"uint256","name":"savings","type":"uint256"},{"internalType":"uint256","name":"pendingDividends","type":"uint256"},{"internalType":"uint256","name":"joinedAt","type":"uint256"},{"internalType":"enum IkiminaV1.MemberRole","name":"role","type":"uint8"}],"stateMutability":"view","type":"function"},{"inputs":[],"name":"owner","outputs":[{"internalType":"address","name":"","type":"address"}],"stateMutability":"view","type":"function"},{"inputs":[],"name":"pause","outputs":[],"stateMutability":"nonpayable","type":"function"},{"inputs":[],"name":"paused","outputs":[{"internalType":"bool","name":"","type":"bool"}],"stateMutability":"view","type":"function"},{"inputs":[],"name":"pendingAdmin","outputs":[{"internalType":"address","name":"","type":"address"}],"stateMutability":"view","type":"function"},{"inputs":[],"name":"proxiableUUID","outputs":[{"internalType":"bytes32","name":"","type":"bytes32"}],"stateMutability":"view","type":"function"},{"inputs":[{"internalType":"address","name":"_member","type":"address"},{"internalType":"uint256","name":"_amount","type":"uint256"}],"name":"qualifiesForAutoApproval","outputs":[{"internalType":"bool","name":"","type":"bool"}],"stateMutability":"view","type":"function"},{"inputs":[{"internalType":"string","name":"_name","type":"string"},{"internalType":"string","name":"_email","type":"string"},{"internalType":"string","name":"_phone","type":"string"},{"internalType":"address","name":"_wallet","type":"address"},{"internalType":"enum IkiminaV1.MemberRole","name":"_role","type":"uint8"}],"name":"register","outputs":[],"stateMutability":"nonpayable","type":"function"},{"inputs":[{"internalType":"uint256","name":"_requestId","type":"uint256"}],"name":"rejectLoan","outputs":[],"stateMutability":"nonpayable","type":"function"},{"inputs":[{"internalType":"address","name":"_wallet","type":"address"}],"name":"removeMember","outputs":[],"stateMutability":"nonpayable","type":"function"},{"inputs":[],"name":"renounceOwnership","outputs":[],"stateMutability":"nonpayable","type":"function"},{"inputs":[],"name":"repayLoan","outputs":[],"stateMutability":"payable","type":"function"},{"inputs":[{"internalType":"uint256","name":"_amount","type":"uint256"}],"name":"requestLoan","outputs":[{"internalType":"uint256","name":"requestId","type":"uint256"}],"stateMutability":"nonpayable","type":"function"},{"inputs":[],"name":"reservePool","outputs":[{"internalType":"uint256","name":"","type":"uint256"}],"stateMutability":"view","type":"function"},{"inputs":[{"internalType":"uint256","name":"","type":"uint256"}],"name":"terms","outputs":[{"internalType":"uint256","name":"startTime","type":"uint256"},{"internalType":"uint256","name":"endTime","type":"uint256"},{"internalType":"uint256","name":"interestCollected","type":"uint256"},{"internalType":"bool","name":"distributed","type":"bool"}],"stateMutability":"view","type":"function"},{"inputs":[],"name":"totalPool","outputs":[{"internalType":"uint256","name":"","type":"uint256"}],"stateMutability":"view","type":"function"},{"inputs":[{"internalType":"address","name":"newOwner","type":"address"}],"name":"transferOwnership","outputs":[],"stateMutability":"nonpayable","type":"function"},{"inputs":[],"name":"unpause","outputs":[],"stateMutability":"nonpayable","type":"function"},{"inputs":[{"internalType":"address","name":"_wallet","type":"address"},{"internalType":"enum IkiminaV1.MemberRole","name":"_newRole","type":"uint8"}],"name":"updateMemberRole","outputs":[],"stateMutability":"nonpayable","type":"function"},{"inputs":[{"internalType":"address","name":"newImplementation","type":"address"}],"name":"upgradeTo","outputs":[],"stateMutability":"nonpayable","type":"function"},{"inputs":[{"internalType":"address","name":"newImplementation","type":"address"},{"internalType":"bytes","name":"data","type":"bytes"}],"name":"upgradeToAndCall","outputs":[],"stateMutability":"payable","type":"function"},{"inputs":[{"internalType":"string","name":"_newVersion","type":"string"}],"name":"upgradeVersion","outputs":[],"stateMutability":"nonpayable","type":"function"},{"inputs":[],"name":"version","outputs":[{"internalType":"string","name":"","type":"string"}],"stateMutability":"view","type":"function"},{"inputs":[{"internalType":"uint256","name":"_amount","type":"uint256"}],"name":"withdrawSavings","outputs":[],"stateMutability":"nonpayable","type":"function"},{"stateMutability":"payable","type":"receive"}],"evm":{"bytecode":{"linkReferences":{},"object":"60a06040523060805234801561001457600080fd5b5060805161538961004c60003960008181611c9d01528181611cdd01528181611daf01528181611def0152611e8201526153896000f3fe6080604052600436106103dc5760003560e01c80638b7afe2e116101fd578063c0aa0e8a11610118578063de986450116100ab578063eec987241161007a578063eec9872414610cc4578063eee2686214610cd9578063f2fde38b14610cf0578063f851a44014610d10578063f966ade714610d315761042e565b8063de98645014610c61578063e02a4dfd14610c81578063ea0e35b114610c98578063ecfb49a314610cad5761042e565b8063d46cedd3116100e7578063d46cedd314610c04578063d7bb99ba14610c19578063db512e8514610c21578063de48078c14610c415761042e565b8063c0aa0e8a14610b23578063ca9f25a81461084c578063d119c63614610b8b578063d1b332f414610bab5761042e565b8063a620f8a511610190578063b307fc6d1161015f578063b307fc6d14610ac1578063b64e6fdc14610ae1578063b786f97814610af6578063bc03bfee14610b0d5761042e565b8063a620f8a514610a4a578063aadc1ac114610a61578063ab6c12df14610a81578063acc5baa314610aa15761042e565b806392ecf577116101cc57806392ecf5771461099057806395ccea67146109f35780639de6f3e414610a13578063a3dbd32914610a335761042e565b80638b7afe2e146109295780638d5d34291461093c5780638d7036de1461095c5780638da5cb5b146109725761042e565b80634f1ef286116102f8578063668038e01161028b578063735af25d1161025a578063735af25d1461087657806373b4086b1461088b5780637dbdfe7c146108ea5780638129fc1c146108ff5780638456cb59146109145761042e565b8063668038e0146107ed5780636963974914610802578063710cb8e31461084c578063715018a6146108615761042e565b80635c975abb116102c75780635c975abb146107675780635d29cb981461078b5780635d678cba146107ab5780635f5d5f00146107cb5761042e565b80634f1ef28614610706578063529a564b1461071957806352d1902d1461073057806354fd4d50146107455761042e565b80631db79db51161037057806333481fc91161033f57806333481fc9146106845780633659cfe6146106b65780633f4ba83a146106d657806340650c91146106eb5761042e565b80631db79db5146105df57806326782247146105f65780632ada25961461062f5780632f1994cc146106645761042e565b80630b1ca49a116103ac5780630b1ca49a1461050257806311aee3801461052257806317aee51f146105395780631b3b86711461054e5761042e565b80624a0de7146104765780630266f0441461049e57806303c83302146104b557806308ae4b0c146104cc5761042e565b3661042e5760405162461bcd60e51b815260206004820152601960248201527f496b696d696e613a2075736520636f6e7472696275746528290000000000000060448201526064015b60405180910390fd5b60405162461bcd60e51b815260206004820152601960248201527f496b696d696e613a20756e6b6e6f776e2066756e6374696f6e000000000000006044820152606401610425565b34801561048257600080fd5b5061048b610d39565b6040519081526020015b60405180910390f35b3480156104aa57600080fd5b5061048b6101305481565b3480156104c157600080fd5b506104ca610d65565b005b3480156104d857600080fd5b506104ec6104e736600461494d565b61109c565b6040516104959a999897969594939291906149e2565b34801561050e57600080fd5b506104ca61051d36600461494d565b611294565b34801561052e57600080fd5b5061048b6101315481565b34801561054557600080fd5b506104ca611482565b34801561055a57600080fd5b506105a9610569366004614a6f565b6000908152610135602052604090208054600182015460028301546003909301546001600160a01b039092169390929160ff808216926101009092041690565b604080516001600160a01b039096168652602086019490945292840191909152151560608301521515608082015260a001610495565b3480156105eb57600080fd5b5061048b61013a5481565b34801561060257600080fd5b5061012e54610617906001600160a01b031681565b6040516001600160a01b039091168152602001610495565b34801561063b57600080fd5b5061064f61064a36600461494d565b611506565b60405161049599989796959493929190614a88565b34801561067057600080fd5b506104ca61067f366004614b5d565b61173b565b34801561069057600080fd5b506106a461069f36600461494d565b611c02565b60405161049596959493929190614c28565b3480156106c257600080fd5b506104ca6106d136600461494d565b611c93565b3480156106e257600080fd5b506104ca611d72565b3480156106f757600080fd5b5061048b66038d7ea4c6800081565b6104ca610714366004614cef565b611da5565b34801561072557600080fd5b5061048b6101395481565b34801561073c57600080fd5b5061048b611e75565b34801561075157600080fd5b5061075a611f28565b6040516104959190614d51565b34801561077357600080fd5b5060fb5460ff165b6040519015158152602001610495565b34801561079757600080fd5b506104ca6107a6366004614a6f565b611fb7565b3480156107b757600080fd5b5061077b6107c6366004614d64565b612135565b3480156107d757600080fd5b506107e06122a7565b6040516104959190614d8e565b3480156107f957600080fd5b506104ca61230a565b34801561080e57600080fd5b5061083f61081d36600461494d565b6001600160a01b03166000908152610133602052604090206007015460ff1690565b6040516104959190614ddb565b34801561085857600080fd5b5061048b601e81565b34801561086d57600080fd5b506104ca612502565b34801561088257600080fd5b5061048b600a81565b34801561089757600080fd5b506108d96108a636600461494d565b61013460205260009081526040902080546001820154600283015460038401546004909401549293919290919060ff1685565b604051610495959493929190614de9565b3480156108f657600080fd5b5061048b600381565b34801561090b57600080fd5b506104ca612514565b34801561092057600080fd5b506104ca612687565b34801561093557600080fd5b504761048b565b34801561094857600080fd5b5061048b610957366004614a6f565b6126ba565b34801561096857600080fd5b5061048b611f4081565b34801561097e57600080fd5b506097546001600160a01b0316610617565b34801561099c57600080fd5b50610132546000818152610136602052604090208054600182015460028301546003909301549192909160ff166040805195865260208601949094529284019190915260608301521515608082015260a001610495565b3480156109ff57600080fd5b506104ca610a0e366004614d64565b612bed565b348015610a1f57600080fd5b506104ca610a2e366004614e13565b612d18565b348015610a3f57600080fd5b5061048b62ed4e0081565b348015610a5657600080fd5b5061048b61013c5481565b348015610a6d57600080fd5b506104ca610a7c366004614a6f565b612d67565b348015610a8d57600080fd5b506104ca610a9c36600461494d565b612fda565b348015610aad57600080fd5b506104ca610abc366004614e5c565b613076565b348015610acd57600080fd5b50610617610adc366004614a6f565b6131a0565b348015610aed57600080fd5b5061048b6131cb565b348015610b0257600080fd5b5061048b6101385481565b348015610b1957600080fd5b5061048b6101f481565b348015610b2f57600080fd5b50610b69610b3e366004614a6f565b6101366020526000908152604090208054600182015460028301546003909301549192909160ff1684565b6040805194855260208501939093529183015215156060820152608001610495565b348015610b9757600080fd5b5061048b610ba636600461494d565b6131df565b348015610bb757600080fd5b506105a9610bc6366004614a6f565b6101356020526000908152604090208054600182015460028301546003909301546001600160a01b0390921692909160ff8082169161010090041685565b348015610c1057600080fd5b5061048b603281565b6104ca61326c565b348015610c2d57600080fd5b5061077b610c3c36600461494d565b6133e9565b348015610c4d57600080fd5b506104ca610c5c36600461494d565b61345d565b348015610c6d57600080fd5b506104ca610c7c366004614a6f565b6136fb565b348015610c8d57600080fd5b5061048b62278d0081565b348015610ca457600080fd5b5061048b606481565b348015610cb957600080fd5b5061048b61012f5481565b348015610cd057600080fd5b5061048b60c881565b348015610ce557600080fd5b5061048b6101325481565b348015610cfc57600080fd5b506104ca610d0b36600461494d565b6139fc565b348015610d1c57600080fd5b5061012d54610617906001600160a01b031681565b6104ca613a72565b60006064610d48601e82614ea5565b61012f54610d569190614eb8565b610d609190614ecf565b905090565b610d6d613dec565b610132546000908152610136602052604090206001810154421015610dd45760405162461bcd60e51b815260206004820152601760248201527f496b696d696e613a207465726d206e6f7420656e6465640000000000000000006044820152606401610425565b600381015460ff1615610e295760405162461bcd60e51b815260206004820152601c60248201527f496b696d696e613a20616c7265616479206469737472696275746564000000006044820152606401610425565b6000816002015411610e745760405162461bcd60e51b8152602060048201526014602482015273125ada5b5a5b984e881b9bc81a5b9d195c995cdd60621b6044820152606401610425565b60006101315411610ebd5760405162461bcd60e51b8152602060048201526013602482015272496b696d696e613a206e6f206d656d6265727360681b6044820152606401610425565b60038101805460ff19166001179055600281015460009061271090610ee590611f4090614eb8565b610eef9190614ecf565b9050808260020154610f019190614ea5565b6101306000828254610f139190614ef1565b9091555060009050610f23613e45565b905060005b6101375481101561101a5760006101378281548110610f4957610f49614f04565b60009182526020808320909101546001600160a01b031680835261013390915260409091206003015490915060ff600160a81b90910416610f8a5750611012565b6000808411610fa65761013154610fa19086614ecf565b610fd9565b6001600160a01b038216600090815261013360205260409020600401548490610fcf9087614eb8565b610fd99190614ecf565b6001600160a01b0383166000908152610133602052604081206005018054929350839290919061100a908490614ef1565b909155505050505b600101610f28565b50610132547fc6570a09263e2dbe9b55b3b62e5c111af20c6cfb770f70c0aab4660ef56cc3378361013154856110509190614ecf565b604080519283526020830191909152429082015260600160405180910390a2610132805490600061108083614f1a565b919050555061108d613eff565b50505061109a600160c955565b565b610133602052600090815260409020805481906110b890614f33565b80601f01602080910402602001604051908101604052809291908181526020018280546110e490614f33565b80156111315780601f1061110657610100808354040283529160200191611131565b820191906000526020600020905b81548152906001019060200180831161111457829003601f168201915b50505050509080600101805461114690614f33565b80601f016020809104026020016040519081016040528092919081815260200182805461117290614f33565b80156111bf5780601f10611194576101008083540402835291602001916111bf565b820191906000526020600020905b8154815290600101906020018083116111a257829003601f168201915b5050505050908060020180546111d490614f33565b80601f016020809104026020016040519081016040528092919081815260200182805461120090614f33565b801561124d5780601f106112225761010080835404028352916020019161124d565b820191906000526020600020905b81548152906001019060200180831161123057829003601f168201915b50505050600383015460048401546005850154600686015460079096015494956001600160a01b0384169560ff600160a01b860481169650600160a81b909504851694168a565b61012d546001600160a01b031633146112bf5760405162461bcd60e51b815260040161042590614f67565b6001600160a01b03811660009081526101336020526040902060030154600160a01b900460ff16801561131557506001600160a01b03811660009081526101336020526040902060030154600160a81b900460ff165b6113315760405162461bcd60e51b815260040161042590614f9e565b60026001600160a01b03821660009081526101346020526040902060049081015460ff1690811115611365576113656149b8565b141580156113a5575060016001600160a01b03821660009081526101346020526040902060049081015460ff16908111156113a2576113a26149b8565b14155b6114015760405162461bcd60e51b815260206004820152602760248201527f496b696d696e613a206d656d62657220686173206163746976652f70656e64696044820152663733903637b0b760c91b6064820152608401610425565b6001600160a01b038116600090815261013360205260408120600301805460ff60a81b1916905561013180549161143783614fd5565b9190505550806001600160a01b03167f3ac963493df564de734d98633f1145d21512e282ba4c02d3c1011119bf7f28624260405161147791815260200190565b60405180910390a250565b61012e546001600160a01b031633146114dd5760405162461bcd60e51b815260206004820152601a60248201527f496b696d696e613a206e6f742070656e64696e672061646d696e0000000000006044820152606401610425565b61012e805461012d80546001600160a01b03199081166001600160a01b03841617909155169055565b6001600160a01b0381166000908152610133602052604081206003810154600482015460058301546006840154600785015485546060978897889791968796879687968796879686956001870195600288019560ff600160a01b8504811696600160a81b9095048116959394929391921690899061158390614f33565b80601f01602080910402602001604051908101604052809291908181526020018280546115af90614f33565b80156115fc5780601f106115d1576101008083540402835291602001916115fc565b820191906000526020600020905b8154815290600101906020018083116115df57829003601f168201915b5050505050985087805461160f90614f33565b80601f016020809104026020016040519081016040528092919081815260200182805461163b90614f33565b80156116885780601f1061165d57610100808354040283529160200191611688565b820191906000526020600020905b81548152906001019060200180831161166b57829003601f168201915b5050505050975086805461169b90614f33565b80601f01602080910402602001604051908101604052809291908181526020018280546116c790614f33565b80156117145780601f106116e957610100808354040283529160200191611714565b820191906000526020600020905b8154815290600101906020018083116116f757829003601f168201915b50505050509650995099509950995099509950995099509950509193959799909294969850565b61012d546001600160a01b031633146117665760405162461bcd60e51b815260040161042590614f67565b61176e613fb1565b6001600160a01b0382166117bc5760405162461bcd60e51b8152602060048201526015602482015274496b696d696e613a207a65726f206164647265737360581b6044820152606401610425565b6001600160a01b03821660009081526101336020526040902060030154600160a01b900460ff16156118305760405162461bcd60e51b815260206004820152601b60248201527f496b696d696e613a20616c7265616479207265676973746572656400000000006044820152606401610425565b6064610131541061187c5760405162461bcd60e51b8152602060048201526016602482015275125ada5b5a5b984e8819dc9bdd5c081a5cc8199d5b1b60521b6044820152606401610425565b866118c25760405162461bcd60e51b8152602060048201526016602482015275125ada5b5a5b984e881b985b59481c995c5d5a5c995960521b6044820152606401610425565b8461190f5760405162461bcd60e51b815260206004820152601760248201527f496b696d696e613a20656d61696c2072657175697265640000000000000000006044820152606401610425565b8261195c5760405162461bcd60e51b815260206004820152601760248201527f496b696d696e613a2070686f6e652072657175697265640000000000000000006044820152606401610425565b60405180610140016040528089898080601f016020809104026020016040519081016040528093929190818152602001838380828437600092019190915250505090825250604080516020601f8a0181900481028201810190925288815291810191908990899081908401838280828437600092019190915250505090825250604080516020601f88018190048102820181019092528681529181019190879087908190840183828082843760009201829052509385525050506001600160a01b038516602083015260016040830181905260608301526080820181905260a08201524260c082015260e001826003811115611a5a57611a5a6149b8565b90526001600160a01b03831660009081526101336020526040902081518190611a839082615034565b5060208201516001820190611a989082615034565b5060408201516002820190611aad9082615034565b50606082015160038083018054608086015160a08701511515600160a81b0260ff60a81b19911515600160a01b026001600160a81b03199093166001600160a01b039096169590951791909117169290921790915560c0830151600483015560e0830151600583015561010083015160068301556101208301516007830180549192909160ff1916906001908490811115611b4a57611b4a6149b8565b021790555050610137805460018101825560009182527f43dc304bb3613567eca51c4fb9e7f3128bc51bba882a32550e891d6cbd8a0fa10180546001600160a01b0319166001600160a01b0386161790556101318054925090611bac83614f1a565b9190505550816001600160a01b03167f136ad7af5c9b264307029287668641b0930bfcb10e20bcc749ea87f2c15dc08689898442604051611bf094939291906150f4565b60405180910390a25050505050505050565b60008060008060008060006101346000896001600160a01b03166001600160a01b03168152602001908152602001600020905060008160020154826001015411611c4d576000611c61565b81600201548260010154611c619190614ea5565b8254600184015460028501546003860154600490960154929d919c509a5091985092965060ff90921694509092505050565b6001600160a01b037f0000000000000000000000000000000000000000000000000000000000000000163003611cdb5760405162461bcd60e51b81526004016104259061513b565b7f00000000000000000000000000000000000000000000000000000000000000006001600160a01b0316611d2460008051602061530d833981519152546001600160a01b031690565b6001600160a01b031614611d4a5760405162461bcd60e51b815260040161042590615187565b611d5381613ff7565b60408051600080825260208201909252611d6f91839190613fff565b50565b61012d546001600160a01b03163314611d9d5760405162461bcd60e51b815260040161042590614f67565b61109a61416a565b6001600160a01b037f0000000000000000000000000000000000000000000000000000000000000000163003611ded5760405162461bcd60e51b81526004016104259061513b565b7f00000000000000000000000000000000000000000000000000000000000000006001600160a01b0316611e3660008051602061530d833981519152546001600160a01b031690565b6001600160a01b031614611e5c5760405162461bcd60e51b815260040161042590615187565b611e6582613ff7565b611e7182826001613fff565b5050565b6000306001600160a01b037f00000000000000000000000000000000000000000000000000000000000000001614611f155760405162461bcd60e51b815260206004820152603860248201527f555550535570677261646561626c653a206d757374206e6f742062652063616c60448201527f6c6564207468726f7567682064656c656761746563616c6c00000000000000006064820152608401610425565b5060008051602061530d83398151915290565b61013b8054611f3690614f33565b80601f0160208091040260200160405190810160405280929190818152602001828054611f6290614f33565b8015611faf5780601f10611f8457610100808354040283529160200191611faf565b820191906000526020600020905b815481529060010190602001808311611f9257829003601f168201915b505050505081565b336000908152610133602052604090206007015460ff166001816003811115611fe257611fe26149b8565b1480611fff57506002816003811115611ffd57611ffd6149b8565b145b8061201b57506003816003811115612019576120196149b8565b145b6120375760405162461bcd60e51b8152600401610425906151d3565b600082815261013560205260409020600381015460ff1615801561206557506003810154610100900460ff16155b6120b15760405162461bcd60e51b815260206004820152601a60248201527f496b696d696e613a20616c72656164792070726f6365737365640000000000006044820152606401610425565b60038101805461ff00191661010017905580546001600160a01b0316600090815261013460205260408120600401805460ff1916600183021790555080546040514281526001600160a01b039091169084907fab0e20c72eaa566ce0daef9ab1c37cb8bd61bb60fbbb6cdfe213dc86f37e5d7f9060200160405180910390a3505050565b6001600160a01b03821660009081526101336020526040812060030154600160a01b900460ff16158061218c57506001600160a01b03831660009081526101336020526040902060030154600160a81b900460ff16155b15612199575060006122a1565b6121a4826002614eb8565b61012f5410156121b6575060006122a1565b6001600160a01b038316600090815261013360205260409020600401548211156121e2575060006122a1565b60006064600a61012f546121f69190614eb8565b6122009190614ecf565b9050808311156122145760009150506122a1565b612222601e62015180614eb8565b6001600160a01b038516600090815261013360205260409020600601546122499190614ef1565b42101561225a5760009150506122a1565b6001600160a01b03841660009081526101346020526040902060049081015460ff168181111561228c5761228c6149b8565b0361229b5760009150506122a1565b60019150505b92915050565b606061013780548060200260200160405190810160405280929190818152602001828054801561230057602002820191906000526020600020905b81546001600160a01b031681526001909101906020018083116122e2575b5050505050905090565b3360009081526101336020526040902060030154600160a01b900460ff16801561234e57503360009081526101336020526040902060030154600160a81b900460ff165b61236a5760405162461bcd60e51b815260040161042590614f9e565b612372613dec565b61237a613fb1565b3360009081526101336020526040902060050154806123d35760405162461bcd60e51b8152602060048201526015602482015274496b696d696e613a206e6f206469766964656e647360581b6044820152606401610425565b8061012f5410156124265760405162461bcd60e51b815260206004820152601a60248201527f496b696d696e613a20706f6f6c20696e73756666696369656e740000000000006044820152606401610425565b3360009081526101336020526040812060050181905561012f805483929061244f908490614ea5565b90915550506040805182815242602082015233917fa1c93169468f71ef26f4adf10bca8df21460f11843a01ed9c69da306e33c3847910160405180910390a2604051600090339083908381818185875af1925050503d80600081146124d0576040519150601f19603f3d011682016040523d82523d6000602084013e6124d5565b606091505b50509050806124f65760405162461bcd60e51b81526004016104259061520a565b505061109a600160c955565b61250a6141bc565b61109a6000614216565b600054610100900460ff16158080156125345750600054600160ff909116105b8061254e5750303b15801561254e575060005460ff166001145b6125b15760405162461bcd60e51b815260206004820152602e60248201527f496e697469616c697a61626c653a20636f6e747261637420697320616c72656160448201526d191e481a5b9a5d1a585b1a5e995960921b6064820152608401610425565b6000805460ff1916600117905580156125d4576000805461ff0019166101001790555b6125dc614268565b6125e461428f565b6125ec6142be565b6125f46142ed565b61012d80546001600160a01b031916331790556040805180820190915260058152640312e302e360dc1b602082015261013b906126319082615034565b504261013c5561263f613eff565b8015611d6f576000805461ff0019169055604051600181527f7f26b83ff96e1f2b6a682f133852f6798a09c465da95921460cefb38474024989060200160405180910390a150565b61012d546001600160a01b031633146126b25760405162461bcd60e51b815260040161042590614f67565b61109a61431c565b3360009081526101336020526040812060030154600160a01b900460ff1680156126fe57503360009081526101336020526040902060030154600160a81b900460ff165b61271a5760405162461bcd60e51b815260040161042590614f9e565b612722613fb1565b600082116127725760405162461bcd60e51b815260206004820152601b60248201527f496b696d696e613a20616d6f756e74206d757374206265203e203000000000006044820152606401610425565b60023360009081526101346020526040902060049081015460ff169081111561279d5761279d6149b8565b141580156127d4575060013360009081526101346020526040902060049081015460ff16908111156127d1576127d16149b8565b14155b6128195760405162461bcd60e51b815260206004820152601660248201527524b5b4b6b4b7309d1032bc34b9ba34b733903637b0b760511b6044820152606401610425565b336000908152610133602052604090206004015461283990600390614eb8565b8211156128925760405162461bcd60e51b815260206004820152602160248201527f496b696d696e613a206578636565647320337820736176696e6773206c696d696044820152601d60fa1b6064820152608401610425565b61012f548211156128e55760405162461bcd60e51b815260206004820152601a60248201527f496b696d696e613a20696e73756666696369656e7420706f6f6c0000000000006044820152606401610425565b6064603261012f546128f79190614eb8565b6129019190614ecf565b82111561295b5760405162461bcd60e51b815260206004820152602260248201527f496b696d696e613a206578636565647320706f6f6c20736166657479206c696d6044820152611a5d60f21b6064820152608401610425565b6064601e61012f5461296d9190614eb8565b6129779190614ecf565b8261012f546129869190614ea5565b10156129e25760405162461bcd60e51b815260206004820152602560248201527f496b696d696e613a2076696f6c61746573207265736572766520726571756972604482015264195b595b9d60da1b6064820152608401610425565b60006129ed83614359565b90508015612ad9576129ff338461443e565b6101398054906000612a1083614f1a565b909155505060408051848152600160208201524281830152905133916000917f608072217ac12ecb440a970864481103409d4272dfead9e8d6e2fc257ac1edf09181900360600190a3337fcdf1eb0210cb841128b39316783d3a15af747c2e341274f54f90acc4d809f62084612710612a8b6101f483614eb8565b612a959190614ecf565b612a9f9087614ef1565b612aac62278d0042614ef1565b6040805193845260208401929092529082015242606082015260800160405180910390a250600092915050565b6101388054906000612aea83614f1a565b909155506040805160a0810182523380825260208083018881524284860181815260006060808801828152608089018381528b845261013588528a842099518a546001600160a01b039091166001600160a01b0319909116178a5595516001808b0191909155935160028a01555160039098018054955115156101000261ff00199915159990991661ffff1990961695909517979097179093558483526101348452868320600401805460ff1916909117905585518a8152928301919091529381019390935292945084917f608072217ac12ecb440a970864481103409d4272dfead9e8d6e2fc257ac1edf0910160405180910390a350919050565b505b919050565b61012d546001600160a01b03163314612c185760405162461bcd60e51b815260040161042590614f67565b612c20614619565b47811115612c705760405162461bcd60e51b815260206004820152601d60248201527f496b696d696e613a20696e73756666696369656e742062616c616e63650000006044820152606401610425565b6000826001600160a01b03168260405160006040518083038185875af1925050503d8060008114612cbd576040519150601f19603f3d011682016040523d82523d6000602084013e612cc2565b606091505b5050905080612d135760405162461bcd60e51b815260206004820152601860248201527f496b696d696e613a207472616e73666572206661696c656400000000000000006044820152606401610425565b505050565b612d206141bc565b61013b612d2d8282615034565b504261013c81905560405130917f2b4b14443d4e94476e173f2c5c72b9d60aecb1a98c6c8a1f1165373e186ceb2591611477918591615241565b336000908152610133602052604090206007015460ff166001816003811115612d9257612d926149b8565b1480612daf57506002816003811115612dad57612dad6149b8565b145b80612dcb57506003816003811115612dc957612dc96149b8565b145b612de75760405162461bcd60e51b8152600401610425906151d3565b612def613dec565b612df7613fb1565b600082815261013560205260409020600381015460ff16158015612e2557506003810154610100900460ff16155b612e715760405162461bcd60e51b815260206004820152601a60248201527f496b696d696e613a20616c72656164792070726f6365737365640000000000006044820152606401610425565b600181546001600160a01b031660009081526101346020526040902060049081015460ff1690811115612ea657612ea66149b8565b14612eea5760405162461bcd60e51b8152602060048201526014602482015273496b696d696e613a206e6f742070656e64696e6760601b6044820152606401610425565b61012f5481600101541115612f415760405162461bcd60e51b815260206004820152601a60248201527f496b696d696e613a20696e73756666696369656e7420706f6f6c0000000000006044820152606401610425565b60038101805460ff19166001908117909155815490820154612f6c916001600160a01b03169061443e565b61013a8054906000612f7d83614f1a565b909155505080546001820154604080519182524260208301526001600160a01b039092169185917fb2c6de76341d4f1188da5458fd8729cbc0e9278f99e8992f40f36900bcef78cb910160405180910390a350611e71600160c955565b61012d546001600160a01b031633146130055760405162461bcd60e51b815260040161042590614f67565b6001600160a01b0381166130535760405162461bcd60e51b8152602060048201526015602482015274496b696d696e613a207a65726f206164647265737360581b6044820152606401610425565b61012e80546001600160a01b0319166001600160a01b0392909216919091179055565b61012d546001600160a01b031633146130a15760405162461bcd60e51b815260040161042590614f67565b6001600160a01b03821660009081526101336020526040902060030154600160a01b900460ff166131145760405162461bcd60e51b815260206004820152601e60248201527f496b696d696e613a206d656d626572206e6f74207265676973746572656400006044820152606401610425565b6001600160a01b038216600090815261013360205260409020600701805460ff811691839160ff19166001836003811115613151576131516149b8565b0217905550826001600160a01b03167fbb3864d65ad50221bf63f66d2c877516c2a835e23ebcdaee64d6743d2e7731fc82844260405161319393929190615263565b60405180910390a2505050565b61013781815481106131b157600080fd5b6000918252602090912001546001600160a01b0316905081565b60006064603261012f54610d569190614eb8565b6001600160a01b03811660009081526101336020526040812060030154600160a01b900460ff16158061323657506001600160a01b03821660009081526101336020526040902060030154600160a81b900460ff16155b1561324357506000919050565b6001600160a01b038216600090815261013360205260409020600401546122a190600390614eb8565b3360009081526101336020526040902060030154600160a01b900460ff1680156132b057503360009081526101336020526040902060030154600160a81b900460ff165b6132cc5760405162461bcd60e51b815260040161042590614f9e565b6132d4613dec565b6132dc613fb1565b66038d7ea4c6800034101561333f5760405162461bcd60e51b815260206004820152602360248201527f496b696d696e613a2062656c6f77206d696e696d756d20636f6e74726962757460448201526234b7b760e91b6064820152608401610425565b336000908152610133602052604081206004018054349290613362908490614ef1565b925050819055503461012f600082825461337c9190614ef1565b909155505033600081815261013360209081526040918290206004015461012f548351348152928301919091528183015242606082015290517f38eaf060ddec1dde1c99c9cce5c8f34a03c48e9368f6ff7b768898f6278605809181900360800190a261109a600160c955565b6001600160a01b0381166000908152610133602052604081206007015460ff16600181600381111561341d5761341d6149b8565b148061343a57506002816003811115613438576134386149b8565b145b8061345657506003816003811115613454576134546149b8565b145b9392505050565b336000908152610133602052604090206007015460ff166001816003811115613488576134886149b8565b14806134a5575060028160038111156134a3576134a36149b8565b145b806134c1575060038160038111156134bf576134bf6149b8565b145b6134dd5760405162461bcd60e51b8152600401610425906151d3565b6001600160a01b038216600090815261013460205260409020600260048083015460ff1690811115613511576135116149b8565b146135585760405162461bcd60e51b815260206004820152601760248201527624b5b4b6b4b7309d1037379030b1ba34bb32903637b0b760491b6044820152606401610425565b806003015442116135ab5760405162461bcd60e51b815260206004820152601960248201527f496b696d696e613a206c6f616e206e6f74206f766572647565000000000000006044820152606401610425565b6000816002015482600101546135c19190614ea5565b9050600081116136135760405162461bcd60e51b815260206004820152601860248201527f496b696d696e613a20616c726561647920736574746c656400000000000000006044820152606401610425565b600061271061362360c884614eb8565b61362d9190614ecf565b9050808360010160008282546136439190614ef1565b90915550506004838101805460ff19169091179055604080518281524260208201526001600160a01b038716917fcf40cadcd86c14cb7e696a86578255719f67bc54bf991d45d267ee6e01467c19910160405180910390a26001600160a01b0385167f2846d120b0ac120b4495cd52f69d161236e146706bc5e2b85d01884744797c806136d08385614ef1565b6003860154604080519283526020830191909152429082015260600160405180910390a25050505050565b3360009081526101336020526040902060030154600160a01b900460ff16801561373f57503360009081526101336020526040902060030154600160a81b900460ff165b61375b5760405162461bcd60e51b815260040161042590614f9e565b613763613dec565b61376b613fb1565b600081116137bb5760405162461bcd60e51b815260206004820152601b60248201527f496b696d696e613a20616d6f756e74206d757374206265203e203000000000006044820152606401610425565b60023360009081526101346020526040902060049081015460ff16908111156137e6576137e66149b8565b036138335760405162461bcd60e51b815260206004820181905260248201527f496b696d696e613a20726570617920616374697665206c6f616e2066697273746044820152606401610425565b33600090815261013360205260409020600401548111156138965760405162461bcd60e51b815260206004820152601d60248201527f496b696d696e613a20696e73756666696369656e7420736176696e67730000006044820152606401610425565b8061012f5410156138f55760405162461bcd60e51b8152602060048201526024808201527f496b696d696e613a20696e73756666696369656e7420706f6f6c206c697175696044820152636469747960e01b6064820152608401610425565b336000908152610133602052604081206004018054839290613918908490614ea5565b925050819055508061012f60008282546139329190614ea5565b9091555050336000818152610133602090815260409182902060040154825185815291820152428183015290517fa7b927747255bae4c9b535ee84804707f42b787d2a0c4a461f0c3a77f91ea82c9181900360600190a2604051600090339083908381818185875af1925050503d80600081146139cb576040519150601f19603f3d011682016040523d82523d6000602084013e6139d0565b606091505b50509050806139f15760405162461bcd60e51b81526004016104259061520a565b50611d6f600160c955565b613a046141bc565b6001600160a01b038116613a695760405162461bcd60e51b815260206004820152602660248201527f4f776e61626c653a206e6577206f776e657220697320746865207a65726f206160448201526564647265737360d01b6064820152608401610425565b611d6f81614216565b3360009081526101336020526040902060030154600160a01b900460ff168015613ab657503360009081526101336020526040902060030154600160a81b900460ff165b613ad25760405162461bcd60e51b815260040161042590614f9e565b613ada613dec565b613ae2613fb1565b60003411613b325760405162461bcd60e51b815260206004820152601e60248201527f496b696d696e613a2072657061796d656e74206d757374206265203e203000006044820152606401610425565b33600090815261013460205260409020600260048083015460ff1690811115613b5d57613b5d6149b8565b14613ba45760405162461bcd60e51b815260206004820152601760248201527624b5b4b6b4b7309d1037379030b1ba34bb32903637b0b760491b6044820152606401610425565b600081600201548260010154613bba9190614ea5565b905060008111613c0c5760405162461bcd60e51b815260206004820152601d60248201527f496b696d696e613a206c6f616e20616c726561647920736574746c65640000006044820152606401610425565b6000813411613c1b5734613c1d565b815b90506000613c2b8234614ea5565b905081846002016000828254613c419190614ef1565b925050819055508161012f6000828254613c5b9190614ef1565b90915550506001840154845460009190613c759082614ea5565b613c7f9085614eb8565b613c899190614ecf565b90508061013660006101325481526020019081526020016000206002016000828254613cb59190614ef1565b90915550506001850154600286015410801590613cdc5760048601805460ff191660031790555b336001600160a01b03167fe627c02a755f08984abd2c21256818bf256e5d05844b76056c4e621785908a098588600201548960010154613d1c9190614ea5565b6040805192835260208301919091528415159082015242606082015260800160405180910390a28215613ddc57604051600090339085908381818185875af1925050503d8060008114613d8b576040519150601f19603f3d011682016040523d82523d6000602084013e613d90565b606091505b5050905080613dda5760405162461bcd60e51b8152602060048201526016602482015275125ada5b5a5b984e881c99599d5b990819985a5b195960521b6044820152606401610425565b505b50505050505061109a600160c955565b600260c95403613e3e5760405162461bcd60e51b815260206004820152601f60248201527f5265656e7472616e637947756172643a207265656e7472616e742063616c6c006044820152606401610425565b600260c955565b6000805b61013754811015613efb5761013360006101378381548110613e6d57613e6d614f04565b60009182526020808320909101546001600160a01b0316835282019290925260400190206003015460ff600160a81b9091041615613ef35761013360006101378381548110613ebe57613ebe614f04565b60009182526020808320909101546001600160a01b03168352820192909252604001902060040154613ef09083614ef1565b91505b600101613e49565b5090565b426000613f0f62ed4e0083614ef1565b60408051608081018252848152602080820184815260008385018181526060850182815261013280548452610136865292879020955186559251600186015551600285015590516003909301805460ff191693151593909317909255905482518681529182018490529293507f1ddbc5e006a48d33df8ad1d6858a0b775953ba5d26864f81ae30433229c7862b910160405180910390a25050565b600160c955565b60fb5460ff161561109a5760405162461bcd60e51b815260206004820152601060248201526f14185d5cd8589b194e881c185d5cd95960821b6044820152606401610425565b611d6f6141bc565b7f4910fdfa16fed3260ed0e7147f7cc6da11a60208b5b9406d12a635614ffd91435460ff161561403257612d1383614662565b826001600160a01b03166352d1902d6040518163ffffffff1660e01b8152600401602060405180830381865afa92505050801561408c575060408051601f3d908101601f191682019092526140899181019061528c565b60015b6140ef5760405162461bcd60e51b815260206004820152602e60248201527f45524331393637557067726164653a206e657720696d706c656d656e7461746960448201526d6f6e206973206e6f74205555505360901b6064820152608401610425565b60008051602061530d833981519152811461415e5760405162461bcd60e51b815260206004820152602960248201527f45524331393637557067726164653a20756e737570706f727465642070726f786044820152681a58589b195555525160ba1b6064820152608401610425565b50612d138383836146fe565b614172614619565b60fb805460ff191690557f5db9ee0a495bf2e6ff9c91a7834c1ba4fdd244a5e8aa4e537bd38aeae4b073aa335b6040516001600160a01b03909116815260200160405180910390a1565b6097546001600160a01b0316331461109a5760405162461bcd60e51b815260206004820181905260248201527f4f776e61626c653a2063616c6c6572206973206e6f7420746865206f776e65726044820152606401610425565b609780546001600160a01b038381166001600160a01b0319831681179093556040519116919082907f8be0079c531659141344cd1fd0a4f28419497f9722a3daafe3b4186f6b6457e090600090a35050565b600054610100900460ff1661109a5760405162461bcd60e51b8152600401610425906152a5565b600054610100900460ff166142b65760405162461bcd60e51b8152600401610425906152a5565b61109a614729565b600054610100900460ff166142e55760405162461bcd60e51b8152600401610425906152a5565b61109a614759565b600054610100900460ff166143145760405162461bcd60e51b8152600401610425906152a5565b61109a614780565b614324613fb1565b60fb805460ff191660011790557f62e78cea01bee320cd4e420270b5ea74000d11b0c9f74754ebdbfc544b05a25861419f3390565b33600090815261013360205260408120614374836002614eb8565b61012f5410156143875750600092915050565b828160040154101561439c5750600092915050565b60006064600a61012f546143b09190614eb8565b6143ba9190614ecf565b9050808411156143ce575060009392505050565b6143dc601e62015180614eb8565b82600601546143eb9190614ef1565b4210156143fc575060009392505050565b3360009081526101346020526040902060049081015460ff1681811115614425576144256149b8565b03614434575060009392505050565b5060019392505050565b600061271061444f6101f484614eb8565b6144599190614ecf565b905060006144678284614ef1565b9050600061447862278d0042614ef1565b90506040518060a0016040528085815260200183815260200160008152602001828152602001600260048111156144b1576144b16149b8565b8152506101346000876001600160a01b03166001600160a01b031681526020019081526020016000206000820151816000015560208201518160010155604082015181600201556060820151816003015560808201518160040160006101000a81548160ff0219169083600481111561452c5761452c6149b8565b02179055509050508361012f60008282546145479190614ea5565b909155505060408051858152602081018490529081018290524260608201526001600160a01b038616907fb9cd2512dd634bb7cdbb1dc9fb2d451a57e0dd9724cf51ab8414abfe570199a49060800160405180910390a26000856001600160a01b03168560405160006040518083038185875af1925050503d80600081146145eb576040519150601f19603f3d011682016040523d82523d6000602084013e6145f0565b606091505b50509050806146115760405162461bcd60e51b81526004016104259061520a565b505050505050565b60fb5460ff1661109a5760405162461bcd60e51b815260206004820152601460248201527314185d5cd8589b194e881b9bdd081c185d5cd95960621b6044820152606401610425565b6001600160a01b0381163b6146cf5760405162461bcd60e51b815260206004820152602d60248201527f455243313936373a206e657720696d706c656d656e746174696f6e206973206e60448201526c1bdd08184818dbdb9d1c9858dd609a1b6064820152608401610425565b60008051602061530d83398151915280546001600160a01b0319166001600160a01b0392909216919091179055565b614707836147b3565b6000825111806147145750805b15612d135761472383836147f3565b50505050565b600054610100900460ff166147505760405162461bcd60e51b8152600401610425906152a5565b61109a33614216565b600054610100900460ff16613faa5760405162461bcd60e51b8152600401610425906152a5565b600054610100900460ff166147a75760405162461bcd60e51b8152600401610425906152a5565b60fb805460ff19169055565b6147bc81614662565b6040516001600160a01b038216907fbc7cd75a20ee27fd9adebab32041f755214dbc6bffa90cc0225b39da2e5c2d3b90600090a250565b6060613456838360405180606001604052806027815260200161532d602791396060600080856001600160a01b03168560405161483091906152f0565b600060405180830381855af49150503d806000811461486b576040519150601f19603f3d011682016040523d82523d6000602084013e614870565b606091505b50915091506148818683838761488b565b9695505050505050565b606083156148fa5782516000036148f3576001600160a01b0385163b6148f35760405162461bcd60e51b815260206004820152601d60248201527f416464726573733a2063616c6c20746f206e6f6e2d636f6e74726163740000006044820152606401610425565b5081614904565b614904838361490c565b949350505050565b81511561491c5781518083602001fd5b8060405162461bcd60e51b81526004016104259190614d51565b80356001600160a01b0381168114612be857600080fd5b60006020828403121561495f57600080fd5b61345682614936565b60005b8381101561498357818101518382015260200161496b565b50506000910152565b600081518084526149a4816020860160208601614968565b601f01601f19169290920160200192915050565b634e487b7160e01b600052602160045260246000fd5b600481106149de576149de6149b8565b9052565b60006101408083526149f68184018e61498c565b90508281036020840152614a0a818d61498c565b90508281036040840152614a1e818c61498c565b91505060018060a01b0389166060830152871515608083015286151560a08301528560c08301528460e083015283610100830152614a606101208301846149ce565b9b9a5050505050505050505050565b600060208284031215614a8157600080fd5b5035919050565b6000610120808352614a9c8184018d61498c565b90508281036020840152614ab0818c61498c565b90508281036040840152614ac4818b61498c565b915050871515606083015286151560808301528560a08301528460c08301528360e0830152614af76101008301846149ce565b9a9950505050505050505050565b60008083601f840112614b1757600080fd5b50813567ffffffffffffffff811115614b2f57600080fd5b602083019150836020828501011115614b4757600080fd5b9250929050565b803560048110612be857600080fd5b60008060008060008060008060a0898b031215614b7957600080fd5b883567ffffffffffffffff80821115614b9157600080fd5b614b9d8c838d01614b05565b909a50985060208b0135915080821115614bb657600080fd5b614bc28c838d01614b05565b909850965060408b0135915080821115614bdb57600080fd5b50614be88b828c01614b05565b9095509350614bfb905060608a01614936565b9150614c0960808a01614b4e565b90509295985092959890939650565b600581106149de576149de6149b8565b600060c082019050878252866020830152856040830152846060830152836080830152614c5860a0830184614c18565b979650505050505050565b634e487b7160e01b600052604160045260246000fd5b600067ffffffffffffffff80841115614c9457614c94614c63565b604051601f8501601f19908116603f01168101908282118183101715614cbc57614cbc614c63565b81604052809350858152868686011115614cd557600080fd5b858560208301376000602087830101525050509392505050565b60008060408385031215614d0257600080fd5b614d0b83614936565b9150602083013567ffffffffffffffff811115614d2757600080fd5b8301601f81018513614d3857600080fd5b614d4785823560208401614c79565b9150509250929050565b602081526000613456602083018461498c565b60008060408385031215614d7757600080fd5b614d8083614936565b946020939093013593505050565b6020808252825182820181905260009190848201906040850190845b81811015614dcf5783516001600160a01b031683529284019291840191600101614daa565b50909695505050505050565b602081016122a182846149ce565b600060a0820190508682528560208301528460408301528360608301526148816080830184614c18565b600060208284031215614e2557600080fd5b813567ffffffffffffffff811115614e3c57600080fd5b8201601f81018413614e4d57600080fd5b61490484823560208401614c79565b60008060408385031215614e6f57600080fd5b614e7883614936565b9150614e8660208401614b4e565b90509250929050565b634e487b7160e01b600052601160045260246000fd5b818103818111156122a1576122a1614e8f565b80820281158282048414176122a1576122a1614e8f565b600082614eec57634e487b7160e01b600052601260045260246000fd5b500490565b808201808211156122a1576122a1614e8f565b634e487b7160e01b600052603260045260246000fd5b600060018201614f2c57614f2c614e8f565b5060010190565b600181811c90821680614f4757607f821691505b602082108103612be657634e487b7160e01b600052602260045260246000fd5b6020808252601c908201527f496b696d696e613a2063616c6c6572206973206e6f742061646d696e00000000604082015260600190565b6020808252601d908201527f496b696d696e613a206e6f7420616e20616374697665206d656d626572000000604082015260600190565b600081614fe457614fe4614e8f565b506000190190565b601f821115612d13576000816000526020600020601f850160051c810160208610156150155750805b601f850160051c820191505b8181101561461157828155600101615021565b815167ffffffffffffffff81111561504e5761504e614c63565b6150628161505c8454614f33565b84614fec565b602080601f831160018114615097576000841561507f5750858301515b600019600386901b1c1916600185901b178555614611565b600085815260208120601f198616915b828110156150c6578886015182559484019460019091019084016150a7565b50858210156150e45787850151600019600388901b60f8161c191681555b5050505050600190811b01905550565b606081528360608201528385608083013760006080858301015260006080601f19601f870116830101905061512c60208301856149ce565b82604083015295945050505050565b6020808252602c908201527f46756e6374696f6e206d7573742062652063616c6c6564207468726f7567682060408201526b19195b1959d85d1958d85b1b60a21b606082015260800190565b6020808252602c908201527f46756e6374696f6e206d7573742062652063616c6c6564207468726f7567682060408201526b6163746976652070726f787960a01b606082015260800190565b60208082526017908201527f496b696d696e613a206e6f7420617574686f72697a6564000000000000000000604082015260600190565b6020808252601c908201527f496b696d696e613a20455448207472616e73666572206661696c656400000000604082015260600190565b604081526000615254604083018561498c565b90508260208301529392505050565b6060810161527182866149ce565b61527e60208301856149ce565b826040830152949350505050565b60006020828403121561529e57600080fd5b5051919050565b6020808252602b908201527f496e697469616c697a61626c653a20636f6e7472616374206973206e6f74206960408201526a6e697469616c697a696e6760a81b606082015260800190565b60008251615302818460208701614968565b919091019291505056fe360894a13ba1a3210667c828492db98dca3e2076cc3735a920a3ca505d382bbc416464726573733a206c6f772d6c6576656c2064656c65676174652063616c6c206661696c6564a26469706673582212201f0f779c57780528923d7466ed6d16fedf7dba1d28942474d301a1a986ee676764736f6c63430008180033","opcodes":"PUSH1 0xA0 PUSH1 0x40 MSTORE ADDRESS PUSH1 0x80 MSTORE CALLVALUE DUP1 ISZERO PUSH2 0x14 JUMPI PUSH1 0x0 DUP1 REVERT JUMPDEST POP PUSH1 0x80 MLOAD PUSH2 0x5389 PUSH2 0x4C PUSH1 0x0 CODECOPY PUSH1 0x0 DUP2 DUP2 PUSH2 0x1C9D ADD MSTORE DUP2 DUP2 PUSH2 0x1CDD ADD MSTORE DUP2 DUP2 PUSH2 0x1DAF ADD MSTORE DUP2 DUP2 PUSH2 0x1DEF ADD MSTORE PUSH2 0x1E82 ADD MSTORE PUSH2 0x5389 PUSH1 0x0 RETURN INVALID PUSH1 0x80 PUSH1 0x40 MSTORE PUSH1 0x4 CALLDATASIZE LT PUSH2 0x3DC JUMPI PUSH1 0x0 CALLDATALOAD PUSH1 0xE0 SHR DUP1 PUSH4 0x8B7AFE2E GT PUSH2 0x1FD JUMPI DUP1 PUSH4 0xC0AA0E8A GT PUSH2 0x118 JUMPI DUP1 PUSH4 0xDE986450 GT PUSH2 0xAB JUMPI DUP1 PUSH4 0xEEC98724 GT PUSH2 0x7A JUMPI DUP1 PUSH4 0xEEC98724 EQ PUSH2 0xCC4 JUMPI DUP1 PUSH4 0xEEE26862 EQ PUSH2 0xCD9 JUMPI DUP1 PUSH4 0xF2FDE38B EQ PUSH2 0xCF0 JUMPI DUP1 PUSH4 0xF851A440 EQ PUSH2 0xD10 JUMPI DUP1 PUSH4 0xF966ADE7 EQ PUSH2 0xD31 JUMPI PUSH2 0x42E JUMP JUMPDEST DUP1 PUSH4 0xDE986450 EQ PUSH2 0xC61 JUMPI DUP1 PUSH4 0xE02A4DFD EQ PUSH2 0xC81 JUMPI DUP1 PUSH4 0xEA0E35B1 EQ PUSH2 0xC98 JUMPI DUP1 PUSH4 0xECFB49A3 EQ PUSH2 0xCAD JUMPI PUSH2 0x42E JUMP JUMPDEST DUP1 PUSH4 0xD46CEDD3 GT PUSH2 0xE7 JUMPI DUP1 PUSH4 0xD46CEDD3 EQ PUSH2 0xC04 JUMPI DUP1 PUSH4 0xD7BB99BA EQ PUSH2 0xC19 JUMPI DUP1 PUSH4 0xDB512E85 EQ PUSH2 0xC21 JUMPI DUP1 PUSH4 0xDE48078C EQ PUSH2 0xC41 JUMPI PUSH2 0x42E JUMP JUMPDEST DUP1 PUSH4 0xC0AA0E8A EQ PUSH2 0xB23 JUMPI DUP1 PUSH4 0xCA9F25A8 EQ PUSH2 0x84C JUMPI DUP1 PUSH4 0xD119C636 EQ PUSH2 0xB8B JUMPI DUP1 PUSH4 0xD1B332F4 EQ PUSH2 0xBAB JUMPI PUSH2 0x42E JUMP JUMPDEST DUP1 PUSH4 0xA620F8A5 GT PUSH2 0x190 JUMPI DUP1 PUSH4 0xB307FC6D GT PUSH2 0x15F JUMPI DUP1 PUSH4 0xB307FC6D EQ PUSH2 0xAC1 JUMPI DUP1 PUSH4 0xB64E6FDC EQ PUSH2 0xAE1 JUMPI DUP1 PUSH4 0xB786F978 EQ PUSH2 0xAF6 JUMPI DUP1 PUSH4 0xBC03BFEE EQ PUSH2 0xB0D JUMPI PUSH2 0x42E JUMP JUMPDEST DUP1 PUSH4 0xA620F8A5 EQ PUSH2 0xA4A JUMPI DUP1 PUSH4 0xAADC1AC1 EQ PUSH2 0xA61 JUMPI DUP1 PUSH4 0xAB6C12DF EQ PUSH2 0xA81 JUMPI DUP1 PUSH4 0xACC5BAA3 EQ PUSH2 0xAA1 JUMPI PUSH2 0x42E JUMP JUMPDEST DUP1 PUSH4 0x92ECF577 GT PUSH2 0x1CC JUMPI DUP1 PUSH4 0x92ECF577 EQ PUSH2 0x990 JUMPI DUP1 PUSH4 0x95CCEA67 EQ PUSH2 0x9F3 JUMPI DUP1 PUSH4 0x9DE6F3E4 EQ PUSH2 0xA13 JUMPI DUP1 PUSH4 0xA3DBD329 EQ PUSH2 0xA33 JUMPI PUSH2 0x42E JUMP JUMPDEST DUP1 PUSH4 0x8B7AFE2E EQ PUSH2 0x929 JUMPI DUP1 PUSH4 0x8D5D3429 EQ PUSH2 0x93C JUMPI DUP1 PUSH4 0x8D7036DE EQ PUSH2 0x95C JUMPI DUP1 PUSH4 0x8DA5CB5B EQ PUSH2 0x972 JUMPI PUSH2 0x42E JUMP JUMPDEST DUP1 PUSH4 0x4F1EF286 GT PUSH2 0x2F8 JUMPI DUP1 PUSH4 0x668038E0 GT PUSH2 0x28B JUMPI DUP1 PUSH4 0x735AF25D GT PUSH2 0x25A JUMPI DUP1 PUSH4 0x735AF25D EQ PUSH2 0x876 JUMPI DUP1 PUSH4 0x73B4086B EQ PUSH2 0x88B JUMPI DUP1 PUSH4 0x7DBDFE7C EQ PUSH2 0x8EA JUMPI DUP1 PUSH4 0x8129FC1C EQ PUSH2 0x8FF JUMPI DUP1 PUSH4 0x8456CB59 EQ PUSH2 0x914 JUMPI PUSH2 0x42E JUMP JUMPDEST DUP1 PUSH4 0x668038E0 EQ PUSH2 0x7ED JUMPI DUP1 PUSH4 0x69639749 EQ PUSH2 0x802 JUMPI DUP1 PUSH4 0x710CB8E3 EQ PUSH2 0x84C JUMPI DUP1 PUSH4 0x715018A6 EQ PUSH2 0x861 JUMPI PUSH2 0x42E JUMP JUMPDEST DUP1 PUSH4 0x5C975ABB GT PUSH2 0x2C7 JUMPI DUP1 PUSH4 0x5C975ABB EQ PUSH2 0x767 JUMPI DUP1 PUSH4 0x5D29CB98 EQ PUSH2 0x78B JUMPI DUP1 PUSH4 0x5D678CBA EQ PUSH2 0x7AB JUMPI DUP1 PUSH4 0x5F5D5F00 EQ PUSH2 0x7CB JUMPI PUSH2 0x42E JUMP JUMPDEST DUP1 PUSH4 0x4F1EF286 EQ PUSH2 0x706 JUMPI DUP1 PUSH4 0x529A564B EQ PUSH2 0x719 JUMPI DUP1 PUSH4 0x52D1902D EQ PUSH2 0x730 JUMPI DUP1 PUSH4 0x54FD4D50 EQ PUSH2 0x745 JUMPI PUSH2 0x42E JUMP JUMPDEST DUP1 PUSH4 0x1DB79DB5 GT PUSH2 0x370 JUMPI DUP1 PUSH4 0x33481FC9 GT PUSH2 0x33F JUMPI DUP1 PUSH4 0x33481FC9 EQ PUSH2 0x684 JUMPI DUP1 PUSH4 0x3659CFE6 EQ PUSH2 0x6B6 JUMPI DUP1 PUSH4 0x3F4BA83A EQ PUSH2 0x6D6 JUMPI DUP1 PUSH4 0x40650C91 EQ PUSH2 0x6EB JUMPI PUSH2 0x42E JUMP JUMPDEST DUP1 PUSH4 0x1DB79DB5 EQ PUSH2 0x5DF JUMPI DUP1 PUSH4 0x26782247 EQ PUSH2 0x5F6 JUMPI DUP1 PUSH4 0x2ADA2596 EQ PUSH2 0x62F JUMPI DUP1 PUSH4 0x2F1994CC EQ PUSH2 0x664 JUMPI PUSH2 0x42E JUMP JUMPDEST DUP1 PUSH4 0xB1CA49A GT PUSH2 0x3AC JUMPI DUP1 PUSH4 0xB1CA49A EQ PUSH2 0x502 JUMPI DUP1 PUSH4 0x11AEE380 EQ PUSH2 0x522 JUMPI DUP1 PUSH4 0x17AEE51F EQ PUSH2 0x539 JUMPI DUP1 PUSH4 0x1B3B8671 EQ PUSH2 0x54E JUMPI PUSH2 0x42E JUMP JUMPDEST DUP1 PUSH3 0x4A0DE7 EQ PUSH2 0x476 JUMPI DUP1 PUSH4 0x266F044 EQ PUSH2 0x49E JUMPI DUP1 PUSH4 0x3C83302 EQ PUSH2 0x4B5 JUMPI DUP1 PUSH4 0x8AE4B0C EQ PUSH2 0x4CC JUMPI PUSH2 0x42E JUMP JUMPDEST CALLDATASIZE PUSH2 0x42E JUMPI PUSH1 0x40 MLOAD PUSH3 0x461BCD PUSH1 0xE5 SHL DUP2 MSTORE PUSH1 0x20 PUSH1 0x4 DUP3 ADD MSTORE PUSH1 0x19 PUSH1 0x24 DUP3 ADD MSTORE PUSH32 0x496B696D696E613A2075736520636F6E74726962757465282900000000000000 PUSH1 0x44 DUP3 ADD MSTORE PUSH1 0x64 ADD JUMPDEST PUSH1 0x40 MLOAD DUP1 SWAP2 SUB SWAP1 REVERT JUMPDEST PUSH1 0x40 MLOAD PUSH3 0x461BCD PUSH1 0xE5 SHL DUP2 MSTORE PUSH1 0x20 PUSH1 0x4 DUP3 ADD MSTORE PUSH1 0x19 PUSH1 0x24 DUP3 ADD MSTORE PUSH32 0x496B696D696E613A20756E6B6E6F776E2066756E6374696F6E00000000000000 PUSH1 0x44 DUP3 ADD MSTORE PUSH1 0x64 ADD PUSH2 0x425 JUMP JUMPDEST CALLVALUE DUP1 ISZERO PUSH2 0x482 JUMPI PUSH1 0x0 DUP1 REVERT JUMPDEST POP PUSH2 0x48B PUSH2 0xD39 JUMP JUMPDEST PUSH1 0x40 MLOAD SWAP1 DUP2 MSTORE PUSH1 0x20 ADD JUMPDEST PUSH1 0x40 MLOAD DUP1 SWAP2 SUB SWAP1 RETURN JUMPDEST CALLVALUE DUP1 ISZERO PUSH2 0x4AA JUMPI PUSH1 0x0 DUP1 REVERT JUMPDEST POP PUSH2 0x48B PUSH2 0x130 SLOAD DUP2 JUMP JUMPDEST CALLVALUE DUP1 ISZERO PUSH2 0x4C1 JUMPI PUSH1 0x0 DUP1 REVERT JUMPDEST POP PUSH2 0x4CA PUSH2 0xD65 JUMP JUMPDEST STOP JUMPDEST CALLVALUE DUP1 ISZERO PUSH2 0x4D8 JUMPI PUSH1 0x0 DUP1 REVERT JUMPDEST POP PUSH2 0x4EC PUSH2 0x4E7 CALLDATASIZE PUSH1 0x4 PUSH2 0x494D JUMP JUMPDEST PUSH2 0x109C JUMP JUMPDEST PUSH1 0x40 MLOAD PUSH2 0x495 SWAP11 SWAP10 SWAP9 SWAP8 SWAP7 SWAP6 SWAP5 SWAP4 SWAP3 SWAP2 SWAP1 PUSH2 0x49E2 JUMP JUMPDEST CALLVALUE DUP1 ISZERO PUSH2 0x50E JUMPI PUSH1 0x0 DUP1 REVERT JUMPDEST POP PUSH2 0x4CA PUSH2 0x51D CALLDATASIZE PUSH1 0x4 PUSH2 0x494D JUMP JUMPDEST PUSH2 0x1294 JUMP JUMPDEST CALLVALUE DUP1 ISZERO PUSH2 0x52E JUMPI PUSH1 0x0 DUP1 REVERT JUMPDEST POP PUSH2 0x48B PUSH2 0x131 SLOAD DUP2 JUMP JUMPDEST CALLVALUE DUP1 ISZERO PUSH2 0x545 JUMPI PUSH1 0x0 DUP1 REVERT JUMPDEST POP PUSH2 0x4CA PUSH2 0x1482 JUMP JUMPDEST CALLVALUE DUP1 ISZERO PUSH2 0x55A JUMPI PUSH1 0x0 DUP1 REVERT JUMPDEST POP PUSH2 0x5A9 PUSH2 0x569 CALLDATASIZE PUSH1 0x4 PUSH2 0x4A6F JUMP JUMPDEST PUSH1 0x0 SWAP1 DUP2 MSTORE PUSH2 0x135 PUSH1 0x20 MSTORE PUSH1 0x40 SWAP1 KECCAK256 DUP1 SLOAD PUSH1 0x1 DUP3 ADD SLOAD PUSH1 0x2 DUP4 ADD SLOAD PUSH1 0x3 SWAP1 SWAP4 ADD SLOAD PUSH1 0x1 PUSH1 0x1 PUSH1 0xA0 SHL SUB SWAP1 SWAP3 AND SWAP4 SWAP1 SWAP3 SWAP2 PUSH1 0xFF DUP1 DUP3 AND SWAP3 PUSH2 0x100 SWAP1 SWAP3 DIV AND SWAP1 JUMP JUMPDEST PUSH1 0x40 DUP1 MLOAD PUSH1 0x1 PUSH1 0x1 PUSH1 0xA0 SHL SUB SWAP1 SWAP7 AND DUP7 MSTORE PUSH1 0x20 DUP7 ADD SWAP5 SWAP1 SWAP5 MSTORE SWAP3 DUP5 ADD SWAP2 SWAP1 SWAP2 MSTORE ISZERO ISZERO PUSH1 0x60 DUP4 ADD MSTORE ISZERO ISZERO PUSH1 0x80 DUP3 ADD MSTORE PUSH1 0xA0 ADD PUSH2 0x495 JUMP JUMPDEST CALLVALUE DUP1 ISZERO PUSH2 0x5EB JUMPI PUSH1 0x0 DUP1 REVERT JUMPDEST POP PUSH2 0x48B PUSH2 0x13A SLOAD DUP2 JUMP JUMPDEST CALLVALUE DUP1 ISZERO PUSH2 0x602 JUMPI PUSH1 0x0 DUP1 REVERT JUMPDEST POP PUSH2 0x12E SLOAD PUSH2 0x617 SWAP1 PUSH1 0x1 PUSH1 0x1 PUSH1 0xA0 SHL SUB AND DUP2 JUMP JUMPDEST PUSH1 0x40 MLOAD PUSH1 0x1 PUSH1 0x1 PUSH1 0xA0 SHL SUB SWAP1 SWAP2 AND DUP2 MSTORE PUSH1 0x20 ADD PUSH2 0x495 JUMP JUMPDEST CALLVALUE DUP1 ISZERO PUSH2 0x63B JUMPI PUSH1 0x0 DUP1 REVERT JUMPDEST POP PUSH2 0x64F PUSH2 0x64A CALLDATASIZE PUSH1 0x4 PUSH2 0x494D JUMP JUMPDEST PUSH2 0x1506 JUMP JUMPDEST PUSH1 0x40 MLOAD PUSH2 0x495 SWAP10 SWAP9 SWAP8 SWAP7 SWAP6 SWAP5 SWAP4 SWAP3 SWAP2 SWAP1 PUSH2 0x4A88 JUMP JUMPDEST CALLVALUE DUP1 ISZERO PUSH2 0x670 JUMPI PUSH1 0x0 DUP1 REVERT JUMPDEST POP PUSH2 0x4CA PUSH2 0x67F CALLDATASIZE PUSH1 0x4 PUSH2 0x4B5D JUMP JUMPDEST PUSH2 0x173B JUMP JUMPDEST CALLVALUE DUP1 ISZERO PUSH2 0x690 JUMPI PUSH1 0x0 DUP1 REVERT JUMPDEST POP PUSH2 0x6A4 PUSH2 0x69F CALLDATASIZE PUSH1 0x4 PUSH2 0x494D JUMP JUMPDEST PUSH2 0x1C02 JUMP JUMPDEST PUSH1 0x40 MLOAD PUSH2 0x495 SWAP7 SWAP6 SWAP5 SWAP4 SWAP3 SWAP2 SWAP1 PUSH2 0x4C28 JUMP JUMPDEST CALLVALUE DUP1 ISZERO PUSH2 0x6C2 JUMPI PUSH1 0x0 DUP1 REVERT JUMPDEST POP PUSH2 0x4CA PUSH2 0x6D1 CALLDATASIZE PUSH1 0x4 PUSH2 0x494D JUMP JUMPDEST PUSH2 0x1C93 JUMP JUMPDEST CALLVALUE DUP1 ISZERO PUSH2 0x6E2 JUMPI PUSH1 0x0 DUP1 REVERT JUMPDEST POP PUSH2 0x4CA PUSH2 0x1D72 JUMP JUMPDEST CALLVALUE DUP1 ISZERO PUSH2 0x6F7 JUMPI PUSH1 0x0 DUP1 REVERT JUMPDEST POP PUSH2 0x48B PUSH7 0x38D7EA4C68000 DUP2 JUMP JUMPDEST PUSH2 0x4CA PUSH2 0x714 CALLDATASIZE PUSH1 0x4 PUSH2 0x4CEF JUMP JUMPDEST PUSH2 0x1DA5 JUMP JUMPDEST CALLVALUE DUP1 ISZERO PUSH2 0x725 JUMPI PUSH1 0x0 DUP1 REVERT JUMPDEST POP PUSH2 0x48B PUSH2 0x139 SLOAD DUP2 JUMP JUMPDEST CALLVALUE DUP1 ISZERO PUSH2 0x73C JUMPI PUSH1 0x0 DUP1 REVERT JUMPDEST POP PUSH2 0x48B PUSH2 0x1E75 JUMP JUMPDEST CALLVALUE DUP1 ISZERO PUSH2 0x751 JUMPI PUSH1 0x0 DUP1 REVERT JUMPDEST POP PUSH2 0x75A PUSH2 0x1F28 JUMP JUMPDEST PUSH1 0x40 MLOAD PUSH2 0x495 SWAP2 SWAP1 PUSH2 0x4D51 JUMP JUMPDEST CALLVALUE DUP1 ISZERO PUSH2 0x773 JUMPI PUSH1 0x0 DUP1 REVERT JUMPDEST POP PUSH1 0xFB SLOAD PUSH1 0xFF AND JUMPDEST PUSH1 0x40 MLOAD SWAP1 ISZERO ISZERO DUP2 MSTORE PUSH1 0x20 ADD PUSH2 0x495 JUMP JUMPDEST CALLVALUE DUP1 ISZERO PUSH2 0x797 JUMPI PUSH1 0x0 DUP1 REVERT JUMPDEST POP PUSH2 0x4CA PUSH2 0x7A6 CALLDATASIZE PUSH1 0x4 PUSH2 0x4A6F JUMP JUMPDEST PUSH2 0x1FB7 JUMP JUMPDEST CALLVALUE DUP1 ISZERO PUSH2 0x7B7 JUMPI PUSH1 0x0 DUP1 REVERT JUMPDEST POP PUSH2 0x77B PUSH2 0x7C6 CALLDATASIZE PUSH1 0x4 PUSH2 0x4D64 JUMP JUMPDEST PUSH2 0x2135 JUMP JUMPDEST CALLVALUE DUP1 ISZERO PUSH2 0x7D7 JUMPI PUSH1 0x0 DUP1 REVERT JUMPDEST POP PUSH2 0x7E0 PUSH2 0x22A7 JUMP JUMPDEST PUSH1 0x40 MLOAD PUSH2 0x495 SWAP2 SWAP1 PUSH2 0x4D8E JUMP JUMPDEST CALLVALUE DUP1 ISZERO PUSH2 0x7F9 JUMPI PUSH1 0x0 DUP1 REVERT JUMPDEST POP PUSH2 0x4CA PUSH2 0x230A JUMP JUMPDEST CALLVALUE DUP1 ISZERO PUSH2 0x80E JUMPI PUSH1 0x0 DUP1 REVERT JUMPDEST POP PUSH2 0x83F PUSH2 0x81D CALLDATASIZE PUSH1 0x4 PUSH2 0x494D JUMP JUMPDEST PUSH1 0x1 PUSH1 0x1 PUSH1 0xA0 SHL SUB AND PUSH1 0x0 SWAP1 DUP2 MSTORE PUSH2 0x133 PUSH1 0x20 MSTORE PUSH1 0x40 SWAP1 KECCAK256 PUSH1 0x7 ADD SLOAD PUSH1 0xFF AND SWAP1 JUMP JUMPDEST PUSH1 0x40 MLOAD PUSH2 0x495 SWAP2 SWAP1 PUSH2 0x4DDB JUMP JUMPDEST CALLVALUE DUP1 ISZERO PUSH2 0x858 JUMPI PUSH1 0x0 DUP1 REVERT JUMPDEST POP PUSH2 0x48B PUSH1 0x1E DUP2 JUMP JUMPDEST CALLVALUE DUP1 ISZERO PUSH2 0x86D JUMPI PUSH1 0x0 DUP1 REVERT JUMPDEST POP PUSH2 0x4CA PUSH2 0x2502 JUMP JUMPDEST CALLVALUE DUP1 ISZERO PUSH2 0x882 JUMPI PUSH1 0x0 DUP1 REVERT JUMPDEST POP PUSH2 0x48B PUSH1 0xA DUP2 JUMP JUMPDEST CALLVALUE DUP1 ISZERO PUSH2 0x897 JUMPI PUSH1 0x0 DUP1 REVERT JUMPDEST POP PUSH2 0x8D9 PUSH2 0x8A6 CALLDATASIZE PUSH1 0x4 PUSH2 0x494D JUMP JUMPDEST PUSH2 0x134 PUSH1 0x20 MSTORE PUSH1 0x0 SWAP1 DUP2 MSTORE PUSH1 0x40 SWAP1 KECCAK256 DUP1 SLOAD PUSH1 0x1 DUP3 ADD SLOAD PUSH1 0x2 DUP4 ADD SLOAD PUSH1 0x3 DUP5 ADD SLOAD PUSH1 0x4 SWAP1 SWAP5 ADD SLOAD SWAP3 SWAP4 SWAP2 SWAP3 SWAP1 SWAP2 SWAP1 PUSH1 0xFF AND DUP6 JUMP JUMPDEST PUSH1 0x40 MLOAD PUSH2 0x495 SWAP6 SWAP5 SWAP4 SWAP3 SWAP2 SWAP1 PUSH2 0x4DE9 JUMP JUMPDEST CALLVALUE DUP1 ISZERO PUSH2 0x8F6 JUMPI PUSH1 0x0 DUP1 REVERT JUMPDEST POP PUSH2 0x48B PUSH1 0x3 DUP2 JUMP JUMPDEST CALLVALUE DUP1 ISZERO PUSH2 0x90B JUMPI PUSH1 0x0 DUP1 REVERT JUMPDEST POP PUSH2 0x4CA PUSH2 0x2514 JUMP JUMPDEST CALLVALUE DUP1 ISZERO PUSH2 0x920 JUMPI PUSH1 0x0 DUP1 REVERT JUMPDEST POP PUSH2 0x4CA PUSH2 0x2687 JUMP JUMPDEST CALLVALUE DUP1 ISZERO PUSH2 0x935 JUMPI PUSH1 0x0 DUP1 REVERT JUMPDEST POP SELFBALANCE PUSH2 0x48B JUMP JUMPDEST CALLVALUE DUP1 ISZERO PUSH2 0x948 JUMPI PUSH1 0x0 DUP1 REVERT JUMPDEST POP PUSH2 0x48B PUSH2 0x957 CALLDATASIZE PUSH1 0x4 PUSH2 0x4A6F JUMP JUMPDEST PUSH2 0x26BA JUMP JUMPDEST CALLVALUE DUP1 ISZERO PUSH2 0x968 JUMPI PUSH1 0x0 DUP1 REVERT JUMPDEST POP PUSH2 0x48B PUSH2 0x1F40 DUP2 JUMP JUMPDEST CALLVALUE DUP1 ISZERO PUSH2 0x97E JUMPI PUSH1 0x0 DUP1 REVERT JUMPDEST POP PUSH1 0x97 SLOAD PUSH1 0x1 PUSH1 0x1 PUSH1 0xA0 SHL SUB AND PUSH2 0x617 JUMP JUMPDEST CALLVALUE DUP1 ISZERO PUSH2 0x99C JUMPI PUSH1 0x0 DUP1 REVERT JUMPDEST POP PUSH2 0x132 SLOAD PUSH1 0x0 DUP2 DUP2 MSTORE PUSH2 0x136 PUSH1 0x20 MSTORE PUSH1 0x40 SWAP1 KECCAK256 DUP1 SLOAD PUSH1 0x1 DUP3 ADD SLOAD PUSH1 0x2 DUP4 ADD SLOAD PUSH1 0x3 SWAP1 SWAP4 ADD SLOAD SWAP2 SWAP3 SWAP1 SWAP2 PUSH1 0xFF AND PUSH1 0x40 DUP1 MLOAD SWAP6 DUP7 MSTORE PUSH1 0x20 DUP7 ADD SWAP5 SWAP1 SWAP5 MSTORE SWAP3 DUP5 ADD SWAP2 SWAP1 SWAP2 MSTORE PUSH1 0x60 DUP4 ADD MSTORE ISZERO ISZERO PUSH1 0x80 DUP3 ADD MSTORE PUSH1 0xA0 ADD PUSH2 0x495 JUMP JUMPDEST CALLVALUE DUP1 ISZERO PUSH2 0x9FF JUMPI PUSH1 0x0 DUP1 REVERT JUMPDEST POP PUSH2 0x4CA PUSH2 0xA0E CALLDATASIZE PUSH1 0x4 PUSH2 0x4D64 JUMP JUMPDEST PUSH2 0x2BED JUMP JUMPDEST CALLVALUE DUP1 ISZERO PUSH2 0xA1F JUMPI PUSH1 0x0 DUP1 REVERT JUMPDEST POP PUSH2 0x4CA PUSH2 0xA2E CALLDATASIZE PUSH1 0x4 PUSH2 0x4E13 JUMP JUMPDEST PUSH2 0x2D18 JUMP JUMPDEST CALLVALUE DUP1 ISZERO PUSH2 0xA3F JUMPI PUSH1 0x0 DUP1 REVERT JUMPDEST POP PUSH2 0x48B PUSH3 0xED4E00 DUP2 JUMP JUMPDEST CALLVALUE DUP1 ISZERO PUSH2 0xA56 JUMPI PUSH1 0x0 DUP1 REVERT JUMPDEST POP PUSH2 0x48B PUSH2 0x13C SLOAD DUP2 JUMP JUMPDEST CALLVALUE DUP1 ISZERO PUSH2 0xA6D JUMPI PUSH1 0x0 DUP1 REVERT JUMPDEST POP PUSH2 0x4CA PUSH2 0xA7C CALLDATASIZE PUSH1 0x4 PUSH2 0x4A6F JUMP JUMPDEST PUSH2 0x2D67 JUMP JUMPDEST CALLVALUE DUP1 ISZERO PUSH2 0xA8D JUMPI PUSH1 0x0 DUP1 REVERT JUMPDEST POP PUSH2 0x4CA PUSH2 0xA9C CALLDATASIZE PUSH1 0x4 PUSH2 0x494D JUMP JUMPDEST PUSH2 0x2FDA JUMP JUMPDEST CALLVALUE DUP1 ISZERO PUSH2 0xAAD JUMPI PUSH1 0x0 DUP1 REVERT JUMPDEST POP PUSH2 0x4CA PUSH2 0xABC CALLDATASIZE PUSH1 0x4 PUSH2 0x4E5C JUMP JUMPDEST PUSH2 0x3076 JUMP JUMPDEST CALLVALUE DUP1 ISZERO PUSH2 0xACD JUMPI PUSH1 0x0 DUP1 REVERT JUMPDEST POP PUSH2 0x617 PUSH2 0xADC CALLDATASIZE PUSH1 0x4 PUSH2 0x4A6F JUMP JUMPDEST PUSH2 0x31A0 JUMP JUMPDEST CALLVALUE DUP1 ISZERO PUSH2 0xAED JUMPI PUSH1 0x0 DUP1 REVERT JUMPDEST POP PUSH2 0x48B PUSH2 0x31CB JUMP JUMPDEST CALLVALUE DUP1 ISZERO PUSH2 0xB02 JUMPI PUSH1 0x0 DUP1 REVERT JUMPDEST POP PUSH2 0x48B PUSH2 0x138 SLOAD DUP2 JUMP JUMPDEST CALLVALUE DUP1 ISZERO PUSH2 0xB19 JUMPI PUSH1 0x0 DUP1 REVERT JUMPDEST POP PUSH2 0x48B PUSH2 0x1F4 DUP2 JUMP JUMPDEST CALLVALUE DUP1 ISZERO PUSH2 0xB2F JUMPI PUSH1 0x0 DUP1 REVERT JUMPDEST POP PUSH2 0xB69 PUSH2 0xB3E CALLDATASIZE PUSH1 0x4 PUSH2 0x4A6F JUMP JUMPDEST PUSH2 0x136 PUSH1 0x20 MSTORE PUSH1 0x0 SWAP1 DUP2 MSTORE PUSH1 0x40 SWAP1 KECCAK256 DUP1 SLOAD PUSH1 0x1 DUP3 ADD SLOAD PUSH1 0x2 DUP4 ADD SLOAD PUSH1 0x3 SWAP1 SWAP4 ADD SLOAD SWAP2 SWAP3 SWAP1 SWAP2 PUSH1 0xFF AND DUP5 JUMP JUMPDEST PUSH1 0x40 DUP1 MLOAD SWAP5 DUP6 MSTORE PUSH1 0x20 DUP6 ADD SWAP4 SWAP1 SWAP4 MSTORE SWAP2 DUP4 ADD MSTORE ISZERO ISZERO PUSH1 0x60 DUP3 ADD MSTORE PUSH1 0x80 ADD PUSH2 0x495 JUMP JUMPDEST CALLVALUE DUP1 ISZERO PUSH2 0xB97 JUMPI PUSH1 0x0 DUP1 REVERT JUMPDEST POP PUSH2 0x48B PUSH2 0xBA6 CALLDATASIZE PUSH1 0x4 PUSH2 0x494D JUMP JUMPDEST PUSH2 0x31DF JUMP JUMPDEST CALLVALUE DUP1 ISZERO PUSH2 0xBB7 JUMPI PUSH1 0x0 DUP1 REVERT JUMPDEST POP PUSH2 0x5A9 PUSH2 0xBC6 CALLDATASIZE PUSH1 0x4 PUSH2 0x4A6F JUMP JUMPDEST PUSH2 0x135 PUSH1 0x20 MSTORE PUSH1 0x0 SWAP1 DUP2 MSTORE PUSH1 0x40 SWAP1 KECCAK256 DUP1 SLOAD PUSH1 0x1 DUP3 ADD SLOAD PUSH1 0x2 DUP4 ADD SLOAD PUSH1 0x3 SWAP1 SWAP4 ADD SLOAD PUSH1 0x1 PUSH1 0x1 PUSH1 0xA0 SHL SUB SWAP1 SWAP3 AND SWAP3 SWAP1 SWAP2 PUSH1 0xFF DUP1 DUP3 AND SWAP2 PUSH2 0x100 SWAP1 DIV AND DUP6 JUMP JUMPDEST CALLVALUE DUP1 ISZERO PUSH2 0xC10 JUMPI PUSH1 0x0 DUP1 REVERT JUMPDEST POP PUSH2 0x48B PUSH1 0x32 DUP2 JUMP JUMPDEST PUSH2 0x4CA PUSH2 0x326C JUMP JUMPDEST CALLVALUE DUP1 ISZERO PUSH2 0xC2D JUMPI PUSH1 0x0 DUP1 REVERT JUMPDEST POP PUSH2 0x77B PUSH2 0xC3C CALLDATASIZE PUSH1 0x4 PUSH2 0x494D JUMP JUMPDEST PUSH2 0x33E9 JUMP JUMPDEST CALLVALUE DUP1 ISZERO PUSH2 0xC4D JUMPI PUSH1 0x0 DUP1 REVERT JUMPDEST POP PUSH2 0x4CA PUSH2 0xC5C CALLDATASIZE PUSH1 0x4 PUSH2 0x494D JUMP JUMPDEST PUSH2 0x345D JUMP JUMPDEST CALLVALUE DUP1 ISZERO PUSH2 0xC6D JUMPI PUSH1 0x0 DUP1 REVERT JUMPDEST POP PUSH2 0x4CA PUSH2 0xC7C CALLDATASIZE PUSH1 0x4 PUSH2 0x4A6F JUMP JUMPDEST PUSH2 0x36FB JUMP JUMPDEST CALLVALUE DUP1 ISZERO PUSH2 0xC8D JUMPI PUSH1 0x0 DUP1 REVERT JUMPDEST POP PUSH2 0x48B PUSH3 0x278D00 DUP2 JUMP JUMPDEST CALLVALUE DUP1 ISZERO PUSH2 0xCA4 JUMPI PUSH1 0x0 DUP1 REVERT JUMPDEST POP PUSH2 0x48B PUSH1 0x64 DUP2 JUMP JUMPDEST CALLVALUE DUP1 ISZERO PUSH2 0xCB9 JUMPI PUSH1 0x0 DUP1 REVERT JUMPDEST POP PUSH2 0x48B PUSH2 0x12F SLOAD DUP2 JUMP JUMPDEST CALLVALUE DUP1 ISZERO PUSH2 0xCD0 JUMPI PUSH1 0x0 DUP1 REVERT JUMPDEST POP PUSH2 0x48B PUSH1 0xC8 DUP2 JUMP JUMPDEST CALLVALUE DUP1 ISZERO PUSH2 0xCE5 JUMPI PUSH1 0x0 DUP1 REVERT JUMPDEST POP PUSH2 0x48B PUSH2 0x132 SLOAD DUP2 JUMP JUMPDEST CALLVALUE DUP1 ISZERO PUSH2 0xCFC JUMPI PUSH1 0x0 DUP1 REVERT JUMPDEST POP PUSH2 0x4CA PUSH2 0xD0B CALLDATASIZE PUSH1 0x4 PUSH2 0x494D JUMP JUMPDEST PUSH2 0x39FC JUMP JUMPDEST CALLVALUE DUP1 ISZERO PUSH2 0xD1C JUMPI PUSH1 0x0 DUP1 REVERT JUMPDEST POP PUSH2 0x12D SLOAD PUSH2 0x617 SWAP1 PUSH1 0x1 PUSH1 0x1 PUSH1 0xA0 SHL SUB AND DUP2 JUMP JUMPDEST PUSH2 0x4CA PUSH2 0x3A72 JUMP JUMPDEST PUSH1 0x0 PUSH1 0x64 PUSH2 0xD48 PUSH1 0x1E DUP3 PUSH2 0x4EA5 JUMP JUMPDEST PUSH2 0x12F SLOAD PUSH2 0xD56 SWAP2 SWAP1 PUSH2 0x4EB8 JUMP JUMPDEST PUSH2 0xD60 SWAP2 SWAP1 PUSH2 0x4ECF JUMP JUMPDEST SWAP1 POP SWAP1 JUMP JUMPDEST PUSH2 0xD6D PUSH2 0x3DEC JUMP JUMPDEST PUSH2 0x132 SLOAD PUSH1 0x0 SWAP1 DUP2 MSTORE PUSH2 0x136 PUSH1 0x20 MSTORE PUSH1 0x40 SWAP1 KECCAK256 PUSH1 0x1 DUP2 ADD SLOAD TIMESTAMP LT ISZERO PUSH2 0xDD4 JUMPI PUSH1 0x40 MLOAD PUSH3 0x461BCD PUSH1 0xE5 SHL DUP2 MSTORE PUSH1 0x20 PUSH1 0x4 DUP3 ADD MSTORE PUSH1 0x17 PUSH1 0x24 DUP3 ADD MSTORE PUSH32 0x496B696D696E613A207465726D206E6F7420656E646564000000000000000000 PUSH1 0x44 DUP3 ADD MSTORE PUSH1 0x64 ADD PUSH2 0x425 JUMP JUMPDEST PUSH1 0x3 DUP2 ADD SLOAD PUSH1 0xFF AND ISZERO PUSH2 0xE29 JUMPI PUSH1 0x40 MLOAD PUSH3 0x461BCD PUSH1 0xE5 SHL DUP2 MSTORE PUSH1 0x20 PUSH1 0x4 DUP3 ADD MSTORE PUSH1 0x1C PUSH1 0x24 DUP3 ADD MSTORE PUSH32 0x496B696D696E613A20616C726561647920646973747269627574656400000000 PUSH1 0x44 DUP3 ADD MSTORE PUSH1 0x64 ADD PUSH2 0x425 JUMP JUMPDEST PUSH1 0x0 DUP2 PUSH1 0x2 ADD SLOAD GT PUSH2 0xE74 JUMPI PUSH1 0x40 MLOAD PUSH3 0x461BCD PUSH1 0xE5 SHL DUP2 MSTORE PUSH1 0x20 PUSH1 0x4 DUP3 ADD MSTORE PUSH1 0x14 PUSH1 0x24 DUP3 ADD MSTORE PUSH20 0x125ADA5B5A5B984E881B9BC81A5B9D195C995CDD PUSH1 0x62 SHL PUSH1 0x44 DUP3 ADD MSTORE PUSH1 0x64 ADD PUSH2 0x425 JUMP JUMPDEST PUSH1 0x0 PUSH2 0x131 SLOAD GT PUSH2 0xEBD JUMPI PUSH1 0x40 MLOAD PUSH3 0x461BCD PUSH1 0xE5 SHL DUP2 MSTORE PUSH1 0x20 PUSH1 0x4 DUP3 ADD MSTORE PUSH1 0x13 PUSH1 0x24 DUP3 ADD MSTORE PUSH19 0x496B696D696E613A206E6F206D656D62657273 PUSH1 0x68 SHL PUSH1 0x44 DUP3 ADD MSTORE PUSH1 0x64 ADD PUSH2 0x425 JUMP JUMPDEST PUSH1 0x3 DUP2 ADD DUP1 SLOAD PUSH1 0xFF NOT AND PUSH1 0x1 OR SWAP1 SSTORE PUSH1 0x2 DUP2 ADD SLOAD PUSH1 0x0 SWAP1 PUSH2 0x2710 SWAP1 PUSH2 0xEE5 SWAP1 PUSH2 0x1F40 SWAP1 PUSH2 0x4EB8 JUMP JUMPDEST PUSH2 0xEEF SWAP2 SWAP1 PUSH2 0x4ECF JUMP JUMPDEST SWAP1 POP DUP1 DUP3 PUSH1 0x2 ADD SLOAD PUSH2 0xF01 SWAP2 SWAP1 PUSH2 0x4EA5 JUMP JUMPDEST PUSH2 0x130 PUSH1 0x0 DUP3 DUP3 SLOAD PUSH2 0xF13 SWAP2 SWAP1 PUSH2 0x4EF1 JUMP JUMPDEST SWAP1 SWAP2 SSTORE POP PUSH1 0x0 SWAP1 POP PUSH2 0xF23 PUSH2 0x3E45 JUMP JUMPDEST SWAP1 POP PUSH1 0x0 JUMPDEST PUSH2 0x137 SLOAD DUP2 LT ISZERO PUSH2 0x101A JUMPI PUSH1 0x0 PUSH2 0x137 DUP3 DUP2 SLOAD DUP2 LT PUSH2 0xF49 JUMPI PUSH2 0xF49 PUSH2 0x4F04 JUMP JUMPDEST PUSH1 0x0 SWAP2 DUP3 MSTORE PUSH1 0x20 DUP1 DUP4 KECCAK256 SWAP1 SWAP2 ADD SLOAD PUSH1 0x1 PUSH1 0x1 PUSH1 0xA0 SHL SUB AND DUP1 DUP4 MSTORE PUSH2 0x133 SWAP1 SWAP2 MSTORE PUSH1 0x40 SWAP1 SWAP2 KECCAK256 PUSH1 0x3 ADD SLOAD SWAP1 SWAP2 POP PUSH1 0xFF PUSH1 0x1 PUSH1 0xA8 SHL SWAP1 SWAP2 DIV AND PUSH2 0xF8A JUMPI POP PUSH2 0x1012 JUMP JUMPDEST PUSH1 0x0 DUP1 DUP5 GT PUSH2 0xFA6 JUMPI PUSH2 0x131 SLOAD PUSH2 0xFA1 SWAP1 DUP7 PUSH2 0x4ECF JUMP JUMPDEST PUSH2 0xFD9 JUMP JUMPDEST PUSH1 0x1 PUSH1 0x1 PUSH1 0xA0 SHL SUB DUP3 AND PUSH1 0x0 SWAP1 DUP2 MSTORE PUSH2 0x133 PUSH1 0x20 MSTORE PUSH1 0x40 SWAP1 KECCAK256 PUSH1 0x4 ADD SLOAD DUP5 SWAP1 PUSH2 0xFCF SWAP1 DUP8 PUSH2 0x4EB8 JUMP JUMPDEST PUSH2 0xFD9 SWAP2 SWAP1 PUSH2 0x4ECF JUMP JUMPDEST PUSH1 0x1 PUSH1 0x1 PUSH1 0xA0 SHL SUB DUP4 AND PUSH1 0x0 SWAP1 DUP2 MSTORE PUSH2 0x133 PUSH1 0x20 MSTORE PUSH1 0x40 DUP2 KECCAK256 PUSH1 0x5 ADD DUP1 SLOAD SWAP3 SWAP4 POP DUP4 SWAP3 SWAP1 SWAP2 SWAP1 PUSH2 0x100A SWAP1 DUP5 SWAP1 PUSH2 0x4EF1 JUMP JUMPDEST SWAP1 SWAP2 SSTORE POP POP POP POP JUMPDEST PUSH1 0x1 ADD PUSH2 0xF28 JUMP JUMPDEST POP PUSH2 0x132 SLOAD PUSH32 0xC6570A09263E2DBE9B55B3B62E5C111AF20C6CFB770F70C0AAB4660EF56CC337 DUP4 PUSH2 0x131 SLOAD DUP6 PUSH2 0x1050 SWAP2 SWAP1 PUSH2 0x4ECF JUMP JUMPDEST PUSH1 0x40 DUP1 MLOAD SWAP3 DUP4 MSTORE PUSH1 0x20 DUP4 ADD SWAP2 SWAP1 SWAP2 MSTORE TIMESTAMP SWAP1 DUP3 ADD MSTORE PUSH1 0x60 ADD PUSH1 0x40 MLOAD DUP1 SWAP2 SUB SWAP1 LOG2 PUSH2 0x132 DUP1 SLOAD SWAP1 PUSH1 0x0 PUSH2 0x1080 DUP4 PUSH2 0x4F1A JUMP JUMPDEST SWAP2 SWAP1 POP SSTORE POP PUSH2 0x108D PUSH2 0x3EFF JUMP JUMPDEST POP POP POP PUSH2 0x109A PUSH1 0x1 PUSH1 0xC9 SSTORE JUMP JUMPDEST JUMP JUMPDEST PUSH2 0x133 PUSH1 0x20 MSTORE PUSH1 0x0 SWAP1 DUP2 MSTORE PUSH1 0x40 SWAP1 KECCAK256 DUP1 SLOAD DUP2 SWAP1 PUSH2 0x10B8 SWAP1 PUSH2 0x4F33 JUMP JUMPDEST DUP1 PUSH1 0x1F ADD PUSH1 0x20 DUP1 SWAP2 DIV MUL PUSH1 0x20 ADD PUSH1 0x40 MLOAD SWAP1 DUP2 ADD PUSH1 0x40 MSTORE DUP1 SWAP3 SWAP2 SWAP1 DUP2 DUP2 MSTORE PUSH1 0x20 ADD DUP3 DUP1 SLOAD PUSH2 0x10E4 SWAP1 PUSH2 0x4F33 JUMP JUMPDEST DUP1 ISZERO PUSH2 0x1131 JUMPI DUP1 PUSH1 0x1F LT PUSH2 0x1106 JUMPI PUSH2 0x100 DUP1 DUP4 SLOAD DIV MUL DUP4 MSTORE SWAP2 PUSH1 0x20 ADD SWAP2 PUSH2 0x1131 JUMP JUMPDEST DUP3 ADD SWAP2 SWAP1 PUSH1 0x0 MSTORE PUSH1 0x20 PUSH1 0x0 KECCAK256 SWAP1 JUMPDEST DUP2 SLOAD DUP2 MSTORE SWAP1 PUSH1 0x1 ADD SWAP1 PUSH1 0x20 ADD DUP1 DUP4 GT PUSH2 0x1114 JUMPI DUP3 SWAP1 SUB PUSH1 0x1F AND DUP3 ADD SWAP2 JUMPDEST POP POP POP POP POP SWAP1 DUP1 PUSH1 0x1 ADD DUP1 SLOAD PUSH2 0x1146 SWAP1 PUSH2 0x4F33 JUMP JUMPDEST DUP1 PUSH1 0x1F ADD PUSH1 0x20 DUP1 SWAP2 DIV MUL PUSH1 0x20 ADD PUSH1 0x40 MLOAD SWAP1 DUP2 ADD PUSH1 0x40 MSTORE DUP1 SWAP3 SWAP2 SWAP1 DUP2 DUP2 MSTORE PUSH1 0x20 ADD DUP3 DUP1 SLOAD PUSH2 0x1172 SWAP1 PUSH2 0x4F33 JUMP JUMPDEST DUP1 ISZERO PUSH2 0x11BF JUMPI DUP1 PUSH1 0x1F LT PUSH2 0x1194 JUMPI PUSH2 0x100 DUP1 DUP4 SLOAD DIV MUL DUP4 MSTORE SWAP2 PUSH1 0x20 ADD SWAP2 PUSH2 0x11BF JUMP JUMPDEST DUP3 ADD SWAP2 SWAP1 PUSH1 0x0 MSTORE PUSH1 0x20 PUSH1 0x0 KECCAK256 SWAP1 JUMPDEST DUP2 SLOAD DUP2 MSTORE SWAP1 PUSH1 0x1 ADD SWAP1 PUSH1 0x20 ADD DUP1 DUP4 GT PUSH2 0x11A2 JUMPI DUP3 SWAP1 SUB PUSH1 0x1F AND DUP3 ADD SWAP2 JUMPDEST POP POP POP POP POP SWAP1 DUP1 PUSH1 0x2 ADD DUP1 SLOAD PUSH2 0x11D4 SWAP1 PUSH2 0x4F33 JUMP JUMPDEST DUP1 PUSH1 0x1F ADD PUSH1 0x20 DUP1 SWAP2 DIV MUL PUSH1 0x20 ADD PUSH1 0x40 MLOAD SWAP1 DUP2 ADD PUSH1 0x40 MSTORE DUP1 SWAP3 SWAP2 SWAP1 DUP2 DUP2 MSTORE PUSH1 0x20 ADD DUP3 DUP1 SLOAD PUSH2 0x1200 SWAP1 PUSH2 0x4F33 JUMP JUMPDEST DUP1 ISZERO PUSH2 0x124D JUMPI DUP1 PUSH1 0x1F LT PUSH2 0x1222 JUMPI PUSH2 0x100 DUP1 DUP4 SLOAD DIV MUL DUP4 MSTORE SWAP2 PUSH1 0x20 ADD SWAP2 PUSH2 0x124D JUMP JUMPDEST DUP3 ADD SWAP2 SWAP1 PUSH1 0x0 MSTORE PUSH1 0x20 PUSH1 0x0 KECCAK256 SWAP1 JUMPDEST DUP2 SLOAD DUP2 MSTORE SWAP1 PUSH1 0x1 ADD SWAP1 PUSH1 0x20 ADD DUP1 DUP4 GT PUSH2 0x1230 JUMPI DUP3 SWAP1 SUB PUSH1 0x1F AND DUP3 ADD SWAP2 JUMPDEST POP POP POP POP PUSH1 0x3 DUP4 ADD SLOAD PUSH1 0x4 DUP5 ADD SLOAD PUSH1 0x5 DUP6 ADD SLOAD PUSH1 0x6 DUP7 ADD SLOAD PUSH1 0x7 SWAP1 SWAP7 ADD SLOAD SWAP5 SWAP6 PUSH1 0x1 PUSH1 0x1 PUSH1 0xA0 SHL SUB DUP5 AND SWAP6 PUSH1 0xFF PUSH1 0x1 PUSH1 0xA0 SHL DUP7 DIV DUP2 AND SWAP7 POP PUSH1 0x1 PUSH1 0xA8 SHL SWAP1 SWAP6 DIV DUP6 AND SWAP5 AND DUP11 JUMP JUMPDEST PUSH2 0x12D SLOAD PUSH1 0x1 PUSH1 0x1 PUSH1 0xA0 SHL SUB AND CALLER EQ PUSH2 0x12BF JUMPI PUSH1 0x40 MLOAD PUSH3 0x461BCD PUSH1 0xE5 SHL DUP2 MSTORE PUSH1 0x4 ADD PUSH2 0x425 SWAP1 PUSH2 0x4F67 JUMP JUMPDEST PUSH1 0x1 PUSH1 0x1 PUSH1 0xA0 SHL SUB DUP2 AND PUSH1 0x0 SWAP1 DUP2 MSTORE PUSH2 0x133 PUSH1 0x20 MSTORE PUSH1 0x40 SWAP1 KECCAK256 PUSH1 0x3 ADD SLOAD PUSH1 0x1 PUSH1 0xA0 SHL SWAP1 DIV PUSH1 0xFF AND DUP1 ISZERO PUSH2 0x1315 JUMPI POP PUSH1 0x1 PUSH1 0x1 PUSH1 0xA0 SHL SUB DUP2 AND PUSH1 0x0 SWAP1 DUP2 MSTORE PUSH2 0x133 PUSH1 0x20 MSTORE PUSH1 0x40 SWAP1 KECCAK256 PUSH1 0x3 ADD SLOAD PUSH1 0x1 PUSH1 0xA8 SHL SWAP1 DIV PUSH1 0xFF AND JUMPDEST PUSH2 0x1331 JUMPI PUSH1 0x40 MLOAD PUSH3 0x461BCD PUSH1 0xE5 SHL DUP2 MSTORE PUSH1 0x4 ADD PUSH2 0x425 SWAP1 PUSH2 0x4F9E JUMP JUMPDEST PUSH1 0x2 PUSH1 0x1 PUSH1 0x1 PUSH1 0xA0 SHL SUB DUP3 AND PUSH1 0x0 SWAP1 DUP2 MSTORE PUSH2 0x134 PUSH1 0x20 MSTORE PUSH1 0x40 SWAP1 KECCAK256 PUSH1 0x4 SWAP1 DUP2 ADD SLOAD PUSH1 0xFF AND SWAP1 DUP2 GT ISZERO PUSH2 0x1365 JUMPI PUSH2 0x1365 PUSH2 0x49B8 JUMP JUMPDEST EQ ISZERO DUP1 ISZERO PUSH2 0x13A5 JUMPI POP PUSH1 0x1 PUSH1 0x1 PUSH1 0x1 PUSH1 0xA0 SHL SUB DUP3 AND PUSH1 0x0 SWAP1 DUP2 MSTORE PUSH2 0x134 PUSH1 0x20 MSTORE PUSH1 0x40 SWAP1 KECCAK256 PUSH1 0x4 SWAP1 DUP2 ADD SLOAD PUSH1 0xFF AND SWAP1 DUP2 GT ISZERO PUSH2 0x13A2 JUMPI PUSH2 0x13A2 PUSH2 0x49B8 JUMP JUMPDEST EQ ISZERO JUMPDEST PUSH2 0x1401 JUMPI PUSH1 0x40 MLOAD PUSH3 0x461BCD PUSH1 0xE5 SHL DUP2 MSTORE PUSH1 0x20 PUSH1 0x4 DUP3 ADD MSTORE PUSH1 0x27 PUSH1 0x24 DUP3 ADD MSTORE PUSH32 0x496B696D696E613A206D656D62657220686173206163746976652F70656E6469 PUSH1 0x44 DUP3 ADD MSTORE PUSH7 0x3733903637B0B7 PUSH1 0xC9 SHL PUSH1 0x64 DUP3 ADD MSTORE PUSH1 0x84 ADD PUSH2 0x425 JUMP JUMPDEST PUSH1 0x1 PUSH1 0x1 PUSH1 0xA0 SHL SUB DUP2 AND PUSH1 0x0 SWAP1 DUP2 MSTORE PUSH2 0x133 PUSH1 0x20 MSTORE PUSH1 0x40 DUP2 KECCAK256 PUSH1 0x3 ADD DUP1 SLOAD PUSH1 0xFF PUSH1 0xA8 SHL NOT AND SWAP1 SSTORE PUSH2 0x131 DUP1 SLOAD SWAP2 PUSH2 0x1437 DUP4 PUSH2 0x4FD5 JUMP JUMPDEST SWAP2 SWAP1 POP SSTORE POP DUP1 PUSH1 0x1 PUSH1 0x1 PUSH1 0xA0 SHL SUB AND PUSH32 0x3AC963493DF564DE734D98633F1145D21512E282BA4C02D3C1011119BF7F2862 TIMESTAMP PUSH1 0x40 MLOAD PUSH2 0x1477 SWAP2 DUP2 MSTORE PUSH1 0x20 ADD SWAP1 JUMP JUMPDEST PUSH1 0x40 MLOAD DUP1 SWAP2 SUB SWAP1 LOG2 POP JUMP JUMPDEST PUSH2 0x12E SLOAD PUSH1 0x1 PUSH1 0x1 PUSH1 0xA0 SHL SUB AND CALLER EQ PUSH2 0x14DD JUMPI PUSH1 0x40 MLOAD PUSH3 0x461BCD PUSH1 0xE5 SHL DUP2 MSTORE PUSH1 0x20 PUSH1 0x4 DUP3 ADD MSTORE PUSH1 0x1A PUSH1 0x24 DUP3 ADD MSTORE PUSH32 0x496B696D696E613A206E6F742070656E64696E672061646D696E000000000000 PUSH1 0x44 DUP3 ADD MSTORE PUSH1 0x64 ADD PUSH2 0x425 JUMP JUMPDEST PUSH2 0x12E DUP1 SLOAD PUSH2 0x12D DUP1 SLOAD PUSH1 0x1 PUSH1 0x1 PUSH1 0xA0 SHL SUB NOT SWAP1 DUP2 AND PUSH1 0x1 PUSH1 0x1 PUSH1 0xA0 SHL SUB DUP5 AND OR SWAP1 SWAP2 SSTORE AND SWAP1 SSTORE JUMP JUMPDEST PUSH1 0x1 PUSH1 0x1 PUSH1 0xA0 SHL SUB DUP2 AND PUSH1 0x0 SWAP1 DUP2 MSTORE PUSH2 0x133 PUSH1 0x20 MSTORE PUSH1 0x40 DUP2 KECCAK256 PUSH1 0x3 DUP2 ADD SLOAD PUSH1 0x4 DUP3 ADD SLOAD PUSH1 0x5 DUP4 ADD SLOAD PUSH1 0x6 DUP5 ADD SLOAD PUSH1 0x7 DUP6 ADD SLOAD DUP6 SLOAD PUSH1 0x60 SWAP8 DUP9 SWAP8 DUP9 SWAP8 SWAP2 SWAP7 DUP8 SWAP7 DUP8 SWAP7 DUP8 SWAP7 DUP8 SWAP7 DUP8 SWAP7 DUP7 SWAP6 PUSH1 0x1 DUP8 ADD SWAP6 PUSH1 0x2 DUP9 ADD SWAP6 PUSH1 0xFF PUSH1 0x1 PUSH1 0xA0 SHL DUP6 DIV DUP2 AND SWAP7 PUSH1 0x1 PUSH1 0xA8 SHL SWAP1 SWAP6 DIV DUP2 AND SWAP6 SWAP4 SWAP5 SWAP3 SWAP4 SWAP2 SWAP3 AND SWAP1 DUP10 SWAP1 PUSH2 0x1583 SWAP1 PUSH2 0x4F33 JUMP JUMPDEST DUP1 PUSH1 0x1F ADD PUSH1 0x20 DUP1 SWAP2 DIV MUL PUSH1 0x20 ADD PUSH1 0x40 MLOAD SWAP1 DUP2 ADD PUSH1 0x40 MSTORE DUP1 SWAP3 SWAP2 SWAP1 DUP2 DUP2 MSTORE PUSH1 0x20 ADD DUP3 DUP1 SLOAD PUSH2 0x15AF SWAP1 PUSH2 0x4F33 JUMP JUMPDEST DUP1 ISZERO PUSH2 0x15FC JUMPI DUP1 PUSH1 0x1F LT PUSH2 0x15D1 JUMPI PUSH2 0x100 DUP1 DUP4 SLOAD DIV MUL DUP4 MSTORE SWAP2 PUSH1 0x20 ADD SWAP2 PUSH2 0x15FC JUMP JUMPDEST DUP3 ADD SWAP2 SWAP1 PUSH1 0x0 MSTORE PUSH1 0x20 PUSH1 0x0 KECCAK256 SWAP1 JUMPDEST DUP2 SLOAD DUP2 MSTORE SWAP1 PUSH1 0x1 ADD SWAP1 PUSH1 0x20 ADD DUP1 DUP4 GT PUSH2 0x15DF JUMPI DUP3 SWAP1 SUB PUSH1 0x1F AND DUP3 ADD SWAP2 JUMPDEST POP POP POP POP POP SWAP9 POP DUP8 DUP1 SLOAD PUSH2 0x160F SWAP1 PUSH2 0x4F33 JUMP JUMPDEST DUP1 PUSH1 0x1F ADD PUSH1 0x20 DUP1 SWAP2 DIV MUL PUSH1 0x20 ADD PUSH1 0x40 MLOAD SWAP1 DUP2 ADD PUSH1 0x40 MSTORE DUP1 SWAP3 SWAP2 SWAP1 DUP2 DUP2 MSTORE PUSH1 0x20 ADD DUP3 DUP1 SLOAD PUSH2 0x163B SWAP1 PUSH2 0x4F33 JUMP JUMPDEST DUP1 ISZERO PUSH2 0x1688 JUMPI DUP1 PUSH1 0x1F LT PUSH2 0x165D JUMPI PUSH2 0x100 DUP1 DUP4 SLOAD DIV MUL DUP4 MSTORE SWAP2 PUSH1 0x20 ADD SWAP2 PUSH2 0x1688 JUMP JUMPDEST DUP3 ADD SWAP2 SWAP1 PUSH1 0x0 MSTORE PUSH1 0x20 PUSH1 0x0 KECCAK256 SWAP1 JUMPDEST DUP2 SLOAD DUP2 MSTORE SWAP1 PUSH1 0x1 ADD SWAP1 PUSH1 0x20 ADD DUP1 DUP4 GT PUSH2 0x166B JUMPI DUP3 SWAP1 SUB PUSH1 0x1F AND DUP3 ADD SWAP2 JUMPDEST POP POP POP POP POP SWAP8 POP DUP7 DUP1 SLOAD PUSH2 0x169B SWAP1 PUSH2 0x4F33 JUMP JUMPDEST DUP1 PUSH1 0x1F ADD PUSH1 0x20 DUP1 SWAP2 DIV MUL PUSH1 0x20 ADD PUSH1 0x40 MLOAD SWAP1 DUP2 ADD PUSH1 0x40 MSTORE DUP1 SWAP3 SWAP2 SWAP1 DUP2 DUP2 MSTORE PUSH1 0x20 ADD DUP3 DUP1 SLOAD PUSH2 0x16C7 SWAP1 PUSH2 0x4F33 JUMP JUMPDEST DUP1 ISZERO PUSH2 0x1714 JUMPI DUP1 PUSH1 0x1F LT PUSH2 0x16E9 JUMPI PUSH2 0x100 DUP1 DUP4 SLOAD DIV MUL DUP4 MSTORE SWAP2 PUSH1 0x20 ADD SWAP2 PUSH2 0x1714 JUMP JUMPDEST DUP3 ADD SWAP2 SWAP1 PUSH1 0x0 MSTORE PUSH1 0x20 PUSH1 0x0 KECCAK256 SWAP1 JUMPDEST DUP2 SLOAD DUP2 MSTORE SWAP1 PUSH1 0x1 ADD SWAP1 PUSH1 0x20 ADD DUP1 DUP4 GT PUSH2 0x16F7 JUMPI DUP3 SWAP1 SUB PUSH1 0x1F AND DUP3 ADD SWAP2 JUMPDEST POP POP POP POP POP SWAP7 POP SWAP10 POP SWAP10 POP SWAP10 POP SWAP10 POP SWAP10 POP SWAP10 POP SWAP10 POP SWAP10 POP SWAP10 POP POP SWAP2 SWAP4 SWAP6 SWAP8 SWAP10 SWAP1 SWAP3 SWAP5 SWAP7 SWAP9 POP JUMP JUMPDEST PUSH2 0x12D SLOAD PUSH1 0x1 PUSH1 0x1 PUSH1 0xA0 SHL SUB AND CALLER EQ PUSH2 0x1766 JUMPI PUSH1 0x40 MLOAD PUSH3 0x461BCD PUSH1 0xE5 SHL DUP2 MSTORE PUSH1 0x4 ADD PUSH2 0x425 SWAP1 PUSH2 0x4F67 JUMP JUMPDEST PUSH2 0x176E PUSH2 0x3FB1 JUMP JUMPDEST PUSH1 0x1 PUSH1 0x1 PUSH1 0xA0 SHL SUB DUP3 AND PUSH2 0x17BC JUMPI PUSH1 0x40 MLOAD PUSH3 0x461BCD PUSH1 0xE5 SHL DUP2 MSTORE PUSH1 0x20 PUSH1 0x4 DUP3 ADD MSTORE PUSH1 0x15 PUSH1 0x24 DUP3 ADD MSTORE PUSH21 0x496B696D696E613A207A65726F2061646472657373 PUSH1 0x58 SHL PUSH1 0x44 DUP3 ADD MSTORE PUSH1 0x64 ADD PUSH2 0x425 JUMP JUMPDEST PUSH1 0x1 PUSH1 0x1 PUSH1 0xA0 SHL SUB DUP3 AND PUSH1 0x0 SWAP1 DUP2 MSTORE PUSH2 0x133 PUSH1 0x20 MSTORE PUSH1 0x40 SWAP1 KECCAK256 PUSH1 0x3 ADD SLOAD PUSH1 0x1 PUSH1 0xA0 SHL SWAP1 DIV PUSH1 0xFF AND ISZERO PUSH2 0x1830 JUMPI PUSH1 0x40 MLOAD PUSH3 0x461BCD PUSH1 0xE5 SHL DUP2 MSTORE PUSH1 0x20 PUSH1 0x4 DUP3 ADD MSTORE PUSH1 0x1B PUSH1 0x24 DUP3 ADD MSTORE PUSH32 0x496B696D696E613A20616C726561647920726567697374657265640000000000 PUSH1 0x44 DUP3 ADD MSTORE PUSH1 0x64 ADD PUSH2 0x425 JUMP JUMPDEST PUSH1 0x64 PUSH2 0x131 SLOAD LT PUSH2 0x187C JUMPI PUSH1 0x40 MLOAD PUSH3 0x461BCD PUSH1 0xE5 SHL DUP2 MSTORE PUSH1 0x20 PUSH1 0x4 DUP3 ADD MSTORE PUSH1 0x16 PUSH1 0x24 DUP3 ADD MSTORE PUSH22 0x125ADA5B5A5B984E8819DC9BDD5C081A5CC8199D5B1B PUSH1 0x52 SHL PUSH1 0x44 DUP3 ADD MSTORE PUSH1 0x64 ADD PUSH2 0x425 JUMP JUMPDEST DUP7 PUSH2 0x18C2 JUMPI PUSH1 0x40 MLOAD PUSH3 0x461BCD PUSH1 0xE5 SHL DUP2 MSTORE PUSH1 0x20 PUSH1 0x4 DUP3 ADD MSTORE PUSH1 0x16 PUSH1 0x24 DUP3 ADD MSTORE PUSH22 0x125ADA5B5A5B984E881B985B59481C995C5D5A5C9959 PUSH1 0x52 SHL PUSH1 0x44 DUP3 ADD MSTORE PUSH1 0x64 ADD PUSH2 0x425 JUMP JUMPDEST DUP5 PUSH2 0x190F JUMPI PUSH1 0x40 MLOAD PUSH3 0x461BCD PUSH1 0xE5 SHL DUP2 MSTORE PUSH1 0x20 PUSH1 0x4 DUP3 ADD MSTORE PUSH1 0x17 PUSH1 0x24 DUP3 ADD MSTORE PUSH32 0x496B696D696E613A20656D61696C207265717569726564000000000000000000 PUSH1 0x44 DUP3 ADD MSTORE PUSH1 0x64 ADD PUSH2 0x425 JUMP JUMPDEST DUP3 PUSH2 0x195C JUMPI PUSH1 0x40 MLOAD PUSH3 0x461BCD PUSH1 0xE5 SHL DUP2 MSTORE PUSH1 0x20 PUSH1 0x4 DUP3 ADD MSTORE PUSH1 0x17 PUSH1 0x24 DUP3 ADD MSTORE PUSH32 0x496B696D696E613A2070686F6E65207265717569726564000000000000000000 PUSH1 0x44 DUP3 ADD MSTORE PUSH1 0x64 ADD PUSH2 0x425 JUMP JUMPDEST PUSH1 0x40 MLOAD DUP1 PUSH2 0x140 ADD PUSH1 0x40 MSTORE DUP1 DUP10 DUP10 DUP1 DUP1 PUSH1 0x1F ADD PUSH1 0x20 DUP1 SWAP2 DIV MUL PUSH1 0x20 ADD PUSH1 0x40 MLOAD SWAP1 DUP2 ADD PUSH1 0x40 MSTORE DUP1 SWAP4 SWAP3 SWAP2 SWAP1 DUP2 DUP2 MSTORE PUSH1 0x20 ADD DUP4 DUP4 DUP1 DUP3 DUP5 CALLDATACOPY PUSH1 0x0 SWAP3 ADD SWAP2 SWAP1 SWAP2 MSTORE POP POP POP SWAP1 DUP3 MSTORE POP PUSH1 0x40 DUP1 MLOAD PUSH1 0x20 PUSH1 0x1F DUP11 ADD DUP2 SWAP1 DIV DUP2 MUL DUP3 ADD DUP2 ADD SWAP1 SWAP3 MSTORE DUP9 DUP2 MSTORE SWAP2 DUP2 ADD SWAP2 SWAP1 DUP10 SWAP1 DUP10 SWAP1 DUP2 SWAP1 DUP5 ADD DUP4 DUP3 DUP1 DUP3 DUP5 CALLDATACOPY PUSH1 0x0 SWAP3 ADD SWAP2 SWAP1 SWAP2 MSTORE POP POP POP SWAP1 DUP3 MSTORE POP PUSH1 0x40 DUP1 MLOAD PUSH1 0x20 PUSH1 0x1F DUP9 ADD DUP2 SWAP1 DIV DUP2 MUL DUP3 ADD DUP2 ADD SWAP1 SWAP3 MSTORE DUP7 DUP2 MSTORE SWAP2 DUP2 ADD SWAP2 SWAP1 DUP8 SWAP1 DUP8 SWAP1 DUP2 SWAP1 DUP5 ADD DUP4 DUP3 DUP1 DUP3 DUP5 CALLDATACOPY PUSH1 0x0 SWAP3 ADD DUP3 SWAP1 MSTORE POP SWAP4 DUP6 MSTORE POP POP POP PUSH1 0x1 PUSH1 0x1 PUSH1 0xA0 SHL SUB DUP6 AND PUSH1 0x20 DUP4 ADD MSTORE PUSH1 0x1 PUSH1 0x40 DUP4 ADD DUP2 SWAP1 MSTORE PUSH1 0x60 DUP4 ADD MSTORE PUSH1 0x80 DUP3 ADD DUP2 SWAP1 MSTORE PUSH1 0xA0 DUP3 ADD MSTORE TIMESTAMP PUSH1 0xC0 DUP3 ADD MSTORE PUSH1 0xE0 ADD DUP3 PUSH1 0x3 DUP2 GT ISZERO PUSH2 0x1A5A JUMPI PUSH2 0x1A5A PUSH2 0x49B8 JUMP JUMPDEST SWAP1 MSTORE PUSH1 0x1 PUSH1 0x1 PUSH1 0xA0 SHL SUB DUP4 AND PUSH1 0x0 SWAP1 DUP2 MSTORE PUSH2 0x133 PUSH1 0x20 MSTORE PUSH1 0x40 SWAP1 KECCAK256 DUP2 MLOAD DUP2 SWAP1 PUSH2 0x1A83 SWAP1 DUP3 PUSH2 0x5034 JUMP JUMPDEST POP PUSH1 0x20 DUP3 ADD MLOAD PUSH1 0x1 DUP3 ADD SWAP1 PUSH2 0x1A98 SWAP1 DUP3 PUSH2 0x5034 JUMP JUMPDEST POP PUSH1 0x40 DUP3 ADD MLOAD PUSH1 0x2 DUP3 ADD SWAP1 PUSH2 0x1AAD SWAP1 DUP3 PUSH2 0x5034 JUMP JUMPDEST POP PUSH1 0x60 DUP3 ADD MLOAD PUSH1 0x3 DUP1 DUP4 ADD DUP1 SLOAD PUSH1 0x80 DUP7 ADD MLOAD PUSH1 0xA0 DUP8 ADD MLOAD ISZERO ISZERO PUSH1 0x1 PUSH1 0xA8 SHL MUL PUSH1 0xFF PUSH1 0xA8 SHL NOT SWAP2 ISZERO ISZERO PUSH1 0x1 PUSH1 0xA0 SHL MUL PUSH1 0x1 PUSH1 0x1 PUSH1 0xA8 SHL SUB NOT SWAP1 SWAP4 AND PUSH1 0x1 PUSH1 0x1 PUSH1 0xA0 SHL SUB SWAP1 SWAP7 AND SWAP6 SWAP1 SWAP6 OR SWAP2 SWAP1 SWAP2 OR AND SWAP3 SWAP1 SWAP3 OR SWAP1 SWAP2 SSTORE PUSH1 0xC0 DUP4 ADD MLOAD PUSH1 0x4 DUP4 ADD SSTORE PUSH1 0xE0 DUP4 ADD MLOAD PUSH1 0x5 DUP4 ADD SSTORE PUSH2 0x100 DUP4 ADD MLOAD PUSH1 0x6 DUP4 ADD SSTORE PUSH2 0x120 DUP4 ADD MLOAD PUSH1 0x7 DUP4 ADD DUP1 SLOAD SWAP2 SWAP3 SWAP1 SWAP2 PUSH1 0xFF NOT AND SWAP1 PUSH1 0x1 SWAP1 DUP5 SWAP1 DUP2 GT ISZERO PUSH2 0x1B4A JUMPI PUSH2 0x1B4A PUSH2 0x49B8 JUMP JUMPDEST MUL OR SWAP1 SSTORE POP POP PUSH2 0x137 DUP1 SLOAD PUSH1 0x1 DUP2 ADD DUP3 SSTORE PUSH1 0x0 SWAP2 DUP3 MSTORE PUSH32 0x43DC304BB3613567ECA51C4FB9E7F3128BC51BBA882A32550E891D6CBD8A0FA1 ADD DUP1 SLOAD PUSH1 0x1 PUSH1 0x1 PUSH1 0xA0 SHL SUB NOT AND PUSH1 0x1 PUSH1 0x1 PUSH1 0xA0 SHL SUB DUP7 AND OR SWAP1 SSTORE PUSH2 0x131 DUP1 SLOAD SWAP3 POP SWAP1 PUSH2 0x1BAC DUP4 PUSH2 0x4F1A JUMP JUMPDEST SWAP2 SWAP1 POP SSTORE POP DUP2 PUSH1 0x1 PUSH1 0x1 PUSH1 0xA0 SHL SUB AND PUSH32 0x136AD7AF5C9B264307029287668641B0930BFCB10E20BCC749EA87F2C15DC086 DUP10 DUP10 DUP5 TIMESTAMP PUSH1 0x40 MLOAD PUSH2 0x1BF0 SWAP5 SWAP4 SWAP3 SWAP2 SWAP1 PUSH2 0x50F4 JUMP JUMPDEST PUSH1 0x40 MLOAD DUP1 SWAP2 SUB SWAP1 LOG2 POP POP POP POP POP POP POP POP JUMP JUMPDEST PUSH1 0x0 DUP1 PUSH1 0x0 DUP1 PUSH1 0x0 DUP1 PUSH1 0x0 PUSH2 0x134 PUSH1 0x0 DUP10 PUSH1 0x1 PUSH1 0x1 PUSH1 0xA0 SHL SUB AND PUSH1 0x1 PUSH1 0x1 PUSH1 0xA0 SHL SUB AND DUP2 MSTORE PUSH1 0x20 ADD SWAP1 DUP2 MSTORE PUSH1 0x20 ADD PUSH1 0x0 KECCAK256 SWAP1 POP PUSH1 0x0 DUP2 PUSH1 0x2 ADD SLOAD DUP3 PUSH1 0x1 ADD SLOAD GT PUSH2 0x1C4D JUMPI PUSH1 0x0 PUSH2 0x1C61 JUMP JUMPDEST DUP2 PUSH1 0x2 ADD SLOAD DUP3 PUSH1 0x1 ADD SLOAD PUSH2 0x1C61 SWAP2 SWAP1 PUSH2 0x4EA5 JUMP JUMPDEST DUP3 SLOAD PUSH1 0x1 DUP5 ADD SLOAD PUSH1 0x2 DUP6 ADD SLOAD PUSH1 0x3 DUP7 ADD SLOAD PUSH1 0x4 SWAP1 SWAP7 ADD SLOAD SWAP3 SWAP14 SWAP2 SWAP13 POP SWAP11 POP SWAP2 SWAP9 POP SWAP3 SWAP7 POP PUSH1 0xFF SWAP1 SWAP3 AND SWAP5 POP SWAP1 SWAP3 POP POP POP JUMP JUMPDEST PUSH1 0x1 PUSH1 0x1 PUSH1 0xA0 SHL SUB PUSH32 0x0 AND ADDRESS SUB PUSH2 0x1CDB JUMPI PUSH1 0x40 MLOAD PUSH3 0x461BCD PUSH1 0xE5 SHL DUP2 MSTORE PUSH1 0x4 ADD PUSH2 0x425 SWAP1 PUSH2 0x513B JUMP JUMPDEST PUSH32 0x0 PUSH1 0x1 PUSH1 0x1 PUSH1 0xA0 SHL SUB AND PUSH2 0x1D24 PUSH1 0x0 DUP1 MLOAD PUSH1 0x20 PUSH2 0x530D DUP4 CODECOPY DUP2 MLOAD SWAP2 MSTORE SLOAD PUSH1 0x1 PUSH1 0x1 PUSH1 0xA0 SHL SUB AND SWAP1 JUMP JUMPDEST PUSH1 0x1 PUSH1 0x1 PUSH1 0xA0 SHL SUB AND EQ PUSH2 0x1D4A JUMPI PUSH1 0x40 MLOAD PUSH3 0x461BCD PUSH1 0xE5 SHL DUP2 MSTORE PUSH1 0x4 ADD PUSH2 0x425 SWAP1 PUSH2 0x5187 JUMP JUMPDEST PUSH2 0x1D53 DUP2 PUSH2 0x3FF7 JUMP JUMPDEST PUSH1 0x40 DUP1 MLOAD PUSH1 0x0 DUP1 DUP3 MSTORE PUSH1 0x20 DUP3 ADD SWAP1 SWAP3 MSTORE PUSH2 0x1D6F SWAP2 DUP4 SWAP2 SWAP1 PUSH2 0x3FFF JUMP JUMPDEST POP JUMP JUMPDEST PUSH2 0x12D SLOAD PUSH1 0x1 PUSH1 0x1 PUSH1 0xA0 SHL SUB AND CALLER EQ PUSH2 0x1D9D JUMPI PUSH1 0x40 MLOAD PUSH3 0x461BCD PUSH1 0xE5 SHL DUP2 MSTORE PUSH1 0x4 ADD PUSH2 0x425 SWAP1 PUSH2 0x4F67 JUMP JUMPDEST PUSH2 0x109A PUSH2 0x416A JUMP JUMPDEST PUSH1 0x1 PUSH1 0x1 PUSH1 0xA0 SHL SUB PUSH32 0x0 AND ADDRESS SUB PUSH2 0x1DED JUMPI PUSH1 0x40 MLOAD PUSH3 0x461BCD PUSH1 0xE5 SHL DUP2 MSTORE PUSH1 0x4 ADD PUSH2 0x425 SWAP1 PUSH2 0x513B JUMP JUMPDEST PUSH32 0x0 PUSH1 0x1 PUSH1 0x1 PUSH1 0xA0 SHL SUB AND PUSH2 0x1E36 PUSH1 0x0 DUP1 MLOAD PUSH1 0x20 PUSH2 0x530D DUP4 CODECOPY DUP2 MLOAD SWAP2 MSTORE SLOAD PUSH1 0x1 PUSH1 0x1 PUSH1 0xA0 SHL SUB AND SWAP1 JUMP JUMPDEST PUSH1 0x1 PUSH1 0x1 PUSH1 0xA0 SHL SUB AND EQ PUSH2 0x1E5C JUMPI PUSH1 0x40 MLOAD PUSH3 0x461BCD PUSH1 0xE5 SHL DUP2 MSTORE PUSH1 0x4 ADD PUSH2 0x425 SWAP1 PUSH2 0x5187 JUMP JUMPDEST PUSH2 0x1E65 DUP3 PUSH2 0x3FF7 JUMP JUMPDEST PUSH2 0x1E71 DUP3 DUP3 PUSH1 0x1 PUSH2 0x3FFF JUMP JUMPDEST POP POP JUMP JUMPDEST PUSH1 0x0 ADDRESS PUSH1 0x1 PUSH1 0x1 PUSH1 0xA0 SHL SUB PUSH32 0x0 AND EQ PUSH2 0x1F15 JUMPI PUSH1 0x40 MLOAD PUSH3 0x461BCD PUSH1 0xE5 SHL DUP2 MSTORE PUSH1 0x20 PUSH1 0x4 DUP3 ADD MSTORE PUSH1 0x38 PUSH1 0x24 DUP3 ADD MSTORE PUSH32 0x555550535570677261646561626C653A206D757374206E6F742062652063616C PUSH1 0x44 DUP3 ADD MSTORE PUSH32 0x6C6564207468726F7567682064656C656761746563616C6C0000000000000000 PUSH1 0x64 DUP3 ADD MSTORE PUSH1 0x84 ADD PUSH2 0x425 JUMP JUMPDEST POP PUSH1 0x0 DUP1 MLOAD PUSH1 0x20 PUSH2 0x530D DUP4 CODECOPY DUP2 MLOAD SWAP2 MSTORE SWAP1 JUMP JUMPDEST PUSH2 0x13B DUP1 SLOAD PUSH2 0x1F36 SWAP1 PUSH2 0x4F33 JUMP JUMPDEST DUP1 PUSH1 0x1F ADD PUSH1 0x20 DUP1 SWAP2 DIV MUL PUSH1 0x20 ADD PUSH1 0x40 MLOAD SWAP1 DUP2 ADD PUSH1 0x40 MSTORE DUP1 SWAP3 SWAP2 SWAP1 DUP2 DUP2 MSTORE PUSH1 0x20 ADD DUP3 DUP1 SLOAD PUSH2 0x1F62 SWAP1 PUSH2 0x4F33 JUMP JUMPDEST DUP1 ISZERO PUSH2 0x1FAF JUMPI DUP1 PUSH1 0x1F LT PUSH2 0x1F84 JUMPI PUSH2 0x100 DUP1 DUP4 SLOAD DIV MUL DUP4 MSTORE SWAP2 PUSH1 0x20 ADD SWAP2 PUSH2 0x1FAF JUMP JUMPDEST DUP3 ADD SWAP2 SWAP1 PUSH1 0x0 MSTORE PUSH1 0x20 PUSH1 0x0 KECCAK256 SWAP1 JUMPDEST DUP2 SLOAD DUP2 MSTORE SWAP1 PUSH1 0x1 ADD SWAP1 PUSH1 0x20 ADD DUP1 DUP4 GT PUSH2 0x1F92 JUMPI DUP3 SWAP1 SUB PUSH1 0x1F AND DUP3 ADD SWAP2 JUMPDEST POP POP POP POP POP DUP2 JUMP JUMPDEST CALLER PUSH1 0x0 SWAP1 DUP2 MSTORE PUSH2 0x133 PUSH1 0x20 MSTORE PUSH1 0x40 SWAP1 KECCAK256 PUSH1 0x7 ADD SLOAD PUSH1 0xFF AND PUSH1 0x1 DUP2 PUSH1 0x3 DUP2 GT ISZERO PUSH2 0x1FE2 JUMPI PUSH2 0x1FE2 PUSH2 0x49B8 JUMP JUMPDEST EQ DUP1 PUSH2 0x1FFF JUMPI POP PUSH1 0x2 DUP2 PUSH1 0x3 DUP2 GT ISZERO PUSH2 0x1FFD JUMPI PUSH2 0x1FFD PUSH2 0x49B8 JUMP JUMPDEST EQ JUMPDEST DUP1 PUSH2 0x201B JUMPI POP PUSH1 0x3 DUP2 PUSH1 0x3 DUP2 GT ISZERO PUSH2 0x2019 JUMPI PUSH2 0x2019 PUSH2 0x49B8 JUMP JUMPDEST EQ JUMPDEST PUSH2 0x2037 JUMPI PUSH1 0x40 MLOAD PUSH3 0x461BCD PUSH1 0xE5 SHL DUP2 MSTORE PUSH1 0x4 ADD PUSH2 0x425 SWAP1 PUSH2 0x51D3 JUMP JUMPDEST PUSH1 0x0 DUP3 DUP2 MSTORE PUSH2 0x135 PUSH1 0x20 MSTORE PUSH1 0x40 SWAP1 KECCAK256 PUSH1 0x3 DUP2 ADD SLOAD PUSH1 0xFF AND ISZERO DUP1 ISZERO PUSH2 0x2065 JUMPI POP PUSH1 0x3 DUP2 ADD SLOAD PUSH2 0x100 SWAP1 DIV PUSH1 0xFF AND ISZERO JUMPDEST PUSH2 0x20B1 JUMPI PUSH1 0x40 MLOAD PUSH3 0x461BCD PUSH1 0xE5 SHL DUP2 MSTORE PUSH1 0x20 PUSH1 0x4 DUP3 ADD MSTORE PUSH1 0x1A PUSH1 0x24 DUP3 ADD MSTORE PUSH32 0x496B696D696E613A20616C72656164792070726F636573736564000000000000 PUSH1 0x44 DUP3 ADD MSTORE PUSH1 0x64 ADD PUSH2 0x425 JUMP JUMPDEST PUSH1 0x3 DUP2 ADD DUP1 SLOAD PUSH2 0xFF00 NOT AND PUSH2 0x100 OR SWAP1 SSTORE DUP1 SLOAD PUSH1 0x1 PUSH1 0x1 PUSH1 0xA0 SHL SUB AND PUSH1 0x0 SWAP1 DUP2 MSTORE PUSH2 0x134 PUSH1 0x20 MSTORE PUSH1 0x40 DUP2 KECCAK256 PUSH1 0x4 ADD DUP1 SLOAD PUSH1 0xFF NOT AND PUSH1 0x1 DUP4 MUL OR SWAP1 SSTORE POP DUP1 SLOAD PUSH1 0x40 MLOAD TIMESTAMP DUP2 MSTORE PUSH1 0x1 PUSH1 0x1 PUSH1 0xA0 SHL SUB SWAP1 SWAP2 AND SWAP1 DUP5 SWAP1 PUSH32 0xAB0E20C72EAA566CE0DAEF9AB1C37CB8BD61BB60FBBB6CDFE213DC86F37E5D7F SWAP1 PUSH1 0x20 ADD PUSH1 0x40 MLOAD DUP1 SWAP2 SUB SWAP1 LOG3 POP POP POP JUMP JUMPDEST PUSH1 0x1 PUSH1 0x1 PUSH1 0xA0 SHL SUB DUP3 AND PUSH1 0x0 SWAP1 DUP2 MSTORE PUSH2 0x133 PUSH1 0x20 MSTORE PUSH1 0x40 DUP2 KECCAK256 PUSH1 0x3 ADD SLOAD PUSH1 0x1 PUSH1 0xA0 SHL SWAP1 DIV PUSH1 0xFF AND ISZERO DUP1 PUSH2 0x218C JUMPI POP PUSH1 0x1 PUSH1 0x1 PUSH1 0xA0 SHL SUB DUP4 AND PUSH1 0x0 SWAP1 DUP2 MSTORE PUSH2 0x133 PUSH1 0x20 MSTORE PUSH1 0x40 SWAP1 KECCAK256 PUSH1 0x3 ADD SLOAD PUSH1 0x1 PUSH1 0xA8 SHL SWAP1 DIV PUSH1 0xFF AND ISZERO JUMPDEST ISZERO PUSH2 0x2199 JUMPI POP PUSH1 0x0 PUSH2 0x22A1 JUMP JUMPDEST PUSH2 0x21A4 DUP3 PUSH1 0x2 PUSH2 0x4EB8 JUMP JUMPDEST PUSH2 0x12F SLOAD LT ISZERO PUSH2 0x21B6 JUMPI POP PUSH1 0x0 PUSH2 0x22A1 JUMP JUMPDEST PUSH1 0x1 PUSH1 0x1 PUSH1 0xA0 SHL SUB DUP4 AND PUSH1 0x0 SWAP1 DUP2 MSTORE PUSH2 0x133 PUSH1 0x20 MSTORE PUSH1 0x40 SWAP1 KECCAK256 PUSH1 0x4 ADD SLOAD DUP3 GT ISZERO PUSH2 0x21E2 JUMPI POP PUSH1 0x0 PUSH2 0x22A1 JUMP JUMPDEST PUSH1 0x0 PUSH1 0x64 PUSH1 0xA PUSH2 0x12F SLOAD PUSH2 0x21F6 SWAP2 SWAP1 PUSH2 0x4EB8 JUMP JUMPDEST PUSH2 0x2200 SWAP2 SWAP1 PUSH2 0x4ECF JUMP JUMPDEST SWAP1 POP DUP1 DUP4 GT ISZERO PUSH2 0x2214 JUMPI PUSH1 0x0 SWAP2 POP POP PUSH2 0x22A1 JUMP JUMPDEST PUSH2 0x2222 PUSH1 0x1E PUSH3 0x15180 PUSH2 0x4EB8 JUMP JUMPDEST PUSH1 0x1 PUSH1 0x1 PUSH1 0xA0 SHL SUB DUP6 AND PUSH1 0x0 SWAP1 DUP2 MSTORE PUSH2 0x133 PUSH1 0x20 MSTORE PUSH1 0x40 SWAP1 KECCAK256 PUSH1 0x6 ADD SLOAD PUSH2 0x2249 SWAP2 SWAP1 PUSH2 0x4EF1 JUMP JUMPDEST TIMESTAMP LT ISZERO PUSH2 0x225A JUMPI PUSH1 0x0 SWAP2 POP POP PUSH2 0x22A1 JUMP JUMPDEST PUSH1 0x1 PUSH1 0x1 PUSH1 0xA0 SHL SUB DUP5 AND PUSH1 0x0 SWAP1 DUP2 MSTORE PUSH2 0x134 PUSH1 0x20 MSTORE PUSH1 0x40 SWAP1 KECCAK256 PUSH1 0x4 SWAP1 DUP2 ADD SLOAD PUSH1 0xFF AND DUP2 DUP2 GT ISZERO PUSH2 0x228C JUMPI PUSH2 0x228C PUSH2 0x49B8 JUMP JUMPDEST SUB PUSH2 0x229B JUMPI PUSH1 0x0 SWAP2 POP POP PUSH2 0x22A1 JUMP JUMPDEST PUSH1 0x1 SWAP2 POP POP JUMPDEST SWAP3 SWAP2 POP POP JUMP JUMPDEST PUSH1 0x60 PUSH2 0x137 DUP1 SLOAD DUP1 PUSH1 0x20 MUL PUSH1 0x20 ADD PUSH1 0x40 MLOAD SWAP1 DUP2 ADD PUSH1 0x40 MSTORE DUP1 SWAP3 SWAP2 SWAP1 DUP2 DUP2 MSTORE PUSH1 0x20 ADD DUP3 DUP1 SLOAD DUP1 ISZERO PUSH2 0x2300 JUMPI PUSH1 0x20 MUL DUP3 ADD SWAP2 SWAP1 PUSH1 0x0 MSTORE PUSH1 0x20 PUSH1 0x0 KECCAK256 SWAP1 JUMPDEST DUP2 SLOAD PUSH1 0x1 PUSH1 0x1 PUSH1 0xA0 SHL SUB AND DUP2 MSTORE PUSH1 0x1 SWAP1 SWAP2 ADD SWAP1 PUSH1 0x20 ADD DUP1 DUP4 GT PUSH2 0x22E2 JUMPI JUMPDEST POP POP POP POP POP SWAP1 POP SWAP1 JUMP JUMPDEST CALLER PUSH1 0x0 SWAP1 DUP2 MSTORE PUSH2 0x133 PUSH1 0x20 MSTORE PUSH1 0x40 SWAP1 KECCAK256 PUSH1 0x3 ADD SLOAD PUSH1 0x1 PUSH1 0xA0 SHL SWAP1 DIV PUSH1 0xFF AND DUP1 ISZERO PUSH2 0x234E JUMPI POP CALLER PUSH1 0x0 SWAP1 DUP2 MSTORE PUSH2 0x133 PUSH1 0x20 MSTORE PUSH1 0x40 SWAP1 KECCAK256 PUSH1 0x3 ADD SLOAD PUSH1 0x1 PUSH1 0xA8 SHL SWAP1 DIV PUSH1 0xFF AND JUMPDEST PUSH2 0x236A JUMPI PUSH1 0x40 MLOAD PUSH3 0x461BCD PUSH1 0xE5 SHL DUP2 MSTORE PUSH1 0x4 ADD PUSH2 0x425 SWAP1 PUSH2 0x4F9E JUMP JUMPDEST PUSH2 0x2372 PUSH2 0x3DEC JUMP JUMPDEST PUSH2 0x237A PUSH2 0x3FB1 JUMP JUMPDEST CALLER PUSH1 0x0 SWAP1 DUP2 MSTORE PUSH2 0x133 PUSH1 0x20 MSTORE PUSH1 0x40 SWAP1 KECCAK256 PUSH1 0x5 ADD SLOAD DUP1 PUSH2 0x23D3 JUMPI PUSH1 0x40 MLOAD PUSH3 0x461BCD PUSH1 0xE5 SHL DUP2 MSTORE PUSH1 0x20 PUSH1 0x4 DUP3 ADD MSTORE PUSH1 0x15 PUSH1 0x24 DUP3 ADD MSTORE PUSH21 0x496B696D696E613A206E6F206469766964656E6473 PUSH1 0x58 SHL PUSH1 0x44 DUP3 ADD MSTORE PUSH1 0x64 ADD PUSH2 0x425 JUMP JUMPDEST DUP1 PUSH2 0x12F SLOAD LT ISZERO PUSH2 0x2426 JUMPI PUSH1 0x40 MLOAD PUSH3 0x461BCD PUSH1 0xE5 SHL DUP2 MSTORE PUSH1 0x20 PUSH1 0x4 DUP3 ADD MSTORE PUSH1 0x1A PUSH1 0x24 DUP3 ADD MSTORE PUSH32 0x496B696D696E613A20706F6F6C20696E73756666696369656E74000000000000 PUSH1 0x44 DUP3 ADD MSTORE PUSH1 0x64 ADD PUSH2 0x425 JUMP JUMPDEST CALLER PUSH1 0x0 SWAP1 DUP2 MSTORE PUSH2 0x133 PUSH1 0x20 MSTORE PUSH1 0x40 DUP2 KECCAK256 PUSH1 0x5 ADD DUP2 SWAP1 SSTORE PUSH2 0x12F DUP1 SLOAD DUP4 SWAP3 SWAP1 PUSH2 0x244F SWAP1 DUP5 SWAP1 PUSH2 0x4EA5 JUMP JUMPDEST SWAP1 SWAP2 SSTORE POP POP PUSH1 0x40 DUP1 MLOAD DUP3 DUP2 MSTORE TIMESTAMP PUSH1 0x20 DUP3 ADD MSTORE CALLER SWAP2 PUSH32 0xA1C93169468F71EF26F4ADF10BCA8DF21460F11843A01ED9C69DA306E33C3847 SWAP2 ADD PUSH1 0x40 MLOAD DUP1 SWAP2 SUB SWAP1 LOG2 PUSH1 0x40 MLOAD PUSH1 0x0 SWAP1 CALLER SWAP1 DUP4 SWAP1 DUP4 DUP2 DUP2 DUP2 DUP6 DUP8 GAS CALL SWAP3 POP POP POP RETURNDATASIZE DUP1 PUSH1 0x0 DUP2 EQ PUSH2 0x24D0 JUMPI PUSH1 0x40 MLOAD SWAP2 POP PUSH1 0x1F NOT PUSH1 0x3F RETURNDATASIZE ADD AND DUP3 ADD PUSH1 0x40 MSTORE RETURNDATASIZE DUP3 MSTORE RETURNDATASIZE PUSH1 0x0 PUSH1 0x20 DUP5 ADD RETURNDATACOPY PUSH2 0x24D5 JUMP JUMPDEST PUSH1 0x60 SWAP2 POP JUMPDEST POP POP SWAP1 POP DUP1 PUSH2 0x24F6 JUMPI PUSH1 0x40 MLOAD PUSH3 0x461BCD PUSH1 0xE5 SHL DUP2 MSTORE PUSH1 0x4 ADD PUSH2 0x425 SWAP1 PUSH2 0x520A JUMP JUMPDEST POP POP PUSH2 0x109A PUSH1 0x1 PUSH1 0xC9 SSTORE JUMP JUMPDEST PUSH2 0x250A PUSH2 0x41BC JUMP JUMPDEST PUSH2 0x109A PUSH1 0x0 PUSH2 0x4216 JUMP JUMPDEST PUSH1 0x0 SLOAD PUSH2 0x100 SWAP1 DIV PUSH1 0xFF AND ISZERO DUP1 DUP1 ISZERO PUSH2 0x2534 JUMPI POP PUSH1 0x0 SLOAD PUSH1 0x1 PUSH1 0xFF SWAP1 SWAP2 AND LT JUMPDEST DUP1 PUSH2 0x254E JUMPI POP ADDRESS EXTCODESIZE ISZERO DUP1 ISZERO PUSH2 0x254E JUMPI POP PUSH1 0x0 SLOAD PUSH1 0xFF AND PUSH1 0x1 EQ JUMPDEST PUSH2 0x25B1 JUMPI PUSH1 0x40 MLOAD PUSH3 0x461BCD PUSH1 0xE5 SHL DUP2 MSTORE PUSH1 0x20 PUSH1 0x4 DUP3 ADD MSTORE PUSH1 0x2E PUSH1 0x24 DUP3 ADD MSTORE PUSH32 0x496E697469616C697A61626C653A20636F6E747261637420697320616C726561 PUSH1 0x44 DUP3 ADD MSTORE PUSH14 0x191E481A5B9A5D1A585B1A5E9959 PUSH1 0x92 SHL PUSH1 0x64 DUP3 ADD MSTORE PUSH1 0x84 ADD PUSH2 0x425 JUMP JUMPDEST PUSH1 0x0 DUP1 SLOAD PUSH1 0xFF NOT AND PUSH1 0x1 OR SWAP1 SSTORE DUP1 ISZERO PUSH2 0x25D4 JUMPI PUSH1 0x0 DUP1 SLOAD PUSH2 0xFF00 NOT AND PUSH2 0x100 OR SWAP1 SSTORE JUMPDEST PUSH2 0x25DC PUSH2 0x4268 JUMP JUMPDEST PUSH2 0x25E4 PUSH2 0x428F JUMP JUMPDEST PUSH2 0x25EC PUSH2 0x42BE JUMP JUMPDEST PUSH2 0x25F4 PUSH2 0x42ED JUMP JUMPDEST PUSH2 0x12D DUP1 SLOAD PUSH1 0x1 PUSH1 0x1 PUSH1 0xA0 SHL SUB NOT AND CALLER OR SWAP1 SSTORE PUSH1 0x40 DUP1 MLOAD DUP1 DUP3 ADD SWAP1 SWAP2 MSTORE PUSH1 0x5 DUP2 MSTORE PUSH5 0x312E302E3 PUSH1 0xDC SHL PUSH1 0x20 DUP3 ADD MSTORE PUSH2 0x13B SWAP1 PUSH2 0x2631 SWAP1 DUP3 PUSH2 0x5034 JUMP JUMPDEST POP TIMESTAMP PUSH2 0x13C SSTORE PUSH2 0x263F PUSH2 0x3EFF JUMP JUMPDEST DUP1 ISZERO PUSH2 0x1D6F JUMPI PUSH1 0x0 DUP1 SLOAD PUSH2 0xFF00 NOT AND SWAP1 SSTORE PUSH1 0x40 MLOAD PUSH1 0x1 DUP2 MSTORE PUSH32 0x7F26B83FF96E1F2B6A682F133852F6798A09C465DA95921460CEFB3847402498 SWAP1 PUSH1 0x20 ADD PUSH1 0x40 MLOAD DUP1 SWAP2 SUB SWAP1 LOG1 POP JUMP JUMPDEST PUSH2 0x12D SLOAD PUSH1 0x1 PUSH1 0x1 PUSH1 0xA0 SHL SUB AND CALLER EQ PUSH2 0x26B2 JUMPI PUSH1 0x40 MLOAD PUSH3 0x461BCD PUSH1 0xE5 SHL DUP2 MSTORE PUSH1 0x4 ADD PUSH2 0x425 SWAP1 PUSH2 0x4F67 JUMP JUMPDEST PUSH2 0x109A PUSH2 0x431C JUMP JUMPDEST CALLER PUSH1 0x0 SWAP1 DUP2 MSTORE PUSH2 0x133 PUSH1 0x20 MSTORE PUSH1 0x40 DUP2 KECCAK256 PUSH1 0x3 ADD SLOAD PUSH1 0x1 PUSH1 0xA0 SHL SWAP1 DIV PUSH1 0xFF AND DUP1 ISZERO PUSH2 0x26FE JUMPI POP CALLER PUSH1 0x0 SWAP1 DUP2 MSTORE PUSH2 0x133 PUSH1 0x20 MSTORE PUSH1 0x40 SWAP1 KECCAK256 PUSH1 0x3 ADD SLOAD PUSH1 0x1 PUSH1 0xA8 SHL SWAP1 DIV PUSH1 0xFF AND JUMPDEST PUSH2 0x271A JUMPI PUSH1 0x40 MLOAD PUSH3 0x461BCD PUSH1 0xE5 SHL DUP2 MSTORE PUSH1 0x4 ADD PUSH2 0x425 SWAP1 PUSH2 0x4F9E JUMP JUMPDEST PUSH2 0x2722 PUSH2 0x3FB1 JUMP JUMPDEST PUSH1 0x0 DUP3 GT PUSH2 0x2772 JUMPI PUSH1 0x40 MLOAD PUSH3 0x461BCD PUSH1 0xE5 SHL DUP2 MSTORE PUSH1 0x20 PUSH1 0x4 DUP3 ADD MSTORE PUSH1 0x1B PUSH1 0x24 DUP3 ADD MSTORE PUSH32 0x496B696D696E613A20616D6F756E74206D757374206265203E20300000000000 PUSH1 0x44 DUP3 ADD MSTORE PUSH1 0x64 ADD PUSH2 0x425 JUMP JUMPDEST PUSH1 0x2 CALLER PUSH1 0x0 SWAP1 DUP2 MSTORE PUSH2 0x134 PUSH1 0x20 MSTORE PUSH1 0x40 SWAP1 KECCAK256 PUSH1 0x4 SWAP1 DUP2 ADD SLOAD PUSH1 0xFF AND SWAP1 DUP2 GT ISZERO PUSH2 0x279D JUMPI PUSH2 0x279D PUSH2 0x49B8 JUMP JUMPDEST EQ ISZERO DUP1 ISZERO PUSH2 0x27D4 JUMPI POP PUSH1 0x1 CALLER PUSH1 0x0 SWAP1 DUP2 MSTORE PUSH2 0x134 PUSH1 0x20 MSTORE PUSH1 0x40 SWAP1 KECCAK256 PUSH1 0x4 SWAP1 DUP2 ADD SLOAD PUSH1 0xFF AND SWAP1 DUP2 GT ISZERO PUSH2 0x27D1 JUMPI PUSH2 0x27D1 PUSH2 0x49B8 JUMP JUMPDEST EQ ISZERO JUMPDEST PUSH2 0x2819 JUMPI PUSH1 0x40 MLOAD PUSH3 0x461BCD PUSH1 0xE5 SHL DUP2 MSTORE PUSH1 0x20 PUSH1 0x4 DUP3 ADD MSTORE PUSH1 0x16 PUSH1 0x24 DUP3 ADD MSTORE PUSH22 0x24B5B4B6B4B7309D1032BC34B9BA34B733903637B0B7 PUSH1 0x51 SHL PUSH1 0x44 DUP3 ADD MSTORE PUSH1 0x64 ADD PUSH2 0x425 JUMP JUMPDEST CALLER PUSH1 0x0 SWAP1 DUP2 MSTORE PUSH2 0x133 PUSH1 0x20 MSTORE PUSH1 0x40 SWAP1 KECCAK256 PUSH1 0x4 ADD SLOAD PUSH2 0x2839 SWAP1 PUSH1 0x3 SWAP1 PUSH2 0x4EB8 JUMP JUMPDEST DUP3 GT ISZERO PUSH2 0x2892 JUMPI PUSH1 0x40 MLOAD PUSH3 0x461BCD PUSH1 0xE5 SHL DUP2 MSTORE PUSH1 0x20 PUSH1 0x4 DUP3 ADD MSTORE PUSH1 0x21 PUSH1 0x24 DUP3 ADD MSTORE PUSH32 0x496B696D696E613A206578636565647320337820736176696E6773206C696D69 PUSH1 0x44 DUP3 ADD MSTORE PUSH1 0x1D PUSH1 0xFA SHL PUSH1 0x64 DUP3 ADD MSTORE PUSH1 0x84 ADD PUSH2 0x425 JUMP JUMPDEST PUSH2 0x12F SLOAD DUP3 GT ISZERO PUSH2 0x28E5 JUMPI PUSH1 0x40 MLOAD PUSH3 0x461BCD PUSH1 0xE5 SHL DUP2 MSTORE PUSH1 0x20 PUSH1 0x4 DUP3 ADD MSTORE PUSH1 0x1A PUSH1 0x24 DUP3 ADD MSTORE PUSH32 0x496B696D696E613A20696E73756666696369656E7420706F6F6C000000000000 PUSH1 0x44 DUP3 ADD MSTORE PUSH1 0x64 ADD PUSH2 0x425 JUMP JUMPDEST PUSH1 0x64 PUSH1 0x32 PUSH2 0x12F SLOAD PUSH2 0x28F7 SWAP2 SWAP1 PUSH2 0x4EB8 JUMP JUMPDEST PUSH2 0x2901 SWAP2 SWAP1 PUSH2 0x4ECF JUMP JUMPDEST DUP3 GT ISZERO PUSH2 0x295B JUMPI PUSH1 0x40 MLOAD PUSH3 0x461BCD PUSH1 0xE5 SHL DUP2 MSTORE PUSH1 0x20 PUSH1 0x4 DUP3 ADD MSTORE PUSH1 0x22 PUSH1 0x24 DUP3 ADD MSTORE PUSH32 0x496B696D696E613A206578636565647320706F6F6C20736166657479206C696D PUSH1 0x44 DUP3 ADD MSTORE PUSH2 0x1A5D PUSH1 0xF2 SHL PUSH1 0x64 DUP3 ADD MSTORE PUSH1 0x84 ADD PUSH2 0x425 JUMP JUMPDEST PUSH1 0x64 PUSH1 0x1E PUSH2 0x12F SLOAD PUSH2 0x296D SWAP2 SWAP1 PUSH2 0x4EB8 JUMP JUMPDEST PUSH2 0x2977 SWAP2 SWAP1 PUSH2 0x4ECF JUMP JUMPDEST DUP3 PUSH2 0x12F SLOAD PUSH2 0x2986 SWAP2 SWAP1 PUSH2 0x4EA5 JUMP JUMPDEST LT ISZERO PUSH2 0x29E2 JUMPI PUSH1 0x40 MLOAD PUSH3 0x461BCD PUSH1 0xE5 SHL DUP2 MSTORE PUSH1 0x20 PUSH1 0x4 DUP3 ADD MSTORE PUSH1 0x25 PUSH1 0x24 DUP3 ADD MSTORE PUSH32 0x496B696D696E613A2076696F6C61746573207265736572766520726571756972 PUSH1 0x44 DUP3 ADD MSTORE PUSH5 0x195B595B9D PUSH1 0xDA SHL PUSH1 0x64 DUP3 ADD MSTORE PUSH1 0x84 ADD PUSH2 0x425 JUMP JUMPDEST PUSH1 0x0 PUSH2 0x29ED DUP4 PUSH2 0x4359 JUMP JUMPDEST SWAP1 POP DUP1 ISZERO PUSH2 0x2AD9 JUMPI PUSH2 0x29FF CALLER DUP5 PUSH2 0x443E JUMP JUMPDEST PUSH2 0x139 DUP1 SLOAD SWAP1 PUSH1 0x0 PUSH2 0x2A10 DUP4 PUSH2 0x4F1A JUMP JUMPDEST SWAP1 SWAP2 SSTORE POP POP PUSH1 0x40 DUP1 MLOAD DUP5 DUP2 MSTORE PUSH1 0x1 PUSH1 0x20 DUP3 ADD MSTORE TIMESTAMP DUP2 DUP4 ADD MSTORE SWAP1 MLOAD CALLER SWAP2 PUSH1 0x0 SWAP2 PUSH32 0x608072217AC12ECB440A970864481103409D4272DFEAD9E8D6E2FC257AC1EDF0 SWAP2 DUP2 SWAP1 SUB PUSH1 0x60 ADD SWAP1 LOG3 CALLER PUSH32 0xCDF1EB0210CB841128B39316783D3A15AF747C2E341274F54F90ACC4D809F620 DUP5 PUSH2 0x2710 PUSH2 0x2A8B PUSH2 0x1F4 DUP4 PUSH2 0x4EB8 JUMP JUMPDEST PUSH2 0x2A95 SWAP2 SWAP1 PUSH2 0x4ECF JUMP JUMPDEST PUSH2 0x2A9F SWAP1 DUP8 PUSH2 0x4EF1 JUMP JUMPDEST PUSH2 0x2AAC PUSH3 0x278D00 TIMESTAMP PUSH2 0x4EF1 JUMP JUMPDEST PUSH1 0x40 DUP1 MLOAD SWAP4 DUP5 MSTORE PUSH1 0x20 DUP5 ADD SWAP3 SWAP1 SWAP3 MSTORE SWAP1 DUP3 ADD MSTORE TIMESTAMP PUSH1 0x60 DUP3 ADD MSTORE PUSH1 0x80 ADD PUSH1 0x40 MLOAD DUP1 SWAP2 SUB SWAP1 LOG2 POP PUSH1 0x0 SWAP3 SWAP2 POP POP JUMP JUMPDEST PUSH2 0x138 DUP1 SLOAD SWAP1 PUSH1 0x0 PUSH2 0x2AEA DUP4 PUSH2 0x4F1A JUMP JUMPDEST SWAP1 SWAP2 SSTORE POP PUSH1 0x40 DUP1 MLOAD PUSH1 0xA0 DUP2 ADD DUP3 MSTORE CALLER DUP1 DUP3 MSTORE PUSH1 0x20 DUP1 DUP4 ADD DUP9 DUP2 MSTORE TIMESTAMP DUP5 DUP7 ADD DUP2 DUP2 MSTORE PUSH1 0x0 PUSH1 0x60 DUP1 DUP9 ADD DUP3 DUP2 MSTORE PUSH1 0x80 DUP10 ADD DUP4 DUP2 MSTORE DUP12 DUP5 MSTORE PUSH2 0x135 DUP9 MSTORE DUP11 DUP5 KECCAK256 SWAP10 MLOAD DUP11 SLOAD PUSH1 0x1 PUSH1 0x1 PUSH1 0xA0 SHL SUB SWAP1 SWAP2 AND PUSH1 0x1 PUSH1 0x1 PUSH1 0xA0 SHL SUB NOT SWAP1 SWAP2 AND OR DUP11 SSTORE SWAP6 MLOAD PUSH1 0x1 DUP1 DUP12 ADD SWAP2 SWAP1 SWAP2 SSTORE SWAP4 MLOAD PUSH1 0x2 DUP11 ADD SSTORE MLOAD PUSH1 0x3 SWAP1 SWAP9 ADD DUP1 SLOAD SWAP6 MLOAD ISZERO ISZERO PUSH2 0x100 MUL PUSH2 0xFF00 NOT SWAP10 ISZERO ISZERO SWAP10 SWAP1 SWAP10 AND PUSH2 0xFFFF NOT SWAP1 SWAP7 AND SWAP6 SWAP1 SWAP6 OR SWAP8 SWAP1 SWAP8 OR SWAP1 SWAP4 SSTORE DUP5 DUP4 MSTORE PUSH2 0x134 DUP5 MSTORE DUP7 DUP4 KECCAK256 PUSH1 0x4 ADD DUP1 SLOAD PUSH1 0xFF NOT AND SWAP1 SWAP2 OR SWAP1 SSTORE DUP6 MLOAD DUP11 DUP2 MSTORE SWAP3 DUP4 ADD SWAP2 SWAP1 SWAP2 MSTORE SWAP4 DUP2 ADD SWAP4 SWAP1 SWAP4 MSTORE SWAP3 SWAP5 POP DUP5 SWAP2 PUSH32 0x608072217AC12ECB440A970864481103409D4272DFEAD9E8D6E2FC257AC1EDF0 SWAP2 ADD PUSH1 0x40 MLOAD DUP1 SWAP2 SUB SWAP1 LOG3 POP SWAP2 SWAP1 POP JUMP JUMPDEST POP JUMPDEST SWAP2 SWAP1 POP JUMP JUMPDEST PUSH2 0x12D SLOAD PUSH1 0x1 PUSH1 0x1 PUSH1 0xA0 SHL SUB AND CALLER EQ PUSH2 0x2C18 JUMPI PUSH1 0x40 MLOAD PUSH3 0x461BCD PUSH1 0xE5 SHL DUP2 MSTORE PUSH1 0x4 ADD PUSH2 0x425 SWAP1 PUSH2 0x4F67 JUMP JUMPDEST PUSH2 0x2C20 PUSH2 0x4619 JUMP JUMPDEST SELFBALANCE DUP2 GT ISZERO PUSH2 0x2C70 JUMPI PUSH1 0x40 MLOAD PUSH3 0x461BCD PUSH1 0xE5 SHL DUP2 MSTORE PUSH1 0x20 PUSH1 0x4 DUP3 ADD MSTORE PUSH1 0x1D PUSH1 0x24 DUP3 ADD MSTORE PUSH32 0x496B696D696E613A20696E73756666696369656E742062616C616E6365000000 PUSH1 0x44 DUP3 ADD MSTORE PUSH1 0x64 ADD PUSH2 0x425 JUMP JUMPDEST PUSH1 0x0 DUP3 PUSH1 0x1 PUSH1 0x1 PUSH1 0xA0 SHL SUB AND DUP3 PUSH1 0x40 MLOAD PUSH1 0x0 PUSH1 0x40 MLOAD DUP1 DUP4 SUB DUP2 DUP6 DUP8 GAS CALL SWAP3 POP POP POP RETURNDATASIZE DUP1 PUSH1 0x0 DUP2 EQ PUSH2 0x2CBD JUMPI PUSH1 0x40 MLOAD SWAP2 POP PUSH1 0x1F NOT PUSH1 0x3F RETURNDATASIZE ADD AND DUP3 ADD PUSH1 0x40 MSTORE RETURNDATASIZE DUP3 MSTORE RETURNDATASIZE PUSH1 0x0 PUSH1 0x20 DUP5 ADD RETURNDATACOPY PUSH2 0x2CC2 JUMP JUMPDEST PUSH1 0x60 SWAP2 POP JUMPDEST POP POP SWAP1 POP DUP1 PUSH2 0x2D13 JUMPI PUSH1 0x40 MLOAD PUSH3 0x461BCD PUSH1 0xE5 SHL DUP2 MSTORE PUSH1 0x20 PUSH1 0x4 DUP3 ADD MSTORE PUSH1 0x18 PUSH1 0x24 DUP3 ADD MSTORE PUSH32 0x496B696D696E613A207472616E73666572206661696C65640000000000000000 PUSH1 0x44 DUP3 ADD MSTORE PUSH1 0x64 ADD PUSH2 0x425 JUMP JUMPDEST POP POP POP JUMP JUMPDEST PUSH2 0x2D20 PUSH2 0x41BC JUMP JUMPDEST PUSH2 0x13B PUSH2 0x2D2D DUP3 DUP3 PUSH2 0x5034 JUMP JUMPDEST POP TIMESTAMP PUSH2 0x13C DUP2 SWAP1 SSTORE PUSH1 0x40 MLOAD ADDRESS SWAP2 PUSH32 0x2B4B14443D4E94476E173F2C5C72B9D60AECB1A98C6C8A1F1165373E186CEB25 SWAP2 PUSH2 0x1477 SWAP2 DUP6 SWAP2 PUSH2 0x5241 JUMP JUMPDEST CALLER PUSH1 0x0 SWAP1 DUP2 MSTORE PUSH2 0x133 PUSH1 0x20 MSTORE PUSH1 0x40 SWAP1 KECCAK256 PUSH1 0x7 ADD SLOAD PUSH1 0xFF AND PUSH1 0x1 DUP2 PUSH1 0x3 DUP2 GT ISZERO PUSH2 0x2D92 JUMPI PUSH2 0x2D92 PUSH2 0x49B8 JUMP JUMPDEST EQ DUP1 PUSH2 0x2DAF JUMPI POP PUSH1 0x2 DUP2 PUSH1 0x3 DUP2 GT ISZERO PUSH2 0x2DAD JUMPI PUSH2 0x2DAD PUSH2 0x49B8 JUMP JUMPDEST EQ JUMPDEST DUP1 PUSH2 0x2DCB JUMPI POP PUSH1 0x3 DUP2 PUSH1 0x3 DUP2 GT ISZERO PUSH2 0x2DC9 JUMPI PUSH2 0x2DC9 PUSH2 0x49B8 JUMP JUMPDEST EQ JUMPDEST PUSH2 0x2DE7 JUMPI PUSH1 0x40 MLOAD PUSH3 0x461BCD PUSH1 0xE5 SHL DUP2 MSTORE PUSH1 0x4 ADD PUSH2 0x425 SWAP1 PUSH2 0x51D3 JUMP JUMPDEST PUSH2 0x2DEF PUSH2 0x3DEC JUMP JUMPDEST PUSH2 0x2DF7 PUSH2 0x3FB1 JUMP JUMPDEST PUSH1 0x0 DUP3 DUP2 MSTORE PUSH2 0x135 PUSH1 0x20 MSTORE PUSH1 0x40 SWAP1 KECCAK256 PUSH1 0x3 DUP2 ADD SLOAD PUSH1 0xFF AND ISZERO DUP1 ISZERO PUSH2 0x2E25 JUMPI POP PUSH1 0x3 DUP2 ADD SLOAD PUSH2 0x100 SWAP1 DIV PUSH1 0xFF AND ISZERO JUMPDEST PUSH2 0x2E71 JUMPI PUSH1 0x40 MLOAD PUSH3 0x461BCD PUSH1 0xE5 SHL DUP2 MSTORE PUSH1 0x20 PUSH1 0x4 DUP3 ADD MSTORE PUSH1 0x1A PUSH1 0x24 DUP3 ADD MSTORE PUSH32 0x496B696D696E613A20616C72656164792070726F636573736564000000000000 PUSH1 0x44 DUP3 ADD MSTORE PUSH1 0x64 ADD PUSH2 0x425 JUMP JUMPDEST PUSH1 0x1 DUP2 SLOAD PUSH1 0x1 PUSH1 0x1 PUSH1 0xA0 SHL SUB AND PUSH1 0x0 SWAP1 DUP2 MSTORE PUSH2 0x134 PUSH1 0x20 MSTORE PUSH1 0x40 SWAP1 KECCAK256 PUSH1 0x4 SWAP1 DUP2 ADD SLOAD PUSH1 0xFF AND SWAP1 DUP2 GT ISZERO PUSH2 0x2EA6 JUMPI PUSH2 0x2EA6 PUSH2 0x49B8 JUMP JUMPDEST EQ PUSH2 0x2EEA JUMPI PUSH1 0x40 MLOAD PUSH3 0x461BCD PUSH1 0xE5 SHL DUP2 MSTORE PUSH1 0x20 PUSH1 0x4 DUP3 ADD MSTORE PUSH1 0x14 PUSH1 0x24 DUP3 ADD MSTORE PUSH20 0x496B696D696E613A206E6F742070656E64696E67 PUSH1 0x60 SHL PUSH1 0x44 DUP3 ADD MSTORE PUSH1 0x64 ADD PUSH2 0x425 JUMP JUMPDEST PUSH2 0x12F SLOAD DUP2 PUSH1 0x1 ADD SLOAD GT ISZERO PUSH2 0x2F41 JUMPI PUSH1 0x40 MLOAD PUSH3 0x461BCD PUSH1 0xE5 SHL DUP2 MSTORE PUSH1 0x20 PUSH1 0x4 DUP3 ADD MSTORE PUSH1 0x1A PUSH1 0x24 DUP3 ADD MSTORE PUSH32 0x496B696D696E613A20696E73756666696369656E7420706F6F6C000000000000 PUSH1 0x44 DUP3 ADD MSTORE PUSH1 0x64 ADD PUSH2 0x425 JUMP JUMPDEST PUSH1 0x3 DUP2 ADD DUP1 SLOAD PUSH1 0xFF NOT AND PUSH1 0x1 SWAP1 DUP2 OR SWAP1 SWAP2 SSTORE DUP2 SLOAD SWAP1 DUP3 ADD SLOAD PUSH2 0x2F6C SWAP2 PUSH1 0x1 PUSH1 0x1 PUSH1 0xA0 SHL SUB AND SWAP1 PUSH2 0x443E JUMP JUMPDEST PUSH2 0x13A DUP1 SLOAD SWAP1 PUSH1 0x0 PUSH2 0x2F7D DUP4 PUSH2 0x4F1A JUMP JUMPDEST SWAP1 SWAP2 SSTORE POP POP DUP1 SLOAD PUSH1 0x1 DUP3 ADD SLOAD PUSH1 0x40 DUP1 MLOAD SWAP2 DUP3 MSTORE TIMESTAMP PUSH1 0x20 DUP4 ADD MSTORE PUSH1 0x1 PUSH1 0x1 PUSH1 0xA0 SHL SUB SWAP1 SWAP3 AND SWAP2 DUP6 SWAP2 PUSH32 0xB2C6DE76341D4F1188DA5458FD8729CBC0E9278F99E8992F40F36900BCEF78CB SWAP2 ADD PUSH1 0x40 MLOAD DUP1 SWAP2 SUB SWAP1 LOG3 POP PUSH2 0x1E71 PUSH1 0x1 PUSH1 0xC9 SSTORE JUMP JUMPDEST PUSH2 0x12D SLOAD PUSH1 0x1 PUSH1 0x1 PUSH1 0xA0 SHL SUB AND CALLER EQ PUSH2 0x3005 JUMPI PUSH1 0x40 MLOAD PUSH3 0x461BCD PUSH1 0xE5 SHL DUP2 MSTORE PUSH1 0x4 ADD PUSH2 0x425 SWAP1 PUSH2 0x4F67 JUMP JUMPDEST PUSH1 0x1 PUSH1 0x1 PUSH1 0xA0 SHL SUB DUP2 AND PUSH2 0x3053 JUMPI PUSH1 0x40 MLOAD PUSH3 0x461BCD PUSH1 0xE5 SHL DUP2 MSTORE PUSH1 0x20 PUSH1 0x4 DUP3 ADD MSTORE PUSH1 0x15 PUSH1 0x24 DUP3 ADD MSTORE PUSH21 0x496B696D696E613A207A65726F2061646472657373 PUSH1 0x58 SHL PUSH1 0x44 DUP3 ADD MSTORE PUSH1 0x64 ADD PUSH2 0x425 JUMP JUMPDEST PUSH2 0x12E DUP1 SLOAD PUSH1 0x1 PUSH1 0x1 PUSH1 0xA0 SHL SUB NOT AND PUSH1 0x1 PUSH1 0x1 PUSH1 0xA0 SHL SUB SWAP3 SWAP1 SWAP3 AND SWAP2 SWAP1 SWAP2 OR SWAP1 SSTORE JUMP JUMPDEST PUSH2 0x12D SLOAD PUSH1 0x1 PUSH1 0x1 PUSH1 0xA0 SHL SUB AND CALLER EQ PUSH2 0x30A1 JUMPI PUSH1 0x40 MLOAD PUSH3 0x461BCD PUSH1 0xE5 SHL DUP2 MSTORE PUSH1 0x4 ADD PUSH2 0x425 SWAP1 PUSH2 0x4F67 JUMP JUMPDEST PUSH1 0x1 PUSH1 0x1 PUSH1 0xA0 SHL SUB DUP3 AND PUSH1 0x0 SWAP1 DUP2 MSTORE PUSH2 0x133 PUSH1 0x20 MSTORE PUSH1 0x40 SWAP1 KECCAK256 PUSH1 0x3 ADD SLOAD PUSH1 0x1 PUSH1 0xA0 SHL SWAP1 DIV PUSH1 0xFF AND PUSH2 0x3114 JUMPI PUSH1 0x40 MLOAD PUSH3 0x461BCD PUSH1 0xE5 SHL DUP2 MSTORE PUSH1 0x20 PUSH1 0x4 DUP3 ADD MSTORE PUSH1 0x1E PUSH1 0x24 DUP3 ADD MSTORE PUSH32 0x496B696D696E613A206D656D626572206E6F7420726567697374657265640000 PUSH1 0x44 DUP3 ADD MSTORE PUSH1 0x64 ADD PUSH2 0x425 JUMP JUMPDEST PUSH1 0x1 PUSH1 0x1 PUSH1 0xA0 SHL SUB DUP3 AND PUSH1 0x0 SWAP1 DUP2 MSTORE PUSH2 0x133 PUSH1 0x20 MSTORE PUSH1 0x40 SWAP1 KECCAK256 PUSH1 0x7 ADD DUP1 SLOAD PUSH1 0xFF DUP2 AND SWAP2 DUP4 SWAP2 PUSH1 0xFF NOT AND PUSH1 0x1 DUP4 PUSH1 0x3 DUP2 GT ISZERO PUSH2 0x3151 JUMPI PUSH2 0x3151 PUSH2 0x49B8 JUMP JUMPDEST MUL OR SWAP1 SSTORE POP DUP3 PUSH1 0x1 PUSH1 0x1 PUSH1 0xA0 SHL SUB AND PUSH32 0xBB3864D65AD50221BF63F66D2C877516C2A835E23EBCDAEE64D6743D2E7731FC DUP3 DUP5 TIMESTAMP PUSH1 0x40 MLOAD PUSH2 0x3193 SWAP4 SWAP3 SWAP2 SWAP1 PUSH2 0x5263 JUMP JUMPDEST PUSH1 0x40 MLOAD DUP1 SWAP2 SUB SWAP1 LOG2 POP POP POP JUMP JUMPDEST PUSH2 0x137 DUP2 DUP2 SLOAD DUP2 LT PUSH2 0x31B1 JUMPI PUSH1 0x0 DUP1 REVERT JUMPDEST PUSH1 0x0 SWAP2 DUP3 MSTORE PUSH1 0x20 SWAP1 SWAP2 KECCAK256 ADD SLOAD PUSH1 0x1 PUSH1 0x1 PUSH1 0xA0 SHL SUB AND SWAP1 POP DUP2 JUMP JUMPDEST PUSH1 0x0 PUSH1 0x64 PUSH1 0x32 PUSH2 0x12F SLOAD PUSH2 0xD56 SWAP2 SWAP1 PUSH2 0x4EB8 JUMP JUMPDEST PUSH1 0x1 PUSH1 0x1 PUSH1 0xA0 SHL SUB DUP2 AND PUSH1 0x0 SWAP1 DUP2 MSTORE PUSH2 0x133 PUSH1 0x20 MSTORE PUSH1 0x40 DUP2 KECCAK256 PUSH1 0x3 ADD SLOAD PUSH1 0x1 PUSH1 0xA0 SHL SWAP1 DIV PUSH1 0xFF AND ISZERO DUP1 PUSH2 0x3236 JUMPI POP PUSH1 0x1 PUSH1 0x1 PUSH1 0xA0 SHL SUB DUP3 AND PUSH1 0x0 SWAP1 DUP2 MSTORE PUSH2 0x133 PUSH1 0x20 MSTORE PUSH1 0x40 SWAP1 KECCAK256 PUSH1 0x3 ADD SLOAD PUSH1 0x1 PUSH1 0xA8 SHL SWAP1 DIV PUSH1 0xFF AND ISZERO JUMPDEST ISZERO PUSH2 0x3243 JUMPI POP PUSH1 0x0 SWAP2 SWAP1 POP JUMP JUMPDEST PUSH1 0x1 PUSH1 0x1 PUSH1 0xA0 SHL SUB DUP3 AND PUSH1 0x0 SWAP1 DUP2 MSTORE PUSH2 0x133 PUSH1 0x20 MSTORE PUSH1 0x40 SWAP1 KECCAK256 PUSH1 0x4 ADD SLOAD PUSH2 0x22A1 SWAP1 PUSH1 0x3 SWAP1 PUSH2 0x4EB8 JUMP JUMPDEST CALLER PUSH1 0x0 SWAP1 DUP2 MSTORE PUSH2 0x133 PUSH1 0x20 MSTORE PUSH1 0x40 SWAP1 KECCAK256 PUSH1 0x3 ADD SLOAD PUSH1 0x1 PUSH1 0xA0 SHL SWAP1 DIV PUSH1 0xFF AND DUP1 ISZERO PUSH2 0x32B0 JUMPI POP CALLER PUSH1 0x0 SWAP1 DUP2 MSTORE PUSH2 0x133 PUSH1 0x20 MSTORE PUSH1 0x40 SWAP1 KECCAK256 PUSH1 0x3 ADD SLOAD PUSH1 0x1 PUSH1 0xA8 SHL SWAP1 DIV PUSH1 0xFF AND JUMPDEST PUSH2 0x32CC JUMPI PUSH1 0x40 MLOAD PUSH3 0x461BCD PUSH1 0xE5 SHL DUP2 MSTORE PUSH1 0x4 ADD PUSH2 0x425 SWAP1 PUSH2 0x4F9E JUMP JUMPDEST PUSH2 0x32D4 PUSH2 0x3DEC JUMP JUMPDEST PUSH2 0x32DC PUSH2 0x3FB1 JUMP JUMPDEST PUSH7 0x38D7EA4C68000 CALLVALUE LT ISZERO PUSH2 0x333F JUMPI PUSH1 0x40 MLOAD PUSH3 0x461BCD PUSH1 0xE5 SHL DUP2 MSTORE PUSH1 0x20 PUSH1 0x4 DUP3 ADD MSTORE PUSH1 0x23 PUSH1 0x24 DUP3 ADD MSTORE PUSH32 0x496B696D696E613A2062656C6F77206D696E696D756D20636F6E747269627574 PUSH1 0x44 DUP3 ADD MSTORE PUSH3 0x34B7B7 PUSH1 0xE9 SHL PUSH1 0x64 DUP3 ADD MSTORE PUSH1 0x84 ADD PUSH2 0x425 JUMP JUMPDEST CALLER PUSH1 0x0 SWAP1 DUP2 MSTORE PUSH2 0x133 PUSH1 0x20 MSTORE PUSH1 0x40 DUP2 KECCAK256 PUSH1 0x4 ADD DUP1 SLOAD CALLVALUE SWAP3 SWAP1 PUSH2 0x3362 SWAP1 DUP5 SWAP1 PUSH2 0x4EF1 JUMP JUMPDEST SWAP3 POP POP DUP2 SWAP1 SSTORE POP CALLVALUE PUSH2 0x12F PUSH1 0x0 DUP3 DUP3 SLOAD PUSH2 0x337C SWAP2 SWAP1 PUSH2 0x4EF1 JUMP JUMPDEST SWAP1 SWAP2 SSTORE POP POP CALLER PUSH1 0x0 DUP2 DUP2 MSTORE PUSH2 0x133 PUSH1 0x20 SWAP1 DUP2 MSTORE PUSH1 0x40 SWAP2 DUP3 SWAP1 KECCAK256 PUSH1 0x4 ADD SLOAD PUSH2 0x12F SLOAD DUP4 MLOAD CALLVALUE DUP2 MSTORE SWAP3 DUP4 ADD SWAP2 SWAP1 SWAP2 MSTORE DUP2 DUP4 ADD MSTORE TIMESTAMP PUSH1 0x60 DUP3 ADD MSTORE SWAP1 MLOAD PUSH32 0x38EAF060DDEC1DDE1C99C9CCE5C8F34A03C48E9368F6FF7B768898F627860580 SWAP2 DUP2 SWAP1 SUB PUSH1 0x80 ADD SWAP1 LOG2 PUSH2 0x109A PUSH1 0x1 PUSH1 0xC9 SSTORE JUMP JUMPDEST PUSH1 0x1 PUSH1 0x1 PUSH1 0xA0 SHL SUB DUP2 AND PUSH1 0x0 SWAP1 DUP2 MSTORE PUSH2 0x133 PUSH1 0x20 MSTORE PUSH1 0x40 DUP2 KECCAK256 PUSH1 0x7 ADD SLOAD PUSH1 0xFF AND PUSH1 0x1 DUP2 PUSH1 0x3 DUP2 GT ISZERO PUSH2 0x341D JUMPI PUSH2 0x341D PUSH2 0x49B8 JUMP JUMPDEST EQ DUP1 PUSH2 0x343A JUMPI POP PUSH1 0x2 DUP2 PUSH1 0x3 DUP2 GT ISZERO PUSH2 0x3438 JUMPI PUSH2 0x3438 PUSH2 0x49B8 JUMP JUMPDEST EQ JUMPDEST DUP1 PUSH2 0x3456 JUMPI POP PUSH1 0x3 DUP2 PUSH1 0x3 DUP2 GT ISZERO PUSH2 0x3454 JUMPI PUSH2 0x3454 PUSH2 0x49B8 JUMP JUMPDEST EQ JUMPDEST SWAP4 SWAP3 POP POP POP JUMP JUMPDEST CALLER PUSH1 0x0 SWAP1 DUP2 MSTORE PUSH2 0x133 PUSH1 0x20 MSTORE PUSH1 0x40 SWAP1 KECCAK256 PUSH1 0x7 ADD SLOAD PUSH1 0xFF AND PUSH1 0x1 DUP2 PUSH1 0x3 DUP2 GT ISZERO PUSH2 0x3488 JUMPI PUSH2 0x3488 PUSH2 0x49B8 JUMP JUMPDEST EQ DUP1 PUSH2 0x34A5 JUMPI POP PUSH1 0x2 DUP2 PUSH1 0x3 DUP2 GT ISZERO PUSH2 0x34A3 JUMPI PUSH2 0x34A3 PUSH2 0x49B8 JUMP JUMPDEST EQ JUMPDEST DUP1 PUSH2 0x34C1 JUMPI POP PUSH1 0x3 DUP2 PUSH1 0x3 DUP2 GT ISZERO PUSH2 0x34BF JUMPI PUSH2 0x34BF PUSH2 0x49B8 JUMP JUMPDEST EQ JUMPDEST PUSH2 0x34DD JUMPI PUSH1 0x40 MLOAD PUSH3 0x461BCD PUSH1 0xE5 SHL DUP2 MSTORE PUSH1 0x4 ADD PUSH2 0x425 SWAP1 PUSH2 0x51D3 JUMP JUMPDEST PUSH1 0x1 PUSH1 0x1 PUSH1 0xA0 SHL SUB DUP3 AND PUSH1 0x0 SWAP1 DUP2 MSTORE PUSH2 0x134 PUSH1 0x20 MSTORE PUSH1 0x40 SWAP1 KECCAK256 PUSH1 0x2 PUSH1 0x4 DUP1 DUP4 ADD SLOAD PUSH1 0xFF AND SWAP1 DUP2 GT ISZERO PUSH2 0x3511 JUMPI PUSH2 0x3511 PUSH2 0x49B8 JUMP JUMPDEST EQ PUSH2 0x3558 JUMPI PUSH1 0x40 MLOAD PUSH3 0x461BCD PUSH1 0xE5 SHL DUP2 MSTORE PUSH1 0x20 PUSH1 0x4 DUP3 ADD MSTORE PUSH1 0x17 PUSH1 0x24 DUP3 ADD MSTORE PUSH23 0x24B5B4B6B4B7309D1037379030B1BA34BB32903637B0B7 PUSH1 0x49 SHL PUSH1 0x44 DUP3 ADD MSTORE PUSH1 0x64 ADD PUSH2 0x425 JUMP JUMPDEST DUP1 PUSH1 0x3 ADD SLOAD TIMESTAMP GT PUSH2 0x35AB JUMPI PUSH1 0x40 MLOAD PUSH3 0x461BCD PUSH1 0xE5 SHL DUP2 MSTORE PUSH1 0x20 PUSH1 0x4 DUP3 ADD MSTORE PUSH1 0x19 PUSH1 0x24 DUP3 ADD MSTORE PUSH32 0x496B696D696E613A206C6F616E206E6F74206F76657264756500000000000000 PUSH1 0x44 DUP3 ADD MSTORE PUSH1 0x64 ADD PUSH2 0x425 JUMP JUMPDEST PUSH1 0x0 DUP2 PUSH1 0x2 ADD SLOAD DUP3 PUSH1 0x1 ADD SLOAD PUSH2 0x35C1 SWAP2 SWAP1 PUSH2 0x4EA5 JUMP JUMPDEST SWAP1 POP PUSH1 0x0 DUP2 GT PUSH2 0x3613 JUMPI PUSH1 0x40 MLOAD PUSH3 0x461BCD PUSH1 0xE5 SHL DUP2 MSTORE PUSH1 0x20 PUSH1 0x4 DUP3 ADD MSTORE PUSH1 0x18 PUSH1 0x24 DUP3 ADD MSTORE PUSH32 0x496B696D696E613A20616C726561647920736574746C65640000000000000000 PUSH1 0x44 DUP3 ADD MSTORE PUSH1 0x64 ADD PUSH2 0x425 JUMP JUMPDEST PUSH1 0x0 PUSH2 0x2710 PUSH2 0x3623 PUSH1 0xC8 DUP5 PUSH2 0x4EB8 JUMP JUMPDEST PUSH2 0x362D SWAP2 SWAP1 PUSH2 0x4ECF JUMP JUMPDEST SWAP1 POP DUP1 DUP4 PUSH1 0x1 ADD PUSH1 0x0 DUP3 DUP3 SLOAD PUSH2 0x3643 SWAP2 SWAP1 PUSH2 0x4EF1 JUMP JUMPDEST SWAP1 SWAP2 SSTORE POP POP PUSH1 0x4 DUP4 DUP2 ADD DUP1 SLOAD PUSH1 0xFF NOT AND SWAP1 SWAP2 OR SWAP1 SSTORE PUSH1 0x40 DUP1 MLOAD DUP3 DUP2 MSTORE TIMESTAMP PUSH1 0x20 DUP3 ADD MSTORE PUSH1 0x1 PUSH1 0x1 PUSH1 0xA0 SHL SUB DUP8 AND SWAP2 PUSH32 0xCF40CADCD86C14CB7E696A86578255719F67BC54BF991D45D267EE6E01467C19 SWAP2 ADD PUSH1 0x40 MLOAD DUP1 SWAP2 SUB SWAP1 LOG2 PUSH1 0x1 PUSH1 0x1 PUSH1 0xA0 SHL SUB DUP6 AND PUSH32 0x2846D120B0AC120B4495CD52F69D161236E146706BC5E2B85D01884744797C80 PUSH2 0x36D0 DUP4 DUP6 PUSH2 0x4EF1 JUMP JUMPDEST PUSH1 0x3 DUP7 ADD SLOAD PUSH1 0x40 DUP1 MLOAD SWAP3 DUP4 MSTORE PUSH1 0x20 DUP4 ADD SWAP2 SWAP1 SWAP2 MSTORE TIMESTAMP SWAP1 DUP3 ADD MSTORE PUSH1 0x60 ADD PUSH1 0x40 MLOAD DUP1 SWAP2 SUB SWAP1 LOG2 POP POP POP POP POP JUMP JUMPDEST CALLER PUSH1 0x0 SWAP1 DUP2 MSTORE PUSH2 0x133 PUSH1 0x20 MSTORE PUSH1 0x40 SWAP1 KECCAK256 PUSH1 0x3 ADD SLOAD PUSH1 0x1 PUSH1 0xA0 SHL SWAP1 DIV PUSH1 0xFF AND DUP1 ISZERO PUSH2 0x373F JUMPI POP CALLER PUSH1 0x0 SWAP1 DUP2 MSTORE PUSH2 0x133 PUSH1 0x20 MSTORE PUSH1 0x40 SWAP1 KECCAK256 PUSH1 0x3 ADD SLOAD PUSH1 0x1 PUSH1 0xA8 SHL SWAP1 DIV PUSH1 0xFF AND JUMPDEST PUSH2 0x375B JUMPI PUSH1 0x40 MLOAD PUSH3 0x461BCD PUSH1 0xE5 SHL DUP2 MSTORE PUSH1 0x4 ADD PUSH2 0x425 SWAP1 PUSH2 0x4F9E JUMP JUMPDEST PUSH2 0x3763 PUSH2 0x3DEC JUMP JUMPDEST PUSH2 0x376B PUSH2 0x3FB1 JUMP JUMPDEST PUSH1 0x0 DUP2 GT PUSH2 0x37BB JUMPI PUSH1 0x40 MLOAD PUSH3 0x461BCD PUSH1 0xE5 SHL DUP2 MSTORE PUSH1 0x20 PUSH1 0x4 DUP3 ADD MSTORE PUSH1 0x1B PUSH1 0x24 DUP3 ADD MSTORE PUSH32 0x496B696D696E613A20616D6F756E74206D757374206265203E20300000000000 PUSH1 0x44 DUP3 ADD MSTORE PUSH1 0x64 ADD PUSH2 0x425 JUMP JUMPDEST PUSH1 0x2 CALLER PUSH1 0x0 SWAP1 DUP2 MSTORE PUSH2 0x134 PUSH1 0x20 MSTORE PUSH1 0x40 SWAP1 KECCAK256 PUSH1 0x4 SWAP1 DUP2 ADD SLOAD PUSH1 0xFF AND SWAP1 DUP2 GT ISZERO PUSH2 0x37E6 JUMPI PUSH2 0x37E6 PUSH2 0x49B8 JUMP JUMPDEST SUB PUSH2 0x3833 JUMPI PUSH1 0x40 MLOAD PUSH3 0x461BCD PUSH1 0xE5 SHL DUP2 MSTORE PUSH1 0x20 PUSH1 0x4 DUP3 ADD DUP2 SWAP1 MSTORE PUSH1 0x24 DUP3 ADD MSTORE PUSH32 0x496B696D696E613A20726570617920616374697665206C6F616E206669727374 PUSH1 0x44 DUP3 ADD MSTORE PUSH1 0x64 ADD PUSH2 0x425 JUMP JUMPDEST CALLER PUSH1 0x0 SWAP1 DUP2 MSTORE PUSH2 0x133 PUSH1 0x20 MSTORE PUSH1 0x40 SWAP1 KECCAK256 PUSH1 0x4 ADD SLOAD DUP2 GT ISZERO PUSH2 0x3896 JUMPI PUSH1 0x40 MLOAD PUSH3 0x461BCD PUSH1 0xE5 SHL DUP2 MSTORE PUSH1 0x20 PUSH1 0x4 DUP3 ADD MSTORE PUSH1 0x1D PUSH1 0x24 DUP3 ADD MSTORE PUSH32 0x496B696D696E613A20696E73756666696369656E7420736176696E6773000000 PUSH1 0x44 DUP3 ADD MSTORE PUSH1 0x64 ADD PUSH2 0x425 JUMP JUMPDEST DUP1 PUSH2 0x12F SLOAD LT ISZERO PUSH2 0x38F5 JUMPI PUSH1 0x40 MLOAD PUSH3 0x461BCD PUSH1 0xE5 SHL DUP2 MSTORE PUSH1 0x20 PUSH1 0x4 DUP3 ADD MSTORE PUSH1 0x24 DUP1 DUP3 ADD MSTORE PUSH32 0x496B696D696E613A20696E73756666696369656E7420706F6F6C206C69717569 PUSH1 0x44 DUP3 ADD MSTORE PUSH4 0x64697479 PUSH1 0xE0 SHL PUSH1 0x64 DUP3 ADD MSTORE PUSH1 0x84 ADD PUSH2 0x425 JUMP JUMPDEST CALLER PUSH1 0x0 SWAP1 DUP2 MSTORE PUSH2 0x133 PUSH1 0x20 MSTORE PUSH1 0x40 DUP2 KECCAK256 PUSH1 0x4 ADD DUP1 SLOAD DUP4 SWAP3 SWAP1 PUSH2 0x3918 SWAP1 DUP5 SWAP1 PUSH2 0x4EA5 JUMP JUMPDEST SWAP3 POP POP DUP2 SWAP1 SSTORE POP DUP1 PUSH2 0x12F PUSH1 0x0 DUP3 DUP3 SLOAD PUSH2 0x3932 SWAP2 SWAP1 PUSH2 0x4EA5 JUMP JUMPDEST SWAP1 SWAP2 SSTORE POP POP CALLER PUSH1 0x0 DUP2 DUP2 MSTORE PUSH2 0x133 PUSH1 0x20 SWAP1 DUP2 MSTORE PUSH1 0x40 SWAP2 DUP3 SWAP1 KECCAK256 PUSH1 0x4 ADD SLOAD DUP3 MLOAD DUP6 DUP2 MSTORE SWAP2 DUP3 ADD MSTORE TIMESTAMP DUP2 DUP4 ADD MSTORE SWAP1 MLOAD PUSH32 0xA7B927747255BAE4C9B535EE84804707F42B787D2A0C4A461F0C3A77F91EA82C SWAP2 DUP2 SWAP1 SUB PUSH1 0x60 ADD SWAP1 LOG2 PUSH1 0x40 MLOAD PUSH1 0x0 SWAP1 CALLER SWAP1 DUP4 SWAP1 DUP4 DUP2 DUP2 DUP2 DUP6 DUP8 GAS CALL SWAP3 POP POP POP RETURNDATASIZE DUP1 PUSH1 0x0 DUP2 EQ PUSH2 0x39CB JUMPI PUSH1 0x40 MLOAD SWAP2 POP PUSH1 0x1F NOT PUSH1 0x3F RETURNDATASIZE ADD AND DUP3 ADD PUSH1 0x40 MSTORE RETURNDATASIZE DUP3 MSTORE RETURNDATASIZE PUSH1 0x0 PUSH1 0x20 DUP5 ADD RETURNDATACOPY PUSH2 0x39D0 JUMP JUMPDEST PUSH1 0x60 SWAP2 POP JUMPDEST POP POP SWAP1 POP DUP1 PUSH2 0x39F1 JUMPI PUSH1 0x40 MLOAD PUSH3 0x461BCD PUSH1 0xE5 SHL DUP2 MSTORE PUSH1 0x4 ADD PUSH2 0x425 SWAP1 PUSH2 0x520A JUMP JUMPDEST POP PUSH2 0x1D6F PUSH1 0x1 PUSH1 0xC9 SSTORE JUMP JUMPDEST PUSH2 0x3A04 PUSH2 0x41BC JUMP JUMPDEST PUSH1 0x1 PUSH1 0x1 PUSH1 0xA0 SHL SUB DUP2 AND PUSH2 0x3A69 JUMPI PUSH1 0x40 MLOAD PUSH3 0x461BCD PUSH1 0xE5 SHL DUP2 MSTORE PUSH1 0x20 PUSH1 0x4 DUP3 ADD MSTORE PUSH1 0x26 PUSH1 0x24 DUP3 ADD MSTORE PUSH32 0x4F776E61626C653A206E6577206F776E657220697320746865207A65726F2061 PUSH1 0x44 DUP3 ADD MSTORE PUSH6 0x646472657373 PUSH1 0xD0 SHL PUSH1 0x64 DUP3 ADD MSTORE PUSH1 0x84 ADD PUSH2 0x425 JUMP JUMPDEST PUSH2 0x1D6F DUP2 PUSH2 0x4216 JUMP JUMPDEST CALLER PUSH1 0x0 SWAP1 DUP2 MSTORE PUSH2 0x133 PUSH1 0x20 MSTORE PUSH1 0x40 SWAP1 KECCAK256 PUSH1 0x3 ADD SLOAD PUSH1 0x1 PUSH1 0xA0 SHL SWAP1 DIV PUSH1 0xFF AND DUP1 ISZERO PUSH2 0x3AB6 JUMPI POP CALLER PUSH1 0x0 SWAP1 DUP2 MSTORE PUSH2 0x133 PUSH1 0x20 MSTORE PUSH1 0x40 SWAP1 KECCAK256 PUSH1 0x3 ADD SLOAD PUSH1 0x1 PUSH1 0xA8 SHL SWAP1 DIV PUSH1 0xFF AND JUMPDEST PUSH2 0x3AD2 JUMPI PUSH1 0x40 MLOAD PUSH3 0x461BCD PUSH1 0xE5 SHL DUP2 MSTORE PUSH1 0x4 ADD PUSH2 0x425 SWAP1 PUSH2 0x4F9E JUMP JUMPDEST PUSH2 0x3ADA PUSH2 0x3DEC JUMP JUMPDEST PUSH2 0x3AE2 PUSH2 0x3FB1 JUMP JUMPDEST PUSH1 0x0 CALLVALUE GT PUSH2 0x3B32 JUMPI PUSH1 0x40 MLOAD PUSH3 0x461BCD PUSH1 0xE5 SHL DUP2 MSTORE PUSH1 0x20 PUSH1 0x4 DUP3 ADD MSTORE PUSH1 0x1E PUSH1 0x24 DUP3 ADD MSTORE PUSH32 0x496B696D696E613A2072657061796D656E74206D757374206265203E20300000 PUSH1 0x44 DUP3 ADD MSTORE PUSH1 0x64 ADD PUSH2 0x425 JUMP JUMPDEST CALLER PUSH1 0x0 SWAP1 DUP2 MSTORE PUSH2 0x134 PUSH1 0x20 MSTORE PUSH1 0x40 SWAP1 KECCAK256 PUSH1 0x2 PUSH1 0x4 DUP1 DUP4 ADD SLOAD PUSH1 0xFF AND SWAP1 DUP2 GT ISZERO PUSH2 0x3B5D JUMPI PUSH2 0x3B5D PUSH2 0x49B8 JUMP JUMPDEST EQ PUSH2 0x3BA4 JUMPI PUSH1 0x40 MLOAD PUSH3 0x461BCD PUSH1 0xE5 SHL DUP2 MSTORE PUSH1 0x20 PUSH1 0x4 DUP3 ADD MSTORE PUSH1 0x17 PUSH1 0x24 DUP3 ADD MSTORE PUSH23 0x24B5B4B6B4B7309D1037379030B1BA34BB32903637B0B7 PUSH1 0x49 SHL PUSH1 0x44 DUP3 ADD MSTORE PUSH1 0x64 ADD PUSH2 0x425 JUMP JUMPDEST PUSH1 0x0 DUP2 PUSH1 0x2 ADD SLOAD DUP3 PUSH1 0x1 ADD SLOAD PUSH2 0x3BBA SWAP2 SWAP1 PUSH2 0x4EA5 JUMP JUMPDEST SWAP1 POP PUSH1 0x0 DUP2 GT PUSH2 0x3C0C JUMPI PUSH1 0x40 MLOAD PUSH3 0x461BCD PUSH1 0xE5 SHL DUP2 MSTORE PUSH1 0x20 PUSH1 0x4 DUP3 ADD MSTORE PUSH1 0x1D PUSH1 0x24 DUP3 ADD MSTORE PUSH32 0x496B696D696E613A206C6F616E20616C726561647920736574746C6564000000 PUSH1 0x44 DUP3 ADD MSTORE PUSH1 0x64 ADD PUSH2 0x425 JUMP JUMPDEST PUSH1 0x0 DUP2 CALLVALUE GT PUSH2 0x3C1B JUMPI CALLVALUE PUSH2 0x3C1D JUMP JUMPDEST DUP2 JUMPDEST SWAP1 POP PUSH1 0x0 PUSH2 0x3C2B DUP3 CALLVALUE PUSH2 0x4EA5 JUMP JUMPDEST SWAP1 POP DUP2 DUP5 PUSH1 0x2 ADD PUSH1 0x0 DUP3 DUP3 SLOAD PUSH2 0x3C41 SWAP2 SWAP1 PUSH2 0x4EF1 JUMP JUMPDEST SWAP3 POP POP DUP2 SWAP1 SSTORE POP DUP2 PUSH2 0x12F PUSH1 0x0 DUP3 DUP3 SLOAD PUSH2 0x3C5B SWAP2 SWAP1 PUSH2 0x4EF1 JUMP JUMPDEST SWAP1 SWAP2 SSTORE POP POP PUSH1 0x1 DUP5 ADD SLOAD DUP5 SLOAD PUSH1 0x0 SWAP2 SWAP1 PUSH2 0x3C75 SWAP1 DUP3 PUSH2 0x4EA5 JUMP JUMPDEST PUSH2 0x3C7F SWAP1 DUP6 PUSH2 0x4EB8 JUMP JUMPDEST PUSH2 0x3C89 SWAP2 SWAP1 PUSH2 0x4ECF JUMP JUMPDEST SWAP1 POP DUP1 PUSH2 0x136 PUSH1 0x0 PUSH2 0x132 SLOAD DUP2 MSTORE PUSH1 0x20 ADD SWAP1 DUP2 MSTORE PUSH1 0x20 ADD PUSH1 0x0 KECCAK256 PUSH1 0x2 ADD PUSH1 0x0 DUP3 DUP3 SLOAD PUSH2 0x3CB5 SWAP2 SWAP1 PUSH2 0x4EF1 JUMP JUMPDEST SWAP1 SWAP2 SSTORE POP POP PUSH1 0x1 DUP6 ADD SLOAD PUSH1 0x2 DUP7 ADD SLOAD LT DUP1 ISZERO SWAP1 PUSH2 0x3CDC JUMPI PUSH1 0x4 DUP7 ADD DUP1 SLOAD PUSH1 0xFF NOT AND PUSH1 0x3 OR SWAP1 SSTORE JUMPDEST CALLER PUSH1 0x1 PUSH1 0x1 PUSH1 0xA0 SHL SUB AND PUSH32 0xE627C02A755F08984ABD2C21256818BF256E5D05844B76056C4E621785908A09 DUP6 DUP9 PUSH1 0x2 ADD SLOAD DUP10 PUSH1 0x1 ADD SLOAD PUSH2 0x3D1C SWAP2 SWAP1 PUSH2 0x4EA5 JUMP JUMPDEST PUSH1 0x40 DUP1 MLOAD SWAP3 DUP4 MSTORE PUSH1 0x20 DUP4 ADD SWAP2 SWAP1 SWAP2 MSTORE DUP5 ISZERO ISZERO SWAP1 DUP3 ADD MSTORE TIMESTAMP PUSH1 0x60 DUP3 ADD MSTORE PUSH1 0x80 ADD PUSH1 0x40 MLOAD DUP1 SWAP2 SUB SWAP1 LOG2 DUP3 ISZERO PUSH2 0x3DDC JUMPI PUSH1 0x40 MLOAD PUSH1 0x0 SWAP1 CALLER SWAP1 DUP6 SWAP1 DUP4 DUP2 DUP2 DUP2 DUP6 DUP8 GAS CALL SWAP3 POP POP POP RETURNDATASIZE DUP1 PUSH1 0x0 DUP2 EQ PUSH2 0x3D8B JUMPI PUSH1 0x40 MLOAD SWAP2 POP PUSH1 0x1F NOT PUSH1 0x3F RETURNDATASIZE ADD AND DUP3 ADD PUSH1 0x40 MSTORE RETURNDATASIZE DUP3 MSTORE RETURNDATASIZE PUSH1 0x0 PUSH1 0x20 DUP5 ADD RETURNDATACOPY PUSH2 0x3D90 JUMP JUMPDEST PUSH1 0x60 SWAP2 POP JUMPDEST POP POP SWAP1 POP DUP1 PUSH2 0x3DDA JUMPI PUSH1 0x40 MLOAD PUSH3 0x461BCD PUSH1 0xE5 SHL DUP2 MSTORE PUSH1 0x20 PUSH1 0x4 DUP3 ADD MSTORE PUSH1 0x16 PUSH1 0x24 DUP3 ADD MSTORE PUSH22 0x125ADA5B5A5B984E881C99599D5B990819985A5B1959 PUSH1 0x52 SHL PUSH1 0x44 DUP3 ADD MSTORE PUSH1 0x64 ADD PUSH2 0x425 JUMP JUMPDEST POP JUMPDEST POP POP POP POP POP POP PUSH2 0x109A PUSH1 0x1 PUSH1 0xC9 SSTORE JUMP JUMPDEST PUSH1 0x2 PUSH1 0xC9 SLOAD SUB PUSH2 0x3E3E JUMPI PUSH1 0x40 MLOAD PUSH3 0x461BCD PUSH1 0xE5 SHL DUP2 MSTORE PUSH1 0x20 PUSH1 0x4 DUP3 ADD MSTORE PUSH1 0x1F PUSH1 0x24 DUP3 ADD MSTORE PUSH32 0x5265656E7472616E637947756172643A207265656E7472616E742063616C6C00 PUSH1 0x44 DUP3 ADD MSTORE PUSH1 0x64 ADD PUSH2 0x425 JUMP JUMPDEST PUSH1 0x2 PUSH1 0xC9 SSTORE JUMP JUMPDEST PUSH1 0x0 DUP1 JUMPDEST PUSH2 0x137 SLOAD DUP2 LT ISZERO PUSH2 0x3EFB JUMPI PUSH2 0x133 PUSH1 0x0 PUSH2 0x137 DUP4 DUP2 SLOAD DUP2 LT PUSH2 0x3E6D JUMPI PUSH2 0x3E6D PUSH2 0x4F04 JUMP JUMPDEST PUSH1 0x0 SWAP2 DUP3 MSTORE PUSH1 0x20 DUP1 DUP4 KECCAK256 SWAP1 SWAP2 ADD SLOAD PUSH1 0x1 PUSH1 0x1 PUSH1 0xA0 SHL SUB AND DUP4 MSTORE DUP3 ADD SWAP3 SWAP1 SWAP3 MSTORE PUSH1 0x40 ADD SWAP1 KECCAK256 PUSH1 0x3 ADD SLOAD PUSH1 0xFF PUSH1 0x1 PUSH1 0xA8 SHL SWAP1 SWAP2 DIV AND ISZERO PUSH2 0x3EF3 JUMPI PUSH2 0x133 PUSH1 0x0 PUSH2 0x137 DUP4 DUP2 SLOAD DUP2 LT PUSH2 0x3EBE JUMPI PUSH2 0x3EBE PUSH2 0x4F04 JUMP JUMPDEST PUSH1 0x0 SWAP2 DUP3 MSTORE PUSH1 0x20 DUP1 DUP4 KECCAK256 SWAP1 SWAP2 ADD SLOAD PUSH1 0x1 PUSH1 0x1 PUSH1 0xA0 SHL SUB AND DUP4 MSTORE DUP3 ADD SWAP3 SWAP1 SWAP3 MSTORE PUSH1 0x40 ADD SWAP1 KECCAK256 PUSH1 0x4 ADD SLOAD PUSH2 0x3EF0 SWAP1 DUP4 PUSH2 0x4EF1 JUMP JUMPDEST SWAP2 POP JUMPDEST PUSH1 0x1 ADD PUSH2 0x3E49 JUMP JUMPDEST POP SWAP1 JUMP JUMPDEST TIMESTAMP PUSH1 0x0 PUSH2 0x3F0F PUSH3 0xED4E00 DUP4 PUSH2 0x4EF1 JUMP JUMPDEST PUSH1 0x40 DUP1 MLOAD PUSH1 0x80 DUP2 ADD DUP3 MSTORE DUP5 DUP2 MSTORE PUSH1 0x20 DUP1 DUP3 ADD DUP5 DUP2 MSTORE PUSH1 0x0 DUP4 DUP6 ADD DUP2 DUP2 MSTORE PUSH1 0x60 DUP6 ADD DUP3 DUP2 MSTORE PUSH2 0x132 DUP1 SLOAD DUP5 MSTORE PUSH2 0x136 DUP7 MSTORE SWAP3 DUP8 SWAP1 KECCAK256 SWAP6 MLOAD DUP7 SSTORE SWAP3 MLOAD PUSH1 0x1 DUP7 ADD SSTORE MLOAD PUSH1 0x2 DUP6 ADD SSTORE SWAP1 MLOAD PUSH1 0x3 SWAP1 SWAP4 ADD DUP1 SLOAD PUSH1 0xFF NOT AND SWAP4 ISZERO ISZERO SWAP4 SWAP1 SWAP4 OR SWAP1 SWAP3 SSTORE SWAP1 SLOAD DUP3 MLOAD DUP7 DUP2 MSTORE SWAP2 DUP3 ADD DUP5 SWAP1 MSTORE SWAP3 SWAP4 POP PUSH32 0x1DDBC5E006A48D33DF8AD1D6858A0B775953BA5D26864F81AE30433229C7862B SWAP2 ADD PUSH1 0x40 MLOAD DUP1 SWAP2 SUB SWAP1 LOG2 POP POP JUMP JUMPDEST PUSH1 0x1 PUSH1 0xC9 SSTORE JUMP JUMPDEST PUSH1 0xFB SLOAD PUSH1 0xFF AND ISZERO PUSH2 0x109A JUMPI PUSH1 0x40 MLOAD PUSH3 0x461BCD PUSH1 0xE5 SHL DUP2 MSTORE PUSH1 0x20 PUSH1 0x4 DUP3 ADD MSTORE PUSH1 0x10 PUSH1 0x24 DUP3 ADD MSTORE PUSH16 0x14185D5CD8589B194E881C185D5CD959 PUSH1 0x82 SHL PUSH1 0x44 DUP3 ADD MSTORE PUSH1 0x64 ADD PUSH2 0x425 JUMP JUMPDEST PUSH2 0x1D6F PUSH2 0x41BC JUMP JUMPDEST PUSH32 0x4910FDFA16FED3260ED0E7147F7CC6DA11A60208B5B9406D12A635614FFD9143 SLOAD PUSH1 0xFF AND ISZERO PUSH2 0x4032 JUMPI PUSH2 0x2D13 DUP4 PUSH2 0x4662 JUMP JUMPDEST DUP3 PUSH1 0x1 PUSH1 0x1 PUSH1 0xA0 SHL SUB AND PUSH4 0x52D1902D PUSH1 0x40 MLOAD DUP2 PUSH4 0xFFFFFFFF AND PUSH1 0xE0 SHL DUP2 MSTORE PUSH1 0x4 ADD PUSH1 0x20 PUSH1 0x40 MLOAD DUP1 DUP4 SUB DUP2 DUP7 GAS STATICCALL SWAP3 POP POP POP DUP1 ISZERO PUSH2 0x408C JUMPI POP PUSH1 0x40 DUP1 MLOAD PUSH1 0x1F RETURNDATASIZE SWAP1 DUP2 ADD PUSH1 0x1F NOT AND DUP3 ADD SWAP1 SWAP3 MSTORE PUSH2 0x4089 SWAP2 DUP2 ADD SWAP1 PUSH2 0x528C JUMP JUMPDEST PUSH1 0x1 JUMPDEST PUSH2 0x40EF JUMPI PUSH1 0x40 MLOAD PUSH3 0x461BCD PUSH1 0xE5 SHL DUP2 MSTORE PUSH1 0x20 PUSH1 0x4 DUP3 ADD MSTORE PUSH1 0x2E PUSH1 0x24 DUP3 ADD MSTORE PUSH32 0x45524331393637557067726164653A206E657720696D706C656D656E74617469 PUSH1 0x44 DUP3 ADD MSTORE PUSH14 0x6F6E206973206E6F742055555053 PUSH1 0x90 SHL PUSH1 0x64 DUP3 ADD MSTORE PUSH1 0x84 ADD PUSH2 0x425 JUMP JUMPDEST PUSH1 0x0 DUP1 MLOAD PUSH1 0x20 PUSH2 0x530D DUP4 CODECOPY DUP2 MLOAD SWAP2 MSTORE DUP2 EQ PUSH2 0x415E JUMPI PUSH1 0x40 MLOAD PUSH3 0x461BCD PUSH1 0xE5 SHL DUP2 MSTORE PUSH1 0x20 PUSH1 0x4 DUP3 ADD MSTORE PUSH1 0x29 PUSH1 0x24 DUP3 ADD MSTORE PUSH32 0x45524331393637557067726164653A20756E737570706F727465642070726F78 PUSH1 0x44 DUP3 ADD MSTORE PUSH9 0x1A58589B1955555251 PUSH1 0xBA SHL PUSH1 0x64 DUP3 ADD MSTORE PUSH1 0x84 ADD PUSH2 0x425 JUMP JUMPDEST POP PUSH2 0x2D13 DUP4 DUP4 DUP4 PUSH2 0x46FE JUMP JUMPDEST PUSH2 0x4172 PUSH2 0x4619 JUMP JUMPDEST PUSH1 0xFB DUP1 SLOAD PUSH1 0xFF NOT AND SWAP1 SSTORE PUSH32 0x5DB9EE0A495BF2E6FF9C91A7834C1BA4FDD244A5E8AA4E537BD38AEAE4B073AA CALLER JUMPDEST PUSH1 0x40 MLOAD PUSH1 0x1 PUSH1 0x1 PUSH1 0xA0 SHL SUB SWAP1 SWAP2 AND DUP2 MSTORE PUSH1 0x20 ADD PUSH1 0x40 MLOAD DUP1 SWAP2 SUB SWAP1 LOG1 JUMP JUMPDEST PUSH1 0x97 SLOAD PUSH1 0x1 PUSH1 0x1 PUSH1 0xA0 SHL SUB AND CALLER EQ PUSH2 0x109A JUMPI PUSH1 0x40 MLOAD PUSH3 0x461BCD PUSH1 0xE5 SHL DUP2 MSTORE PUSH1 0x20 PUSH1 0x4 DUP3 ADD DUP2 SWAP1 MSTORE PUSH1 0x24 DUP3 ADD MSTORE PUSH32 0x4F776E61626C653A2063616C6C6572206973206E6F7420746865206F776E6572 PUSH1 0x44 DUP3 ADD MSTORE PUSH1 0x64 ADD PUSH2 0x425 JUMP JUMPDEST PUSH1 0x97 DUP1 SLOAD PUSH1 0x1 PUSH1 0x1 PUSH1 0xA0 SHL SUB DUP4 DUP2 AND PUSH1 0x1 PUSH1 0x1 PUSH1 0xA0 SHL SUB NOT DUP4 AND DUP2 OR SWAP1 SWAP4 SSTORE PUSH1 0x40 MLOAD SWAP2 AND SWAP2 SWAP1 DUP3 SWAP1 PUSH32 0x8BE0079C531659141344CD1FD0A4F28419497F9722A3DAAFE3B4186F6B6457E0 SWAP1 PUSH1 0x0 SWAP1 LOG3 POP POP JUMP JUMPDEST PUSH1 0x0 SLOAD PUSH2 0x100 SWAP1 DIV PUSH1 0xFF AND PUSH2 0x109A JUMPI PUSH1 0x40 MLOAD PUSH3 0x461BCD PUSH1 0xE5 SHL DUP2 MSTORE PUSH1 0x4 ADD PUSH2 0x425 SWAP1 PUSH2 0x52A5 JUMP JUMPDEST PUSH1 0x0 SLOAD PUSH2 0x100 SWAP1 DIV PUSH1 0xFF AND PUSH2 0x42B6 JUMPI PUSH1 0x40 MLOAD PUSH3 0x461BCD PUSH1 0xE5 SHL DUP2 MSTORE PUSH1 0x4 ADD PUSH2 0x425 SWAP1 PUSH2 0x52A5 JUMP JUMPDEST PUSH2 0x109A PUSH2 0x4729 JUMP JUMPDEST PUSH1 0x0 SLOAD PUSH2 0x100 SWAP1 DIV PUSH1 0xFF AND PUSH2 0x42E5 JUMPI PUSH1 0x40 MLOAD PUSH3 0x461BCD PUSH1 0xE5 SHL DUP2 MSTORE PUSH1 0x4 ADD PUSH2 0x425 SWAP1 PUSH2 0x52A5 JUMP JUMPDEST PUSH2 0x109A PUSH2 0x4759 JUMP JUMPDEST PUSH1 0x0 SLOAD PUSH2 0x100 SWAP1 DIV PUSH1 0xFF AND PUSH2 0x4314 JUMPI PUSH1 0x40 MLOAD PUSH3 0x461BCD PUSH1 0xE5 SHL DUP2 MSTORE PUSH1 0x4 ADD PUSH2 0x425 SWAP1 PUSH2 0x52A5 JUMP JUMPDEST PUSH2 0x109A PUSH2 0x4780 JUMP JUMPDEST PUSH2 0x4324 PUSH2 0x3FB1 JUMP JUMPDEST PUSH1 0xFB DUP1 SLOAD PUSH1 0xFF NOT AND PUSH1 0x1 OR SWAP1 SSTORE PUSH32 0x62E78CEA01BEE320CD4E420270B5EA74000D11B0C9F74754EBDBFC544B05A258 PUSH2 0x419F CALLER SWAP1 JUMP JUMPDEST CALLER PUSH1 0x0 SWAP1 DUP2 MSTORE PUSH2 0x133 PUSH1 0x20 MSTORE PUSH1 0x40 DUP2 KECCAK256 PUSH2 0x4374 DUP4 PUSH1 0x2 PUSH2 0x4EB8 JUMP JUMPDEST PUSH2 0x12F SLOAD LT ISZERO PUSH2 0x4387 JUMPI POP PUSH1 0x0 SWAP3 SWAP2 POP POP JUMP JUMPDEST DUP3 DUP2 PUSH1 0x4 ADD SLOAD LT ISZERO PUSH2 0x439C JUMPI POP PUSH1 0x0 SWAP3 SWAP2 POP POP JUMP JUMPDEST PUSH1 0x0 PUSH1 0x64 PUSH1 0xA PUSH2 0x12F SLOAD PUSH2 0x43B0 SWAP2 SWAP1 PUSH2 0x4EB8 JUMP JUMPDEST PUSH2 0x43BA SWAP2 SWAP1 PUSH2 0x4ECF JUMP JUMPDEST SWAP1 POP DUP1 DUP5 GT ISZERO PUSH2 0x43CE JUMPI POP PUSH1 0x0 SWAP4 SWAP3 POP POP POP JUMP JUMPDEST PUSH2 0x43DC PUSH1 0x1E PUSH3 0x15180 PUSH2 0x4EB8 JUMP JUMPDEST DUP3 PUSH1 0x6 ADD SLOAD PUSH2 0x43EB SWAP2 SWAP1 PUSH2 0x4EF1 JUMP JUMPDEST TIMESTAMP LT ISZERO PUSH2 0x43FC JUMPI POP PUSH1 0x0 SWAP4 SWAP3 POP POP POP JUMP JUMPDEST CALLER PUSH1 0x0 SWAP1 DUP2 MSTORE PUSH2 0x134 PUSH1 0x20 MSTORE PUSH1 0x40 SWAP1 KECCAK256 PUSH1 0x4 SWAP1 DUP2 ADD SLOAD PUSH1 0xFF AND DUP2 DUP2 GT ISZERO PUSH2 0x4425 JUMPI PUSH2 0x4425 PUSH2 0x49B8 JUMP JUMPDEST SUB PUSH2 0x4434 JUMPI POP PUSH1 0x0 SWAP4 SWAP3 POP POP POP JUMP JUMPDEST POP PUSH1 0x1 SWAP4 SWAP3 POP POP POP JUMP JUMPDEST PUSH1 0x0 PUSH2 0x2710 PUSH2 0x444F PUSH2 0x1F4 DUP5 PUSH2 0x4EB8 JUMP JUMPDEST PUSH2 0x4459 SWAP2 SWAP1 PUSH2 0x4ECF JUMP JUMPDEST SWAP1 POP PUSH1 0x0 PUSH2 0x4467 DUP3 DUP5 PUSH2 0x4EF1 JUMP JUMPDEST SWAP1 POP PUSH1 0x0 PUSH2 0x4478 PUSH3 0x278D00 TIMESTAMP PUSH2 0x4EF1 JUMP JUMPDEST SWAP1 POP PUSH1 0x40 MLOAD DUP1 PUSH1 0xA0 ADD PUSH1 0x40 MSTORE DUP1 DUP6 DUP2 MSTORE PUSH1 0x20 ADD DUP4 DUP2 MSTORE PUSH1 0x20 ADD PUSH1 0x0 DUP2 MSTORE PUSH1 0x20 ADD DUP3 DUP2 MSTORE PUSH1 0x20 ADD PUSH1 0x2 PUSH1 0x4 DUP2 GT ISZERO PUSH2 0x44B1 JUMPI PUSH2 0x44B1 PUSH2 0x49B8 JUMP JUMPDEST DUP2 MSTORE POP PUSH2 0x134 PUSH1 0x0 DUP8 PUSH1 0x1 PUSH1 0x1 PUSH1 0xA0 SHL SUB AND PUSH1 0x1 PUSH1 0x1 PUSH1 0xA0 SHL SUB AND DUP2 MSTORE PUSH1 0x20 ADD SWAP1 DUP2 MSTORE PUSH1 0x20 ADD PUSH1 0x0 KECCAK256 PUSH1 0x0 DUP3 ADD MLOAD DUP2 PUSH1 0x0 ADD SSTORE PUSH1 0x20 DUP3 ADD MLOAD DUP2 PUSH1 0x1 ADD SSTORE PUSH1 0x40 DUP3 ADD MLOAD DUP2 PUSH1 0x2 ADD SSTORE PUSH1 0x60 DUP3 ADD MLOAD DUP2 PUSH1 0x3 ADD SSTORE PUSH1 0x80 DUP3 ADD MLOAD DUP2 PUSH1 0x4 ADD PUSH1 0x0 PUSH2 0x100 EXP DUP2 SLOAD DUP2 PUSH1 0xFF MUL NOT AND SWAP1 DUP4 PUSH1 0x4 DUP2 GT ISZERO PUSH2 0x452C JUMPI PUSH2 0x452C PUSH2 0x49B8 JUMP JUMPDEST MUL OR SWAP1 SSTORE POP SWAP1 POP POP DUP4 PUSH2 0x12F PUSH1 0x0 DUP3 DUP3 SLOAD PUSH2 0x4547 SWAP2 SWAP1 PUSH2 0x4EA5 JUMP JUMPDEST SWAP1 SWAP2 SSTORE POP POP PUSH1 0x40 DUP1 MLOAD DUP6 DUP2 MSTORE PUSH1 0x20 DUP2 ADD DUP5 SWAP1 MSTORE SWAP1 DUP2 ADD DUP3 SWAP1 MSTORE TIMESTAMP PUSH1 0x60 DUP3 ADD MSTORE PUSH1 0x1 PUSH1 0x1 PUSH1 0xA0 SHL SUB DUP7 AND SWAP1 PUSH32 0xB9CD2512DD634BB7CDBB1DC9FB2D451A57E0DD9724CF51AB8414ABFE570199A4 SWAP1 PUSH1 0x80 ADD PUSH1 0x40 MLOAD DUP1 SWAP2 SUB SWAP1 LOG2 PUSH1 0x0 DUP6 PUSH1 0x1 PUSH1 0x1 PUSH1 0xA0 SHL SUB AND DUP6 PUSH1 0x40 MLOAD PUSH1 0x0 PUSH1 0x40 MLOAD DUP1 DUP4 SUB DUP2 DUP6 DUP8 GAS CALL SWAP3 POP POP POP RETURNDATASIZE DUP1 PUSH1 0x0 DUP2 EQ PUSH2 0x45EB JUMPI PUSH1 0x40 MLOAD SWAP2 POP PUSH1 0x1F NOT PUSH1 0x3F RETURNDATASIZE ADD AND DUP3 ADD PUSH1 0x40 MSTORE RETURNDATASIZE DUP3 MSTORE RETURNDATASIZE PUSH1 0x0 PUSH1 0x20 DUP5 ADD RETURNDATACOPY PUSH2 0x45F0 JUMP JUMPDEST PUSH1 0x60 SWAP2 POP JUMPDEST POP POP SWAP1 POP DUP1 PUSH2 0x4611 JUMPI PUSH1 0x40 MLOAD PUSH3 0x461BCD PUSH1 0xE5 SHL DUP2 MSTORE PUSH1 0x4 ADD PUSH2 0x425 SWAP1 PUSH2 0x520A JUMP JUMPDEST POP POP POP POP POP POP JUMP JUMPDEST PUSH1 0xFB SLOAD PUSH1 0xFF AND PUSH2 0x109A JUMPI PUSH1 0x40 MLOAD PUSH3 0x461BCD PUSH1 0xE5 SHL DUP2 MSTORE PUSH1 0x20 PUSH1 0x4 DUP3 ADD MSTORE PUSH1 0x14 PUSH1 0x24 DUP3 ADD MSTORE PUSH20 0x14185D5CD8589B194E881B9BDD081C185D5CD959 PUSH1 0x62 SHL PUSH1 0x44 DUP3 ADD MSTORE PUSH1 0x64 ADD PUSH2 0x425 JUMP JUMPDEST PUSH1 0x1 PUSH1 0x1 PUSH1 0xA0 SHL SUB DUP2 AND EXTCODESIZE PUSH2 0x46CF JUMPI PUSH1 0x40 MLOAD PUSH3 0x461BCD PUSH1 0xE5 SHL DUP2 MSTORE PUSH1 0x20 PUSH1 0x4 DUP3 ADD MSTORE PUSH1 0x2D PUSH1 0x24 DUP3 ADD MSTORE PUSH32 0x455243313936373A206E657720696D706C656D656E746174696F6E206973206E PUSH1 0x44 DUP3 ADD MSTORE PUSH13 0x1BDD08184818DBDB9D1C9858DD PUSH1 0x9A SHL PUSH1 0x64 DUP3 ADD MSTORE PUSH1 0x84 ADD PUSH2 0x425 JUMP JUMPDEST PUSH1 0x0 DUP1 MLOAD PUSH1 0x20 PUSH2 0x530D DUP4 CODECOPY DUP2 MLOAD SWAP2 MSTORE DUP1 SLOAD PUSH1 0x1 PUSH1 0x1 PUSH1 0xA0 SHL SUB NOT AND PUSH1 0x1 PUSH1 0x1 PUSH1 0xA0 SHL SUB SWAP3 SWAP1 SWAP3 AND SWAP2 SWAP1 SWAP2 OR SWAP1 SSTORE JUMP JUMPDEST PUSH2 0x4707 DUP4 PUSH2 0x47B3 JUMP JUMPDEST PUSH1 0x0 DUP3 MLOAD GT DUP1 PUSH2 0x4714 JUMPI POP DUP1 JUMPDEST ISZERO PUSH2 0x2D13 JUMPI PUSH2 0x4723 DUP4 DUP4 PUSH2 0x47F3 JUMP JUMPDEST POP POP POP POP JUMP JUMPDEST PUSH1 0x0 SLOAD PUSH2 0x100 SWAP1 DIV PUSH1 0xFF AND PUSH2 0x4750 JUMPI PUSH1 0x40 MLOAD PUSH3 0x461BCD PUSH1 0xE5 SHL DUP2 MSTORE PUSH1 0x4 ADD PUSH2 0x425 SWAP1 PUSH2 0x52A5 JUMP JUMPDEST PUSH2 0x109A CALLER PUSH2 0x4216 JUMP JUMPDEST PUSH1 0x0 SLOAD PUSH2 0x100 SWAP1 DIV PUSH1 0xFF AND PUSH2 0x3FAA JUMPI PUSH1 0x40 MLOAD PUSH3 0x461BCD PUSH1 0xE5 SHL DUP2 MSTORE PUSH1 0x4 ADD PUSH2 0x425 SWAP1 PUSH2 0x52A5 JUMP JUMPDEST PUSH1 0x0 SLOAD PUSH2 0x100 SWAP1 DIV PUSH1 0xFF AND PUSH2 0x47A7 JUMPI PUSH1 0x40 MLOAD PUSH3 0x461BCD PUSH1 0xE5 SHL DUP2 MSTORE PUSH1 0x4 ADD PUSH2 0x425 SWAP1 PUSH2 0x52A5 JUMP JUMPDEST PUSH1 0xFB DUP1 SLOAD PUSH1 0xFF NOT AND SWAP1 SSTORE JUMP JUMPDEST PUSH2 0x47BC DUP2 PUSH2 0x4662 JUMP JUMPDEST PUSH1 0x40 MLOAD PUSH1 0x1 PUSH1 0x1 PUSH1 0xA0 SHL SUB DUP3 AND SWAP1 PUSH32 0xBC7CD75A20EE27FD9ADEBAB32041F755214DBC6BFFA90CC0225B39DA2E5C2D3B SWAP1 PUSH1 0x0 SWAP1 LOG2 POP JUMP JUMPDEST PUSH1 0x60 PUSH2 0x3456 DUP4 DUP4 PUSH1 0x40 MLOAD DUP1 PUSH1 0x60 ADD PUSH1 0x40 MSTORE DUP1 PUSH1 0x27 DUP2 MSTORE PUSH1 0x20 ADD PUSH2 0x532D PUSH1 0x27 SWAP2 CODECOPY PUSH1 0x60 PUSH1 0x0 DUP1 DUP6 PUSH1 0x1 PUSH1 0x1 PUSH1 0xA0 SHL SUB AND DUP6 PUSH1 0x40 MLOAD PUSH2 0x4830 SWAP2 SWAP1 PUSH2 0x52F0 JUMP JUMPDEST PUSH1 0x0 PUSH1 0x40 MLOAD DUP1 DUP4 SUB DUP2 DUP6 GAS DELEGATECALL SWAP2 POP POP RETURNDATASIZE DUP1 PUSH1 0x0 DUP2 EQ PUSH2 0x486B JUMPI PUSH1 0x40 MLOAD SWAP2 POP PUSH1 0x1F NOT PUSH1 0x3F RETURNDATASIZE ADD AND DUP3 ADD PUSH1 0x40 MSTORE RETURNDATASIZE DUP3 MSTORE RETURNDATASIZE PUSH1 0x0 PUSH1 0x20 DUP5 ADD RETURNDATACOPY PUSH2 0x4870 JUMP JUMPDEST PUSH1 0x60 SWAP2 POP JUMPDEST POP SWAP2 POP SWAP2 POP PUSH2 0x4881 DUP7 DUP4 DUP4 DUP8 PUSH2 0x488B JUMP JUMPDEST SWAP7 SWAP6 POP POP POP POP POP POP JUMP JUMPDEST PUSH1 0x60 DUP4 ISZERO PUSH2 0x48FA JUMPI DUP3 MLOAD PUSH1 0x0 SUB PUSH2 0x48F3 JUMPI PUSH1 0x1 PUSH1 0x1 PUSH1 0xA0 SHL SUB DUP6 AND EXTCODESIZE PUSH2 0x48F3 JUMPI PUSH1 0x40 MLOAD PUSH3 0x461BCD PUSH1 0xE5 SHL DUP2 MSTORE PUSH1 0x20 PUSH1 0x4 DUP3 ADD MSTORE PUSH1 0x1D PUSH1 0x24 DUP3 ADD MSTORE PUSH32 0x416464726573733A2063616C6C20746F206E6F6E2D636F6E7472616374000000 PUSH1 0x44 DUP3 ADD MSTORE PUSH1 0x64 ADD PUSH2 0x425 JUMP JUMPDEST POP DUP2 PUSH2 0x4904 JUMP JUMPDEST PUSH2 0x4904 DUP4 DUP4 PUSH2 0x490C JUMP JUMPDEST SWAP5 SWAP4 POP POP POP POP JUMP JUMPDEST DUP2 MLOAD ISZERO PUSH2 0x491C JUMPI DUP2 MLOAD DUP1 DUP4 PUSH1 0x20 ADD REVERT JUMPDEST DUP1 PUSH1 0x40 MLOAD PUSH3 0x461BCD PUSH1 0xE5 SHL DUP2 MSTORE PUSH1 0x4 ADD PUSH2 0x425 SWAP2 SWAP1 PUSH2 0x4D51 JUMP JUMPDEST DUP1 CALLDATALOAD PUSH1 0x1 PUSH1 0x1 PUSH1 0xA0 SHL SUB DUP2 AND DUP2 EQ PUSH2 0x2BE8 JUMPI PUSH1 0x0 DUP1 REVERT JUMPDEST PUSH1 0x0 PUSH1 0x20 DUP3 DUP5 SUB SLT ISZERO PUSH2 0x495F JUMPI PUSH1 0x0 DUP1 REVERT JUMPDEST PUSH2 0x3456 DUP3 PUSH2 0x4936 JUMP JUMPDEST PUSH1 0x0 JUMPDEST DUP4 DUP2 LT ISZERO PUSH2 0x4983 JUMPI DUP2 DUP2 ADD MLOAD DUP4 DUP3 ADD MSTORE PUSH1 0x20 ADD PUSH2 0x496B JUMP JUMPDEST POP POP PUSH1 0x0 SWAP2 ADD MSTORE JUMP JUMPDEST PUSH1 0x0 DUP2 MLOAD DUP1 DUP5 MSTORE PUSH2 0x49A4 DUP2 PUSH1 0x20 DUP7 ADD PUSH1 0x20 DUP7 ADD PUSH2 0x4968 JUMP JUMPDEST PUSH1 0x1F ADD PUSH1 0x1F NOT AND SWAP3 SWAP1 SWAP3 ADD PUSH1 0x20 ADD SWAP3 SWAP2 POP POP JUMP JUMPDEST PUSH4 0x4E487B71 PUSH1 0xE0 SHL PUSH1 0x0 MSTORE PUSH1 0x21 PUSH1 0x4 MSTORE PUSH1 0x24 PUSH1 0x0 REVERT JUMPDEST PUSH1 0x4 DUP2 LT PUSH2 0x49DE JUMPI PUSH2 0x49DE PUSH2 0x49B8 JUMP JUMPDEST SWAP1 MSTORE JUMP JUMPDEST PUSH1 0x0 PUSH2 0x140 DUP1 DUP4 MSTORE PUSH2 0x49F6 DUP2 DUP5 ADD DUP15 PUSH2 0x498C JUMP JUMPDEST SWAP1 POP DUP3 DUP2 SUB PUSH1 0x20 DUP5 ADD MSTORE PUSH2 0x4A0A DUP2 DUP14 PUSH2 0x498C JUMP JUMPDEST SWAP1 POP DUP3 DUP2 SUB PUSH1 0x40 DUP5 ADD MSTORE PUSH2 0x4A1E DUP2 DUP13 PUSH2 0x498C JUMP JUMPDEST SWAP2 POP POP PUSH1 0x1 DUP1 PUSH1 0xA0 SHL SUB DUP10 AND PUSH1 0x60 DUP4 ADD MSTORE DUP8 ISZERO ISZERO PUSH1 0x80 DUP4 ADD MSTORE DUP7 ISZERO ISZERO PUSH1 0xA0 DUP4 ADD MSTORE DUP6 PUSH1 0xC0 DUP4 ADD MSTORE DUP5 PUSH1 0xE0 DUP4 ADD MSTORE DUP4 PUSH2 0x100 DUP4 ADD MSTORE PUSH2 0x4A60 PUSH2 0x120 DUP4 ADD DUP5 PUSH2 0x49CE JUMP JUMPDEST SWAP12 SWAP11 POP POP POP POP POP POP POP POP POP POP POP JUMP JUMPDEST PUSH1 0x0 PUSH1 0x20 DUP3 DUP5 SUB SLT ISZERO PUSH2 0x4A81 JUMPI PUSH1 0x0 DUP1 REVERT JUMPDEST POP CALLDATALOAD SWAP2 SWAP1 POP JUMP JUMPDEST PUSH1 0x0 PUSH2 0x120 DUP1 DUP4 MSTORE PUSH2 0x4A9C DUP2 DUP5 ADD DUP14 PUSH2 0x498C JUMP JUMPDEST SWAP1 POP DUP3 DUP2 SUB PUSH1 0x20 DUP5 ADD MSTORE PUSH2 0x4AB0 DUP2 DUP13 PUSH2 0x498C JUMP JUMPDEST SWAP1 POP DUP3 DUP2 SUB PUSH1 0x40 DUP5 ADD MSTORE PUSH2 0x4AC4 DUP2 DUP12 PUSH2 0x498C JUMP JUMPDEST SWAP2 POP POP DUP8 ISZERO ISZERO PUSH1 0x60 DUP4 ADD MSTORE DUP7 ISZERO ISZERO PUSH1 0x80 DUP4 ADD MSTORE DUP6 PUSH1 0xA0 DUP4 ADD MSTORE DUP5 PUSH1 0xC0 DUP4 ADD MSTORE DUP4 PUSH1 0xE0 DUP4 ADD MSTORE PUSH2 0x4AF7 PUSH2 0x100 DUP4 ADD DUP5 PUSH2 0x49CE JUMP JUMPDEST SWAP11 SWAP10 POP POP POP POP POP POP POP POP POP POP JUMP JUMPDEST PUSH1 0x0 DUP1 DUP4 PUSH1 0x1F DUP5 ADD SLT PUSH2 0x4B17 JUMPI PUSH1 0x0 DUP1 REVERT JUMPDEST POP DUP2 CALLDATALOAD PUSH8 0xFFFFFFFFFFFFFFFF DUP2 GT ISZERO PUSH2 0x4B2F JUMPI PUSH1 0x0 DUP1 REVERT JUMPDEST PUSH1 0x20 DUP4 ADD SWAP2 POP DUP4 PUSH1 0x20 DUP3 DUP6 ADD ADD GT ISZERO PUSH2 0x4B47 JUMPI PUSH1 0x0 DUP1 REVERT JUMPDEST SWAP3 POP SWAP3 SWAP1 POP JUMP JUMPDEST DUP1 CALLDATALOAD PUSH1 0x4 DUP2 LT PUSH2 0x2BE8 JUMPI PUSH1 0x0 DUP1 REVERT JUMPDEST PUSH1 0x0 DUP1 PUSH1 0x0 DUP1 PUSH1 0x0 DUP1 PUSH1 0x0 DUP1 PUSH1 0xA0 DUP10 DUP12 SUB SLT ISZERO PUSH2 0x4B79 JUMPI PUSH1 0x0 DUP1 REVERT JUMPDEST DUP9 CALLDATALOAD PUSH8 0xFFFFFFFFFFFFFFFF DUP1 DUP3 GT ISZERO PUSH2 0x4B91 JUMPI PUSH1 0x0 DUP1 REVERT JUMPDEST PUSH2 0x4B9D DUP13 DUP4 DUP14 ADD PUSH2 0x4B05 JUMP JUMPDEST SWAP1 SWAP11 POP SWAP9 POP PUSH1 0x20 DUP12 ADD CALLDATALOAD SWAP2 POP DUP1 DUP3 GT ISZERO PUSH2 0x4BB6 JUMPI PUSH1 0x0 DUP1 REVERT JUMPDEST PUSH2 0x4BC2 DUP13 DUP4 DUP14 ADD PUSH2 0x4B05 JUMP JUMPDEST SWAP1 SWAP9 POP SWAP7 POP PUSH1 0x40 DUP12 ADD CALLDATALOAD SWAP2 POP DUP1 DUP3 GT ISZERO PUSH2 0x4BDB JUMPI PUSH1 0x0 DUP1 REVERT JUMPDEST POP PUSH2 0x4BE8 DUP12 DUP3 DUP13 ADD PUSH2 0x4B05 JUMP JUMPDEST SWAP1 SWAP6 POP SWAP4 POP PUSH2 0x4BFB SWAP1 POP PUSH1 0x60 DUP11 ADD PUSH2 0x4936 JUMP JUMPDEST SWAP2 POP PUSH2 0x4C09 PUSH1 0x80 DUP11 ADD PUSH2 0x4B4E JUMP JUMPDEST SWAP1 POP SWAP3 SWAP6 SWAP9 POP SWAP3 SWAP6 SWAP9 SWAP1 SWAP4 SWAP7 POP JUMP JUMPDEST PUSH1 0x5 DUP2 LT PUSH2 0x49DE JUMPI PUSH2 0x49DE PUSH2 0x49B8 JUMP JUMPDEST PUSH1 0x0 PUSH1 0xC0 DUP3 ADD SWAP1 POP DUP8 DUP3 MSTORE DUP7 PUSH1 0x20 DUP4 ADD MSTORE DUP6 PUSH1 0x40 DUP4 ADD MSTORE DUP5 PUSH1 0x60 DUP4 ADD MSTORE DUP4 PUSH1 0x80 DUP4 ADD MSTORE PUSH2 0x4C58 PUSH1 0xA0 DUP4 ADD DUP5 PUSH2 0x4C18 JUMP JUMPDEST SWAP8 SWAP7 POP POP POP POP POP POP POP JUMP JUMPDEST PUSH4 0x4E487B71 PUSH1 0xE0 SHL PUSH1 0x0 MSTORE PUSH1 0x41 PUSH1 0x4 MSTORE PUSH1 0x24 PUSH1 0x0 REVERT JUMPDEST PUSH1 0x0 PUSH8 0xFFFFFFFFFFFFFFFF DUP1 DUP5 GT ISZERO PUSH2 0x4C94 JUMPI PUSH2 0x4C94 PUSH2 0x4C63 JUMP JUMPDEST PUSH1 0x40 MLOAD PUSH1 0x1F DUP6 ADD PUSH1 0x1F NOT SWAP1 DUP2 AND PUSH1 0x3F ADD AND DUP2 ADD SWAP1 DUP3 DUP3 GT DUP2 DUP4 LT OR ISZERO PUSH2 0x4CBC JUMPI PUSH2 0x4CBC PUSH2 0x4C63 JUMP JUMPDEST DUP2 PUSH1 0x40 MSTORE DUP1 SWAP4 POP DUP6 DUP2 MSTORE DUP7 DUP7 DUP7 ADD GT ISZERO PUSH2 0x4CD5 JUMPI PUSH1 0x0 DUP1 REVERT JUMPDEST DUP6 DUP6 PUSH1 0x20 DUP4 ADD CALLDATACOPY PUSH1 0x0 PUSH1 0x20 DUP8 DUP4 ADD ADD MSTORE POP POP POP SWAP4 SWAP3 POP POP POP JUMP JUMPDEST PUSH1 0x0 DUP1 PUSH1 0x40 DUP4 DUP6 SUB SLT ISZERO PUSH2 0x4D02 JUMPI PUSH1 0x0 DUP1 REVERT JUMPDEST PUSH2 0x4D0B DUP4 PUSH2 0x4936 JUMP JUMPDEST SWAP2 POP PUSH1 0x20 DUP4 ADD CALLDATALOAD PUSH8 0xFFFFFFFFFFFFFFFF DUP2 GT ISZERO PUSH2 0x4D27 JUMPI PUSH1 0x0 DUP1 REVERT JUMPDEST DUP4 ADD PUSH1 0x1F DUP2 ADD DUP6 SGT PUSH2 0x4D38 JUMPI PUSH1 0x0 DUP1 REVERT JUMPDEST PUSH2 0x4D47 DUP6 DUP3 CALLDATALOAD PUSH1 0x20 DUP5 ADD PUSH2 0x4C79 JUMP JUMPDEST SWAP2 POP POP SWAP3 POP SWAP3 SWAP1 POP JUMP JUMPDEST PUSH1 0x20 DUP2 MSTORE PUSH1 0x0 PUSH2 0x3456 PUSH1 0x20 DUP4 ADD DUP5 PUSH2 0x498C JUMP JUMPDEST PUSH1 0x0 DUP1 PUSH1 0x40 DUP4 DUP6 SUB SLT ISZERO PUSH2 0x4D77 JUMPI PUSH1 0x0 DUP1 REVERT JUMPDEST PUSH2 0x4D80 DUP4 PUSH2 0x4936 JUMP JUMPDEST SWAP5 PUSH1 0x20 SWAP4 SWAP1 SWAP4 ADD CALLDATALOAD SWAP4 POP POP POP JUMP JUMPDEST PUSH1 0x20 DUP1 DUP3 MSTORE DUP3 MLOAD DUP3 DUP3 ADD DUP2 SWAP1 MSTORE PUSH1 0x0 SWAP2 SWAP1 DUP5 DUP3 ADD SWAP1 PUSH1 0x40 DUP6 ADD SWAP1 DUP5 JUMPDEST DUP2 DUP2 LT ISZERO PUSH2 0x4DCF JUMPI DUP4 MLOAD PUSH1 0x1 PUSH1 0x1 PUSH1 0xA0 SHL SUB AND DUP4 MSTORE SWAP3 DUP5 ADD SWAP3 SWAP2 DUP5 ADD SWAP2 PUSH1 0x1 ADD PUSH2 0x4DAA JUMP JUMPDEST POP SWAP1 SWAP7 SWAP6 POP POP POP POP POP POP JUMP JUMPDEST PUSH1 0x20 DUP2 ADD PUSH2 0x22A1 DUP3 DUP5 PUSH2 0x49CE JUMP JUMPDEST PUSH1 0x0 PUSH1 0xA0 DUP3 ADD SWAP1 POP DUP7 DUP3 MSTORE DUP6 PUSH1 0x20 DUP4 ADD MSTORE DUP5 PUSH1 0x40 DUP4 ADD MSTORE DUP4 PUSH1 0x60 DUP4 ADD MSTORE PUSH2 0x4881 PUSH1 0x80 DUP4 ADD DUP5 PUSH2 0x4C18 JUMP JUMPDEST PUSH1 0x0 PUSH1 0x20 DUP3 DUP5 SUB SLT ISZERO PUSH2 0x4E25 JUMPI PUSH1 0x0 DUP1 REVERT JUMPDEST DUP2 CALLDATALOAD PUSH8 0xFFFFFFFFFFFFFFFF DUP2 GT ISZERO PUSH2 0x4E3C JUMPI PUSH1 0x0 DUP1 REVERT JUMPDEST DUP3 ADD PUSH1 0x1F DUP2 ADD DUP5 SGT PUSH2 0x4E4D JUMPI PUSH1 0x0 DUP1 REVERT JUMPDEST PUSH2 0x4904 DUP5 DUP3 CALLDATALOAD PUSH1 0x20 DUP5 ADD PUSH2 0x4C79 JUMP JUMPDEST PUSH1 0x0 DUP1 PUSH1 0x40 DUP4 DUP6 SUB SLT ISZERO PUSH2 0x4E6F JUMPI PUSH1 0x0 DUP1 REVERT JUMPDEST PUSH2 0x4E78 DUP4 PUSH2 0x4936 JUMP JUMPDEST SWAP2 POP PUSH2 0x4E86 PUSH1 0x20 DUP5 ADD PUSH2 0x4B4E JUMP JUMPDEST SWAP1 POP SWAP3 POP SWAP3 SWAP1 POP JUMP JUMPDEST PUSH4 0x4E487B71 PUSH1 0xE0 SHL PUSH1 0x0 MSTORE PUSH1 0x11 PUSH1 0x4 MSTORE PUSH1 0x24 PUSH1 0x0 REVERT JUMPDEST DUP2 DUP2 SUB DUP2 DUP2 GT ISZERO PUSH2 0x22A1 JUMPI PUSH2 0x22A1 PUSH2 0x4E8F JUMP JUMPDEST DUP1 DUP3 MUL DUP2 ISZERO DUP3 DUP3 DIV DUP5 EQ OR PUSH2 0x22A1 JUMPI PUSH2 0x22A1 PUSH2 0x4E8F JUMP JUMPDEST PUSH1 0x0 DUP3 PUSH2 0x4EEC JUMPI PUSH4 0x4E487B71 PUSH1 0xE0 SHL PUSH1 0x0 MSTORE PUSH1 0x12 PUSH1 0x4 MSTORE PUSH1 0x24 PUSH1 0x0 REVERT JUMPDEST POP DIV SWAP1 JUMP JUMPDEST DUP1 DUP3 ADD DUP1 DUP3 GT ISZERO PUSH2 0x22A1 JUMPI PUSH2 0x22A1 PUSH2 0x4E8F JUMP JUMPDEST PUSH4 0x4E487B71 PUSH1 0xE0 SHL PUSH1 0x0 MSTORE PUSH1 0x32 PUSH1 0x4 MSTORE PUSH1 0x24 PUSH1 0x0 REVERT JUMPDEST PUSH1 0x0 PUSH1 0x1 DUP3 ADD PUSH2 0x4F2C JUMPI PUSH2 0x4F2C PUSH2 0x4E8F JUMP JUMPDEST POP PUSH1 0x1 ADD SWAP1 JUMP JUMPDEST PUSH1 0x1 DUP2 DUP2 SHR SWAP1 DUP3 AND DUP1 PUSH2 0x4F47 JUMPI PUSH1 0x7F DUP3 AND SWAP2 POP JUMPDEST PUSH1 0x20 DUP3 LT DUP2 SUB PUSH2 0x2BE6 JUMPI PUSH4 0x4E487B71 PUSH1 0xE0 SHL PUSH1 0x0 MSTORE PUSH1 0x22 PUSH1 0x4 MSTORE PUSH1 0x24 PUSH1 0x0 REVERT JUMPDEST PUSH1 0x20 DUP1 DUP3 MSTORE PUSH1 0x1C SWAP1 DUP3 ADD MSTORE PUSH32 0x496B696D696E613A2063616C6C6572206973206E6F742061646D696E00000000 PUSH1 0x40 DUP3 ADD MSTORE PUSH1 0x60 ADD SWAP1 JUMP JUMPDEST PUSH1 0x20 DUP1 DUP3 MSTORE PUSH1 0x1D SWAP1 DUP3 ADD MSTORE PUSH32 0x496B696D696E613A206E6F7420616E20616374697665206D656D626572000000 PUSH1 0x40 DUP3 ADD MSTORE PUSH1 0x60 ADD SWAP1 JUMP JUMPDEST PUSH1 0x0 DUP2 PUSH2 0x4FE4 JUMPI PUSH2 0x4FE4 PUSH2 0x4E8F JUMP JUMPDEST POP PUSH1 0x0 NOT ADD SWAP1 JUMP JUMPDEST PUSH1 0x1F DUP3 GT ISZERO PUSH2 0x2D13 JUMPI PUSH1 0x0 DUP2 PUSH1 0x0 MSTORE PUSH1 0x20 PUSH1 0x0 KECCAK256 PUSH1 0x1F DUP6 ADD PUSH1 0x5 SHR DUP2 ADD PUSH1 0x20 DUP7 LT ISZERO PUSH2 0x5015 JUMPI POP DUP1 JUMPDEST PUSH1 0x1F DUP6 ADD PUSH1 0x5 SHR DUP3 ADD SWAP2 POP JUMPDEST DUP2 DUP2 LT ISZERO PUSH2 0x4611 JUMPI DUP3 DUP2 SSTORE PUSH1 0x1 ADD PUSH2 0x5021 JUMP JUMPDEST DUP2 MLOAD PUSH8 0xFFFFFFFFFFFFFFFF DUP2 GT ISZERO PUSH2 0x504E JUMPI PUSH2 0x504E PUSH2 0x4C63 JUMP JUMPDEST PUSH2 0x5062 DUP2 PUSH2 0x505C DUP5 SLOAD PUSH2 0x4F33 JUMP JUMPDEST DUP5 PUSH2 0x4FEC JUMP JUMPDEST PUSH1 0x20 DUP1 PUSH1 0x1F DUP4 GT PUSH1 0x1 DUP2 EQ PUSH2 0x5097 JUMPI PUSH1 0x0 DUP5 ISZERO PUSH2 0x507F JUMPI POP DUP6 DUP4 ADD MLOAD JUMPDEST PUSH1 0x0 NOT PUSH1 0x3 DUP7 SWAP1 SHL SHR NOT AND PUSH1 0x1 DUP6 SWAP1 SHL OR DUP6 SSTORE PUSH2 0x4611 JUMP JUMPDEST PUSH1 0x0 DUP6 DUP2 MSTORE PUSH1 0x20 DUP2 KECCAK256 PUSH1 0x1F NOT DUP7 AND SWAP2 JUMPDEST DUP3 DUP2 LT ISZERO PUSH2 0x50C6 JUMPI DUP9 DUP7 ADD MLOAD DUP3 SSTORE SWAP5 DUP5 ADD SWAP5 PUSH1 0x1 SWAP1 SWAP2 ADD SWAP1 DUP5 ADD PUSH2 0x50A7 JUMP JUMPDEST POP DUP6 DUP3 LT ISZERO PUSH2 0x50E4 JUMPI DUP8 DUP6 ADD MLOAD PUSH1 0x0 NOT PUSH1 0x3 DUP9 SWAP1 SHL PUSH1 0xF8 AND SHR NOT AND DUP2 SSTORE JUMPDEST POP POP POP POP POP PUSH1 0x1 SWAP1 DUP2 SHL ADD SWAP1 SSTORE POP JUMP JUMPDEST PUSH1 0x60 DUP2 MSTORE DUP4 PUSH1 0x60 DUP3 ADD MSTORE DUP4 DUP6 PUSH1 0x80 DUP4 ADD CALLDATACOPY PUSH1 0x0 PUSH1 0x80 DUP6 DUP4 ADD ADD MSTORE PUSH1 0x0 PUSH1 0x80 PUSH1 0x1F NOT PUSH1 0x1F DUP8 ADD AND DUP4 ADD ADD SWAP1 POP PUSH2 0x512C PUSH1 0x20 DUP4 ADD DUP6 PUSH2 0x49CE JUMP JUMPDEST DUP3 PUSH1 0x40 DUP4 ADD MSTORE SWAP6 SWAP5 POP POP POP POP POP JUMP JUMPDEST PUSH1 0x20 DUP1 DUP3 MSTORE PUSH1 0x2C SWAP1 DUP3 ADD MSTORE PUSH32 0x46756E6374696F6E206D7573742062652063616C6C6564207468726F75676820 PUSH1 0x40 DUP3 ADD MSTORE PUSH12 0x19195B1959D85D1958D85B1B PUSH1 0xA2 SHL PUSH1 0x60 DUP3 ADD MSTORE PUSH1 0x80 ADD SWAP1 JUMP JUMPDEST PUSH1 0x20 DUP1 DUP3 MSTORE PUSH1 0x2C SWAP1 DUP3 ADD MSTORE PUSH32 0x46756E6374696F6E206D7573742062652063616C6C6564207468726F75676820 PUSH1 0x40 DUP3 ADD MSTORE PUSH12 0x6163746976652070726F7879 PUSH1 0xA0 SHL PUSH1 0x60 DUP3 ADD MSTORE PUSH1 0x80 ADD SWAP1 JUMP JUMPDEST PUSH1 0x20 DUP1 DUP3 MSTORE PUSH1 0x17 SWAP1 DUP3 ADD MSTORE PUSH32 0x496B696D696E613A206E6F7420617574686F72697A6564000000000000000000 PUSH1 0x40 DUP3 ADD MSTORE PUSH1 0x60 ADD SWAP1 JUMP JUMPDEST PUSH1 0x20 DUP1 DUP3 MSTORE PUSH1 0x1C SWAP1 DUP3 ADD MSTORE PUSH32 0x496B696D696E613A20455448207472616E73666572206661696C656400000000 PUSH1 0x40 DUP3 ADD MSTORE PUSH1 0x60 ADD SWAP1 JUMP JUMPDEST PUSH1 0x40 DUP2 MSTORE PUSH1 0x0 PUSH2 0x5254 PUSH1 0x40 DUP4 ADD DUP6 PUSH2 0x498C JUMP JUMPDEST SWAP1 POP DUP3 PUSH1 0x20 DUP4 ADD MSTORE SWAP4 SWAP3 POP POP POP JUMP JUMPDEST PUSH1 0x60 DUP2 ADD PUSH2 0x5271 DUP3 DUP7 PUSH2 0x49CE JUMP JUMPDEST PUSH2 0x527E PUSH1 0x20 DUP4 ADD DUP6 PUSH2 0x49CE JUMP JUMPDEST DUP3 PUSH1 0x40 DUP4 ADD MSTORE SWAP5 SWAP4 POP POP POP POP JUMP JUMPDEST PUSH1 0x0 PUSH1 0x20 DUP3 DUP5 SUB SLT ISZERO PUSH2 0x529E JUMPI PUSH1 0x0 DUP1 REVERT JUMPDEST POP MLOAD SWAP2 SWAP1 POP JUMP JUMPDEST PUSH1 0x20 DUP1 DUP3 MSTORE PUSH1 0x2B SWAP1 DUP3 ADD MSTORE PUSH32 0x496E697469616C697A61626C653A20636F6E7472616374206973206E6F742069 PUSH1 0x40 DUP3 ADD MSTORE PUSH11 0x6E697469616C697A696E67 PUSH1 0xA8 SHL PUSH1 0x60 DUP3 ADD MSTORE PUSH1 0x80 ADD SWAP1 JUMP JUMPDEST PUSH1 0x0 DUP3 MLOAD PUSH2 0x5302 DUP2 DUP5 PUSH1 0x20 DUP8 ADD PUSH2 0x4968 JUMP JUMPDEST SWAP2 SWAP1 SWAP2 ADD SWAP3 SWAP2 POP POP JUMP INVALID CALLDATASIZE ADDMOD SWAP5 LOG1 EXTCODESIZE LOG1 LOG3 0x21 MOD PUSH8 0xC828492DB98DCA3E KECCAK256 PUSH23 0xCC3735A920A3CA505D382BBC416464726573733A206C6F PUSH24 0x2D6C6576656C2064656C65676174652063616C6C20666169 PUSH13 0x6564A26469706673582212201F 0xF PUSH24 0x9C57780528923D7466ED6D16FEDF7DBA1D28942474D301A1 0xA9 DUP7 0xEE PUSH8 0x6764736F6C634300 ADDMOD XOR STOP CALLER "},"methodIdentifiers":{"AUTO_APPROVAL_MAX_PERCENTAGE()":"735af25d","DIVIDEND_BPS()":"8d7036de","INTEREST_BPS()":"bc03bfee","LATE_PENALTY_BPS()":"eec98724","LOAN_DURATION()":"e02a4dfd","LOAN_MULTIPLIER()":"7dbdfe7c","MAX_LOAN_PERCENTAGE()":"d46cedd3","MAX_MEMBERS()":"ea0e35b1","MIN_CONTRIBUTION()":"40650c91","NEW_MEMBER_TENURE_DAYS()":"710cb8e3","REQUIRED_RESERVE_PERCENTAGE()":"ca9f25a8","TERM_DURATION()":"a3dbd329","acceptAdminTransfer()":"17aee51f","admin()":"f851a440","approveLoan(uint256)":"aadc1ac1","autoApprovedCount()":"529a564b","claimDividends()":"668038e0","contractBalance()":"8b7afe2e","contribute()":"d7bb99ba","currentTermId()":"eee26862","distributeDividends()":"03c83302","emergencyWithdraw(address,uint256)":"95ccea67","flagDefault(address)":"de48078c","getAvailableLoanCapacity()":"004a0de7","getCurrentTerm()":"92ecf577","getLoan(address)":"33481fc9","getLoanRequest(uint256)":"1b3b8671","getMember(address)":"2ada2596","getMemberList()":"5f5d5f00","getMemberRole(address)":"69639749","getPoolBasedMaxLoan()":"b64e6fdc","initialize()":"8129fc1c","initiateAdminTransfer(address)":"ab6c12df","isLeader(address)":"db512e85","lastUpgradeTimestamp()":"a620f8a5","loanRequestCount()":"b786f978","loanRequests(uint256)":"d1b332f4","loans(address)":"73b4086b","manuallyApprovedCount()":"1db79db5","maxLoanAmount(address)":"d119c636","memberCount()":"11aee380","memberList(uint256)":"b307fc6d","members(address)":"08ae4b0c","owner()":"8da5cb5b","pause()":"8456cb59","paused()":"5c975abb","pendingAdmin()":"26782247","proxiableUUID()":"52d1902d","qualifiesForAutoApproval(address,uint256)":"5d678cba","register(string,string,string,address,uint8)":"2f1994cc","rejectLoan(uint256)":"5d29cb98","removeMember(address)":"0b1ca49a","renounceOwnership()":"715018a6","repayLoan()":"f966ade7","requestLoan(uint256)":"8d5d3429","reservePool()":"0266f044","terms(uint256)":"c0aa0e8a","totalPool()":"ecfb49a3","transferOwnership(address)":"f2fde38b","unpause()":"3f4ba83a","updateMemberRole(address,uint8)":"acc5baa3","upgradeTo(address)":"3659cfe6","upgradeToAndCall(address,bytes)":"4f1ef286","upgradeVersion(string)":"9de6f3e4","version()":"54fd4d50","withdrawSavings(uint256)":"de986450"}},"storageLayout":{"storage":[{"astId":505,"contract":"contracts/IkiminaV1.sol:IkiminaV1","label":"_initialized","offset":0,"slot":"0","type":"t_uint8"},{"astId":508,"contract":"contracts/IkiminaV1.sol:IkiminaV1","label":"_initializing","offset":1,"slot":"0","type":"t_bool"},{"astId":487,"contract":"contracts/IkiminaV1.sol:IkiminaV1","label":"__gap","offset":0,"slot":"1","type":"t_array(t_uint256)50_storage"},{"astId":803,"contract":"contracts/IkiminaV1.sol:IkiminaV1","label":"__gap","offset":0,"slot":"51","type":"t_array(t_uint256)50_storage"},{"astId":1397,"contract":"contracts/IkiminaV1.sol:IkiminaV1","label":"__gap","offset":0,"slot":"101","type":"t_array(t_uint256)50_storage"},{"astId":11,"contract":"contracts/IkiminaV1.sol:IkiminaV1","label":"_owner","offset":0,"slot":"151","type":"t_address"},{"astId":131,"contract":"contracts/IkiminaV1.sol:IkiminaV1","label":"__gap","offset":0,"slot":"152","type":"t_array(t_uint256)49_storage"},{"astId":947,"contract":"contracts/IkiminaV1.sol:IkiminaV1","label":"_status","offset":0,"slot":"201","type":"t_uint256"},{"astId":1016,"contract":"contracts/IkiminaV1.sol:IkiminaV1","label":"__gap","offset":0,"slot":"202","type":"t_array(t_uint256)49_storage"},{"astId":826,"contract":"contracts/IkiminaV1.sol:IkiminaV1","label":"_paused","offset":0,"slot":"251","type":"t_bool"},{"astId":931,"contract":"contracts/IkiminaV1.sol:IkiminaV1","label":"__gap","offset":0,"slot":"252","type":"t_array(t_uint256)49_storage"},{"astId":3462,"contract":"contracts/IkiminaV1.sol:IkiminaV1","label":"admin","offset":0,"slot":"301","type":"t_address"},{"astId":3464,"contract":"contracts/IkiminaV1.sol:IkiminaV1","label":"pendingAdmin","offset":0,"slot":"302","type":"t_address"},{"astId":3466,"contract":"contracts/IkiminaV1.sol:IkiminaV1","label":"totalPool","offset":0,"slot":"303","type":"t_uint256"},{"astId":3468,"contract":"contracts/IkiminaV1.sol:IkiminaV1","label":"reservePool","offset":0,"slot":"304","type":"t_uint256"},{"astId":3470,"contract":"contracts/IkiminaV1.sol:IkiminaV1","label":"memberCount","offset":0,"slot":"305","type":"t_uint256"},{"astId":3472,"contract":"contracts/IkiminaV1.sol:IkiminaV1","label":"currentTermId","offset":0,"slot":"306","type":"t_uint256"},{"astId":3477,"contract":"contracts/IkiminaV1.sol:IkiminaV1","label":"members","offset":0,"slot":"307","type":"t_mapping(t_address,t_struct(Member)3428_storage)"},{"astId":3482,"contract":"contracts/IkiminaV1.sol:IkiminaV1","label":"loans","offset":0,"slot":"308","type":"t_mapping(t_address,t_struct(Loan)3440_storage)"},{"astId":3487,"contract":"contracts/IkiminaV1.sol:IkiminaV1","label":"loanRequests","offset":0,"slot":"309","type":"t_mapping(t_uint256,t_struct(LoanRequest)3451_storage)"},{"astId":3492,"contract":"contracts/IkiminaV1.sol:IkiminaV1","label":"terms","offset":0,"slot":"310","type":"t_mapping(t_uint256,t_struct(Term)3460_storage)"},{"astId":3495,"contract":"contracts/IkiminaV1.sol:IkiminaV1","label":"memberList","offset":0,"slot":"311","type":"t_array(t_address)dyn_storage"},{"astId":3497,"contract":"contracts/IkiminaV1.sol:IkiminaV1","label":"loanRequestCount","offset":0,"slot":"312","type":"t_uint256"},{"astId":3499,"contract":"contracts/IkiminaV1.sol:IkiminaV1","label":"autoApprovedCount","offset":0,"slot":"313","type":"t_uint256"},{"astId":3501,"contract":"contracts/IkiminaV1.sol:IkiminaV1","label":"manuallyApprovedCount","offset":0,"slot":"314","type":"t_uint256"},{"astId":3503,"contract":"contracts/IkiminaV1.sol:IkiminaV1","label":"version","offset":0,"slot":"315","type":"t_string_storage"},{"astId":3505,"contract":"contracts/IkiminaV1.sol:IkiminaV1","label":"lastUpgradeTimestamp","offset":0,"slot":"316","type":"t_uint256"}],"types":{"t_address":{"encoding":"inplace","label":"address","numberOfBytes":"20"},"t_array(t_address)dyn_storage":{"base":"t_address","encoding":"dynamic_array","label":"address[]","numberOfBytes":"32"},"t_array(t_uint256)49_storage":{"base":"t_uint256","encoding":"inplace","label":"uint256[49]","numberOfBytes":"1568"},"t_array(t_uint256)50_storage":{"base":"t_uint256","encoding":"inplace","label":"uint256[50]","numberOfBytes":"1600"},"t_bool":{"encoding":"inplace","label":"bool","numberOfBytes":"1"},"t_enum(LoanStatus)3401":{"encoding":"inplace","label":"enum IkiminaV1.LoanStatus","numberOfBytes":"1"},"t_enum(MemberRole)3406":{"encoding":"inplace","label":"enum IkiminaV1.MemberRole","numberOfBytes":"1"},"t_mapping(t_address,t_struct(Loan)3440_storage)":{"encoding":"mapping","key":"t_address","label":"mapping(address => struct IkiminaV1.Loan)","numberOfBytes":"32","value":"t_struct(Loan)3440_storage"},"t_mapping(t_address,t_struct(Member)3428_storage)":{"encoding":"mapping","key":"t_address","label":"mapping(address => struct IkiminaV1.Member)","numberOfBytes":"32","value":"t_struct(Member)3428_storage"},"t_mapping(t_uint256,t_struct(LoanRequest)3451_storage)":{"encoding":"mapping","key":"t_uint256","label":"mapping(uint256 => struct IkiminaV1.LoanRequest)","numberOfBytes":"32","value":"t_struct(LoanRequest)3451_storage"},"t_mapping(t_uint256,t_struct(Term)3460_storage)":{"encoding":"mapping","key":"t_uint256","label":"mapping(uint256 => struct IkiminaV1.Term)","numberOfBytes":"32","value":"t_struct(Term)3460_storage"},"t_string_storage":{"encoding":"bytes","label":"string","numberOfBytes":"32"},"t_struct(Loan)3440_storage":{"encoding":"inplace","label":"struct IkiminaV1.Loan","members":[{"astId":3430,"contract":"contracts/IkiminaV1.sol:IkiminaV1","label":"principal","offset":0,"slot":"0","type":"t_uint256"},{"astId":3432,"contract":"contracts/IkiminaV1.sol:IkiminaV1","label":"totalOwed","offset":0,"slot":"1","type":"t_uint256"},{"astId":3434,"contract":"contracts/IkiminaV1.sol:IkiminaV1","label":"amountRepaid","offset":0,"slot":"2","type":"t_uint256"},{"astId":3436,"contract":"contracts/IkiminaV1.sol:IkiminaV1","label":"deadline","offset":0,"slot":"3","type":"t_uint256"},{"astId":3439,"contract":"contracts/IkiminaV1.sol:IkiminaV1","label":"status","offset":0,"slot":"4","type":"t_enum(LoanStatus)3401"}],"numberOfBytes":"160"},"t_struct(LoanRequest)3451_storage":{"encoding":"inplace","label":"struct IkiminaV1.LoanRequest","members":[{"astId":3442,"contract":"contracts/IkiminaV1.sol:IkiminaV1","label":"borrower","offset":0,"slot":"0","type":"t_address"},{"astId":3444,"contract":"contracts/IkiminaV1.sol:IkiminaV1","label":"amount","offset":0,"slot":"1","type":"t_uint256"},{"astId":3446,"contract":"contracts/IkiminaV1.sol:IkiminaV1","label":"requestedAt","offset":0,"slot":"2","type":"t_uint256"},{"astId":3448,"contract":"contracts/IkiminaV1.sol:IkiminaV1","label":"approved","offset":0,"slot":"3","type":"t_bool"},{"astId":3450,"contract":"contracts/IkiminaV1.sol:IkiminaV1","label":"rejected","offset":1,"slot":"3","type":"t_bool"}],"numberOfBytes":"128"},"t_struct(Member)3428_storage":{"encoding":"inplace","label":"struct IkiminaV1.Member","members":[{"astId":3408,"contract":"contracts/IkiminaV1.sol:IkiminaV1","label":"name","offset":0,"slot":"0","type":"t_string_storage"},{"astId":3410,"contract":"contracts/IkiminaV1.sol:IkiminaV1","label":"email","offset":0,"slot":"1","type":"t_string_storage"},{"astId":3412,"contract":"contracts/IkiminaV1.sol:IkiminaV1","label":"phone","offset":0,"slot":"2","type":"t_string_storage"},{"astId":3414,"contract":"contracts/IkiminaV1.sol:IkiminaV1","label":"wallet","offset":0,"slot":"3","type":"t_address"},{"astId":3416,"contract":"contracts/IkiminaV1.sol:IkiminaV1","label":"isRegistered","offset":20,"slot":"3","type":"t_bool"},{"astId":3418,"contract":"contracts/IkiminaV1.sol:IkiminaV1","label":"isActive","offset":21,"slot":"3","type":"t_bool"},{"astId":3420,"contract":"contracts/IkiminaV1.sol:IkiminaV1","label":"savings","offset":0,"slot":"4","type":"t_uint256"},{"astId":3422,"contract":"contracts/IkiminaV1.sol:IkiminaV1","label":"pendingDividends","offset":0,"slot":"5","type":"t_uint256"},{"astId":3424,"contract":"contracts/IkiminaV1.sol:IkiminaV1","label":"joinedAt","offset":0,"slot":"6","type":"t_uint256"},{"astId":3427,"contract":"contracts/IkiminaV1.sol:IkiminaV1","label":"role","offset":0,"slot":"7","type":"t_enum(MemberRole)3406"}],"numberOfBytes":"256"},"t_struct(Term)3460_storage":{"encoding":"inplace","label":"struct IkiminaV1.Term","members":[{"astId":3453,"contract":"contracts/IkiminaV1.sol:IkiminaV1","label":"startTime","offset":0,"slot":"0","type":"t_uint256"},{"astId":3455,"contract":"contracts/IkiminaV1.sol:IkiminaV1","label":"endTime","offset":0,"slot":"1","type":"t_uint256"},{"astId":3457,"contract":"contracts/IkiminaV1.sol:IkiminaV1","label":"interestCollected","offset":0,"slot":"2","type":"t_uint256"},{"astId":3459,"contract":"contracts/IkiminaV1.sol:IkiminaV1","label":"distributed","offset":0,"slot":"3","type":"t_bool"}],"numberOfBytes":"128"},"t_uint256":{"encoding":"inplace","label":"uint256","numberOfBytes":"32"},"t_uint8":{"encoding":"inplace","label":"uint8","numberOfBytes":"1"}}}}}}