{
  "_format": "hh-sol-artifact-1",
  "contractName": "IkiminaV1",
  "sourceName": "contracts/IkiminaV1.sol",
  "abi": [
    {
      "anonymous": false,
      "inputs": [
        {
          "indexed": false,
          "internalType": "address",
          "name": "previousAdmin",
          "type": "address"
        },
        {
          "indexed": false,
          "internalType": "address",
          "name": "newAdmin",
          "type": "address"
        }
      ],
      "name": "AdminChanged",
      "type": "event"
    },
    {
      "anonymous": false,
      "inputs": [
        {
          "indexed": true,
          "internalType": "address",
          "name": "beacon",
          "type": "address"
        }
      ],
      "name": "BeaconUpgraded",
      "type": "event"
    },
    {
      "anonymous": false,
      "inputs": [
        {
          "indexed": true,
          "internalType": "address",
          "name": "implementation",
          "type": "address"
        },
        {
          "indexed": false,
          "internalType": "string",
          "name": "newVersion",
          "type": "string"
        },
        {
          "indexed": false,
          "internalType": "uint256",
          "name": "timestamp",
          "type": "uint256"
        }
      ],
      "name": "ContractUpgraded",
      "type": "event"
    },
    {
      "anonymous": false,
      "inputs": [
        {
          "indexed": true,
          "internalType": "address",
          "name": "member",
          "type": "address"
        },
        {
          "indexed": false,
          "internalType": "uint256",
          "name": "amount",
          "type": "uint256"
        },
        {
          "indexed": false,
          "internalType": "uint256",
          "name": "newSavings",
          "type": "uint256"
        },
        {
          "indexed": false,
          "internalType": "uint256",
          "name": "newTotalPool",
          "type": "uint256"
        },
        {
          "indexed": false,
          "internalType": "uint256",
          "name": "timestamp",
          "type": "uint256"
        }
      ],
      "name": "ContributionMade",
      "type": "event"
    },
    {
      "anonymous": false,
      "inputs": [
        {
          "indexed": true,
          "internalType": "address",
          "name": "member",
          "type": "address"
        },
        {
          "indexed": false,
          "internalType": "uint256",
          "name": "amount",
          "type": "uint256"
        },
        {
          "indexed": false,
          "internalType": "uint256",
          "name": "timestamp",
          "type": "uint256"
        }
      ],
      "name": "DividendClaimed",
      "type": "event"
    },
    {
      "anonymous": false,
      "inputs": [
        {
          "indexed": true,
          "internalType": "uint256",
          "name": "termId",
          "type": "uint256"
        },
        {
          "indexed": false,
          "internalType": "uint256",
          "name": "totalDividend",
          "type": "uint256"
        },
        {
          "indexed": false,
          "internalType": "uint256",
          "name": "memberShare",
          "type": "uint256"
        },
        {
          "indexed": false,
          "internalType": "uint256",
          "name": "timestamp",
          "type": "uint256"
        }
      ],
      "name": "DividendDistributed",
      "type": "event"
    },
    {
      "anonymous": false,
      "inputs": [
        {
          "indexed": false,
          "internalType": "uint8",
          "name": "version",
          "type": "uint8"
        }
      ],
      "name": "Initialized",
      "type": "event"
    },
    {
      "anonymous": false,
      "inputs": [
        {
          "indexed": true,
          "internalType": "uint256",
          "name": "requestId",
          "type": "uint256"
        },
        {
          "indexed": true,
          "internalType": "address",
          "name": "borrower",
          "type": "address"
        },
        {
          "indexed": false,
          "internalType": "uint256",
          "name": "amount",
          "type": "uint256"
        },
        {
          "indexed": false,
          "internalType": "uint256",
          "name": "timestamp",
          "type": "uint256"
        }
      ],
      "name": "LoanApproved",
      "type": "event"
    },
    {
      "anonymous": false,
      "inputs": [
        {
          "indexed": true,
          "internalType": "address",
          "name": "borrower",
          "type": "address"
        },
        {
          "indexed": false,
          "internalType": "uint256",
          "name": "amount",
          "type": "uint256"
        },
        {
          "indexed": false,
          "internalType": "uint256",
          "name": "totalOwed",
          "type": "uint256"
        },
        {
          "indexed": false,
          "internalType": "uint256",
          "name": "deadline",
          "type": "uint256"
        },
        {
          "indexed": false,
          "internalType": "uint256",
          "name": "timestamp",
          "type": "uint256"
        }
      ],
      "name": "LoanAutoApproved",
      "type": "event"
    },
    {
      "anonymous": false,
      "inputs": [
        {
          "indexed": true,
          "internalType": "address",
          "name": "borrower",
          "type": "address"
        },
        {
          "indexed": false,
          "internalType": "uint256",
          "name": "amountOwed",
          "type": "uint256"
        },
        {
          "indexed": false,
          "internalType": "uint256",
          "name": "deadline",
          "type": "uint256"
        },
        {
          "indexed": false,
          "internalType": "uint256",
          "name": "timestamp",
          "type": "uint256"
        }
      ],
      "name": "LoanDefaulted",
      "type": "event"
    },
    {
      "anonymous": false,
      "inputs": [
        {
          "indexed": true,
          "internalType": "address",
          "name": "borrower",
          "type": "address"
        },
        {
          "indexed": false,
          "internalType": "uint256",
          "name": "principal",
          "type": "uint256"
        },
        {
          "indexed": false,
          "internalType": "uint256",
          "name": "totalOwed",
          "type": "uint256"
        },
        {
          "indexed": false,
          "internalType": "uint256",
          "name": "deadline",
          "type": "uint256"
        },
        {
          "indexed": false,
          "internalType": "uint256",
          "name": "timestamp",
          "type": "uint256"
        }
      ],
      "name": "LoanDisbursed",
      "type": "event"
    },
    {
      "anonymous": false,
      "inputs": [
        {
          "indexed": true,
          "internalType": "uint256",
          "name": "requestId",
          "type": "uint256"
        },
        {
          "indexed": true,
          "internalType": "address",
          "name": "borrower",
          "type": "address"
        },
        {
          "indexed": false,
          "internalType": "uint256",
          "name": "timestamp",
          "type": "uint256"
        }
      ],
      "name": "LoanRejected",
      "type": "event"
    },
    {
      "anonymous": false,
      "inputs": [
        {
          "indexed": true,
          "internalType": "address",
          "name": "borrower",
          "type": "address"
        },
        {
          "indexed": false,
          "internalType": "uint256",
          "name": "amountPaid",
          "type": "uint256"
        },
        {
          "indexed": false,
          "internalType": "uint256",
          "name": "remainingOwed",
          "type": "uint256"
        },
        {
          "indexed": false,
          "internalType": "bool",
          "name": "loanClosed",
          "type": "bool"
        },
        {
          "indexed": false,
          "internalType": "uint256",
          "name": "timestamp",
          "type": "uint256"
        }
      ],
      "name": "LoanRepaid",
      "type": "event"
    },
    {
      "anonymous": false,
      "inputs": [
        {
          "indexed": true,
          "internalType": "uint256",
          "name": "requestId",
          "type": "uint256"
        },
        {
          "indexed": true,
          "internalType": "address",
          "name": "borrower",
          "type": "address"
        },
        {
          "indexed": false,
          "internalType": "uint256",
          "name": "amount",
          "type": "uint256"
        },
        {
          "indexed": false,
          "internalType": "bool",
          "name": "autoApproved",
          "type": "bool"
        },
        {
          "indexed": false,
          "internalType": "uint256",
          "name": "timestamp",
          "type": "uint256"
        }
      ],
      "name": "LoanRequested",
      "type": "event"
    },
    {
      "anonymous": false,
      "inputs": [
        {
          "indexed": true,
          "internalType": "address",
          "name": "wallet",
          "type": "address"
        },
        {
          "indexed": false,
          "internalType": "string",
          "name": "name",
          "type": "string"
        },
        {
          "indexed": false,
          "internalType": "enum IkiminaV1.MemberRole",
          "name": "role",
          "type": "uint8"
        },
        {
          "indexed": false,
          "internalType": "uint256",
          "name": "timestamp",
          "type": "uint256"
        }
      ],
      "name": "MemberRegistered",
      "type": "event"
    },
    {
      "anonymous": false,
      "inputs": [
        {
          "indexed": true,
          "internalType": "address",
          "name": "wallet",
          "type": "address"
        },
        {
          "indexed": false,
          "internalType": "uint256",
          "name": "timestamp",
          "type": "uint256"
        }
      ],
      "name": "MemberRemoved",
      "type": "event"
    },
    {
      "anonymous": false,
      "inputs": [
        {
          "indexed": true,
          "internalType": "address",
          "name": "previousOwner",
          "type": "address"
        },
        {
          "indexed": true,
          "internalType": "address",
          "name": "newOwner",
          "type": "address"
        }
      ],
      "name": "OwnershipTransferred",
      "type": "event"
    },
    {
      "anonymous": false,
      "inputs": [
        {
          "indexed": false,
          "internalType": "address",
          "name": "account",
          "type": "address"
        }
      ],
      "name": "Paused",
      "type": "event"
    },
    {
      "anonymous": false,
      "inputs": [
        {
          "indexed": true,
          "internalType": "address",
          "name": "borrower",
          "type": "address"
        },
        {
          "indexed": false,
          "internalType": "uint256",
          "name": "penaltyAmount",
          "type": "uint256"
        },
        {
          "indexed": false,
          "internalType": "uint256",
          "name": "timestamp",
          "type": "uint256"
        }
      ],
      "name": "PenaltyApplied",
      "type": "event"
    },
    {
      "anonymous": false,
      "inputs": [
        {
          "indexed": true,
          "internalType": "address",
          "name": "member",
          "type": "address"
        },
        {
          "indexed": false,
          "internalType": "enum IkiminaV1.MemberRole",
          "name": "oldRole",
          "type": "uint8"
        },
        {
          "indexed": false,
          "internalType": "enum IkiminaV1.MemberRole",
          "name": "newRole",
          "type": "uint8"
        },
        {
          "indexed": false,
          "internalType": "uint256",
          "name": "timestamp",
          "type": "uint256"
        }
      ],
      "name": "RoleUpdated",
      "type": "event"
    },
    {
      "anonymous": false,
      "inputs": [
        {
          "indexed": true,
          "internalType": "uint256",
          "name": "termId",
          "type": "uint256"
        },
        {
          "indexed": false,
          "internalType": "uint256",
          "name": "startTime",
          "type": "uint256"
        },
        {
          "indexed": false,
          "internalType": "uint256",
          "name": "endTime",
          "type": "uint256"
        }
      ],
      "name": "TermStarted",
      "type": "event"
    },
    {
      "anonymous": false,
      "inputs": [
        {
          "indexed": false,
          "internalType": "address",
          "name": "account",
          "type": "address"
        }
      ],
      "name": "Unpaused",
      "type": "event"
    },
    {
      "anonymous": false,
      "inputs": [
        {
          "indexed": true,
          "internalType": "address",
          "name": "implementation",
          "type": "address"
        }
      ],
      "name": "Upgraded",
      "type": "event"
    },
    {
      "anonymous": false,
      "inputs": [
        {
          "indexed": true,
          "internalType": "address",
          "name": "member",
          "type": "address"
        },
        {
          "indexed": false,
          "internalType": "uint256",
          "name": "amount",
          "type": "uint256"
        },
        {
          "indexed": false,
          "internalType": "uint256",
          "name": "remainingSavings",
          "type": "uint256"
        },
        {
          "indexed": false,
          "internalType": "uint256",
          "name": "timestamp",
          "type": "uint256"
        }
      ],
      "name": "WithdrawalMade",
      "type": "event"
    },
    {
      "stateMutability": "payable",
      "type": "fallback"
    },
    {
      "inputs": [],
      "name": "AUTO_APPROVAL_MAX_PERCENTAGE",
      "outputs": [
        {
          "internalType": "uint256",
          "name": "",
          "type": "uint256"
        }
      ],
      "stateMutability": "view",
      "type": "function"
    },
    {
      "inputs": [],
      "name": "DIVIDEND_BPS",
      "outputs": [
        {
          "internalType": "uint256",
          "name": "",
          "type": "uint256"
        }
      ],
      "stateMutability": "view",
      "type": "function"
    },
    {
      "inputs": [],
      "name": "INTEREST_BPS",
      "outputs": [
        {
          "internalType": "uint256",
          "name": "",
          "type": "uint256"
        }
      ],
      "stateMutability": "view",
      "type": "function"
    },
    {
      "inputs": [],
      "name": "LATE_PENALTY_BPS",
      "outputs": [
        {
          "internalType": "uint256",
          "name": "",
          "type": "uint256"
        }
      ],
      "stateMutability": "view",
      "type": "function"
    },
    {
      "inputs": [],
      "name": "LOAN_DURATION",
      "outputs": [
        {
          "internalType": "uint256",
          "name": "",
          "type": "uint256"
        }
      ],
      "stateMutability": "view",
      "type": "function"
    },
    {
      "inputs": [],
      "name": "LOAN_MULTIPLIER",
      "outputs": [
        {
          "internalType": "uint256",
          "name": "",
          "type": "uint256"
        }
      ],
      "stateMutability": "view",
      "type": "function"
    },
    {
      "inputs": [],
      "name": "MAX_LOAN_PERCENTAGE",
      "outputs": [
        {
          "internalType": "uint256",
          "name": "",
          "type": "uint256"
        }
      ],
      "stateMutability": "view",
      "type": "function"
    },
    {
      "inputs": [],
      "name": "MAX_MEMBERS",
      "outputs": [
        {
          "internalType": "uint256",
          "name": "",
          "type": "uint256"
        }
      ],
      "stateMutability": "view",
      "type": "function"
    },
    {
      "inputs": [],
      "name": "MIN_CONTRIBUTION",
      "outputs": [
        {
          "internalType": "uint256",
          "name": "",
          "type": "uint256"
        }
      ],
      "stateMutability": "view",
      "type": "function"
    },
    {
      "inputs": [],
      "name": "NEW_MEMBER_TENURE_DAYS",
      "outputs": [
        {
          "internalType": "uint256",
          "name": "",
          "type": "uint256"
        }
      ],
      "stateMutability": "view",
      "type": "function"
    },
    {
      "inputs": [],
      "name": "REQUIRED_RESERVE_PERCENTAGE",
      "outputs": [
        {
          "internalType": "uint256",
          "name": "",
          "type": "uint256"
        }
      ],
      "stateMutability": "view",
      "type": "function"
    },
    {
      "inputs": [],
      "name": "TERM_DURATION",
      "outputs": [
        {
          "internalType": "uint256",
          "name": "",
          "type": "uint256"
        }
      ],
      "stateMutability": "view",
      "type": "function"
    },
    {
      "inputs": [],
      "name": "acceptAdminTransfer",
      "outputs": [],
      "stateMutability": "nonpayable",
      "type": "function"
    },
    {
      "inputs": [],
      "name": "admin",
      "outputs": [
        {
          "internalType": "address",
          "name": "",
          "type": "address"
        }
      ],
      "stateMutability": "view",
      "type": "function"
    },
    {
      "inputs": [
        {
          "internalType": "uint256",
          "name": "_requestId",
          "type": "uint256"
        }
      ],
      "name": "approveLoan",
      "outputs": [],
      "stateMutability": "nonpayable",
      "type": "function"
    },
    {
      "inputs": [],
      "name": "autoApprovedCount",
      "outputs": [
        {
          "internalType": "uint256",
          "name": "",
          "type": "uint256"
        }
      ],
      "stateMutability": "view",
      "type": "function"
    },
    {
      "inputs": [
        {
          "internalType": "address",
          "name": "",
          "type": "address"
        }
      ],
      "name": "canAddMembers",
      "outputs": [
        {
          "internalType": "bool",
          "name": "",
          "type": "bool"
        }
      ],
      "stateMutability": "view",
      "type": "function"
    },
    {
      "inputs": [],
      "name": "claimDividends",
      "outputs": [],
      "stateMutability": "nonpayable",
      "type": "function"
    },
    {
      "inputs": [],
      "name": "contractBalance",
      "outputs": [
        {
          "internalType": "uint256",
          "name": "",
          "type": "uint256"
        }
      ],
      "stateMutability": "view",
      "type": "function"
    },
    {
      "inputs": [],
      "name": "contribute",
      "outputs": [],
      "stateMutability": "payable",
      "type": "function"
    },
    {
      "inputs": [],
      "name": "currentTermId",
      "outputs": [
        {
          "internalType": "uint256",
          "name": "",
          "type": "uint256"
        }
      ],
      "stateMutability": "view",
      "type": "function"
    },
    {
      "inputs": [],
      "name": "distributeDividends",
      "outputs": [],
      "stateMutability": "nonpayable",
      "type": "function"
    },
    {
      "inputs": [
        {
          "internalType": "address",
          "name": "_to",
          "type": "address"
        },
        {
          "internalType": "uint256",
          "name": "_amount",
          "type": "uint256"
        }
      ],
      "name": "emergencyWithdraw",
      "outputs": [],
      "stateMutability": "nonpayable",
      "type": "function"
    },
    {
      "inputs": [
        {
          "internalType": "address",
          "name": "_borrower",
          "type": "address"
        }
      ],
      "name": "flagDefault",
      "outputs": [],
      "stateMutability": "nonpayable",
      "type": "function"
    },
    {
      "inputs": [],
      "name": "getAvailableLoanCapacity",
      "outputs": [
        {
          "internalType": "uint256",
          "name": "",
          "type": "uint256"
        }
      ],
      "stateMutability": "view",
      "type": "function"
    },
    {
      "inputs": [],
      "name": "getCurrentTerm",
      "outputs": [
        {
          "internalType": "uint256",
          "name": "termId",
          "type": "uint256"
        },
        {
          "internalType": "uint256",
          "name": "startTime",
          "type": "uint256"
        },
        {
          "internalType": "uint256",
          "name": "endTime",
          "type": "uint256"
        },
        {
          "internalType": "uint256",
          "name": "interestCollected",
          "type": "uint256"
        },
        {
          "internalType": "bool",
          "name": "distributed",
          "type": "bool"
        }
      ],
      "stateMutability": "view",
      "type": "function"
    },
    {
      "inputs": [
        {
          "internalType": "address",
          "name": "_wallet",
          "type": "address"
        }
      ],
      "name": "getLoan",
      "outputs": [
        {
          "internalType": "uint256",
          "name": "principal",
          "type": "uint256"
        },
        {
          "internalType": "uint256",
          "name": "totalOwed",
          "type": "uint256"
        },
        {
          "internalType": "uint256",
          "name": "amountRepaid",
          "type": "uint256"
        },
        {
          "internalType": "uint256",
          "name": "remainingOwed",
          "type": "uint256"
        },
        {
          "internalType": "uint256",
          "name": "deadline",
          "type": "uint256"
        },
        {
          "internalType": "enum IkiminaV1.LoanStatus",
          "name": "status",
          "type": "uint8"
        }
      ],
      "stateMutability": "view",
      "type": "function"
    },
    {
      "inputs": [
        {
          "internalType": "uint256",
          "name": "_requestId",
          "type": "uint256"
        }
      ],
      "name": "getLoanRequest",
      "outputs": [
        {
          "internalType": "address",
          "name": "borrower",
          "type": "address"
        },
        {
          "internalType": "uint256",
          "name": "amount",
          "type": "uint256"
        },
        {
          "internalType": "uint256",
          "name": "requestedAt",
          "type": "uint256"
        },
        {
          "internalType": "bool",
          "name": "approved",
          "type": "bool"
        },
        {
          "internalType": "bool",
          "name": "rejected",
          "type": "bool"
        }
      ],
      "stateMutability": "view",
      "type": "function"
    },
    {
      "inputs": [
        {
          "internalType": "address",
          "name": "_wallet",
          "type": "address"
        }
      ],
      "name": "getMember",
      "outputs": [
        {
          "internalType": "string",
          "name": "name",
          "type": "string"
        },
        {
          "internalType": "string",
          "name": "email",
          "type": "string"
        },
        {
          "internalType": "string",
          "name": "phone",
          "type": "string"
        },
        {
          "internalType": "bool",
          "name": "isRegistered",
          "type": "bool"
        },
        {
          "internalType": "bool",
          "name": "isActive",
          "type": "bool"
        },
        {
          "internalType": "uint256",
          "name": "savings",
          "type": "uint256"
        },
        {
          "internalType": "uint256",
          "name": "pendingDividends",
          "type": "uint256"
        },
        {
          "internalType": "uint256",
          "name": "joinedAt",
          "type": "uint256"
        },
        {
          "internalType": "enum IkiminaV1.MemberRole",
          "name": "role",
          "type": "uint8"
        }
      ],
      "stateMutability": "view",
      "type": "function"
    },
    {
      "inputs": [],
      "name": "getMemberList",
      "outputs": [
        {
          "internalType": "address[]",
          "name": "",
          "type": "address[]"
        }
      ],
      "stateMutability": "view",
      "type": "function"
    },
    {
      "inputs": [
        {
          "internalType": "address",
          "name": "_wallet",
          "type": "address"
        }
      ],
      "name": "getMemberRole",
      "outputs": [
        {
          "internalType": "enum IkiminaV1.MemberRole",
          "name": "",
          "type": "uint8"
        }
      ],
      "stateMutability": "view",
      "type": "function"
    },
    {
      "inputs": [],
      "name": "getPoolBasedMaxLoan",
      "outputs": [
        {
          "internalType": "uint256",
          "name": "",
          "type": "uint256"
        }
      ],
      "stateMutability": "view",
      "type": "function"
    },
    {
      "inputs": [],
      "name": "initialize",
      "outputs": [],
      "stateMutability": "nonpayable",
      "type": "function"
    },
    {
      "inputs": [
        {
          "internalType": "address",
          "name": "_newAdmin",
          "type": "address"
        }
      ],
      "name": "initiateAdminTransfer",
      "outputs": [],
      "stateMutability": "nonpayable",
      "type": "function"
    },
    {
      "inputs": [
        {
          "internalType": "address",
          "name": "_wallet",
          "type": "address"
        }
      ],
      "name": "isLeader",
      "outputs": [
        {
          "internalType": "bool",
          "name": "",
          "type": "bool"
        }
      ],
      "stateMutability": "view",
      "type": "function"
    },
    {
      "inputs": [],
      "name": "lastUpgradeTimestamp",
      "outputs": [
        {
          "internalType": "uint256",
          "name": "",
          "type": "uint256"
        }
      ],
      "stateMutability": "view",
      "type": "function"
    },
    {
      "inputs": [],
      "name": "loanRequestCount",
      "outputs": [
        {
          "internalType": "uint256",
          "name": "",
          "type": "uint256"
        }
      ],
      "stateMutability": "view",
      "type": "function"
    },
    {
      "inputs": [
        {
          "internalType": "uint256",
          "name": "",
          "type": "uint256"
        }
      ],
      "name": "loanRequests",
      "outputs": [
        {
          "internalType": "address",
          "name": "borrower",
          "type": "address"
        },
        {
          "internalType": "uint256",
          "name": "amount",
          "type": "uint256"
        },
        {
          "internalType": "uint256",
          "name": "requestedAt",
          "type": "uint256"
        },
        {
          "internalType": "bool",
          "name": "approved",
          "type": "bool"
        },
        {
          "internalType": "bool",
          "name": "rejected",
          "type": "bool"
        }
      ],
      "stateMutability": "view",
      "type": "function"
    },
    {
      "inputs": [
        {
          "internalType": "address",
          "name": "",
          "type": "address"
        }
      ],
      "name": "loans",
      "outputs": [
        {
          "internalType": "uint256",
          "name": "principal",
          "type": "uint256"
        },
        {
          "internalType": "uint256",
          "name": "totalOwed",
          "type": "uint256"
        },
        {
          "internalType": "uint256",
          "name": "amountRepaid",
          "type": "uint256"
        },
        {
          "internalType": "uint256",
          "name": "deadline",
          "type": "uint256"
        },
        {
          "internalType": "enum IkiminaV1.LoanStatus",
          "name": "status",
          "type": "uint8"
        }
      ],
      "stateMutability": "view",
      "type": "function"
    },
    {
      "inputs": [],
      "name": "manuallyApprovedCount",
      "outputs": [
        {
          "internalType": "uint256",
          "name": "",
          "type": "uint256"
        }
      ],
      "stateMutability": "view",
      "type": "function"
    },
    {
      "inputs": [
        {
          "internalType": "address",
          "name": "_wallet",
          "type": "address"
        }
      ],
      "name": "maxLoanAmount",
      "outputs": [
        {
          "internalType": "uint256",
          "name": "",
          "type": "uint256"
        }
      ],
      "stateMutability": "view",
      "type": "function"
    },
    {
      "inputs": [],
      "name": "memberCount",
      "outputs": [
        {
          "internalType": "uint256",
          "name": "",
          "type": "uint256"
        }
      ],
      "stateMutability": "view",
      "type": "function"
    },
    {
      "inputs": [
        {
          "internalType": "uint256",
          "name": "",
          "type": "uint256"
        }
      ],
      "name": "memberList",
      "outputs": [
        {
          "internalType": "address",
          "name": "",
          "type": "address"
        }
      ],
      "stateMutability": "view",
      "type": "function"
    },
    {
      "inputs": [
        {
          "internalType": "address",
          "name": "",
          "type": "address"
        }
      ],
      "name": "members",
      "outputs": [
        {
          "internalType": "string",
          "name": "name",
          "type": "string"
        },
        {
          "internalType": "string",
          "name": "email",
          "type": "string"
        },
        {
          "internalType": "string",
          "name": "phone",
          "type": "string"
        },
        {
          "internalType": "address",
          "name": "wallet",
          "type": "address"
        },
        {
          "internalType": "bool",
          "name": "isRegistered",
          "type": "bool"
        },
        {
          "internalType": "bool",
          "name": "isActive",
          "type": "bool"
        },
        {
          "internalType": "uint256",
          "name": "savings",
          "type": "uint256"
        },
        {
          "internalType": "uint256",
          "name": "pendingDividends",
          "type": "uint256"
        },
        {
          "internalType": "uint256",
          "name": "joinedAt",
          "type": "uint256"
        },
        {
          "internalType": "enum IkiminaV1.MemberRole",
          "name": "role",
          "type": "uint8"
        }
      ],
      "stateMutability": "view",
      "type": "function"
    },
    {
      "inputs": [],
      "name": "owner",
      "outputs": [
        {
          "internalType": "address",
          "name": "",
          "type": "address"
        }
      ],
      "stateMutability": "view",
      "type": "function"
    },
    {
      "inputs": [],
      "name": "pause",
      "outputs": [],
      "stateMutability": "nonpayable",
      "type": "function"
    },
    {
      "inputs": [],
      "name": "paused",
      "outputs": [
        {
          "internalType": "bool",
          "name": "",
          "type": "bool"
        }
      ],
      "stateMutability": "view",
      "type": "function"
    },
    {
      "inputs": [],
      "name": "pendingAdmin",
      "outputs": [
        {
          "internalType": "address",
          "name": "",
          "type": "address"
        }
      ],
      "stateMutability": "view",
      "type": "function"
    },
    {
      "inputs": [],
      "name": "proxiableUUID",
      "outputs": [
        {
          "internalType": "bytes32",
          "name": "",
          "type": "bytes32"
        }
      ],
      "stateMutability": "view",
      "type": "function"
    },
    {
      "inputs": [
        {
          "internalType": "address",
          "name": "_member",
          "type": "address"
        },
        {
          "internalType": "uint256",
          "name": "_amount",
          "type": "uint256"
        }
      ],
      "name": "qualifiesForAutoApproval",
      "outputs": [
        {
          "internalType": "bool",
          "name": "",
          "type": "bool"
        }
      ],
      "stateMutability": "view",
      "type": "function"
    },
    {
      "inputs": [
        {
          "internalType": "string",
          "name": "_name",
          "type": "string"
        },
        {
          "internalType": "string",
          "name": "_email",
          "type": "string"
        },
        {
          "internalType": "string",
          "name": "_phone",
          "type": "string"
        },
        {
          "internalType": "address",
          "name": "_wallet",
          "type": "address"
        },
        {
          "internalType": "enum IkiminaV1.MemberRole",
          "name": "_role",
          "type": "uint8"
        }
      ],
      "name": "register",
      "outputs": [],
      "stateMutability": "nonpayable",
      "type": "function"
    },
    {
      "inputs": [
        {
          "internalType": "uint256",
          "name": "_requestId",
          "type": "uint256"
        }
      ],
      "name": "rejectLoan",
      "outputs": [],
      "stateMutability": "nonpayable",
      "type": "function"
    },
    {
      "inputs": [
        {
          "internalType": "address",
          "name": "_wallet",
          "type": "address"
        }
      ],
      "name": "removeMember",
      "outputs": [],
      "stateMutability": "nonpayable",
      "type": "function"
    },
    {
      "inputs": [],
      "name": "renounceOwnership",
      "outputs": [],
      "stateMutability": "nonpayable",
      "type": "function"
    },
    {
      "inputs": [],
      "name": "repayLoan",
      "outputs": [],
      "stateMutability": "payable",
      "type": "function"
    },
    {
      "inputs": [
        {
          "internalType": "uint256",
          "name": "_amount",
          "type": "uint256"
        }
      ],
      "name": "requestLoan",
      "outputs": [
        {
          "internalType": "uint256",
          "name": "requestId",
          "type": "uint256"
        }
      ],
      "stateMutability": "nonpayable",
      "type": "function"
    },
    {
      "inputs": [],
      "name": "reservePool",
      "outputs": [
        {
          "internalType": "uint256",
          "name": "",
          "type": "uint256"
        }
      ],
      "stateMutability": "view",
      "type": "function"
    },
    {
      "inputs": [
        {
          "internalType": "uint256",
          "name": "",
          "type": "uint256"
        }
      ],
      "name": "terms",
      "outputs": [
        {
          "internalType": "uint256",
          "name": "startTime",
          "type": "uint256"
        },
        {
          "internalType": "uint256",
          "name": "endTime",
          "type": "uint256"
        },
        {
          "internalType": "uint256",
          "name": "interestCollected",
          "type": "uint256"
        },
        {
          "internalType": "bool",
          "name": "distributed",
          "type": "bool"
        }
      ],
      "stateMutability": "view",
      "type": "function"
    },
    {
      "inputs": [],
      "name": "totalPool",
      "outputs": [
        {
          "internalType": "uint256",
          "name": "",
          "type": "uint256"
        }
      ],
      "stateMutability": "view",
      "type": "function"
    },
    {
      "inputs": [
        {
          "internalType": "address",
          "name": "newOwner",
          "type": "address"
        }
      ],
      "name": "transferOwnership",
      "outputs": [],
      "stateMutability": "nonpayable",
      "type": "function"
    },
    {
      "inputs": [],
      "name": "unpause",
      "outputs": [],
      "stateMutability": "nonpayable",
      "type": "function"
    },
    {
      "inputs": [
        {
          "internalType": "address",
          "name": "_wallet",
          "type": "address"
        },
        {
          "internalType": "enum IkiminaV1.MemberRole",
          "name": "_newRole",
          "type": "uint8"
        }
      ],
      "name": "updateMemberRole",
      "outputs": [],
      "stateMutability": "nonpayable",
      "type": "function"
    },
    {
      "inputs": [
        {
          "internalType": "address",
          "name": "newImplementation",
          "type": "address"
        }
      ],
      "name": "upgradeTo",
      "outputs": [],
      "stateMutability": "nonpayable",
      "type": "function"
    },
    {
      "inputs": [
        {
          "internalType": "address",
          "name": "newImplementation",
          "type": "address"
        },
        {
          "internalType": "bytes",
          "name": "data",
          "type": "bytes"
        }
      ],
      "name": "upgradeToAndCall",
      "outputs": [],
      "stateMutability": "payable",
      "type": "function"
    },
    {
      "inputs": [
        {
          "internalType": "string",
          "name": "_newVersion",
          "type": "string"
        }
      ],
      "name": "upgradeVersion",
      "outputs": [],
      "stateMutability": "nonpayable",
      "type": "function"
    },
    {
      "inputs": [],
      "name": "version",
      "outputs": [
        {
          "internalType": "string",
          "name": "",
          "type": "string"
        }
      ],
      "stateMutability": "view",
      "type": "function"
    },
    {
      "inputs": [
        {
          "internalType": "uint256",
          "name": "_amount",
          "type": "uint256"
        }
      ],
      "name": "withdrawSavings",
      "outputs": [],
      "stateMutability": "nonpayable",
      "type": "function"
    },
    {
      "stateMutability": "payable",
      "type": "receive"
    }
  ],
  "bytecode": "0x60a06040523060805234801561001457600080fd5b5060805161544961004c60003960008181611d0f01528181611d4f01528181611e2101528181611e610152611ef401526154496000f3fe6080604052600436106103e75760003560e01c80638b7afe2e11610208578063ca9f25a811610118578063de986450116100ab578063eec987241161007a578063eec9872414610d00578063eee2686214610d15578063f2fde38b14610d2c578063f851a44014610d4c578063f966ade714610d6d57610439565b8063de98645014610c9d578063e02a4dfd14610cbd578063ea0e35b114610cd4578063ecfb49a314610ce957610439565b8063d7bb99ba116100e7578063d7bb99ba14610c24578063d7de0ad914610c2c578063db512e8514610c5d578063de48078c14610c7d57610439565b8063ca9f25a814610857578063d119c63614610b96578063d1b332f414610bb6578063d46cedd314610c0f57610439565b8063a620f8a51161019b578063b307fc6d1161016a578063b307fc6d14610acc578063b64e6fdc14610aec578063b786f97814610b01578063bc03bfee14610b18578063c0aa0e8a14610b2e57610439565b8063a620f8a514610a55578063aadc1ac114610a6c578063ab6c12df14610a8c578063acc5baa314610aac57610439565b806392ecf577116101d757806392ecf5771461099b57806395ccea67146109fe5780639de6f3e414610a1e578063a3dbd32914610a3e57610439565b80638b7afe2e146109345780638d5d3429146109475780638d7036de146109675780638da5cb5b1461097d57610439565b80634f1ef28611610303578063668038e011610296578063735af25d11610265578063735af25d1461088157806373b4086b146108965780637dbdfe7c146108f55780638129fc1c1461090a5780638456cb591461091f57610439565b8063668038e0146107f8578063696397491461080d578063710cb8e314610857578063715018a61461086c57610439565b80635c975abb116102d25780635c975abb146107725780635d29cb98146107965780635d678cba146107b65780635f5d5f00146107d657610439565b80634f1ef28614610711578063529a564b1461072457806352d1902d1461073b57806354fd4d501461075057610439565b80631db79db51161037b57806333481fc91161034a57806333481fc91461068f5780633659cfe6146106c15780633f4ba83a146106e157806340650c91146106f657610439565b80631db79db5146105ea57806326782247146106015780632ada25961461063a5780632f1994cc1461066f57610439565b80630b1ca49a116103b75780630b1ca49a1461050d57806311aee3801461052d57806317aee51f146105445780631b3b86711461055957610439565b80624a0de7146104815780630266f044146104a957806303c83302146104c057806308ae4b0c146104d757610439565b366104395760405162461bcd60e51b815260206004820152601960248201527f496b696d696e613a2075736520636f6e7472696275746528290000000000000060448201526064015b60405180910390fd5b60405162461bcd60e51b815260206004820152601960248201527f496b696d696e613a20756e6b6e6f776e2066756e6374696f6e000000000000006044820152606401610430565b34801561048d57600080fd5b50610496610d75565b6040519081526020015b60405180910390f35b3480156104b557600080fd5b506104966101305481565b3480156104cc57600080fd5b506104d5610da1565b005b3480156104e357600080fd5b506104f76104f2366004614a0d565b6110d8565b6040516104a09a99989796959493929190614aa2565b34801561051957600080fd5b506104d5610528366004614a0d565b6112d0565b34801561053957600080fd5b506104966101315481565b34801561055057600080fd5b506104d56114d9565b34801561056557600080fd5b506105b4610574366004614b2f565b6000908152610135602052604090208054600182015460028301546003909301546001600160a01b039092169390929160ff808216926101009092041690565b604080516001600160a01b039096168652602086019490945292840191909152151560608301521515608082015260a0016104a0565b3480156105f657600080fd5b5061049661013a5481565b34801561060d57600080fd5b5061012e54610622906001600160a01b031681565b6040516001600160a01b0390911681526020016104a0565b34801561064657600080fd5b5061065a610655366004614a0d565b61155d565b6040516104a099989796959493929190614b48565b34801561067b57600080fd5b506104d561068a366004614c1d565b611792565b34801561069b57600080fd5b506106af6106aa366004614a0d565b611c74565b6040516104a096959493929190614ce8565b3480156106cd57600080fd5b506104d56106dc366004614a0d565b611d05565b3480156106ed57600080fd5b506104d5611de4565b34801561070257600080fd5b5061049666038d7ea4c6800081565b6104d561071f366004614daf565b611e17565b34801561073057600080fd5b506104966101395481565b34801561074757600080fd5b50610496611ee7565b34801561075c57600080fd5b50610765611f9a565b6040516104a09190614e11565b34801561077e57600080fd5b5060fb5460ff165b60405190151581526020016104a0565b3480156107a257600080fd5b506104d56107b1366004614b2f565b612029565b3480156107c257600080fd5b506107866107d1366004614e24565b6121a7565b3480156107e257600080fd5b506107eb612319565b6040516104a09190614e4e565b34801561080457600080fd5b506104d561237c565b34801561081957600080fd5b5061084a610828366004614a0d565b6001600160a01b03166000908152610133602052604090206007015460ff1690565b6040516104a09190614e9b565b34801561086357600080fd5b50610496601e81565b34801561087857600080fd5b506104d5612574565b34801561088d57600080fd5b50610496600a81565b3480156108a257600080fd5b506108e46108b1366004614a0d565b61013460205260009081526040902080546001820154600283015460038401546004909401549293919290919060ff1685565b6040516104a0959493929190614ea9565b34801561090157600080fd5b50610496600381565b34801561091657600080fd5b506104d5612586565b34801561092b57600080fd5b506104d5612747565b34801561094057600080fd5b5047610496565b34801561095357600080fd5b50610496610962366004614b2f565b61277a565b34801561097357600080fd5b50610496611f4081565b34801561098957600080fd5b506097546001600160a01b0316610622565b3480156109a757600080fd5b50610132546000818152610136602052604090208054600182015460028301546003909301549192909160ff166040805195865260208601949094529284019190915260608301521515608082015260a0016104a0565b348015610a0a57600080fd5b506104d5610a19366004614e24565b612cad565b348015610a2a57600080fd5b506104d5610a39366004614ed3565b612dd8565b348015610a4a57600080fd5b5061049662ed4e0081565b348015610a6157600080fd5b5061049661013c5481565b348015610a7857600080fd5b506104d5610a87366004614b2f565b612e27565b348015610a9857600080fd5b506104d5610aa7366004614a0d565b61309a565b348015610ab857600080fd5b506104d5610ac7366004614f1c565b613136565b348015610ad857600080fd5b50610622610ae7366004614b2f565b613260565b348015610af857600080fd5b5061049661328b565b348015610b0d57600080fd5b506104966101385481565b348015610b2457600080fd5b506104966101f481565b348015610b3a57600080fd5b50610b74610b49366004614b2f565b6101366020526000908152604090208054600182015460028301546003909301549192909160ff1684565b60408051948552602085019390935291830152151560608201526080016104a0565b348015610ba257600080fd5b50610496610bb1366004614a0d565b61329f565b348015610bc257600080fd5b506105b4610bd1366004614b2f565b6101356020526000908152604090208054600182015460028301546003909301546001600160a01b0390921692909160ff8082169161010090041685565b348015610c1b57600080fd5b50610496603281565b6104d561332c565b348015610c3857600080fd5b50610786610c47366004614a0d565b61013d6020526000908152604090205460ff1681565b348015610c6957600080fd5b50610786610c78366004614a0d565b6134a9565b348015610c8957600080fd5b506104d5610c98366004614a0d565b61351d565b348015610ca957600080fd5b506104d5610cb8366004614b2f565b6137bb565b348015610cc957600080fd5b5061049662278d0081565b348015610ce057600080fd5b50610496606481565b348015610cf557600080fd5b5061049661012f5481565b348015610d0c57600080fd5b5061049660c881565b348015610d2157600080fd5b506104966101325481565b348015610d3857600080fd5b506104d5610d47366004614a0d565b613abc565b348015610d5857600080fd5b5061012d54610622906001600160a01b031681565b6104d5613b32565b60006064610d84601e82614f65565b61012f54610d929190614f78565b610d9c9190614f8f565b905090565b610da9613eac565b610132546000908152610136602052604090206001810154421015610e105760405162461bcd60e51b815260206004820152601760248201527f496b696d696e613a207465726d206e6f7420656e6465640000000000000000006044820152606401610430565b600381015460ff1615610e655760405162461bcd60e51b815260206004820152601c60248201527f496b696d696e613a20616c7265616479206469737472696275746564000000006044820152606401610430565b6000816002015411610eb05760405162461bcd60e51b8152602060048201526014602482015273125ada5b5a5b984e881b9bc81a5b9d195c995cdd60621b6044820152606401610430565b60006101315411610ef95760405162461bcd60e51b8152602060048201526013602482015272496b696d696e613a206e6f206d656d6265727360681b6044820152606401610430565b60038101805460ff19166001179055600281015460009061271090610f2190611f4090614f78565b610f2b9190614f8f565b9050808260020154610f3d9190614f65565b6101306000828254610f4f9190614fb1565b9091555060009050610f5f613f05565b905060005b610137548110156110565760006101378281548110610f8557610f85614fc4565b60009182526020808320909101546001600160a01b031680835261013390915260409091206003015490915060ff600160a81b90910416610fc6575061104e565b6000808411610fe25761013154610fdd9086614f8f565b611015565b6001600160a01b03821660009081526101336020526040902060040154849061100b9087614f78565b6110159190614f8f565b6001600160a01b03831660009081526101336020526040812060050180549293508392909190611046908490614fb1565b909155505050505b600101610f64565b50610132547fc6570a09263e2dbe9b55b3b62e5c111af20c6cfb770f70c0aab4660ef56cc33783610131548561108c9190614f8f565b604080519283526020830191909152429082015260600160405180910390a261013280549060006110bc83614fda565b91905055506110c9613fbf565b5050506110d6600160c955565b565b610133602052600090815260409020805481906110f490614ff3565b80601f016020809104026020016040519081016040528092919081815260200182805461112090614ff3565b801561116d5780601f106111425761010080835404028352916020019161116d565b820191906000526020600020905b81548152906001019060200180831161115057829003601f168201915b50505050509080600101805461118290614ff3565b80601f01602080910402602001604051908101604052809291908181526020018280546111ae90614ff3565b80156111fb5780601f106111d0576101008083540402835291602001916111fb565b820191906000526020600020905b8154815290600101906020018083116111de57829003601f168201915b50505050509080600201805461121090614ff3565b80601f016020809104026020016040519081016040528092919081815260200182805461123c90614ff3565b80156112895780601f1061125e57610100808354040283529160200191611289565b820191906000526020600020905b81548152906001019060200180831161126c57829003601f168201915b50505050600383015460048401546005850154600686015460079096015494956001600160a01b0384169560ff600160a01b860481169650600160a81b909504851694168a565b61012d546001600160a01b03163314806112fa575033600090815261013d602052604090205460ff165b6113165760405162461bcd60e51b815260040161043090615027565b6001600160a01b03811660009081526101336020526040902060030154600160a01b900460ff16801561136c57506001600160a01b03811660009081526101336020526040902060030154600160a81b900460ff165b6113885760405162461bcd60e51b81526004016104309061505e565b60026001600160a01b03821660009081526101346020526040902060049081015460ff16908111156113bc576113bc614a78565b141580156113fc575060016001600160a01b03821660009081526101346020526040902060049081015460ff16908111156113f9576113f9614a78565b14155b6114585760405162461bcd60e51b815260206004820152602760248201527f496b696d696e613a206d656d62657220686173206163746976652f70656e64696044820152663733903637b0b760c91b6064820152608401610430565b6001600160a01b038116600090815261013360205260408120600301805460ff60a81b1916905561013180549161148e83615095565b9190505550806001600160a01b03167f3ac963493df564de734d98633f1145d21512e282ba4c02d3c1011119bf7f2862426040516114ce91815260200190565b60405180910390a250565b61012e546001600160a01b031633146115345760405162461bcd60e51b815260206004820152601a60248201527f496b696d696e613a206e6f742070656e64696e672061646d696e0000000000006044820152606401610430565b61012e805461012d80546001600160a01b03199081166001600160a01b03841617909155169055565b6001600160a01b0381166000908152610133602052604081206003810154600482015460058301546006840154600785015485546060978897889791968796879687968796879686956001870195600288019560ff600160a01b8504811696600160a81b909504811695939492939192169089906115da90614ff3565b80601f016020809104026020016040519081016040528092919081815260200182805461160690614ff3565b80156116535780601f1061162857610100808354040283529160200191611653565b820191906000526020600020905b81548152906001019060200180831161163657829003601f168201915b5050505050985087805461166690614ff3565b80601f016020809104026020016040519081016040528092919081815260200182805461169290614ff3565b80156116df5780601f106116b4576101008083540402835291602001916116df565b820191906000526020600020905b8154815290600101906020018083116116c257829003601f168201915b505050505097508680546116f290614ff3565b80601f016020809104026020016040519081016040528092919081815260200182805461171e90614ff3565b801561176b5780601f106117405761010080835404028352916020019161176b565b820191906000526020600020905b81548152906001019060200180831161174e57829003601f168201915b50505050509650995099509950995099509950995099509950509193959799909294969850565b61012d546001600160a01b03163314806117bc575033600090815261013d602052604090205460ff165b6117d85760405162461bcd60e51b815260040161043090615027565b6117e0614071565b6001600160a01b03821661182e5760405162461bcd60e51b8152602060048201526015602482015274496b696d696e613a207a65726f206164647265737360581b6044820152606401610430565b6001600160a01b03821660009081526101336020526040902060030154600160a01b900460ff16156118a25760405162461bcd60e51b815260206004820152601b60248201527f496b696d696e613a20616c7265616479207265676973746572656400000000006044820152606401610430565b606461013154106118ee5760405162461bcd60e51b8152602060048201526016602482015275125ada5b5a5b984e8819dc9bdd5c081a5cc8199d5b1b60521b6044820152606401610430565b866119345760405162461bcd60e51b8152602060048201526016602482015275125ada5b5a5b984e881b985b59481c995c5d5a5c995960521b6044820152606401610430565b846119815760405162461bcd60e51b815260206004820152601760248201527f496b696d696e613a20656d61696c2072657175697265640000000000000000006044820152606401610430565b826119ce5760405162461bcd60e51b815260206004820152601760248201527f496b696d696e613a2070686f6e652072657175697265640000000000000000006044820152606401610430565b60405180610140016040528089898080601f016020809104026020016040519081016040528093929190818152602001838380828437600092019190915250505090825250604080516020601f8a0181900481028201810190925288815291810191908990899081908401838280828437600092019190915250505090825250604080516020601f88018190048102820181019092528681529181019190879087908190840183828082843760009201829052509385525050506001600160a01b038516602083015260016040830181905260608301526080820181905260a08201524260c082015260e001826003811115611acc57611acc614a78565b90526001600160a01b03831660009081526101336020526040902081518190611af590826150f4565b5060208201516001820190611b0a90826150f4565b5060408201516002820190611b1f90826150f4565b50606082015160038083018054608086015160a08701511515600160a81b0260ff60a81b19911515600160a01b026001600160a81b03199093166001600160a01b039096169590951791909117169290921790915560c0830151600483015560e0830151600583015561010083015160068301556101208301516007830180549192909160ff1916906001908490811115611bbc57611bbc614a78565b021790555050610137805460018101825560009182527f43dc304bb3613567eca51c4fb9e7f3128bc51bba882a32550e891d6cbd8a0fa10180546001600160a01b0319166001600160a01b0386161790556101318054925090611c1e83614fda565b9190505550816001600160a01b03167f136ad7af5c9b264307029287668641b0930bfcb10e20bcc749ea87f2c15dc08689898442604051611c6294939291906151b4565b60405180910390a25050505050505050565b60008060008060008060006101346000896001600160a01b03166001600160a01b03168152602001908152602001600020905060008160020154826001015411611cbf576000611cd3565b81600201548260010154611cd39190614f65565b8254600184015460028501546003860154600490960154929d919c509a5091985092965060ff90921694509092505050565b6001600160a01b037f0000000000000000000000000000000000000000000000000000000000000000163003611d4d5760405162461bcd60e51b8152600401610430906151fb565b7f00000000000000000000000000000000000000000000000000000000000000006001600160a01b0316611d966000805160206153cd833981519152546001600160a01b031690565b6001600160a01b031614611dbc5760405162461bcd60e51b815260040161043090615247565b611dc5816140b7565b60408051600080825260208201909252611de1918391906140bf565b50565b61012d546001600160a01b03163314611e0f5760405162461bcd60e51b815260040161043090615027565b6110d661422a565b6001600160a01b037f0000000000000000000000000000000000000000000000000000000000000000163003611e5f5760405162461bcd60e51b8152600401610430906151fb565b7f00000000000000000000000000000000000000000000000000000000000000006001600160a01b0316611ea86000805160206153cd833981519152546001600160a01b031690565b6001600160a01b031614611ece5760405162461bcd60e51b815260040161043090615247565b611ed7826140b7565b611ee3828260016140bf565b5050565b6000306001600160a01b037f00000000000000000000000000000000000000000000000000000000000000001614611f875760405162461bcd60e51b815260206004820152603860248201527f555550535570677261646561626c653a206d757374206e6f742062652063616c60448201527f6c6564207468726f7567682064656c656761746563616c6c00000000000000006064820152608401610430565b506000805160206153cd83398151915290565b61013b8054611fa890614ff3565b80601f0160208091040260200160405190810160405280929190818152602001828054611fd490614ff3565b80156120215780601f10611ff657610100808354040283529160200191612021565b820191906000526020600020905b81548152906001019060200180831161200457829003601f168201915b505050505081565b336000908152610133602052604090206007015460ff16600181600381111561205457612054614a78565b14806120715750600281600381111561206f5761206f614a78565b145b8061208d5750600381600381111561208b5761208b614a78565b145b6120a95760405162461bcd60e51b815260040161043090615293565b600082815261013560205260409020600381015460ff161580156120d757506003810154610100900460ff16155b6121235760405162461bcd60e51b815260206004820152601a60248201527f496b696d696e613a20616c72656164792070726f6365737365640000000000006044820152606401610430565b60038101805461ff00191661010017905580546001600160a01b0316600090815261013460205260408120600401805460ff1916600183021790555080546040514281526001600160a01b039091169084907fab0e20c72eaa566ce0daef9ab1c37cb8bd61bb60fbbb6cdfe213dc86f37e5d7f9060200160405180910390a3505050565b6001600160a01b03821660009081526101336020526040812060030154600160a01b900460ff1615806121fe57506001600160a01b03831660009081526101336020526040902060030154600160a81b900460ff16155b1561220b57506000612313565b612216826002614f78565b61012f54101561222857506000612313565b6001600160a01b0383166000908152610133602052604090206004015482111561225457506000612313565b60006064600a61012f546122689190614f78565b6122729190614f8f565b905080831115612286576000915050612313565b612294601e62015180614f78565b6001600160a01b038516600090815261013360205260409020600601546122bb9190614fb1565b4210156122cc576000915050612313565b6001600160a01b03841660009081526101346020526040902060049081015460ff16818111156122fe576122fe614a78565b0361230d576000915050612313565b60019150505b92915050565b606061013780548060200260200160405190810160405280929190818152602001828054801561237257602002820191906000526020600020905b81546001600160a01b03168152600190910190602001808311612354575b5050505050905090565b3360009081526101336020526040902060030154600160a01b900460ff1680156123c057503360009081526101336020526040902060030154600160a81b900460ff165b6123dc5760405162461bcd60e51b81526004016104309061505e565b6123e4613eac565b6123ec614071565b3360009081526101336020526040902060050154806124455760405162461bcd60e51b8152602060048201526015602482015274496b696d696e613a206e6f206469766964656e647360581b6044820152606401610430565b8061012f5410156124985760405162461bcd60e51b815260206004820152601a60248201527f496b696d696e613a20706f6f6c20696e73756666696369656e740000000000006044820152606401610430565b3360009081526101336020526040812060050181905561012f80548392906124c1908490614f65565b90915550506040805182815242602082015233917fa1c93169468f71ef26f4adf10bca8df21460f11843a01ed9c69da306e33c3847910160405180910390a2604051600090339083908381818185875af1925050503d8060008114612542576040519150601f19603f3d011682016040523d82523d6000602084013e612547565b606091505b50509050806125685760405162461bcd60e51b8152600401610430906152ca565b50506110d6600160c955565b61257c61427c565b6110d660006142d6565b600054610100900460ff16158080156125a65750600054600160ff909116105b806125c05750303b1580156125c0575060005460ff166001145b6126235760405162461bcd60e51b815260206004820152602e60248201527f496e697469616c697a61626c653a20636f6e747261637420697320616c72656160448201526d191e481a5b9a5d1a585b1a5e995960921b6064820152608401610430565b6000805460ff191660011790558015612646576000805461ff0019166101001790555b61264e614328565b61265661434f565b61265e61437e565b6126666143ad565b61012d80546001600160a01b03191633179055739ba30a835ce6d3714d4026bd62305b189473824560005261013d60209081527f1cc63f4b94c34bd3ed967c334d07facee3e66696a7bbaa1f36a61349abc8230a805460ff191660011790556040805180820190915260058152640312e302e360dc1b9181019190915261013b906126f190826150f4565b504261013c556126ff613fbf565b8015611de1576000805461ff0019169055604051600181527f7f26b83ff96e1f2b6a682f133852f6798a09c465da95921460cefb38474024989060200160405180910390a150565b61012d546001600160a01b031633146127725760405162461bcd60e51b815260040161043090615027565b6110d66143dc565b3360009081526101336020526040812060030154600160a01b900460ff1680156127be57503360009081526101336020526040902060030154600160a81b900460ff165b6127da5760405162461bcd60e51b81526004016104309061505e565b6127e2614071565b600082116128325760405162461bcd60e51b815260206004820152601b60248201527f496b696d696e613a20616d6f756e74206d757374206265203e203000000000006044820152606401610430565b60023360009081526101346020526040902060049081015460ff169081111561285d5761285d614a78565b14158015612894575060013360009081526101346020526040902060049081015460ff169081111561289157612891614a78565b14155b6128d95760405162461bcd60e51b815260206004820152601660248201527524b5b4b6b4b7309d1032bc34b9ba34b733903637b0b760511b6044820152606401610430565b33600090815261013360205260409020600401546128f990600390614f78565b8211156129525760405162461bcd60e51b815260206004820152602160248201527f496b696d696e613a206578636565647320337820736176696e6773206c696d696044820152601d60fa1b6064820152608401610430565b61012f548211156129a55760405162461bcd60e51b815260206004820152601a60248201527f496b696d696e613a20696e73756666696369656e7420706f6f6c0000000000006044820152606401610430565b6064603261012f546129b79190614f78565b6129c19190614f8f565b821115612a1b5760405162461bcd60e51b815260206004820152602260248201527f496b696d696e613a206578636565647320706f6f6c20736166657479206c696d6044820152611a5d60f21b6064820152608401610430565b6064601e61012f54612a2d9190614f78565b612a379190614f8f565b8261012f54612a469190614f65565b1015612aa25760405162461bcd60e51b815260206004820152602560248201527f496b696d696e613a2076696f6c61746573207265736572766520726571756972604482015264195b595b9d60da1b6064820152608401610430565b6000612aad83614419565b90508015612b9957612abf33846144fe565b6101398054906000612ad083614fda565b909155505060408051848152600160208201524281830152905133916000917f608072217ac12ecb440a970864481103409d4272dfead9e8d6e2fc257ac1edf09181900360600190a3337fcdf1eb0210cb841128b39316783d3a15af747c2e341274f54f90acc4d809f62084612710612b4b6101f483614f78565b612b559190614f8f565b612b5f9087614fb1565b612b6c62278d0042614fb1565b6040805193845260208401929092529082015242606082015260800160405180910390a250600092915050565b6101388054906000612baa83614fda565b909155506040805160a0810182523380825260208083018881524284860181815260006060808801828152608089018381528b845261013588528a842099518a546001600160a01b039091166001600160a01b0319909116178a5595516001808b0191909155935160028a01555160039098018054955115156101000261ff00199915159990991661ffff1990961695909517979097179093558483526101348452868320600401805460ff1916909117905585518a8152928301919091529381019390935292945084917f608072217ac12ecb440a970864481103409d4272dfead9e8d6e2fc257ac1edf0910160405180910390a350919050565b505b919050565b61012d546001600160a01b03163314612cd85760405162461bcd60e51b815260040161043090615027565b612ce06146d9565b47811115612d305760405162461bcd60e51b815260206004820152601d60248201527f496b696d696e613a20696e73756666696369656e742062616c616e63650000006044820152606401610430565b6000826001600160a01b03168260405160006040518083038185875af1925050503d8060008114612d7d576040519150601f19603f3d011682016040523d82523d6000602084013e612d82565b606091505b5050905080612dd35760405162461bcd60e51b815260206004820152601860248201527f496b696d696e613a207472616e73666572206661696c656400000000000000006044820152606401610430565b505050565b612de061427c565b61013b612ded82826150f4565b504261013c81905560405130917f2b4b14443d4e94476e173f2c5c72b9d60aecb1a98c6c8a1f1165373e186ceb25916114ce918591615301565b336000908152610133602052604090206007015460ff166001816003811115612e5257612e52614a78565b1480612e6f57506002816003811115612e6d57612e6d614a78565b145b80612e8b57506003816003811115612e8957612e89614a78565b145b612ea75760405162461bcd60e51b815260040161043090615293565b612eaf613eac565b612eb7614071565b600082815261013560205260409020600381015460ff16158015612ee557506003810154610100900460ff16155b612f315760405162461bcd60e51b815260206004820152601a60248201527f496b696d696e613a20616c72656164792070726f6365737365640000000000006044820152606401610430565b600181546001600160a01b031660009081526101346020526040902060049081015460ff1690811115612f6657612f66614a78565b14612faa5760405162461bcd60e51b8152602060048201526014602482015273496b696d696e613a206e6f742070656e64696e6760601b6044820152606401610430565b61012f54816001015411156130015760405162461bcd60e51b815260206004820152601a60248201527f496b696d696e613a20696e73756666696369656e7420706f6f6c0000000000006044820152606401610430565b60038101805460ff1916600190811790915581549082015461302c916001600160a01b0316906144fe565b61013a805490600061303d83614fda565b909155505080546001820154604080519182524260208301526001600160a01b039092169185917fb2c6de76341d4f1188da5458fd8729cbc0e9278f99e8992f40f36900bcef78cb910160405180910390a350611ee3600160c955565b61012d546001600160a01b031633146130c55760405162461bcd60e51b815260040161043090615027565b6001600160a01b0381166131135760405162461bcd60e51b8152602060048201526015602482015274496b696d696e613a207a65726f206164647265737360581b6044820152606401610430565b61012e80546001600160a01b0319166001600160a01b0392909216919091179055565b61012d546001600160a01b031633146131615760405162461bcd60e51b815260040161043090615027565b6001600160a01b03821660009081526101336020526040902060030154600160a01b900460ff166131d45760405162461bcd60e51b815260206004820152601e60248201527f496b696d696e613a206d656d626572206e6f74207265676973746572656400006044820152606401610430565b6001600160a01b038216600090815261013360205260409020600701805460ff811691839160ff1916600183600381111561321157613211614a78565b0217905550826001600160a01b03167fbb3864d65ad50221bf63f66d2c877516c2a835e23ebcdaee64d6743d2e7731fc82844260405161325393929190615323565b60405180910390a2505050565b610137818154811061327157600080fd5b6000918252602090912001546001600160a01b0316905081565b60006064603261012f54610d929190614f78565b6001600160a01b03811660009081526101336020526040812060030154600160a01b900460ff1615806132f657506001600160a01b03821660009081526101336020526040902060030154600160a81b900460ff16155b1561330357506000919050565b6001600160a01b0382166000908152610133602052604090206004015461231390600390614f78565b3360009081526101336020526040902060030154600160a01b900460ff16801561337057503360009081526101336020526040902060030154600160a81b900460ff165b61338c5760405162461bcd60e51b81526004016104309061505e565b613394613eac565b61339c614071565b66038d7ea4c680003410156133ff5760405162461bcd60e51b815260206004820152602360248201527f496b696d696e613a2062656c6f77206d696e696d756d20636f6e74726962757460448201526234b7b760e91b6064820152608401610430565b336000908152610133602052604081206004018054349290613422908490614fb1565b925050819055503461012f600082825461343c9190614fb1565b909155505033600081815261013360209081526040918290206004015461012f548351348152928301919091528183015242606082015290517f38eaf060ddec1dde1c99c9cce5c8f34a03c48e9368f6ff7b768898f6278605809181900360800190a26110d6600160c955565b6001600160a01b0381166000908152610133602052604081206007015460ff1660018160038111156134dd576134dd614a78565b14806134fa575060028160038111156134f8576134f8614a78565b145b806135165750600381600381111561351457613514614a78565b145b9392505050565b336000908152610133602052604090206007015460ff16600181600381111561354857613548614a78565b14806135655750600281600381111561356357613563614a78565b145b806135815750600381600381111561357f5761357f614a78565b145b61359d5760405162461bcd60e51b815260040161043090615293565b6001600160a01b038216600090815261013460205260409020600260048083015460ff16908111156135d1576135d1614a78565b146136185760405162461bcd60e51b815260206004820152601760248201527624b5b4b6b4b7309d1037379030b1ba34bb32903637b0b760491b6044820152606401610430565b8060030154421161366b5760405162461bcd60e51b815260206004820152601960248201527f496b696d696e613a206c6f616e206e6f74206f766572647565000000000000006044820152606401610430565b6000816002015482600101546136819190614f65565b9050600081116136d35760405162461bcd60e51b815260206004820152601860248201527f496b696d696e613a20616c726561647920736574746c656400000000000000006044820152606401610430565b60006127106136e360c884614f78565b6136ed9190614f8f565b9050808360010160008282546137039190614fb1565b90915550506004838101805460ff19169091179055604080518281524260208201526001600160a01b038716917fcf40cadcd86c14cb7e696a86578255719f67bc54bf991d45d267ee6e01467c19910160405180910390a26001600160a01b0385167f2846d120b0ac120b4495cd52f69d161236e146706bc5e2b85d01884744797c806137908385614fb1565b6003860154604080519283526020830191909152429082015260600160405180910390a25050505050565b3360009081526101336020526040902060030154600160a01b900460ff1680156137ff57503360009081526101336020526040902060030154600160a81b900460ff165b61381b5760405162461bcd60e51b81526004016104309061505e565b613823613eac565b61382b614071565b6000811161387b5760405162461bcd60e51b815260206004820152601b60248201527f496b696d696e613a20616d6f756e74206d757374206265203e203000000000006044820152606401610430565b60023360009081526101346020526040902060049081015460ff16908111156138a6576138a6614a78565b036138f35760405162461bcd60e51b815260206004820181905260248201527f496b696d696e613a20726570617920616374697665206c6f616e2066697273746044820152606401610430565b33600090815261013360205260409020600401548111156139565760405162461bcd60e51b815260206004820152601d60248201527f496b696d696e613a20696e73756666696369656e7420736176696e67730000006044820152606401610430565b8061012f5410156139b55760405162461bcd60e51b8152602060048201526024808201527f496b696d696e613a20696e73756666696369656e7420706f6f6c206c697175696044820152636469747960e01b6064820152608401610430565b3360009081526101336020526040812060040180548392906139d8908490614f65565b925050819055508061012f60008282546139f29190614f65565b9091555050336000818152610133602090815260409182902060040154825185815291820152428183015290517fa7b927747255bae4c9b535ee84804707f42b787d2a0c4a461f0c3a77f91ea82c9181900360600190a2604051600090339083908381818185875af1925050503d8060008114613a8b576040519150601f19603f3d011682016040523d82523d6000602084013e613a90565b606091505b5050905080613ab15760405162461bcd60e51b8152600401610430906152ca565b50611de1600160c955565b613ac461427c565b6001600160a01b038116613b295760405162461bcd60e51b815260206004820152602660248201527f4f776e61626c653a206e6577206f776e657220697320746865207a65726f206160448201526564647265737360d01b6064820152608401610430565b611de1816142d6565b3360009081526101336020526040902060030154600160a01b900460ff168015613b7657503360009081526101336020526040902060030154600160a81b900460ff165b613b925760405162461bcd60e51b81526004016104309061505e565b613b9a613eac565b613ba2614071565b60003411613bf25760405162461bcd60e51b815260206004820152601e60248201527f496b696d696e613a2072657061796d656e74206d757374206265203e203000006044820152606401610430565b33600090815261013460205260409020600260048083015460ff1690811115613c1d57613c1d614a78565b14613c645760405162461bcd60e51b815260206004820152601760248201527624b5b4b6b4b7309d1037379030b1ba34bb32903637b0b760491b6044820152606401610430565b600081600201548260010154613c7a9190614f65565b905060008111613ccc5760405162461bcd60e51b815260206004820152601d60248201527f496b696d696e613a206c6f616e20616c726561647920736574746c65640000006044820152606401610430565b6000813411613cdb5734613cdd565b815b90506000613ceb8234614f65565b905081846002016000828254613d019190614fb1565b925050819055508161012f6000828254613d1b9190614fb1565b90915550506001840154845460009190613d359082614f65565b613d3f9085614f78565b613d499190614f8f565b90508061013660006101325481526020019081526020016000206002016000828254613d759190614fb1565b90915550506001850154600286015410801590613d9c5760048601805460ff191660031790555b336001600160a01b03167fe627c02a755f08984abd2c21256818bf256e5d05844b76056c4e621785908a098588600201548960010154613ddc9190614f65565b6040805192835260208301919091528415159082015242606082015260800160405180910390a28215613e9c57604051600090339085908381818185875af1925050503d8060008114613e4b576040519150601f19603f3d011682016040523d82523d6000602084013e613e50565b606091505b5050905080613e9a5760405162461bcd60e51b8152602060048201526016602482015275125ada5b5a5b984e881c99599d5b990819985a5b195960521b6044820152606401610430565b505b5050505050506110d6600160c955565b600260c95403613efe5760405162461bcd60e51b815260206004820152601f60248201527f5265656e7472616e637947756172643a207265656e7472616e742063616c6c006044820152606401610430565b600260c955565b6000805b61013754811015613fbb5761013360006101378381548110613f2d57613f2d614fc4565b60009182526020808320909101546001600160a01b0316835282019290925260400190206003015460ff600160a81b9091041615613fb35761013360006101378381548110613f7e57613f7e614fc4565b60009182526020808320909101546001600160a01b03168352820192909252604001902060040154613fb09083614fb1565b91505b600101613f09565b5090565b426000613fcf62ed4e0083614fb1565b60408051608081018252848152602080820184815260008385018181526060850182815261013280548452610136865292879020955186559251600186015551600285015590516003909301805460ff191693151593909317909255905482518681529182018490529293507f1ddbc5e006a48d33df8ad1d6858a0b775953ba5d26864f81ae30433229c7862b910160405180910390a25050565b600160c955565b60fb5460ff16156110d65760405162461bcd60e51b815260206004820152601060248201526f14185d5cd8589b194e881c185d5cd95960821b6044820152606401610430565b611de161427c565b7f4910fdfa16fed3260ed0e7147f7cc6da11a60208b5b9406d12a635614ffd91435460ff16156140f257612dd383614722565b826001600160a01b03166352d1902d6040518163ffffffff1660e01b8152600401602060405180830381865afa92505050801561414c575060408051601f3d908101601f191682019092526141499181019061534c565b60015b6141af5760405162461bcd60e51b815260206004820152602e60248201527f45524331393637557067726164653a206e657720696d706c656d656e7461746960448201526d6f6e206973206e6f74205555505360901b6064820152608401610430565b6000805160206153cd833981519152811461421e5760405162461bcd60e51b815260206004820152602960248201527f45524331393637557067726164653a20756e737570706f727465642070726f786044820152681a58589b195555525160ba1b6064820152608401610430565b50612dd38383836147be565b6142326146d9565b60fb805460ff191690557f5db9ee0a495bf2e6ff9c91a7834c1ba4fdd244a5e8aa4e537bd38aeae4b073aa335b6040516001600160a01b03909116815260200160405180910390a1565b6097546001600160a01b031633146110d65760405162461bcd60e51b815260206004820181905260248201527f4f776e61626c653a2063616c6c6572206973206e6f7420746865206f776e65726044820152606401610430565b609780546001600160a01b038381166001600160a01b0319831681179093556040519116919082907f8be0079c531659141344cd1fd0a4f28419497f9722a3daafe3b4186f6b6457e090600090a35050565b600054610100900460ff166110d65760405162461bcd60e51b815260040161043090615365565b600054610100900460ff166143765760405162461bcd60e51b815260040161043090615365565b6110d66147e9565b600054610100900460ff166143a55760405162461bcd60e51b815260040161043090615365565b6110d6614819565b600054610100900460ff166143d45760405162461bcd60e51b815260040161043090615365565b6110d6614840565b6143e4614071565b60fb805460ff191660011790557f62e78cea01bee320cd4e420270b5ea74000d11b0c9f74754ebdbfc544b05a25861425f3390565b33600090815261013360205260408120614434836002614f78565b61012f5410156144475750600092915050565b828160040154101561445c5750600092915050565b60006064600a61012f546144709190614f78565b61447a9190614f8f565b90508084111561448e575060009392505050565b61449c601e62015180614f78565b82600601546144ab9190614fb1565b4210156144bc575060009392505050565b3360009081526101346020526040902060049081015460ff16818111156144e5576144e5614a78565b036144f4575060009392505050565b5060019392505050565b600061271061450f6101f484614f78565b6145199190614f8f565b905060006145278284614fb1565b9050600061453862278d0042614fb1565b90506040518060a00160405280858152602001838152602001600081526020018281526020016002600481111561457157614571614a78565b8152506101346000876001600160a01b03166001600160a01b031681526020019081526020016000206000820151816000015560208201518160010155604082015181600201556060820151816003015560808201518160040160006101000a81548160ff021916908360048111156145ec576145ec614a78565b02179055509050508361012f60008282546146079190614f65565b909155505060408051858152602081018490529081018290524260608201526001600160a01b038616907fb9cd2512dd634bb7cdbb1dc9fb2d451a57e0dd9724cf51ab8414abfe570199a49060800160405180910390a26000856001600160a01b03168560405160006040518083038185875af1925050503d80600081146146ab576040519150601f19603f3d011682016040523d82523d6000602084013e6146b0565b606091505b50509050806146d15760405162461bcd60e51b8152600401610430906152ca565b505050505050565b60fb5460ff166110d65760405162461bcd60e51b815260206004820152601460248201527314185d5cd8589b194e881b9bdd081c185d5cd95960621b6044820152606401610430565b6001600160a01b0381163b61478f5760405162461bcd60e51b815260206004820152602d60248201527f455243313936373a206e657720696d706c656d656e746174696f6e206973206e60448201526c1bdd08184818dbdb9d1c9858dd609a1b6064820152608401610430565b6000805160206153cd83398151915280546001600160a01b0319166001600160a01b0392909216919091179055565b6147c783614873565b6000825111806147d45750805b15612dd3576147e383836148b3565b50505050565b600054610100900460ff166148105760405162461bcd60e51b815260040161043090615365565b6110d6336142d6565b600054610100900460ff1661406a5760405162461bcd60e51b815260040161043090615365565b600054610100900460ff166148675760405162461bcd60e51b815260040161043090615365565b60fb805460ff19169055565b61487c81614722565b6040516001600160a01b038216907fbc7cd75a20ee27fd9adebab32041f755214dbc6bffa90cc0225b39da2e5c2d3b90600090a250565b606061351683836040518060600160405280602781526020016153ed602791396060600080856001600160a01b0316856040516148f091906153b0565b600060405180830381855af49150503d806000811461492b576040519150601f19603f3d011682016040523d82523d6000602084013e614930565b606091505b50915091506149418683838761494b565b9695505050505050565b606083156149ba5782516000036149b3576001600160a01b0385163b6149b35760405162461bcd60e51b815260206004820152601d60248201527f416464726573733a2063616c6c20746f206e6f6e2d636f6e74726163740000006044820152606401610430565b50816149c4565b6149c483836149cc565b949350505050565b8151156149dc5781518083602001fd5b8060405162461bcd60e51b81526004016104309190614e11565b80356001600160a01b0381168114612ca857600080fd5b600060208284031215614a1f57600080fd5b613516826149f6565b60005b83811015614a43578181015183820152602001614a2b565b50506000910152565b60008151808452614a64816020860160208601614a28565b601f01601f19169290920160200192915050565b634e487b7160e01b600052602160045260246000fd5b60048110614a9e57614a9e614a78565b9052565b6000610140808352614ab68184018e614a4c565b90508281036020840152614aca818d614a4c565b90508281036040840152614ade818c614a4c565b91505060018060a01b0389166060830152871515608083015286151560a08301528560c08301528460e083015283610100830152614b20610120830184614a8e565b9b9a5050505050505050505050565b600060208284031215614b4157600080fd5b5035919050565b6000610120808352614b5c8184018d614a4c565b90508281036020840152614b70818c614a4c565b90508281036040840152614b84818b614a4c565b915050871515606083015286151560808301528560a08301528460c08301528360e0830152614bb7610100830184614a8e565b9a9950505050505050505050565b60008083601f840112614bd757600080fd5b50813567ffffffffffffffff811115614bef57600080fd5b602083019150836020828501011115614c0757600080fd5b9250929050565b803560048110612ca857600080fd5b60008060008060008060008060a0898b031215614c3957600080fd5b883567ffffffffffffffff80821115614c5157600080fd5b614c5d8c838d01614bc5565b909a50985060208b0135915080821115614c7657600080fd5b614c828c838d01614bc5565b909850965060408b0135915080821115614c9b57600080fd5b50614ca88b828c01614bc5565b9095509350614cbb905060608a016149f6565b9150614cc960808a01614c0e565b90509295985092959890939650565b60058110614a9e57614a9e614a78565b600060c082019050878252866020830152856040830152846060830152836080830152614d1860a0830184614cd8565b979650505050505050565b634e487b7160e01b600052604160045260246000fd5b600067ffffffffffffffff80841115614d5457614d54614d23565b604051601f8501601f19908116603f01168101908282118183101715614d7c57614d7c614d23565b81604052809350858152868686011115614d9557600080fd5b858560208301376000602087830101525050509392505050565b60008060408385031215614dc257600080fd5b614dcb836149f6565b9150602083013567ffffffffffffffff811115614de757600080fd5b8301601f81018513614df857600080fd5b614e0785823560208401614d39565b9150509250929050565b6020815260006135166020830184614a4c565b60008060408385031215614e3757600080fd5b614e40836149f6565b946020939093013593505050565b6020808252825182820181905260009190848201906040850190845b81811015614e8f5783516001600160a01b031683529284019291840191600101614e6a565b50909695505050505050565b602081016123138284614a8e565b600060a0820190508682528560208301528460408301528360608301526149416080830184614cd8565b600060208284031215614ee557600080fd5b813567ffffffffffffffff811115614efc57600080fd5b8201601f81018413614f0d57600080fd5b6149c484823560208401614d39565b60008060408385031215614f2f57600080fd5b614f38836149f6565b9150614f4660208401614c0e565b90509250929050565b634e487b7160e01b600052601160045260246000fd5b8181038181111561231357612313614f4f565b808202811582820484141761231357612313614f4f565b600082614fac57634e487b7160e01b600052601260045260246000fd5b500490565b8082018082111561231357612313614f4f565b634e487b7160e01b600052603260045260246000fd5b600060018201614fec57614fec614f4f565b5060010190565b600181811c9082168061500757607f821691505b602082108103612ca657634e487b7160e01b600052602260045260246000fd5b6020808252601c908201527f496b696d696e613a2063616c6c6572206973206e6f742061646d696e00000000604082015260600190565b6020808252601d908201527f496b696d696e613a206e6f7420616e20616374697665206d656d626572000000604082015260600190565b6000816150a4576150a4614f4f565b506000190190565b601f821115612dd3576000816000526020600020601f850160051c810160208610156150d55750805b601f850160051c820191505b818110156146d1578281556001016150e1565b815167ffffffffffffffff81111561510e5761510e614d23565b6151228161511c8454614ff3565b846150ac565b602080601f831160018114615157576000841561513f5750858301515b600019600386901b1c1916600185901b1785556146d1565b600085815260208120601f198616915b8281101561518657888601518255948401946001909101908401615167565b50858210156151a45787850151600019600388901b60f8161c191681555b5050505050600190811b01905550565b606081528360608201528385608083013760006080858301015260006080601f19601f87011683010190506151ec6020830185614a8e565b82604083015295945050505050565b6020808252602c908201527f46756e6374696f6e206d7573742062652063616c6c6564207468726f7567682060408201526b19195b1959d85d1958d85b1b60a21b606082015260800190565b6020808252602c908201527f46756e6374696f6e206d7573742062652063616c6c6564207468726f7567682060408201526b6163746976652070726f787960a01b606082015260800190565b60208082526017908201527f496b696d696e613a206e6f7420617574686f72697a6564000000000000000000604082015260600190565b6020808252601c908201527f496b696d696e613a20455448207472616e73666572206661696c656400000000604082015260600190565b6040815260006153146040830185614a4c565b90508260208301529392505050565b606081016153318286614a8e565b61533e6020830185614a8e565b826040830152949350505050565b60006020828403121561535e57600080fd5b5051919050565b6020808252602b908201527f496e697469616c697a61626c653a20636f6e7472616374206973206e6f74206960408201526a6e697469616c697a696e6760a81b606082015260800190565b600082516153c2818460208701614a28565b919091019291505056fe360894a13ba1a3210667c828492db98dca3e2076cc3735a920a3ca505d382bbc416464726573733a206c6f772d6c6576656c2064656c65676174652063616c6c206661696c6564a26469706673582212206ceb519630c2761bcbb9b0e90b852cff44f87b651711169eedff85712ca1a4ff64736f6c63430008180033",
  "linkReferences": {},
  "deployedLinkReferences": {}
}