{
  "_format": "hh-sol-artifact-1",
  "contractName": "IkiminaV1",
  "sourceName": "contracts/IkiminaV1.sol",
  "abi": [
    {
      "anonymous": false,
      "inputs": [
        {
          "indexed": false,
          "internalType": "address",
          "name": "previousAdmin",
          "type": "address"
        },
        {
          "indexed": false,
          "internalType": "address",
          "name": "newAdmin",
          "type": "address"
        }
      ],
      "name": "AdminChanged",
      "type": "event"
    },
    {
      "anonymous": false,
      "inputs": [
        {
          "indexed": true,
          "internalType": "address",
          "name": "beacon",
          "type": "address"
        }
      ],
      "name": "BeaconUpgraded",
      "type": "event"
    },
    {
      "anonymous": false,
      "inputs": [
        {
          "indexed": true,
          "internalType": "address",
          "name": "implementation",
          "type": "address"
        },
        {
          "indexed": false,
          "internalType": "string",
          "name": "newVersion",
          "type": "string"
        },
        {
          "indexed": false,
          "internalType": "uint256",
          "name": "timestamp",
          "type": "uint256"
        }
      ],
      "name": "ContractUpgraded",
      "type": "event"
    },
    {
      "anonymous": false,
      "inputs": [
        {
          "indexed": true,
          "internalType": "address",
          "name": "member",
          "type": "address"
        },
        {
          "indexed": false,
          "internalType": "uint256",
          "name": "amount",
          "type": "uint256"
        },
        {
          "indexed": false,
          "internalType": "uint256",
          "name": "newSavings",
          "type": "uint256"
        },
        {
          "indexed": false,
          "internalType": "uint256",
          "name": "newTotalPool",
          "type": "uint256"
        },
        {
          "indexed": false,
          "internalType": "uint256",
          "name": "timestamp",
          "type": "uint256"
        }
      ],
      "name": "ContributionMade",
      "type": "event"
    },
    {
      "anonymous": false,
      "inputs": [
        {
          "indexed": true,
          "internalType": "address",
          "name": "member",
          "type": "address"
        },
        {
          "indexed": false,
          "internalType": "uint256",
          "name": "amount",
          "type": "uint256"
        },
        {
          "indexed": false,
          "internalType": "uint256",
          "name": "timestamp",
          "type": "uint256"
        }
      ],
      "name": "DividendClaimed",
      "type": "event"
    },
    {
      "anonymous": false,
      "inputs": [
        {
          "indexed": true,
          "internalType": "uint256",
          "name": "termId",
          "type": "uint256"
        },
        {
          "indexed": false,
          "internalType": "uint256",
          "name": "totalDividend",
          "type": "uint256"
        },
        {
          "indexed": false,
          "internalType": "uint256",
          "name": "memberShare",
          "type": "uint256"
        },
        {
          "indexed": false,
          "internalType": "uint256",
          "name": "timestamp",
          "type": "uint256"
        }
      ],
      "name": "DividendDistributed",
      "type": "event"
    },
    {
      "anonymous": false,
      "inputs": [
        {
          "indexed": false,
          "internalType": "uint8",
          "name": "version",
          "type": "uint8"
        }
      ],
      "name": "Initialized",
      "type": "event"
    },
    {
      "anonymous": false,
      "inputs": [
        {
          "indexed": true,
          "internalType": "uint256",
          "name": "requestId",
          "type": "uint256"
        },
        {
          "indexed": true,
          "internalType": "address",
          "name": "borrower",
          "type": "address"
        },
        {
          "indexed": false,
          "internalType": "uint256",
          "name": "amount",
          "type": "uint256"
        },
        {
          "indexed": false,
          "internalType": "uint256",
          "name": "timestamp",
          "type": "uint256"
        }
      ],
      "name": "LoanApproved",
      "type": "event"
    },
    {
      "anonymous": false,
      "inputs": [
        {
          "indexed": true,
          "internalType": "address",
          "name": "borrower",
          "type": "address"
        },
        {
          "indexed": false,
          "internalType": "uint256",
          "name": "amount",
          "type": "uint256"
        },
        {
          "indexed": false,
          "internalType": "uint256",
          "name": "totalOwed",
          "type": "uint256"
        },
        {
          "indexed": false,
          "internalType": "uint256",
          "name": "deadline",
          "type": "uint256"
        },
        {
          "indexed": false,
          "internalType": "uint256",
          "name": "timestamp",
          "type": "uint256"
        }
      ],
      "name": "LoanAutoApproved",
      "type": "event"
    },
    {
      "anonymous": false,
      "inputs": [
        {
          "indexed": true,
          "internalType": "address",
          "name": "borrower",
          "type": "address"
        },
        {
          "indexed": false,
          "internalType": "uint256",
          "name": "amountOwed",
          "type": "uint256"
        },
        {
          "indexed": false,
          "internalType": "uint256",
          "name": "deadline",
          "type": "uint256"
        },
        {
          "indexed": false,
          "internalType": "uint256",
          "name": "timestamp",
          "type": "uint256"
        }
      ],
      "name": "LoanDefaulted",
      "type": "event"
    },
    {
      "anonymous": false,
      "inputs": [
        {
          "indexed": true,
          "internalType": "address",
          "name": "borrower",
          "type": "address"
        },
        {
          "indexed": false,
          "internalType": "uint256",
          "name": "principal",
          "type": "uint256"
        },
        {
          "indexed": false,
          "internalType": "uint256",
          "name": "totalOwed",
          "type": "uint256"
        },
        {
          "indexed": false,
          "internalType": "uint256",
          "name": "deadline",
          "type": "uint256"
        },
        {
          "indexed": false,
          "internalType": "uint256",
          "name": "timestamp",
          "type": "uint256"
        }
      ],
      "name": "LoanDisbursed",
      "type": "event"
    },
    {
      "anonymous": false,
      "inputs": [
        {
          "indexed": true,
          "internalType": "uint256",
          "name": "requestId",
          "type": "uint256"
        },
        {
          "indexed": true,
          "internalType": "address",
          "name": "borrower",
          "type": "address"
        },
        {
          "indexed": false,
          "internalType": "uint256",
          "name": "timestamp",
          "type": "uint256"
        }
      ],
      "name": "LoanRejected",
      "type": "event"
    },
    {
      "anonymous": false,
      "inputs": [
        {
          "indexed": true,
          "internalType": "address",
          "name": "borrower",
          "type": "address"
        },
        {
          "indexed": false,
          "internalType": "uint256",
          "name": "amountPaid",
          "type": "uint256"
        },
        {
          "indexed": false,
          "internalType": "uint256",
          "name": "remainingOwed",
          "type": "uint256"
        },
        {
          "indexed": false,
          "internalType": "bool",
          "name": "loanClosed",
          "type": "bool"
        },
        {
          "indexed": false,
          "internalType": "uint256",
          "name": "timestamp",
          "type": "uint256"
        }
      ],
      "name": "LoanRepaid",
      "type": "event"
    },
    {
      "anonymous": false,
      "inputs": [
        {
          "indexed": true,
          "internalType": "uint256",
          "name": "requestId",
          "type": "uint256"
        },
        {
          "indexed": true,
          "internalType": "address",
          "name": "borrower",
          "type": "address"
        },
        {
          "indexed": false,
          "internalType": "uint256",
          "name": "amount",
          "type": "uint256"
        },
        {
          "indexed": false,
          "internalType": "bool",
          "name": "autoApproved",
          "type": "bool"
        },
        {
          "indexed": false,
          "internalType": "uint256",
          "name": "timestamp",
          "type": "uint256"
        }
      ],
      "name": "LoanRequested",
      "type": "event"
    },
    {
      "anonymous": false,
      "inputs": [
        {
          "indexed": true,
          "internalType": "address",
          "name": "wallet",
          "type": "address"
        },
        {
          "indexed": false,
          "internalType": "string",
          "name": "name",
          "type": "string"
        },
        {
          "indexed": false,
          "internalType": "enum IkiminaV1.MemberRole",
          "name": "role",
          "type": "uint8"
        },
        {
          "indexed": false,
          "internalType": "uint256",
          "name": "timestamp",
          "type": "uint256"
        }
      ],
      "name": "MemberRegistered",
      "type": "event"
    },
    {
      "anonymous": false,
      "inputs": [
        {
          "indexed": true,
          "internalType": "address",
          "name": "wallet",
          "type": "address"
        },
        {
          "indexed": false,
          "internalType": "uint256",
          "name": "timestamp",
          "type": "uint256"
        }
      ],
      "name": "MemberRemoved",
      "type": "event"
    },
    {
      "anonymous": false,
      "inputs": [
        {
          "indexed": true,
          "internalType": "address",
          "name": "previousOwner",
          "type": "address"
        },
        {
          "indexed": true,
          "internalType": "address",
          "name": "newOwner",
          "type": "address"
        }
      ],
      "name": "OwnershipTransferred",
      "type": "event"
    },
    {
      "anonymous": false,
      "inputs": [
        {
          "indexed": false,
          "internalType": "address",
          "name": "account",
          "type": "address"
        }
      ],
      "name": "Paused",
      "type": "event"
    },
    {
      "anonymous": false,
      "inputs": [
        {
          "indexed": true,
          "internalType": "address",
          "name": "borrower",
          "type": "address"
        },
        {
          "indexed": false,
          "internalType": "uint256",
          "name": "penaltyAmount",
          "type": "uint256"
        },
        {
          "indexed": false,
          "internalType": "uint256",
          "name": "timestamp",
          "type": "uint256"
        }
      ],
      "name": "PenaltyApplied",
      "type": "event"
    },
    {
      "anonymous": false,
      "inputs": [
        {
          "indexed": true,
          "internalType": "address",
          "name": "member",
          "type": "address"
        },
        {
          "indexed": false,
          "internalType": "enum IkiminaV1.MemberRole",
          "name": "oldRole",
          "type": "uint8"
        },
        {
          "indexed": false,
          "internalType": "enum IkiminaV1.MemberRole",
          "name": "newRole",
          "type": "uint8"
        },
        {
          "indexed": false,
          "internalType": "uint256",
          "name": "timestamp",
          "type": "uint256"
        }
      ],
      "name": "RoleUpdated",
      "type": "event"
    },
    {
      "anonymous": false,
      "inputs": [
        {
          "indexed": true,
          "internalType": "uint256",
          "name": "termId",
          "type": "uint256"
        },
        {
          "indexed": false,
          "internalType": "uint256",
          "name": "startTime",
          "type": "uint256"
        },
        {
          "indexed": false,
          "internalType": "uint256",
          "name": "endTime",
          "type": "uint256"
        }
      ],
      "name": "TermStarted",
      "type": "event"
    },
    {
      "anonymous": false,
      "inputs": [
        {
          "indexed": false,
          "internalType": "address",
          "name": "account",
          "type": "address"
        }
      ],
      "name": "Unpaused",
      "type": "event"
    },
    {
      "anonymous": false,
      "inputs": [
        {
          "indexed": true,
          "internalType": "address",
          "name": "implementation",
          "type": "address"
        }
      ],
      "name": "Upgraded",
      "type": "event"
    },
    {
      "anonymous": false,
      "inputs": [
        {
          "indexed": true,
          "internalType": "address",
          "name": "member",
          "type": "address"
        },
        {
          "indexed": false,
          "internalType": "uint256",
          "name": "amount",
          "type": "uint256"
        },
        {
          "indexed": false,
          "internalType": "uint256",
          "name": "remainingSavings",
          "type": "uint256"
        },
        {
          "indexed": false,
          "internalType": "uint256",
          "name": "timestamp",
          "type": "uint256"
        }
      ],
      "name": "WithdrawalMade",
      "type": "event"
    },
    {
      "stateMutability": "payable",
      "type": "fallback"
    },
    {
      "inputs": [],
      "name": "AUTO_APPROVAL_MAX_PERCENTAGE",
      "outputs": [
        {
          "internalType": "uint256",
          "name": "",
          "type": "uint256"
        }
      ],
      "stateMutability": "view",
      "type": "function"
    },
    {
      "inputs": [],
      "name": "DIVIDEND_BPS",
      "outputs": [
        {
          "internalType": "uint256",
          "name": "",
          "type": "uint256"
        }
      ],
      "stateMutability": "view",
      "type": "function"
    },
    {
      "inputs": [],
      "name": "INTEREST_BPS",
      "outputs": [
        {
          "internalType": "uint256",
          "name": "",
          "type": "uint256"
        }
      ],
      "stateMutability": "view",
      "type": "function"
    },
    {
      "inputs": [],
      "name": "LATE_PENALTY_BPS",
      "outputs": [
        {
          "internalType": "uint256",
          "name": "",
          "type": "uint256"
        }
      ],
      "stateMutability": "view",
      "type": "function"
    },
    {
      "inputs": [],
      "name": "LOAN_DURATION",
      "outputs": [
        {
          "internalType": "uint256",
          "name": "",
          "type": "uint256"
        }
      ],
      "stateMutability": "view",
      "type": "function"
    },
    {
      "inputs": [],
      "name": "LOAN_MULTIPLIER",
      "outputs": [
        {
          "internalType": "uint256",
          "name": "",
          "type": "uint256"
        }
      ],
      "stateMutability": "view",
      "type": "function"
    },
    {
      "inputs": [],
      "name": "MAX_LOAN_PERCENTAGE",
      "outputs": [
        {
          "internalType": "uint256",
          "name": "",
          "type": "uint256"
        }
      ],
      "stateMutability": "view",
      "type": "function"
    },
    {
      "inputs": [],
      "name": "MAX_MEMBERS",
      "outputs": [
        {
          "internalType": "uint256",
          "name": "",
          "type": "uint256"
        }
      ],
      "stateMutability": "view",
      "type": "function"
    },
    {
      "inputs": [],
      "name": "MIN_CONTRIBUTION",
      "outputs": [
        {
          "internalType": "uint256",
          "name": "",
          "type": "uint256"
        }
      ],
      "stateMutability": "view",
      "type": "function"
    },
    {
      "inputs": [],
      "name": "NEW_MEMBER_TENURE_DAYS",
      "outputs": [
        {
          "internalType": "uint256",
          "name": "",
          "type": "uint256"
        }
      ],
      "stateMutability": "view",
      "type": "function"
    },
    {
      "inputs": [],
      "name": "REQUIRED_RESERVE_PERCENTAGE",
      "outputs": [
        {
          "internalType": "uint256",
          "name": "",
          "type": "uint256"
        }
      ],
      "stateMutability": "view",
      "type": "function"
    },
    {
      "inputs": [],
      "name": "TERM_DURATION",
      "outputs": [
        {
          "internalType": "uint256",
          "name": "",
          "type": "uint256"
        }
      ],
      "stateMutability": "view",
      "type": "function"
    },
    {
      "inputs": [],
      "name": "acceptAdminTransfer",
      "outputs": [],
      "stateMutability": "nonpayable",
      "type": "function"
    },
    {
      "inputs": [],
      "name": "admin",
      "outputs": [
        {
          "internalType": "address",
          "name": "",
          "type": "address"
        }
      ],
      "stateMutability": "view",
      "type": "function"
    },
    {
      "inputs": [
        {
          "internalType": "uint256",
          "name": "_requestId",
          "type": "uint256"
        }
      ],
      "name": "approveLoan",
      "outputs": [],
      "stateMutability": "nonpayable",
      "type": "function"
    },
    {
      "inputs": [],
      "name": "autoApprovedCount",
      "outputs": [
        {
          "internalType": "uint256",
          "name": "",
          "type": "uint256"
        }
      ],
      "stateMutability": "view",
      "type": "function"
    },
    {
      "inputs": [],
      "name": "claimDividends",
      "outputs": [],
      "stateMutability": "nonpayable",
      "type": "function"
    },
    {
      "inputs": [],
      "name": "contractBalance",
      "outputs": [
        {
          "internalType": "uint256",
          "name": "",
          "type": "uint256"
        }
      ],
      "stateMutability": "view",
      "type": "function"
    },
    {
      "inputs": [],
      "name": "contribute",
      "outputs": [],
      "stateMutability": "payable",
      "type": "function"
    },
    {
      "inputs": [],
      "name": "currentTermId",
      "outputs": [
        {
          "internalType": "uint256",
          "name": "",
          "type": "uint256"
        }
      ],
      "stateMutability": "view",
      "type": "function"
    },
    {
      "inputs": [],
      "name": "distributeDividends",
      "outputs": [],
      "stateMutability": "nonpayable",
      "type": "function"
    },
    {
      "inputs": [
        {
          "internalType": "address",
          "name": "_to",
          "type": "address"
        },
        {
          "internalType": "uint256",
          "name": "_amount",
          "type": "uint256"
        }
      ],
      "name": "emergencyWithdraw",
      "outputs": [],
      "stateMutability": "nonpayable",
      "type": "function"
    },
    {
      "inputs": [
        {
          "internalType": "address",
          "name": "_borrower",
          "type": "address"
        }
      ],
      "name": "flagDefault",
      "outputs": [],
      "stateMutability": "nonpayable",
      "type": "function"
    },
    {
      "inputs": [],
      "name": "getAvailableLoanCapacity",
      "outputs": [
        {
          "internalType": "uint256",
          "name": "",
          "type": "uint256"
        }
      ],
      "stateMutability": "view",
      "type": "function"
    },
    {
      "inputs": [],
      "name": "getCurrentTerm",
      "outputs": [
        {
          "internalType": "uint256",
          "name": "termId",
          "type": "uint256"
        },
        {
          "internalType": "uint256",
          "name": "startTime",
          "type": "uint256"
        },
        {
          "internalType": "uint256",
          "name": "endTime",
          "type": "uint256"
        },
        {
          "internalType": "uint256",
          "name": "interestCollected",
          "type": "uint256"
        },
        {
          "internalType": "bool",
          "name": "distributed",
          "type": "bool"
        }
      ],
      "stateMutability": "view",
      "type": "function"
    },
    {
      "inputs": [
        {
          "internalType": "address",
          "name": "_wallet",
          "type": "address"
        }
      ],
      "name": "getLoan",
      "outputs": [
        {
          "internalType": "uint256",
          "name": "principal",
          "type": "uint256"
        },
        {
          "internalType": "uint256",
          "name": "totalOwed",
          "type": "uint256"
        },
        {
          "internalType": "uint256",
          "name": "amountRepaid",
          "type": "uint256"
        },
        {
          "internalType": "uint256",
          "name": "remainingOwed",
          "type": "uint256"
        },
        {
          "internalType": "uint256",
          "name": "deadline",
          "type": "uint256"
        },
        {
          "internalType": "enum IkiminaV1.LoanStatus",
          "name": "status",
          "type": "uint8"
        }
      ],
      "stateMutability": "view",
      "type": "function"
    },
    {
      "inputs": [
        {
          "internalType": "uint256",
          "name": "_requestId",
          "type": "uint256"
        }
      ],
      "name": "getLoanRequest",
      "outputs": [
        {
          "internalType": "address",
          "name": "borrower",
          "type": "address"
        },
        {
          "internalType": "uint256",
          "name": "amount",
          "type": "uint256"
        },
        {
          "internalType": "uint256",
          "name": "requestedAt",
          "type": "uint256"
        },
        {
          "internalType": "bool",
          "name": "approved",
          "type": "bool"
        },
        {
          "internalType": "bool",
          "name": "rejected",
          "type": "bool"
        }
      ],
      "stateMutability": "view",
      "type": "function"
    },
    {
      "inputs": [
        {
          "internalType": "address",
          "name": "_wallet",
          "type": "address"
        }
      ],
      "name": "getMember",
      "outputs": [
        {
          "internalType": "string",
          "name": "name",
          "type": "string"
        },
        {
          "internalType": "string",
          "name": "email",
          "type": "string"
        },
        {
          "internalType": "string",
          "name": "phone",
          "type": "string"
        },
        {
          "internalType": "bool",
          "name": "isRegistered",
          "type": "bool"
        },
        {
          "internalType": "bool",
          "name": "isActive",
          "type": "bool"
        },
        {
          "internalType": "uint256",
          "name": "savings",
          "type": "uint256"
        },
        {
          "internalType": "uint256",
          "name": "pendingDividends",
          "type": "uint256"
        },
        {
          "internalType": "uint256",
          "name": "joinedAt",
          "type": "uint256"
        },
        {
          "internalType": "enum IkiminaV1.MemberRole",
          "name": "role",
          "type": "uint8"
        }
      ],
      "stateMutability": "view",
      "type": "function"
    },
    {
      "inputs": [],
      "name": "getMemberList",
      "outputs": [
        {
          "internalType": "address[]",
          "name": "",
          "type": "address[]"
        }
      ],
      "stateMutability": "view",
      "type": "function"
    },
    {
      "inputs": [
        {
          "internalType": "address",
          "name": "_wallet",
          "type": "address"
        }
      ],
      "name": "getMemberRole",
      "outputs": [
        {
          "internalType": "enum IkiminaV1.MemberRole",
          "name": "",
          "type": "uint8"
        }
      ],
      "stateMutability": "view",
      "type": "function"
    },
    {
      "inputs": [],
      "name": "getPoolBasedMaxLoan",
      "outputs": [
        {
          "internalType": "uint256",
          "name": "",
          "type": "uint256"
        }
      ],
      "stateMutability": "view",
      "type": "function"
    },
    {
      "inputs": [],
      "name": "initialize",
      "outputs": [],
      "stateMutability": "nonpayable",
      "type": "function"
    },
    {
      "inputs": [
        {
          "internalType": "address",
          "name": "_newAdmin",
          "type": "address"
        }
      ],
      "name": "initiateAdminTransfer",
      "outputs": [],
      "stateMutability": "nonpayable",
      "type": "function"
    },
    {
      "inputs": [
        {
          "internalType": "address",
          "name": "_wallet",
          "type": "address"
        }
      ],
      "name": "isLeader",
      "outputs": [
        {
          "internalType": "bool",
          "name": "",
          "type": "bool"
        }
      ],
      "stateMutability": "view",
      "type": "function"
    },
    {
      "inputs": [],
      "name": "lastUpgradeTimestamp",
      "outputs": [
        {
          "internalType": "uint256",
          "name": "",
          "type": "uint256"
        }
      ],
      "stateMutability": "view",
      "type": "function"
    },
    {
      "inputs": [],
      "name": "loanRequestCount",
      "outputs": [
        {
          "internalType": "uint256",
          "name": "",
          "type": "uint256"
        }
      ],
      "stateMutability": "view",
      "type": "function"
    },
    {
      "inputs": [
        {
          "internalType": "uint256",
          "name": "",
          "type": "uint256"
        }
      ],
      "name": "loanRequests",
      "outputs": [
        {
          "internalType": "address",
          "name": "borrower",
          "type": "address"
        },
        {
          "internalType": "uint256",
          "name": "amount",
          "type": "uint256"
        },
        {
          "internalType": "uint256",
          "name": "requestedAt",
          "type": "uint256"
        },
        {
          "internalType": "bool",
          "name": "approved",
          "type": "bool"
        },
        {
          "internalType": "bool",
          "name": "rejected",
          "type": "bool"
        }
      ],
      "stateMutability": "view",
      "type": "function"
    },
    {
      "inputs": [
        {
          "internalType": "address",
          "name": "",
          "type": "address"
        }
      ],
      "name": "loans",
      "outputs": [
        {
          "internalType": "uint256",
          "name": "principal",
          "type": "uint256"
        },
        {
          "internalType": "uint256",
          "name": "totalOwed",
          "type": "uint256"
        },
        {
          "internalType": "uint256",
          "name": "amountRepaid",
          "type": "uint256"
        },
        {
          "internalType": "uint256",
          "name": "deadline",
          "type": "uint256"
        },
        {
          "internalType": "enum IkiminaV1.LoanStatus",
          "name": "status",
          "type": "uint8"
        }
      ],
      "stateMutability": "view",
      "type": "function"
    },
    {
      "inputs": [],
      "name": "manuallyApprovedCount",
      "outputs": [
        {
          "internalType": "uint256",
          "name": "",
          "type": "uint256"
        }
      ],
      "stateMutability": "view",
      "type": "function"
    },
    {
      "inputs": [
        {
          "internalType": "address",
          "name": "_wallet",
          "type": "address"
        }
      ],
      "name": "maxLoanAmount",
      "outputs": [
        {
          "internalType": "uint256",
          "name": "",
          "type": "uint256"
        }
      ],
      "stateMutability": "view",
      "type": "function"
    },
    {
      "inputs": [],
      "name": "memberCount",
      "outputs": [
        {
          "internalType": "uint256",
          "name": "",
          "type": "uint256"
        }
      ],
      "stateMutability": "view",
      "type": "function"
    },
    {
      "inputs": [
        {
          "internalType": "uint256",
          "name": "",
          "type": "uint256"
        }
      ],
      "name": "memberList",
      "outputs": [
        {
          "internalType": "address",
          "name": "",
          "type": "address"
        }
      ],
      "stateMutability": "view",
      "type": "function"
    },
    {
      "inputs": [
        {
          "internalType": "address",
          "name": "",
          "type": "address"
        }
      ],
      "name": "members",
      "outputs": [
        {
          "internalType": "string",
          "name": "name",
          "type": "string"
        },
        {
          "internalType": "string",
          "name": "email",
          "type": "string"
        },
        {
          "internalType": "string",
          "name": "phone",
          "type": "string"
        },
        {
          "internalType": "address",
          "name": "wallet",
          "type": "address"
        },
        {
          "internalType": "bool",
          "name": "isRegistered",
          "type": "bool"
        },
        {
          "internalType": "bool",
          "name": "isActive",
          "type": "bool"
        },
        {
          "internalType": "uint256",
          "name": "savings",
          "type": "uint256"
        },
        {
          "internalType": "uint256",
          "name": "pendingDividends",
          "type": "uint256"
        },
        {
          "internalType": "uint256",
          "name": "joinedAt",
          "type": "uint256"
        },
        {
          "internalType": "enum IkiminaV1.MemberRole",
          "name": "role",
          "type": "uint8"
        }
      ],
      "stateMutability": "view",
      "type": "function"
    },
    {
      "inputs": [],
      "name": "owner",
      "outputs": [
        {
          "internalType": "address",
          "name": "",
          "type": "address"
        }
      ],
      "stateMutability": "view",
      "type": "function"
    },
    {
      "inputs": [],
      "name": "pause",
      "outputs": [],
      "stateMutability": "nonpayable",
      "type": "function"
    },
    {
      "inputs": [],
      "name": "paused",
      "outputs": [
        {
          "internalType": "bool",
          "name": "",
          "type": "bool"
        }
      ],
      "stateMutability": "view",
      "type": "function"
    },
    {
      "inputs": [],
      "name": "pendingAdmin",
      "outputs": [
        {
          "internalType": "address",
          "name": "",
          "type": "address"
        }
      ],
      "stateMutability": "view",
      "type": "function"
    },
    {
      "inputs": [],
      "name": "proxiableUUID",
      "outputs": [
        {
          "internalType": "bytes32",
          "name": "",
          "type": "bytes32"
        }
      ],
      "stateMutability": "view",
      "type": "function"
    },
    {
      "inputs": [
        {
          "internalType": "address",
          "name": "_member",
          "type": "address"
        },
        {
          "internalType": "uint256",
          "name": "_amount",
          "type": "uint256"
        }
      ],
      "name": "qualifiesForAutoApproval",
      "outputs": [
        {
          "internalType": "bool",
          "name": "",
          "type": "bool"
        }
      ],
      "stateMutability": "view",
      "type": "function"
    },
    {
      "inputs": [
        {
          "internalType": "string",
          "name": "_name",
          "type": "string"
        },
        {
          "internalType": "string",
          "name": "_email",
          "type": "string"
        },
        {
          "internalType": "string",
          "name": "_phone",
          "type": "string"
        },
        {
          "internalType": "address",
          "name": "_wallet",
          "type": "address"
        },
        {
          "internalType": "enum IkiminaV1.MemberRole",
          "name": "_role",
          "type": "uint8"
        }
      ],
      "name": "register",
      "outputs": [],
      "stateMutability": "nonpayable",
      "type": "function"
    },
    {
      "inputs": [
        {
          "internalType": "uint256",
          "name": "_requestId",
          "type": "uint256"
        }
      ],
      "name": "rejectLoan",
      "outputs": [],
      "stateMutability": "nonpayable",
      "type": "function"
    },
    {
      "inputs": [
        {
          "internalType": "address",
          "name": "_wallet",
          "type": "address"
        }
      ],
      "name": "removeMember",
      "outputs": [],
      "stateMutability": "nonpayable",
      "type": "function"
    },
    {
      "inputs": [],
      "name": "renounceOwnership",
      "outputs": [],
      "stateMutability": "nonpayable",
      "type": "function"
    },
    {
      "inputs": [],
      "name": "repayLoan",
      "outputs": [],
      "stateMutability": "payable",
      "type": "function"
    },
    {
      "inputs": [
        {
          "internalType": "uint256",
          "name": "_amount",
          "type": "uint256"
        }
      ],
      "name": "requestLoan",
      "outputs": [
        {
          "internalType": "uint256",
          "name": "requestId",
          "type": "uint256"
        }
      ],
      "stateMutability": "nonpayable",
      "type": "function"
    },
    {
      "inputs": [],
      "name": "reservePool",
      "outputs": [
        {
          "internalType": "uint256",
          "name": "",
          "type": "uint256"
        }
      ],
      "stateMutability": "view",
      "type": "function"
    },
    {
      "inputs": [
        {
          "internalType": "uint256",
          "name": "",
          "type": "uint256"
        }
      ],
      "name": "terms",
      "outputs": [
        {
          "internalType": "uint256",
          "name": "startTime",
          "type": "uint256"
        },
        {
          "internalType": "uint256",
          "name": "endTime",
          "type": "uint256"
        },
        {
          "internalType": "uint256",
          "name": "interestCollected",
          "type": "uint256"
        },
        {
          "internalType": "bool",
          "name": "distributed",
          "type": "bool"
        }
      ],
      "stateMutability": "view",
      "type": "function"
    },
    {
      "inputs": [],
      "name": "totalPool",
      "outputs": [
        {
          "internalType": "uint256",
          "name": "",
          "type": "uint256"
        }
      ],
      "stateMutability": "view",
      "type": "function"
    },
    {
      "inputs": [
        {
          "internalType": "address",
          "name": "newOwner",
          "type": "address"
        }
      ],
      "name": "transferOwnership",
      "outputs": [],
      "stateMutability": "nonpayable",
      "type": "function"
    },
    {
      "inputs": [],
      "name": "unpause",
      "outputs": [],
      "stateMutability": "nonpayable",
      "type": "function"
    },
    {
      "inputs": [
        {
          "internalType": "address",
          "name": "_wallet",
          "type": "address"
        },
        {
          "internalType": "enum IkiminaV1.MemberRole",
          "name": "_newRole",
          "type": "uint8"
        }
      ],
      "name": "updateMemberRole",
      "outputs": [],
      "stateMutability": "nonpayable",
      "type": "function"
    },
    {
      "inputs": [
        {
          "internalType": "address",
          "name": "newImplementation",
          "type": "address"
        }
      ],
      "name": "upgradeTo",
      "outputs": [],
      "stateMutability": "nonpayable",
      "type": "function"
    },
    {
      "inputs": [
        {
          "internalType": "address",
          "name": "newImplementation",
          "type": "address"
        },
        {
          "internalType": "bytes",
          "name": "data",
          "type": "bytes"
        }
      ],
      "name": "upgradeToAndCall",
      "outputs": [],
      "stateMutability": "payable",
      "type": "function"
    },
    {
      "inputs": [
        {
          "internalType": "string",
          "name": "_newVersion",
          "type": "string"
        }
      ],
      "name": "upgradeVersion",
      "outputs": [],
      "stateMutability": "nonpayable",
      "type": "function"
    },
    {
      "inputs": [],
      "name": "version",
      "outputs": [
        {
          "internalType": "string",
          "name": "",
          "type": "string"
        }
      ],
      "stateMutability": "view",
      "type": "function"
    },
    {
      "inputs": [
        {
          "internalType": "uint256",
          "name": "_amount",
          "type": "uint256"
        }
      ],
      "name": "withdrawSavings",
      "outputs": [],
      "stateMutability": "nonpayable",
      "type": "function"
    },
    {
      "stateMutability": "payable",
      "type": "receive"
    }
  ],
  "bytecode": "0x60a06040523060805234801561001457600080fd5b5060805161538961004c60003960008181611c9d01528181611cdd01528181611daf01528181611def0152611e8201526153896000f3fe6080604052600436106103dc5760003560e01c80638b7afe2e116101fd578063c0aa0e8a11610118578063de986450116100ab578063eec987241161007a578063eec9872414610cc4578063eee2686214610cd9578063f2fde38b14610cf0578063f851a44014610d10578063f966ade714610d315761042e565b8063de98645014610c61578063e02a4dfd14610c81578063ea0e35b114610c98578063ecfb49a314610cad5761042e565b8063d46cedd3116100e7578063d46cedd314610c04578063d7bb99ba14610c19578063db512e8514610c21578063de48078c14610c415761042e565b8063c0aa0e8a14610b23578063ca9f25a81461084c578063d119c63614610b8b578063d1b332f414610bab5761042e565b8063a620f8a511610190578063b307fc6d1161015f578063b307fc6d14610ac1578063b64e6fdc14610ae1578063b786f97814610af6578063bc03bfee14610b0d5761042e565b8063a620f8a514610a4a578063aadc1ac114610a61578063ab6c12df14610a81578063acc5baa314610aa15761042e565b806392ecf577116101cc57806392ecf5771461099057806395ccea67146109f35780639de6f3e414610a13578063a3dbd32914610a335761042e565b80638b7afe2e146109295780638d5d34291461093c5780638d7036de1461095c5780638da5cb5b146109725761042e565b80634f1ef286116102f8578063668038e01161028b578063735af25d1161025a578063735af25d1461087657806373b4086b1461088b5780637dbdfe7c146108ea5780638129fc1c146108ff5780638456cb59146109145761042e565b8063668038e0146107ed5780636963974914610802578063710cb8e31461084c578063715018a6146108615761042e565b80635c975abb116102c75780635c975abb146107675780635d29cb981461078b5780635d678cba146107ab5780635f5d5f00146107cb5761042e565b80634f1ef28614610706578063529a564b1461071957806352d1902d1461073057806354fd4d50146107455761042e565b80631db79db51161037057806333481fc91161033f57806333481fc9146106845780633659cfe6146106b65780633f4ba83a146106d657806340650c91146106eb5761042e565b80631db79db5146105df57806326782247146105f65780632ada25961461062f5780632f1994cc146106645761042e565b80630b1ca49a116103ac5780630b1ca49a1461050257806311aee3801461052257806317aee51f146105395780631b3b86711461054e5761042e565b80624a0de7146104765780630266f0441461049e57806303c83302146104b557806308ae4b0c146104cc5761042e565b3661042e5760405162461bcd60e51b815260206004820152601960248201527f496b696d696e613a2075736520636f6e7472696275746528290000000000000060448201526064015b60405180910390fd5b60405162461bcd60e51b815260206004820152601960248201527f496b696d696e613a20756e6b6e6f776e2066756e6374696f6e000000000000006044820152606401610425565b34801561048257600080fd5b5061048b610d39565b6040519081526020015b60405180910390f35b3480156104aa57600080fd5b5061048b6101305481565b3480156104c157600080fd5b506104ca610d65565b005b3480156104d857600080fd5b506104ec6104e736600461494d565b61109c565b6040516104959a999897969594939291906149e2565b34801561050e57600080fd5b506104ca61051d36600461494d565b611294565b34801561052e57600080fd5b5061048b6101315481565b34801561054557600080fd5b506104ca611482565b34801561055a57600080fd5b506105a9610569366004614a6f565b6000908152610135602052604090208054600182015460028301546003909301546001600160a01b039092169390929160ff808216926101009092041690565b604080516001600160a01b039096168652602086019490945292840191909152151560608301521515608082015260a001610495565b3480156105eb57600080fd5b5061048b61013a5481565b34801561060257600080fd5b5061012e54610617906001600160a01b031681565b6040516001600160a01b039091168152602001610495565b34801561063b57600080fd5b5061064f61064a36600461494d565b611506565b60405161049599989796959493929190614a88565b34801561067057600080fd5b506104ca61067f366004614b5d565b61173b565b34801561069057600080fd5b506106a461069f36600461494d565b611c02565b60405161049596959493929190614c28565b3480156106c257600080fd5b506104ca6106d136600461494d565b611c93565b3480156106e257600080fd5b506104ca611d72565b3480156106f757600080fd5b5061048b66038d7ea4c6800081565b6104ca610714366004614cef565b611da5565b34801561072557600080fd5b5061048b6101395481565b34801561073c57600080fd5b5061048b611e75565b34801561075157600080fd5b5061075a611f28565b6040516104959190614d51565b34801561077357600080fd5b5060fb5460ff165b6040519015158152602001610495565b34801561079757600080fd5b506104ca6107a6366004614a6f565b611fb7565b3480156107b757600080fd5b5061077b6107c6366004614d64565b612135565b3480156107d757600080fd5b506107e06122a7565b6040516104959190614d8e565b3480156107f957600080fd5b506104ca61230a565b34801561080e57600080fd5b5061083f61081d36600461494d565b6001600160a01b03166000908152610133602052604090206007015460ff1690565b6040516104959190614ddb565b34801561085857600080fd5b5061048b601e81565b34801561086d57600080fd5b506104ca612502565b34801561088257600080fd5b5061048b600a81565b34801561089757600080fd5b506108d96108a636600461494d565b61013460205260009081526040902080546001820154600283015460038401546004909401549293919290919060ff1685565b604051610495959493929190614de9565b3480156108f657600080fd5b5061048b600381565b34801561090b57600080fd5b506104ca612514565b34801561092057600080fd5b506104ca612687565b34801561093557600080fd5b504761048b565b34801561094857600080fd5b5061048b610957366004614a6f565b6126ba565b34801561096857600080fd5b5061048b611f4081565b34801561097e57600080fd5b506097546001600160a01b0316610617565b34801561099c57600080fd5b50610132546000818152610136602052604090208054600182015460028301546003909301549192909160ff166040805195865260208601949094529284019190915260608301521515608082015260a001610495565b3480156109ff57600080fd5b506104ca610a0e366004614d64565b612bed565b348015610a1f57600080fd5b506104ca610a2e366004614e13565b612d18565b348015610a3f57600080fd5b5061048b62ed4e0081565b348015610a5657600080fd5b5061048b61013c5481565b348015610a6d57600080fd5b506104ca610a7c366004614a6f565b612d67565b348015610a8d57600080fd5b506104ca610a9c36600461494d565b612fda565b348015610aad57600080fd5b506104ca610abc366004614e5c565b613076565b348015610acd57600080fd5b50610617610adc366004614a6f565b6131a0565b348015610aed57600080fd5b5061048b6131cb565b348015610b0257600080fd5b5061048b6101385481565b348015610b1957600080fd5b5061048b6101f481565b348015610b2f57600080fd5b50610b69610b3e366004614a6f565b6101366020526000908152604090208054600182015460028301546003909301549192909160ff1684565b6040805194855260208501939093529183015215156060820152608001610495565b348015610b9757600080fd5b5061048b610ba636600461494d565b6131df565b348015610bb757600080fd5b506105a9610bc6366004614a6f565b6101356020526000908152604090208054600182015460028301546003909301546001600160a01b0390921692909160ff8082169161010090041685565b348015610c1057600080fd5b5061048b603281565b6104ca61326c565b348015610c2d57600080fd5b5061077b610c3c36600461494d565b6133e9565b348015610c4d57600080fd5b506104ca610c5c36600461494d565b61345d565b348015610c6d57600080fd5b506104ca610c7c366004614a6f565b6136fb565b348015610c8d57600080fd5b5061048b62278d0081565b348015610ca457600080fd5b5061048b606481565b348015610cb957600080fd5b5061048b61012f5481565b348015610cd057600080fd5b5061048b60c881565b348015610ce557600080fd5b5061048b6101325481565b348015610cfc57600080fd5b506104ca610d0b36600461494d565b6139fc565b348015610d1c57600080fd5b5061012d54610617906001600160a01b031681565b6104ca613a72565b60006064610d48601e82614ea5565b61012f54610d569190614eb8565b610d609190614ecf565b905090565b610d6d613dec565b610132546000908152610136602052604090206001810154421015610dd45760405162461bcd60e51b815260206004820152601760248201527f496b696d696e613a207465726d206e6f7420656e6465640000000000000000006044820152606401610425565b600381015460ff1615610e295760405162461bcd60e51b815260206004820152601c60248201527f496b696d696e613a20616c7265616479206469737472696275746564000000006044820152606401610425565b6000816002015411610e745760405162461bcd60e51b8152602060048201526014602482015273125ada5b5a5b984e881b9bc81a5b9d195c995cdd60621b6044820152606401610425565b60006101315411610ebd5760405162461bcd60e51b8152602060048201526013602482015272496b696d696e613a206e6f206d656d6265727360681b6044820152606401610425565b60038101805460ff19166001179055600281015460009061271090610ee590611f4090614eb8565b610eef9190614ecf565b9050808260020154610f019190614ea5565b6101306000828254610f139190614ef1565b9091555060009050610f23613e45565b905060005b6101375481101561101a5760006101378281548110610f4957610f49614f04565b60009182526020808320909101546001600160a01b031680835261013390915260409091206003015490915060ff600160a81b90910416610f8a5750611012565b6000808411610fa65761013154610fa19086614ecf565b610fd9565b6001600160a01b038216600090815261013360205260409020600401548490610fcf9087614eb8565b610fd99190614ecf565b6001600160a01b0383166000908152610133602052604081206005018054929350839290919061100a908490614ef1565b909155505050505b600101610f28565b50610132547fc6570a09263e2dbe9b55b3b62e5c111af20c6cfb770f70c0aab4660ef56cc3378361013154856110509190614ecf565b604080519283526020830191909152429082015260600160405180910390a2610132805490600061108083614f1a565b919050555061108d613eff565b50505061109a600160c955565b565b610133602052600090815260409020805481906110b890614f33565b80601f01602080910402602001604051908101604052809291908181526020018280546110e490614f33565b80156111315780601f1061110657610100808354040283529160200191611131565b820191906000526020600020905b81548152906001019060200180831161111457829003601f168201915b50505050509080600101805461114690614f33565b80601f016020809104026020016040519081016040528092919081815260200182805461117290614f33565b80156111bf5780601f10611194576101008083540402835291602001916111bf565b820191906000526020600020905b8154815290600101906020018083116111a257829003601f168201915b5050505050908060020180546111d490614f33565b80601f016020809104026020016040519081016040528092919081815260200182805461120090614f33565b801561124d5780601f106112225761010080835404028352916020019161124d565b820191906000526020600020905b81548152906001019060200180831161123057829003601f168201915b50505050600383015460048401546005850154600686015460079096015494956001600160a01b0384169560ff600160a01b860481169650600160a81b909504851694168a565b61012d546001600160a01b031633146112bf5760405162461bcd60e51b815260040161042590614f67565b6001600160a01b03811660009081526101336020526040902060030154600160a01b900460ff16801561131557506001600160a01b03811660009081526101336020526040902060030154600160a81b900460ff165b6113315760405162461bcd60e51b815260040161042590614f9e565b60026001600160a01b03821660009081526101346020526040902060049081015460ff1690811115611365576113656149b8565b141580156113a5575060016001600160a01b03821660009081526101346020526040902060049081015460ff16908111156113a2576113a26149b8565b14155b6114015760405162461bcd60e51b815260206004820152602760248201527f496b696d696e613a206d656d62657220686173206163746976652f70656e64696044820152663733903637b0b760c91b6064820152608401610425565b6001600160a01b038116600090815261013360205260408120600301805460ff60a81b1916905561013180549161143783614fd5565b9190505550806001600160a01b03167f3ac963493df564de734d98633f1145d21512e282ba4c02d3c1011119bf7f28624260405161147791815260200190565b60405180910390a250565b61012e546001600160a01b031633146114dd5760405162461bcd60e51b815260206004820152601a60248201527f496b696d696e613a206e6f742070656e64696e672061646d696e0000000000006044820152606401610425565b61012e805461012d80546001600160a01b03199081166001600160a01b03841617909155169055565b6001600160a01b0381166000908152610133602052604081206003810154600482015460058301546006840154600785015485546060978897889791968796879687968796879686956001870195600288019560ff600160a01b8504811696600160a81b9095048116959394929391921690899061158390614f33565b80601f01602080910402602001604051908101604052809291908181526020018280546115af90614f33565b80156115fc5780601f106115d1576101008083540402835291602001916115fc565b820191906000526020600020905b8154815290600101906020018083116115df57829003601f168201915b5050505050985087805461160f90614f33565b80601f016020809104026020016040519081016040528092919081815260200182805461163b90614f33565b80156116885780601f1061165d57610100808354040283529160200191611688565b820191906000526020600020905b81548152906001019060200180831161166b57829003601f168201915b5050505050975086805461169b90614f33565b80601f01602080910402602001604051908101604052809291908181526020018280546116c790614f33565b80156117145780601f106116e957610100808354040283529160200191611714565b820191906000526020600020905b8154815290600101906020018083116116f757829003601f168201915b50505050509650995099509950995099509950995099509950509193959799909294969850565b61012d546001600160a01b031633146117665760405162461bcd60e51b815260040161042590614f67565b61176e613fb1565b6001600160a01b0382166117bc5760405162461bcd60e51b8152602060048201526015602482015274496b696d696e613a207a65726f206164647265737360581b6044820152606401610425565b6001600160a01b03821660009081526101336020526040902060030154600160a01b900460ff16156118305760405162461bcd60e51b815260206004820152601b60248201527f496b696d696e613a20616c7265616479207265676973746572656400000000006044820152606401610425565b6064610131541061187c5760405162461bcd60e51b8152602060048201526016602482015275125ada5b5a5b984e8819dc9bdd5c081a5cc8199d5b1b60521b6044820152606401610425565b866118c25760405162461bcd60e51b8152602060048201526016602482015275125ada5b5a5b984e881b985b59481c995c5d5a5c995960521b6044820152606401610425565b8461190f5760405162461bcd60e51b815260206004820152601760248201527f496b696d696e613a20656d61696c2072657175697265640000000000000000006044820152606401610425565b8261195c5760405162461bcd60e51b815260206004820152601760248201527f496b696d696e613a2070686f6e652072657175697265640000000000000000006044820152606401610425565b60405180610140016040528089898080601f016020809104026020016040519081016040528093929190818152602001838380828437600092019190915250505090825250604080516020601f8a0181900481028201810190925288815291810191908990899081908401838280828437600092019190915250505090825250604080516020601f88018190048102820181019092528681529181019190879087908190840183828082843760009201829052509385525050506001600160a01b038516602083015260016040830181905260608301526080820181905260a08201524260c082015260e001826003811115611a5a57611a5a6149b8565b90526001600160a01b03831660009081526101336020526040902081518190611a839082615034565b5060208201516001820190611a989082615034565b5060408201516002820190611aad9082615034565b50606082015160038083018054608086015160a08701511515600160a81b0260ff60a81b19911515600160a01b026001600160a81b03199093166001600160a01b039096169590951791909117169290921790915560c0830151600483015560e0830151600583015561010083015160068301556101208301516007830180549192909160ff1916906001908490811115611b4a57611b4a6149b8565b021790555050610137805460018101825560009182527f43dc304bb3613567eca51c4fb9e7f3128bc51bba882a32550e891d6cbd8a0fa10180546001600160a01b0319166001600160a01b0386161790556101318054925090611bac83614f1a565b9190505550816001600160a01b03167f136ad7af5c9b264307029287668641b0930bfcb10e20bcc749ea87f2c15dc08689898442604051611bf094939291906150f4565b60405180910390a25050505050505050565b60008060008060008060006101346000896001600160a01b03166001600160a01b03168152602001908152602001600020905060008160020154826001015411611c4d576000611c61565b81600201548260010154611c619190614ea5565b8254600184015460028501546003860154600490960154929d919c509a5091985092965060ff90921694509092505050565b6001600160a01b037f0000000000000000000000000000000000000000000000000000000000000000163003611cdb5760405162461bcd60e51b81526004016104259061513b565b7f00000000000000000000000000000000000000000000000000000000000000006001600160a01b0316611d2460008051602061530d833981519152546001600160a01b031690565b6001600160a01b031614611d4a5760405162461bcd60e51b815260040161042590615187565b611d5381613ff7565b60408051600080825260208201909252611d6f91839190613fff565b50565b61012d546001600160a01b03163314611d9d5760405162461bcd60e51b815260040161042590614f67565b61109a61416a565b6001600160a01b037f0000000000000000000000000000000000000000000000000000000000000000163003611ded5760405162461bcd60e51b81526004016104259061513b565b7f00000000000000000000000000000000000000000000000000000000000000006001600160a01b0316611e3660008051602061530d833981519152546001600160a01b031690565b6001600160a01b031614611e5c5760405162461bcd60e51b815260040161042590615187565b611e6582613ff7565b611e7182826001613fff565b5050565b6000306001600160a01b037f00000000000000000000000000000000000000000000000000000000000000001614611f155760405162461bcd60e51b815260206004820152603860248201527f555550535570677261646561626c653a206d757374206e6f742062652063616c60448201527f6c6564207468726f7567682064656c656761746563616c6c00000000000000006064820152608401610425565b5060008051602061530d83398151915290565b61013b8054611f3690614f33565b80601f0160208091040260200160405190810160405280929190818152602001828054611f6290614f33565b8015611faf5780601f10611f8457610100808354040283529160200191611faf565b820191906000526020600020905b815481529060010190602001808311611f9257829003601f168201915b505050505081565b336000908152610133602052604090206007015460ff166001816003811115611fe257611fe26149b8565b1480611fff57506002816003811115611ffd57611ffd6149b8565b145b8061201b57506003816003811115612019576120196149b8565b145b6120375760405162461bcd60e51b8152600401610425906151d3565b600082815261013560205260409020600381015460ff1615801561206557506003810154610100900460ff16155b6120b15760405162461bcd60e51b815260206004820152601a60248201527f496b696d696e613a20616c72656164792070726f6365737365640000000000006044820152606401610425565b60038101805461ff00191661010017905580546001600160a01b0316600090815261013460205260408120600401805460ff1916600183021790555080546040514281526001600160a01b039091169084907fab0e20c72eaa566ce0daef9ab1c37cb8bd61bb60fbbb6cdfe213dc86f37e5d7f9060200160405180910390a3505050565b6001600160a01b03821660009081526101336020526040812060030154600160a01b900460ff16158061218c57506001600160a01b03831660009081526101336020526040902060030154600160a81b900460ff16155b15612199575060006122a1565b6121a4826002614eb8565b61012f5410156121b6575060006122a1565b6001600160a01b038316600090815261013360205260409020600401548211156121e2575060006122a1565b60006064600a61012f546121f69190614eb8565b6122009190614ecf565b9050808311156122145760009150506122a1565b612222601e62015180614eb8565b6001600160a01b038516600090815261013360205260409020600601546122499190614ef1565b42101561225a5760009150506122a1565b6001600160a01b03841660009081526101346020526040902060049081015460ff168181111561228c5761228c6149b8565b0361229b5760009150506122a1565b60019150505b92915050565b606061013780548060200260200160405190810160405280929190818152602001828054801561230057602002820191906000526020600020905b81546001600160a01b031681526001909101906020018083116122e2575b5050505050905090565b3360009081526101336020526040902060030154600160a01b900460ff16801561234e57503360009081526101336020526040902060030154600160a81b900460ff165b61236a5760405162461bcd60e51b815260040161042590614f9e565b612372613dec565b61237a613fb1565b3360009081526101336020526040902060050154806123d35760405162461bcd60e51b8152602060048201526015602482015274496b696d696e613a206e6f206469766964656e647360581b6044820152606401610425565b8061012f5410156124265760405162461bcd60e51b815260206004820152601a60248201527f496b696d696e613a20706f6f6c20696e73756666696369656e740000000000006044820152606401610425565b3360009081526101336020526040812060050181905561012f805483929061244f908490614ea5565b90915550506040805182815242602082015233917fa1c93169468f71ef26f4adf10bca8df21460f11843a01ed9c69da306e33c3847910160405180910390a2604051600090339083908381818185875af1925050503d80600081146124d0576040519150601f19603f3d011682016040523d82523d6000602084013e6124d5565b606091505b50509050806124f65760405162461bcd60e51b81526004016104259061520a565b505061109a600160c955565b61250a6141bc565b61109a6000614216565b600054610100900460ff16158080156125345750600054600160ff909116105b8061254e5750303b15801561254e575060005460ff166001145b6125b15760405162461bcd60e51b815260206004820152602e60248201527f496e697469616c697a61626c653a20636f6e747261637420697320616c72656160448201526d191e481a5b9a5d1a585b1a5e995960921b6064820152608401610425565b6000805460ff1916600117905580156125d4576000805461ff0019166101001790555b6125dc614268565b6125e461428f565b6125ec6142be565b6125f46142ed565b61012d80546001600160a01b031916331790556040805180820190915260058152640312e302e360dc1b602082015261013b906126319082615034565b504261013c5561263f613eff565b8015611d6f576000805461ff0019169055604051600181527f7f26b83ff96e1f2b6a682f133852f6798a09c465da95921460cefb38474024989060200160405180910390a150565b61012d546001600160a01b031633146126b25760405162461bcd60e51b815260040161042590614f67565b61109a61431c565b3360009081526101336020526040812060030154600160a01b900460ff1680156126fe57503360009081526101336020526040902060030154600160a81b900460ff165b61271a5760405162461bcd60e51b815260040161042590614f9e565b612722613fb1565b600082116127725760405162461bcd60e51b815260206004820152601b60248201527f496b696d696e613a20616d6f756e74206d757374206265203e203000000000006044820152606401610425565b60023360009081526101346020526040902060049081015460ff169081111561279d5761279d6149b8565b141580156127d4575060013360009081526101346020526040902060049081015460ff16908111156127d1576127d16149b8565b14155b6128195760405162461bcd60e51b815260206004820152601660248201527524b5b4b6b4b7309d1032bc34b9ba34b733903637b0b760511b6044820152606401610425565b336000908152610133602052604090206004015461283990600390614eb8565b8211156128925760405162461bcd60e51b815260206004820152602160248201527f496b696d696e613a206578636565647320337820736176696e6773206c696d696044820152601d60fa1b6064820152608401610425565b61012f548211156128e55760405162461bcd60e51b815260206004820152601a60248201527f496b696d696e613a20696e73756666696369656e7420706f6f6c0000000000006044820152606401610425565b6064603261012f546128f79190614eb8565b6129019190614ecf565b82111561295b5760405162461bcd60e51b815260206004820152602260248201527f496b696d696e613a206578636565647320706f6f6c20736166657479206c696d6044820152611a5d60f21b6064820152608401610425565b6064601e61012f5461296d9190614eb8565b6129779190614ecf565b8261012f546129869190614ea5565b10156129e25760405162461bcd60e51b815260206004820152602560248201527f496b696d696e613a2076696f6c61746573207265736572766520726571756972604482015264195b595b9d60da1b6064820152608401610425565b60006129ed83614359565b90508015612ad9576129ff338461443e565b6101398054906000612a1083614f1a565b909155505060408051848152600160208201524281830152905133916000917f608072217ac12ecb440a970864481103409d4272dfead9e8d6e2fc257ac1edf09181900360600190a3337fcdf1eb0210cb841128b39316783d3a15af747c2e341274f54f90acc4d809f62084612710612a8b6101f483614eb8565b612a959190614ecf565b612a9f9087614ef1565b612aac62278d0042614ef1565b6040805193845260208401929092529082015242606082015260800160405180910390a250600092915050565b6101388054906000612aea83614f1a565b909155506040805160a0810182523380825260208083018881524284860181815260006060808801828152608089018381528b845261013588528a842099518a546001600160a01b039091166001600160a01b0319909116178a5595516001808b0191909155935160028a01555160039098018054955115156101000261ff00199915159990991661ffff1990961695909517979097179093558483526101348452868320600401805460ff1916909117905585518a8152928301919091529381019390935292945084917f608072217ac12ecb440a970864481103409d4272dfead9e8d6e2fc257ac1edf0910160405180910390a350919050565b505b919050565b61012d546001600160a01b03163314612c185760405162461bcd60e51b815260040161042590614f67565b612c20614619565b47811115612c705760405162461bcd60e51b815260206004820152601d60248201527f496b696d696e613a20696e73756666696369656e742062616c616e63650000006044820152606401610425565b6000826001600160a01b03168260405160006040518083038185875af1925050503d8060008114612cbd576040519150601f19603f3d011682016040523d82523d6000602084013e612cc2565b606091505b5050905080612d135760405162461bcd60e51b815260206004820152601860248201527f496b696d696e613a207472616e73666572206661696c656400000000000000006044820152606401610425565b505050565b612d206141bc565b61013b612d2d8282615034565b504261013c81905560405130917f2b4b14443d4e94476e173f2c5c72b9d60aecb1a98c6c8a1f1165373e186ceb2591611477918591615241565b336000908152610133602052604090206007015460ff166001816003811115612d9257612d926149b8565b1480612daf57506002816003811115612dad57612dad6149b8565b145b80612dcb57506003816003811115612dc957612dc96149b8565b145b612de75760405162461bcd60e51b8152600401610425906151d3565b612def613dec565b612df7613fb1565b600082815261013560205260409020600381015460ff16158015612e2557506003810154610100900460ff16155b612e715760405162461bcd60e51b815260206004820152601a60248201527f496b696d696e613a20616c72656164792070726f6365737365640000000000006044820152606401610425565b600181546001600160a01b031660009081526101346020526040902060049081015460ff1690811115612ea657612ea66149b8565b14612eea5760405162461bcd60e51b8152602060048201526014602482015273496b696d696e613a206e6f742070656e64696e6760601b6044820152606401610425565b61012f5481600101541115612f415760405162461bcd60e51b815260206004820152601a60248201527f496b696d696e613a20696e73756666696369656e7420706f6f6c0000000000006044820152606401610425565b60038101805460ff19166001908117909155815490820154612f6c916001600160a01b03169061443e565b61013a8054906000612f7d83614f1a565b909155505080546001820154604080519182524260208301526001600160a01b039092169185917fb2c6de76341d4f1188da5458fd8729cbc0e9278f99e8992f40f36900bcef78cb910160405180910390a350611e71600160c955565b61012d546001600160a01b031633146130055760405162461bcd60e51b815260040161042590614f67565b6001600160a01b0381166130535760405162461bcd60e51b8152602060048201526015602482015274496b696d696e613a207a65726f206164647265737360581b6044820152606401610425565b61012e80546001600160a01b0319166001600160a01b0392909216919091179055565b61012d546001600160a01b031633146130a15760405162461bcd60e51b815260040161042590614f67565b6001600160a01b03821660009081526101336020526040902060030154600160a01b900460ff166131145760405162461bcd60e51b815260206004820152601e60248201527f496b696d696e613a206d656d626572206e6f74207265676973746572656400006044820152606401610425565b6001600160a01b038216600090815261013360205260409020600701805460ff811691839160ff19166001836003811115613151576131516149b8565b0217905550826001600160a01b03167fbb3864d65ad50221bf63f66d2c877516c2a835e23ebcdaee64d6743d2e7731fc82844260405161319393929190615263565b60405180910390a2505050565b61013781815481106131b157600080fd5b6000918252602090912001546001600160a01b0316905081565b60006064603261012f54610d569190614eb8565b6001600160a01b03811660009081526101336020526040812060030154600160a01b900460ff16158061323657506001600160a01b03821660009081526101336020526040902060030154600160a81b900460ff16155b1561324357506000919050565b6001600160a01b038216600090815261013360205260409020600401546122a190600390614eb8565b3360009081526101336020526040902060030154600160a01b900460ff1680156132b057503360009081526101336020526040902060030154600160a81b900460ff165b6132cc5760405162461bcd60e51b815260040161042590614f9e565b6132d4613dec565b6132dc613fb1565b66038d7ea4c6800034101561333f5760405162461bcd60e51b815260206004820152602360248201527f496b696d696e613a2062656c6f77206d696e696d756d20636f6e74726962757460448201526234b7b760e91b6064820152608401610425565b336000908152610133602052604081206004018054349290613362908490614ef1565b925050819055503461012f600082825461337c9190614ef1565b909155505033600081815261013360209081526040918290206004015461012f548351348152928301919091528183015242606082015290517f38eaf060ddec1dde1c99c9cce5c8f34a03c48e9368f6ff7b768898f6278605809181900360800190a261109a600160c955565b6001600160a01b0381166000908152610133602052604081206007015460ff16600181600381111561341d5761341d6149b8565b148061343a57506002816003811115613438576134386149b8565b145b8061345657506003816003811115613454576134546149b8565b145b9392505050565b336000908152610133602052604090206007015460ff166001816003811115613488576134886149b8565b14806134a5575060028160038111156134a3576134a36149b8565b145b806134c1575060038160038111156134bf576134bf6149b8565b145b6134dd5760405162461bcd60e51b8152600401610425906151d3565b6001600160a01b038216600090815261013460205260409020600260048083015460ff1690811115613511576135116149b8565b146135585760405162461bcd60e51b815260206004820152601760248201527624b5b4b6b4b7309d1037379030b1ba34bb32903637b0b760491b6044820152606401610425565b806003015442116135ab5760405162461bcd60e51b815260206004820152601960248201527f496b696d696e613a206c6f616e206e6f74206f766572647565000000000000006044820152606401610425565b6000816002015482600101546135c19190614ea5565b9050600081116136135760405162461bcd60e51b815260206004820152601860248201527f496b696d696e613a20616c726561647920736574746c656400000000000000006044820152606401610425565b600061271061362360c884614eb8565b61362d9190614ecf565b9050808360010160008282546136439190614ef1565b90915550506004838101805460ff19169091179055604080518281524260208201526001600160a01b038716917fcf40cadcd86c14cb7e696a86578255719f67bc54bf991d45d267ee6e01467c19910160405180910390a26001600160a01b0385167f2846d120b0ac120b4495cd52f69d161236e146706bc5e2b85d01884744797c806136d08385614ef1565b6003860154604080519283526020830191909152429082015260600160405180910390a25050505050565b3360009081526101336020526040902060030154600160a01b900460ff16801561373f57503360009081526101336020526040902060030154600160a81b900460ff165b61375b5760405162461bcd60e51b815260040161042590614f9e565b613763613dec565b61376b613fb1565b600081116137bb5760405162461bcd60e51b815260206004820152601b60248201527f496b696d696e613a20616d6f756e74206d757374206265203e203000000000006044820152606401610425565b60023360009081526101346020526040902060049081015460ff16908111156137e6576137e66149b8565b036138335760405162461bcd60e51b815260206004820181905260248201527f496b696d696e613a20726570617920616374697665206c6f616e2066697273746044820152606401610425565b33600090815261013360205260409020600401548111156138965760405162461bcd60e51b815260206004820152601d60248201527f496b696d696e613a20696e73756666696369656e7420736176696e67730000006044820152606401610425565b8061012f5410156138f55760405162461bcd60e51b8152602060048201526024808201527f496b696d696e613a20696e73756666696369656e7420706f6f6c206c697175696044820152636469747960e01b6064820152608401610425565b336000908152610133602052604081206004018054839290613918908490614ea5565b925050819055508061012f60008282546139329190614ea5565b9091555050336000818152610133602090815260409182902060040154825185815291820152428183015290517fa7b927747255bae4c9b535ee84804707f42b787d2a0c4a461f0c3a77f91ea82c9181900360600190a2604051600090339083908381818185875af1925050503d80600081146139cb576040519150601f19603f3d011682016040523d82523d6000602084013e6139d0565b606091505b50509050806139f15760405162461bcd60e51b81526004016104259061520a565b50611d6f600160c955565b613a046141bc565b6001600160a01b038116613a695760405162461bcd60e51b815260206004820152602660248201527f4f776e61626c653a206e6577206f776e657220697320746865207a65726f206160448201526564647265737360d01b6064820152608401610425565b611d6f81614216565b3360009081526101336020526040902060030154600160a01b900460ff168015613ab657503360009081526101336020526040902060030154600160a81b900460ff165b613ad25760405162461bcd60e51b815260040161042590614f9e565b613ada613dec565b613ae2613fb1565b60003411613b325760405162461bcd60e51b815260206004820152601e60248201527f496b696d696e613a2072657061796d656e74206d757374206265203e203000006044820152606401610425565b33600090815261013460205260409020600260048083015460ff1690811115613b5d57613b5d6149b8565b14613ba45760405162461bcd60e51b815260206004820152601760248201527624b5b4b6b4b7309d1037379030b1ba34bb32903637b0b760491b6044820152606401610425565b600081600201548260010154613bba9190614ea5565b905060008111613c0c5760405162461bcd60e51b815260206004820152601d60248201527f496b696d696e613a206c6f616e20616c726561647920736574746c65640000006044820152606401610425565b6000813411613c1b5734613c1d565b815b90506000613c2b8234614ea5565b905081846002016000828254613c419190614ef1565b925050819055508161012f6000828254613c5b9190614ef1565b90915550506001840154845460009190613c759082614ea5565b613c7f9085614eb8565b613c899190614ecf565b90508061013660006101325481526020019081526020016000206002016000828254613cb59190614ef1565b90915550506001850154600286015410801590613cdc5760048601805460ff191660031790555b336001600160a01b03167fe627c02a755f08984abd2c21256818bf256e5d05844b76056c4e621785908a098588600201548960010154613d1c9190614ea5565b6040805192835260208301919091528415159082015242606082015260800160405180910390a28215613ddc57604051600090339085908381818185875af1925050503d8060008114613d8b576040519150601f19603f3d011682016040523d82523d6000602084013e613d90565b606091505b5050905080613dda5760405162461bcd60e51b8152602060048201526016602482015275125ada5b5a5b984e881c99599d5b990819985a5b195960521b6044820152606401610425565b505b50505050505061109a600160c955565b600260c95403613e3e5760405162461bcd60e51b815260206004820152601f60248201527f5265656e7472616e637947756172643a207265656e7472616e742063616c6c006044820152606401610425565b600260c955565b6000805b61013754811015613efb5761013360006101378381548110613e6d57613e6d614f04565b60009182526020808320909101546001600160a01b0316835282019290925260400190206003015460ff600160a81b9091041615613ef35761013360006101378381548110613ebe57613ebe614f04565b60009182526020808320909101546001600160a01b03168352820192909252604001902060040154613ef09083614ef1565b91505b600101613e49565b5090565b426000613f0f62ed4e0083614ef1565b60408051608081018252848152602080820184815260008385018181526060850182815261013280548452610136865292879020955186559251600186015551600285015590516003909301805460ff191693151593909317909255905482518681529182018490529293507f1ddbc5e006a48d33df8ad1d6858a0b775953ba5d26864f81ae30433229c7862b910160405180910390a25050565b600160c955565b60fb5460ff161561109a5760405162461bcd60e51b815260206004820152601060248201526f14185d5cd8589b194e881c185d5cd95960821b6044820152606401610425565b611d6f6141bc565b7f4910fdfa16fed3260ed0e7147f7cc6da11a60208b5b9406d12a635614ffd91435460ff161561403257612d1383614662565b826001600160a01b03166352d1902d6040518163ffffffff1660e01b8152600401602060405180830381865afa92505050801561408c575060408051601f3d908101601f191682019092526140899181019061528c565b60015b6140ef5760405162461bcd60e51b815260206004820152602e60248201527f45524331393637557067726164653a206e657720696d706c656d656e7461746960448201526d6f6e206973206e6f74205555505360901b6064820152608401610425565b60008051602061530d833981519152811461415e5760405162461bcd60e51b815260206004820152602960248201527f45524331393637557067726164653a20756e737570706f727465642070726f786044820152681a58589b195555525160ba1b6064820152608401610425565b50612d138383836146fe565b614172614619565b60fb805460ff191690557f5db9ee0a495bf2e6ff9c91a7834c1ba4fdd244a5e8aa4e537bd38aeae4b073aa335b6040516001600160a01b03909116815260200160405180910390a1565b6097546001600160a01b0316331461109a5760405162461bcd60e51b815260206004820181905260248201527f4f776e61626c653a2063616c6c6572206973206e6f7420746865206f776e65726044820152606401610425565b609780546001600160a01b038381166001600160a01b0319831681179093556040519116919082907f8be0079c531659141344cd1fd0a4f28419497f9722a3daafe3b4186f6b6457e090600090a35050565b600054610100900460ff1661109a5760405162461bcd60e51b8152600401610425906152a5565b600054610100900460ff166142b65760405162461bcd60e51b8152600401610425906152a5565b61109a614729565b600054610100900460ff166142e55760405162461bcd60e51b8152600401610425906152a5565b61109a614759565b600054610100900460ff166143145760405162461bcd60e51b8152600401610425906152a5565b61109a614780565b614324613fb1565b60fb805460ff191660011790557f62e78cea01bee320cd4e420270b5ea74000d11b0c9f74754ebdbfc544b05a25861419f3390565b33600090815261013360205260408120614374836002614eb8565b61012f5410156143875750600092915050565b828160040154101561439c5750600092915050565b60006064600a61012f546143b09190614eb8565b6143ba9190614ecf565b9050808411156143ce575060009392505050565b6143dc601e62015180614eb8565b82600601546143eb9190614ef1565b4210156143fc575060009392505050565b3360009081526101346020526040902060049081015460ff1681811115614425576144256149b8565b03614434575060009392505050565b5060019392505050565b600061271061444f6101f484614eb8565b6144599190614ecf565b905060006144678284614ef1565b9050600061447862278d0042614ef1565b90506040518060a0016040528085815260200183815260200160008152602001828152602001600260048111156144b1576144b16149b8565b8152506101346000876001600160a01b03166001600160a01b031681526020019081526020016000206000820151816000015560208201518160010155604082015181600201556060820151816003015560808201518160040160006101000a81548160ff0219169083600481111561452c5761452c6149b8565b02179055509050508361012f60008282546145479190614ea5565b909155505060408051858152602081018490529081018290524260608201526001600160a01b038616907fb9cd2512dd634bb7cdbb1dc9fb2d451a57e0dd9724cf51ab8414abfe570199a49060800160405180910390a26000856001600160a01b03168560405160006040518083038185875af1925050503d80600081146145eb576040519150601f19603f3d011682016040523d82523d6000602084013e6145f0565b606091505b50509050806146115760405162461bcd60e51b81526004016104259061520a565b505050505050565b60fb5460ff1661109a5760405162461bcd60e51b815260206004820152601460248201527314185d5cd8589b194e881b9bdd081c185d5cd95960621b6044820152606401610425565b6001600160a01b0381163b6146cf5760405162461bcd60e51b815260206004820152602d60248201527f455243313936373a206e657720696d706c656d656e746174696f6e206973206e60448201526c1bdd08184818dbdb9d1c9858dd609a1b6064820152608401610425565b60008051602061530d83398151915280546001600160a01b0319166001600160a01b0392909216919091179055565b614707836147b3565b6000825111806147145750805b15612d135761472383836147f3565b50505050565b600054610100900460ff166147505760405162461bcd60e51b8152600401610425906152a5565b61109a33614216565b600054610100900460ff16613faa5760405162461bcd60e51b8152600401610425906152a5565b600054610100900460ff166147a75760405162461bcd60e51b8152600401610425906152a5565b60fb805460ff19169055565b6147bc81614662565b6040516001600160a01b038216907fbc7cd75a20ee27fd9adebab32041f755214dbc6bffa90cc0225b39da2e5c2d3b90600090a250565b6060613456838360405180606001604052806027815260200161532d602791396060600080856001600160a01b03168560405161483091906152f0565b600060405180830381855af49150503d806000811461486b576040519150601f19603f3d011682016040523d82523d6000602084013e614870565b606091505b50915091506148818683838761488b565b9695505050505050565b606083156148fa5782516000036148f3576001600160a01b0385163b6148f35760405162461bcd60e51b815260206004820152601d60248201527f416464726573733a2063616c6c20746f206e6f6e2d636f6e74726163740000006044820152606401610425565b5081614904565b614904838361490c565b949350505050565b81511561491c5781518083602001fd5b8060405162461bcd60e51b81526004016104259190614d51565b80356001600160a01b0381168114612be857600080fd5b60006020828403121561495f57600080fd5b61345682614936565b60005b8381101561498357818101518382015260200161496b565b50506000910152565b600081518084526149a4816020860160208601614968565b601f01601f19169290920160200192915050565b634e487b7160e01b600052602160045260246000fd5b600481106149de576149de6149b8565b9052565b60006101408083526149f68184018e61498c565b90508281036020840152614a0a818d61498c565b90508281036040840152614a1e818c61498c565b91505060018060a01b0389166060830152871515608083015286151560a08301528560c08301528460e083015283610100830152614a606101208301846149ce565b9b9a5050505050505050505050565b600060208284031215614a8157600080fd5b5035919050565b6000610120808352614a9c8184018d61498c565b90508281036020840152614ab0818c61498c565b90508281036040840152614ac4818b61498c565b915050871515606083015286151560808301528560a08301528460c08301528360e0830152614af76101008301846149ce565b9a9950505050505050505050565b60008083601f840112614b1757600080fd5b50813567ffffffffffffffff811115614b2f57600080fd5b602083019150836020828501011115614b4757600080fd5b9250929050565b803560048110612be857600080fd5b60008060008060008060008060a0898b031215614b7957600080fd5b883567ffffffffffffffff80821115614b9157600080fd5b614b9d8c838d01614b05565b909a50985060208b0135915080821115614bb657600080fd5b614bc28c838d01614b05565b909850965060408b0135915080821115614bdb57600080fd5b50614be88b828c01614b05565b9095509350614bfb905060608a01614936565b9150614c0960808a01614b4e565b90509295985092959890939650565b600581106149de576149de6149b8565b600060c082019050878252866020830152856040830152846060830152836080830152614c5860a0830184614c18565b979650505050505050565b634e487b7160e01b600052604160045260246000fd5b600067ffffffffffffffff80841115614c9457614c94614c63565b604051601f8501601f19908116603f01168101908282118183101715614cbc57614cbc614c63565b81604052809350858152868686011115614cd557600080fd5b858560208301376000602087830101525050509392505050565b60008060408385031215614d0257600080fd5b614d0b83614936565b9150602083013567ffffffffffffffff811115614d2757600080fd5b8301601f81018513614d3857600080fd5b614d4785823560208401614c79565b9150509250929050565b602081526000613456602083018461498c565b60008060408385031215614d7757600080fd5b614d8083614936565b946020939093013593505050565b6020808252825182820181905260009190848201906040850190845b81811015614dcf5783516001600160a01b031683529284019291840191600101614daa565b50909695505050505050565b602081016122a182846149ce565b600060a0820190508682528560208301528460408301528360608301526148816080830184614c18565b600060208284031215614e2557600080fd5b813567ffffffffffffffff811115614e3c57600080fd5b8201601f81018413614e4d57600080fd5b61490484823560208401614c79565b60008060408385031215614e6f57600080fd5b614e7883614936565b9150614e8660208401614b4e565b90509250929050565b634e487b7160e01b600052601160045260246000fd5b818103818111156122a1576122a1614e8f565b80820281158282048414176122a1576122a1614e8f565b600082614eec57634e487b7160e01b600052601260045260246000fd5b500490565b808201808211156122a1576122a1614e8f565b634e487b7160e01b600052603260045260246000fd5b600060018201614f2c57614f2c614e8f565b5060010190565b600181811c90821680614f4757607f821691505b602082108103612be657634e487b7160e01b600052602260045260246000fd5b6020808252601c908201527f496b696d696e613a2063616c6c6572206973206e6f742061646d696e00000000604082015260600190565b6020808252601d908201527f496b696d696e613a206e6f7420616e20616374697665206d656d626572000000604082015260600190565b600081614fe457614fe4614e8f565b506000190190565b601f821115612d13576000816000526020600020601f850160051c810160208610156150155750805b601f850160051c820191505b8181101561461157828155600101615021565b815167ffffffffffffffff81111561504e5761504e614c63565b6150628161505c8454614f33565b84614fec565b602080601f831160018114615097576000841561507f5750858301515b600019600386901b1c1916600185901b178555614611565b600085815260208120601f198616915b828110156150c6578886015182559484019460019091019084016150a7565b50858210156150e45787850151600019600388901b60f8161c191681555b5050505050600190811b01905550565b606081528360608201528385608083013760006080858301015260006080601f19601f870116830101905061512c60208301856149ce565b82604083015295945050505050565b6020808252602c908201527f46756e6374696f6e206d7573742062652063616c6c6564207468726f7567682060408201526b19195b1959d85d1958d85b1b60a21b606082015260800190565b6020808252602c908201527f46756e6374696f6e206d7573742062652063616c6c6564207468726f7567682060408201526b6163746976652070726f787960a01b606082015260800190565b60208082526017908201527f496b696d696e613a206e6f7420617574686f72697a6564000000000000000000604082015260600190565b6020808252601c908201527f496b696d696e613a20455448207472616e73666572206661696c656400000000604082015260600190565b604081526000615254604083018561498c565b90508260208301529392505050565b6060810161527182866149ce565b61527e60208301856149ce565b826040830152949350505050565b60006020828403121561529e57600080fd5b5051919050565b6020808252602b908201527f496e697469616c697a61626c653a20636f6e7472616374206973206e6f74206960408201526a6e697469616c697a696e6760a81b606082015260800190565b60008251615302818460208701614968565b919091019291505056fe360894a13ba1a3210667c828492db98dca3e2076cc3735a920a3ca505d382bbc416464726573733a206c6f772d6c6576656c2064656c65676174652063616c6c206661696c6564a26469706673582212201f0f779c57780528923d7466ed6d16fedf7dba1d28942474d301a1a986ee676764736f6c63430008180033",
  "linkReferences": {},
  "deployedLinkReferences": {}
}